:100000000C9438070C948A070C948A070C948A077E
:100010000C948A070C948A070C948A070C948A071C
:100020000C948A070C948A070C941B270C94EB27DA
:100030000C94B81A0C948A070C948A070C948A07BB
:100040000C948A070C948A070C948A070C948A07EC
:100050000C948A070C942C1B0C948A070C948A0726
:100060000C948A070C948A070C948A070C948A07CC
:100070000C948A070C948A070C948A070C948A07BC
:100080000C948A070C948A070C948A070C948A07AC
:100090000C948A070C948A070C948A070C948A079C
:1000A0000C948A070C948A070C948A070A0025305E
:1000B000313662003A200025303258000A722F6330
:1000C00020303132333435363738394142434445B4
:1000D000460A0002E12703E16F0002E12703E16124
:1000E00000155C3A003B003C003D003E003F0040F4
:1000F00000410042004300440045004A004C0033E8
:100100000032001E001F00200021002200230024D6
:10011000002500260027002D002E0000002A0034B4
:10012000002B0014001A000800150017001C00180E
:10013000000C0012001300DE5C0000300031002FC4
:1001400000390004001600070009000A000B000D2A
:10015000000E000F00DD5C0000DC5C000028004B9E
:1001600000E1001D0000001B000600190005001141
:100170000010003600370038000000E50052004E45
:1001800000E000E300E2000000000000002C00009E
:100190000000000000E60049008400500051004FBC
:1001A0000044454255473A20656E61626C65642E95
:1001B0000A0000000000000000002A2B28000000B8
:1001C0000000000000000000000000000029000006
:1001D00000002C1E3420212224342627252E362DE3
:1001E0003738271E1F202122232425263333362E7D
:1001F00037381F0405060708090A0B0C0D0E0F10EF
:100200001112131415161718191A1B1C1D2F313033
:10021000232D350405060708090A0B0C0D0E0F10D7
:100220001112131415161718191A1B1C1D2F313013
:10023000354C00000000000000000000000000003D
:1002400000000000000000000000000000000000AE
:100250000000000101010101010001010101000094
:10026000000000000000000000000000010001008C
:10027000010101010101010101010101010101016E
:100280000101010101010101010101010100000061
:10029000010100000000000000000000000000005C
:1002A000000000000000000000000000000101014B
:1002B00001000A002530325820006B6579626F61B9
:1002C00072645F7265706F72743A20000A002530A4
:1002D0003258006B6579626F6172645F7365745F39
:1002E0006C65643A2000290A002575002F002575E9
:1002F000005D28002564002000256400200025649E
:100300000020002564007C0025303258006D6F7598
:1003100073656B6579205B62746E7C7820792076DA
:1003200020685D287265702F61636C293A205B003C
:100330006D6B5F776865656C5F74696D655F746F21
:100340005F6D6178203D2025640A006D6B5F7768E2
:1003500065656C5F6D61785F7370656564203D20D5
:1003600025640A006D6B5F74696D655F746F5F6D06
:100370006178203D2025640A006D6B5F6D61785FB8
:100380007370656564203D2025640A006D6B5F69AC
:100390006E74657276616C203D2025640A006D6B79
:1003A0005F64656C6179203D2025640A006D6B5F98
:1003B000776865656C5F74696D655F746F5F6D61AB
:1003C00078203D2025640A006D6B5F776865656C59
:1003D0005F6D61785F7370656564203D2025640AF8
:1003E000006D6B5F74696D655F746F5F6D61782020
:1003F0003D2025640A006D6B5F6D61785F737065E9
:100400006564203D2025640A006D6B5F696E74652C
:100410007276616C203D2025640A006D6B5F646517
:100420006C6179203D2025640A000A00257500369C
:100430003A20776865656C5F74696D655F746F5F9E
:100440006D61783A20000A00257500353A207768FA
:1004500065656C5F6D61785F73706565643A2000F7
:100460000A00257500343A2074696D655F746F5F0A
:100470006D61783A20000A00257500333A206D61DD
:10048000785F73706565643A20000A002575003254
:100490003A20696E74657276616C286D73293A2012
:1004A000000A00257500313A2064656C6179282ABC
:1004B00031306D73293A20000A092D2056616C7580
:1004C0006573202D0A004D3E004D25643E20003FFF
:1004D000007365742064656661756C740A00433E40
:1004E000200077686572652064656C74613A2063EA
:1004F0007572736F723D25642C20776865656C3D5D
:1005000025640A53656520687474703A2F2F656EF0
:100510002E77696B6970656469612E6F72672F77DA
:10052000696B692F4D6F7573655F6B6579730A0031
:100530000A092D204D6F7573656B6579202D0A456D
:1005400053432F713A09717569740A313A09646528
:100550006C6179282A31306D73290A323A09696E43
:1005600074657276616C286D73290A333A096D617E
:10057000785F73706565640A343A0974696D655F04
:10058000746F5F6D61780A353A09776865656C5FED
:100590006D61785F73706565640A363A09776865DE
:1005A000656C5F74696D655F746F5F6D61780A0A71
:1005B000703A097072696E742076616C7565730AA1
:1005C000643A097365742064656661756C74730AB6
:1005D00075703A092B310A646F776E3A092D310A2A
:1005E000706775703A092B31300A7067646F776EE7
:1005F0003A092D31300A0A7370656564203D206424
:10060000656C7461202A206D61785F737065656424
:10061000202A2028726570656174202F2074696D0E
:10062000655F746F5F6D6178290A003F004D3E2061
:1006300000433E20004C25640A0074696D65725FBA
:1006400072656164333228293A202530346C580AA7
:10065000006B6579626F6172645F69646C653A20F2
:1006600025580A006B6579626F6172645F70726F02
:10067000746F636F6C3A2025580A00686F73745F5B
:100680006B6579626F6172645F6C65647328293A87
:100690002025580A000A092D2053746174757320AF
:1006A0002D0A004743433A20372E332E302041563F
:1006B000522D4C4942433A20322E302E30204156A2
:1006C000525F415243483A20617672350A004F50DA
:1006D00054494F4E533A204C554641204D4F5553A7
:1006E000454B45592045585452414B455920434F9D
:1006F0004E534F4C4520434F4D4D414E44203430D6
:1007000039360A004255494C443A2022302E362EC2
:1007100035342D33342D676265373735652D64697F
:1007200072747922202831363A32393A30342041F5
:1007300075672032312032303138290A0056494459
:100740003A2030784645454428517569646F33290D
:10075000205049443A20307836303630284D69727E
:10076000616929205645523A203078303030310ABC
:1007700000444553433A20514D4B204B6579626FFD
:10078000617264204669726D77617265206F7220B4
:100790004D69726169204B42442077697468204238
:1007A000545F737570706F72740A000A092D2056B9
:1007B000657273696F6E202D0A000A092D20436F40
:1007C0006E736F6C65202D0A4553432F713A097182
:1007D0007569740A6D3A096D6F7573656B65790A91
:1007E000000A092D204D61676963202D0A443A09EA
:1007F0004465627567204D65737361676520546F4A
:1008000067676C650A583A094D61747269782044CB
:1008100065627567204D6F646520546F67676C650E
:10082000202D2053686F77206B6579707265737324
:10083000657320696E206D617472697820677269D2
:10084000640A4B3A094B6579626F617264204465B2
:1008500062756720546F67676C65202D2053686F41
:1008600077206B65797072657373207265706F7233
:10087000740A4D3A094465627567204D6F7573655A
:1008800020546F67676C650A563A0956657273693A
:100890006F6E0A533A095374617475730A433A09C7
:1008A000416374697661746520436F6E736F6C6524
:1008B000204D6F64650A46312D4631303A09537731
:1008C0006974636820746F204C6179657220302DE3
:1008D000392028463130203D204C30290A302D392E
:1008E0003A0953776974636820746F204C617965A5
:1008F0007220302D390A4553433A0953776974639E
:100900006820746F204C6179657220302028616CFA
:100910007465726E617465206B65792031290A47B0
:10092000524156453A0953776974636820746F20C1
:100930004C6179657220302028616C7465726E613B
:100940007465206B65792032290A50415553453A28
:10095000094A756D7020746F20426F6F746C6F61FF
:1009600064657220285265736574290A003F000A85
:100970006D6F7573653A206F66660A000A6D6F7554
:1009800073653A206F6E0A000A6B6579626F617257
:10099000643A206F66660A000A6B6579626F61725D
:1009A000643A206F6E0A000A6D61747269783A20A9
:1009B0006F66660A000A6D61747269783A206F6E1C
:1009C0000A000A64656275673A206F66660A000A63
:1009D00064656275673A206F6E0A000A0A4A756D8F
:1009E00070696E6720746F20626F6F746C6F6164E2
:1009F00065722E2E2E2000433E20004B6579626FDB
:100A00006172642073746172742E0A005B575D001A
:100A10005B535D005B525D005B445D005B435D00CA
:100A20000403300000000C034D00690072006100F7
:100A3000690000000E0351007500690064006F003A
:100A4000330000000403090409027400040100A03B
:100A5000FA0904000001030101000921110100014C
:100A60002240000705810308000A09040100010370
:100A7000010200092111010001224D000705820336
:100A800008000A0904020001030000000921110105
:100A900000012236000705830308000A0904030049
:100AA00002030000000921110100012222000705B4
:100AB0008403200001070504032000011201100136
:100AC00000000008EDFE6060010001020301063134
:100AD000FF0974A1010975150026FF00952075080E
:100AE00081020976150026FF00952075089102C045
:100AF00005010980A10185021601002603001A8163
:100B0000002A8300751095018100C0050C0901A120
:100B1000018503160100269C021A01002A9C027519
:100B20001095018100C005010902A1010901A10080
:100B30000509190129051500250195057501810291
:100B40009501750381010501093009311581257F62
:100B500095027508810609381581257F950175086C
:100B60008106050C0A38021581257F9501750881DB
:100B700006C0C005010906A101050719E029E7150E
:100B8000002501950875018102950175088101050F
:100B900008190129059505750191029501750391C3
:100BA000010507190029FF150026FF0095067508A5
:100BB0008100C07761697420666F7220627566205B
:100BC00073706163650A0041542B424C45484944A7
:100BD0004D4F555345425554544F4E3D0041542BB3
:100BE000424C454849444D4F5553454D4F56453D60
:100BF00025642C25642C25642C25640041542B424B
:100C00004C45484944434F4E54524F4C4B45593D37
:100C10003078253034780041542B424C454B4559AF
:100C2000424F415244434F44453D253032782D30A8
:100C3000302D253032782D253032782D2530327800
:100C40002D253032782D253032782D253032780020
:100C500073656E64206C6174656E63792025646DC4
:100C6000730A0041542B4857564241540041542BBB
:100C7000474150474554434F4E4E0041542B455633
:100C8000454E54454E41424C453D3078320041542A
:100C90002B4556454E54454E41424C453D307831EA
:100CA000002A2A2A2A2A2A20424C45204449534312
:100CB0004F4E4E454354212121210A002A2A2A2A37
:100CC0002A2A20424C4520434F4E4E454354212171
:100CD00021210A006661696C656420424C452063ED
:100CE0006F6D6D616E643A2025533A2025730A00BA
:100CF000820D150D3B0D2D0DFC0C110D41542B4299
:100D00004C45504F5745524C4556454C3D2D313280
:100D10000041545A0041542B474150494E544552CA
:100D200056414C533D31302C33302C2C0041542B48
:100D3000424C45484944454E3D310041542B4741C2
:100D4000504445564E414D453D4D697261692051B3
:100D50004D4B204B6579626F617264204669726DFC
:100D600077617265206F72204D69726169204B4214
:100D70004420776974682042545F737570706F7295
:100D800074004154453D30007761697465642025E5
:100D9000646D7320666F7220726573705F62756632
:100DA0000A00626C652073656E643A2025730A0040
:100DB000726573756C743A2025730A004F4B00738B
:100DC0006465705F726563765F706B7420666169DD
:100DD0006C65640A0077616974206F6E20627566C5
:100DE00020666F722025730A006661696C65642055
:100DF000746F2073656E642C2077696C6C2072654B
:100E00007472790A0073656E645F6275665F7365FC
:100E10006E645F6F6E653A20686176652025642098
:100E200072656D61696E696E670A007761697469E0
:100E30006E675F666F725F726573756C743A20746B
:100E4000696D656F75742C20726573705F6275666D
:100E50002073697A652025640A0072656376206CC8
:100E60006174656E63792025646D730A00004730F4
:100E700011241FBECFEFDAE0DEBFCDBF04B603FE04
:100E800027C08091AB039091AC03A091AD03B091CA
:100E9000AE038730904BA740B04BD1F41092AB0318
:100EA0001092AC031092AD031092AE0314BE84B73F
:100EB000877F84BF0FB6F894A89580916000886101
:100EC00080936000109260000FBEE0E0F8E30995A7
:100ED00011E0A0E0B1E0ECE1F8E602C005900D926F
:100EE000A434B107D9F723E0A4E4B1E001C01D9216
:100EF000AB3AB207E1F717E0C8E3D7E004C02197A7
:100F0000FE010E947030C733D107C9F70E946524E3
:100F10000C940C340C940000FF93EF93E091440187
:100F2000F0914501309709F00995EF91FF910895EF
:100F3000FC018591803011F0EFDFFBCF0895FF2792
:100F4000E0E230E247FF0CC0419597FF09C0EDE2B7
:100F50006095709580959095611D711D811D911D05
:100F600027FF02C0219530E350E2AA27660F771FC2
:100F7000881F991FAA1FA41710F0A41B63955A95E8
:100F8000A9F7AA3008F0A95FA05DAF93F3956115AA
:100F900071058105910541F7ED3211F4EF93F39559
:100FA000F21718F43F93F395FBCF8F91B5DFFA95C5
:100FB000E1F70895E991F9918591803021F085322A
:100FC00019F0AADFF9CF089520E0E8945591553241
:100FD000C1F3503311F4689455915A3348F4505387
:100FE00090F3220F022E220F220F200D250FF4CF97
:100FF0000EF4219589919991533619F3533729F1BC
:10100000533559F1BC0188279927E8945C3621F4BF
:101010008991999168945591543639F446EF7EF050
:1010200077FF0DC08FEF9FEF0AC055374AE039F0C8
:10103000583540E121F0523642E009F00895FF931F
:10104000EF937DDFEF91FF91B7CFFF93EF93FC011B
:1010500081918030B9F360DFFBCFFF93EF9368DFBE
:10106000F1CFDF93CF93CDB7DEB72596A3DFCF9136
:10107000DF910895809A889A08950C9481090C94C0
:1010800082098091D601836088608093D6010E9496
:101090003A08A8E1B1E061E070E08D91E82FE295B7
:1010A000EF70F0E041A18F709B0101C0220F8A9583
:1010B000EAF7922F9095942391A382A1822B82A389
:1010C00081E0AE31B80749F7E6E4F1E0A2E5B1E02E
:1010D000119211921D921D9281E0E235F807C1F73D
:1010E0003E9A46980C949B0B8F929F92BF92CF9200
:1010F000DF92EF92FF920F931F93CF93DF9310E055
:1011000000E088248394912CDD24D394809A8898DD
:10111000A4E1B1E030E020E08D91E82FE295EF709E
:10112000F0E041A18F70B40102C0660F771F8A956D
:10113000E2F7CB01462B41A3A801022E02C0559530
:1011400047950A94E2F792A140FF7BC0892B82A3C6
:101150002F5F3F4F24303105F9F67DE07A95F1F7A6
:101160000000A401002E02C0440F551F0A94E2F7AC
:10117000BA016095709582E5E82E81E0F82EA8E12D
:10118000B1E0F701C12C20813181BD908B2D82957A
:101190008F7090E0EC0188A190E0DB2DDF7002C041
:1011A00095958795DA95E2F780FD4EC0C901842BAD
:1011B000952B91838083808191812817390711F0C5
:1011C000CC24C394329681E0AE31B807E1F60E9498
:1011D0003A08CC2041F0D0925E010E94EA1A909326
:1011E000600180935F010F5F1F4F0031110509F00F
:1011F0008DCF80915E018823B9F080915F0190913D
:1012000060010E94021B069778F0E6E4F1E08EE5AB
:1012100091E0D7012D913D917D01219331938A1762
:101220009B07B9F710925E0181E0DF91CF911F918A
:101230000F91FF90EF90DF90CF90BF909F908F9095
:1012400008958095892383CFC90186239723B1CF41
:10125000CF930E947408C82F0E949D0B8C2FCF91B2
:101260000895E82FF0E0EE0FFF1FEA5BFE4F80814C
:1012700091810895CF92DF92EF92FF920F931F9387
:10128000CF93DF938CEB90E00E94980786E4E82EE2
:1012900081E0F82ED0E0C0E097EBC92E90E0D92E87
:1012A0000EEA10E0DF93CF93DF92CF920E943108D5
:1012B00084EB90E00E949807F701819191917F0162
:1012C0000E94291A9F938F931F930F930E943108B6
:1012D0008CEA90E00E94980721968DB79EB70896F9
:1012E0000FB6F8949EBF0FBE8DBFC630D105D1F6A4
:1012F000DF91CF911F910F91FF90EF90DF90CF90F2
:101300000895089508958C3D2CE5920729F08D3DB0
:101310009C4561F081E00895FB018281882331F0D2
:101320008AED90E00E94980B80E00895FB01828195
:10133000882381F383ED90E0F5CF089581E008954F
:101340000C9483090E941A142FE78AE196E0215039
:1013500080409040E1F700C000000C94521B0F93B6
:101360001F93CF93DF938C01FC01C081D181CE010B
:101370000E940719BE010E94A70BEC01B8010E9450
:10138000A009882309F480C0B801CE010E940C0E88
:10139000882309F479C0C43DFCE5DF0709F41AC1CC
:1013A000B0F5C531ECE5DE07D0F4C230FCE5DF076F
:1013B00008F08CC0C1158CE5D80709F460C0C130B5
:1013C000DC4509F467C081E0809366018093670182
:1013D000C801DF91CF911F910F910C949E09C531E7
:1013E000DC4589F70E94CD19F8019281992309F40F
:1013F0003DC18A7A91E009F490E0909361018111F6
:1014000033C189E20E9456190E949A193DC0C93D14
:101410008CE5D80709F44CC020F5C53DFCE5DF0795
:1014200009F4FFC0C63DDC4571F6F80182818111E7
:10143000FCC080916701811115C180916401909178
:1014400065010E94021B883C910508F00BC180E2F7
:101450000E94471188E20E94161088E20E94F11053
:1014600013C0CA3DECE5DE0759F1CB3DDC4509F080
:10147000AACFF8018281882339F083E01EC0F801E9
:10148000828181110E94A20980E0DF91CF911F919A
:101490000F910895F80182818823B1F38091D601DC
:1014A00081608093D60181EA91E00E949807ECCF99
:1014B000F8018281882341F380E00E94F724E4CF81
:1014C000F8018281882301F382E0F7CFF80182815D
:1014D000882309F47DCF0E94501A811102C00E9416
:1014E000361A0E94631A90E090939D0380939C03A8
:1014F000FE01E350FC4580919C038160E231F105DF
:10150000C8F4EB57F54F0C947030970AA30AA70A5A
:10151000AB0AAF0AB30AB70ABB0ABF0AC30AC70AB3
:10152000CB0ACF0AD30AD70ADB0ADF0AE30A809183
:101530009C03826080939C0380919C030E94671AA5
:101540000E941A14A1CF80919C038460F3CF8091F4
:101550009C038860EFCF80919C038061EBCF8091EA
:101560009C038062E7CF80919C038064E3CF8091ED
:101570009C038068DFCF80919C038460EACF8091D8
:101580009C038E7FD7CF80919C038D7FD3CF80919A
:101590009C038B7FCFCF80919C03877FCBCF8091A3
:1015A0009C038F7EC7CF80919C038F7DC3CF80919A
:1015B0009C038F7BBFCF80919C038F77BBCF8091A3
:1015C0009C038B7FEACF90919C03892F97FB87F92F
:1015D0008058B0CFF8018281882361F010926601B3
:1015E0000E94EA1A909363018093620182E00E9454
:1015F00040114ACF8091660181110FC08091620134
:10160000909163010E94021B883C910530F486E2B0
:101610000E94161086E20E94F11082E00E9447119B
:1016200033CFF8018281882351F0109267010E9424
:10163000EA1A909365018093640180E2D8CF80918B
:10164000670181110FC080916401909165010E9432
:10165000021B883C910530F487E20E94161087E255
:101660000E94F11080E2DACF85E3CCCE8091610157
:10167000811104C089E20E945D19C6CE85E3FBCFCB
:10168000CF9390E0FC01EE54FE4FC4918E5C9D4FD1
:10169000FC018491882369F081EE0E9416108C2F42
:1016A0000E9416108C2F0E94F11081EECF910C94A5
:1016B000F1108C2F0E9416108C2FF8CFFF920F93F1
:1016C0001F93CF93DF938C01F62EF801849188232A
:1016D00049F1E8012196813049F4FE011491812FEE
:1016E0000E941610812F0E94F11006C0823089F4EA
:1016F000FE0184910E9416108E010F5F1F4F8F2DE7
:10170000815018F3EFECF7E03197F1F700C00000DB
:10171000F7CF833019F4FE018491E5CF0E94400B8E
:10172000E801EACFDF91CF911F910F91FF900895CB
:1017300060E00C945E0B0C943D080C943F080C94F4
:101740009D090C949F0B90E080E008950895E72F89
:10175000F0E096E0899FE00DF11D112484E0EE0F8A
:10176000FF1F8A95E1F7E60FF11DEE0FFF1FEF5106
:10177000FF4F859194910895FC01EE0FFF1FEE54E9
:10178000FD4F859194910895CF93DF930E94A70B0D
:101790000E94680DEC018115904508F043C0C11509
:1017A00080E4D80708F00AC1C83ED10528F5C03E3C
:1017B000D10508F09EC0C83AD10580F4C53AD105DC
:1017C00008F08DC0C130D10509F493C020F0C430B9
:1017D000D10508F08EC0D0E0C0E08BC0CD3BD10574
:1017E00008F48BC0CE01805C9109C03CD10598F310
:1017F0000E94BC0BEC017DC0C11520E2D20750F461
:10180000C11581E0D80708F074C0C03FD10518F3B6
:10181000D0656FC0C11520E3D20708F0C5C0CE0166
:101820009F70E6CFC11585E5D80760F5C11524E5A1
:10183000D20708F0F1C0C11582E5D80750F4C115F0
:1018400021E5D20708F4BDC0DC2FCC27C16FD06AD8
:1018500050C09C2F969596959E0123703327C115F5
:10186000D34508F0CAC0C1E0D0E002C0CC0FDD1FF4
:101870002A95E2F720E2929FC0011124C82BD92BB0
:10188000DC6837C0C11529E5D20780F4C11588E5A9
:10189000D80708F0C6C0C11526E5D20708F09BCFCF
:1018A000DC2FCC27CC27DF71D06223C0C1158AE59D
:1018B000D80708F4BBC0CE0190568115904208F0BD
:1018C0008ACF8D2F8F710E94E80DDD27D06290E0C6
:1018D000982F882788279F71C82BD92B0AC0C53A13
:1018E000D10509F4B0C0C63AD10509F4AFC0C3E8C8
:1018F000D0E4CE01DF91CF910895C83AD10509F423
:10190000A8C0C93AD10509F4A7C0CA3AD10509F45B
:10191000A6C0CB3AD10509F4A5C0CC3AD10509F44B
:10192000A4C0CB3BD10509F4A3C0CC3BD10509F43D
:10193000A2C0CD3AD10509F4A1C0C03BD10509F43C
:10194000A0C0CE3AD10509F49FC0CF3AD10509F421
:101950009EC0C13BD10509F49DC0C23BD10509F42D
:101960009CC0C33BD10509F49BC0C43BD10509F41D
:101970009AC0C53BD10509F499C0C63BD10509F40D
:1019800098C0C73BD10509F497C0C83BD10509F4FD
:1019900096C0C93BD10509F495C0CA3BD10509F0F1
:1019A00094C0CAE2D6E4A5CFCE019927D3FF03C0E5
:1019B000EC01D86C9ECFEC01D06C9BCFDF70D06A6D
:1019C00098CFCE01E4E096958795EA95E1F783708C
:1019D0009C2F937021E030E002C0220F331F9A95B4
:1019E000E2F73C68382BC695C695C37080E2C89F65
:1019F000E0011124C22BD32B7CCFC1E0D0E002C088
:101A0000CC0FDD1F2A95E2F720E2929FC00111243E
:101A1000C82BD92BDA686DCFDC2FCC27C46FD06AE6
:101A200068CFDC2FCC27C06FD06A63CFCE0134E003
:101A3000969587953A95E1F78F70CF70C06ED0E09C
:101A4000D06AD82B56CFC1E8D0E453CFC2E8D0E457
:101A500050CFC2EED4E44DCFC9EED4E44ACFCAEEA3
:101A6000D4E447CFC5EBD4E444CFC6EBD4E441CFB4
:101A7000C3EBD4E43ECFC4EBD4E43BCFC7EBD4E418
:101A800038CFCCECD4E435CFCDECD4E432CFC3E8BE
:101A9000D5E42FCFCAE8D5E42CCFC2E9D5E429CFCD
:101AA000C4E9D5E426CFC1E2D6E423CFC3E2D6E42D
:101AB00020CFC4E2D6E41DCFC5E2D6E41ACFC6E2F9
:101AC000D6E417CFC7E2D6E414CFC0E0D4E411CFF8
:101AD0008238910549F1B0F48133910509F45CC075
:101AE00048F48932910509F452C08A32910509F40B
:101AF00058C008958533910509F444C08933910590
:101B000099F00895833E910531F138F4803E9105B6
:101B100091F0823E9105B1F00895863E910511F154
:101B2000873E910541F1089520919C032370C9F0EF
:101B300080EE90E0089520919C0320FF12C089E37D
:101B400090E0089520919C0322FF0BC024FF2EC03B
:101B500090E080E0089520919C0322FD2AC024FD9E
:101B6000F7CF089520919C0323FFFBCF24FDF0CFF6
:101B700087EE90E0089520919C0323FFF0CF86EE3E
:101B800090E0089520919C0325FD16C008952091B2
:101B90009C0325FD14C0089520919C0326FD12C0CE
:101BA000089520919C0326FD10C0089583EE90E0D7
:101BB000089582EE90E0089589E290E0089585E32B
:101BC00090E008958AE290E0089581E390E0C9CF23
:101BD00090919C0392FF06C0282F2871283069F449
:101BE000877F846093FF06C0282F2871283161F415
:101BF000877E846194FD877E0895282F2471243088
:101C000089F78B7F8860EECF282F2471243191F7DC
:101C10008B7E8861EFCF08950F931F93CF938C0134
:101C2000FB018281811106C0C1E08C2FCF911F91F1
:101C30000F910895C0917501C11125C006311C4551
:101C400099F70E940B0E81E0809375010E94EA1AB9
:101C500090937401809373011092680110926A014D
:101C60001092690110926C0110926B0110926E013A
:101C700010926D011092700110926F01109272011A
:101C800010927101D2CF80917301909174010E94E2
:101C9000021B8C32914040F680916801E82FF0E001
:101CA000EE0FFF1FE759FE4F118300838F5F809374
:101CB0006801C0E0BACF90937B0180937A010895C8
:101CC000E0917A01F0917B01309721F00190F08151
:101CD000E02D099480E00895EF92FF920F931F93F7
:101CE000CF93DF938C01E0917A01F0917B013097E3
:101CF000C1F10280F381E02D09958091D60182FF28
:101D000030C080FF04C08AEB92E00E949807D0E0C8
:101D1000C0E084EBE82E82E0F82E8091D60180FFAF
:101D20000EC0F801EC0FFD1F80811F928F93FF9270
:101D3000EF920E9431080F900F900F900F90219614
:101D4000C830D10551F78091D60180FF0AC082EBDF
:101D500092E0DF91CF911F910F91FF90EF900C9443
:101D60009807DF91CF911F910F91FF90EF90089509
:101D7000E0917A01F0917B01309721F00480F581A8
:101D8000E02D099408952091780130917901281768
:101D9000390771F09093790180937801E0917A018D
:101DA000F0917B01309721F00680F781E02D0994B6
:101DB000089520917601309177012817390771F045
:101DC0009093770180937601E0917A01F0917B0105
:101DD000309721F00084F185E02D0994089508954D
:101DE0000C94EF0E81E008950E94E11A85B7806897
:101DF00085BF85B7806885BF0E9441080C94761B1B
:101E0000CF93C82F8091D60182FF1EC080FF04C0EF
:101E100083ED92E00E9498078091D60180FF0CC06C
:101E20001F92CF938EEC92E09F938F930E94310884
:101E30000F900F900F900F908091D60180FF04C0FB
:101E40008CEC92E00E9498078C2FCF910C94A10B00
:101E50005F926F927F928F929F92AF92BF92CF923A
:101E6000DF92EF92FF920F931F93CF93DF93CDB743
:101E7000DEB72A970FB6F894DEBF0FBECDBF0E9423
:101E800028090E94F20E882309F47AC09DE7A92E42
:101E900091E0B92E10E000E088248394912C502E1C
:101EA000802F0E9431097C01F501C190D1905F0122
:101EB000C816D90609F45EC08091D60181FD0E9442
:101EC0003A0990E080E0CE24DF243401082E02C0DD
:101ED000660C771C0A94E2F7960126213721232B02
:101EE00009F443C08E835F82E620F72081E0EF286B
:101EF00009F480E088870E94EA1A8160782F9A8727
:101F000089874E815F8168858A850E94E70F000F6F
:101F1000111FF801E358FE4F8081918168267926D0
:101F2000718260820E948B1D0E94600E90917C01E4
:101F30008917B9F10E94600E80937C012A960FB632
:101F4000F894DEBF0FBECDBFDF91CF911F910F91EF
:101F5000FF90EF90DF90CF90BF90AF909F908F90C9
:101F60007F906F905F900C94000F019680319105E7
:101F700009F0ABCF0F5F1F4F0630110509F08FCF6F
:101F80008FEF89838A831B820E94EA1A8160782FEF
:101F90009D838C8349815A816B818D810E94E70FDB
:101FA000C1CF2A960FB6F894DEBF0FBECDBFDF912A
:101FB000CF911F910F91FF90EF90DF90CF90BF9046
:101FC000AF909F908F907F906F905F900895CF9388
:101FD000DF93CDB7DEB72B970FB6F894DEBF0FBEF9
:101FE000CDBF4F83588769877A878B871E821D8272
:101FF00085E0FE013796DE01119601900D928A95DB
:10200000E1F749815A816B817C818D819E812B967C
:102010000FB6F894DEBF0FBECDBFDF91CF910C9409
:10202000DA16FC01808191810C944919CF93C82F55
:10203000882309F4D4C08238C1F40E94600E81FD67
:10204000CEC089E30E9456190E949A192FEF80E7AB
:1020500092E0215080409040E1F700C0000089E309
:102060000E945D19CF910C949A198338A1F40E94B3
:10207000600E80FDB4C083E50E9456190E949A1933
:102080002FEF80E792E0215080409040E1F700C0C0
:10209000000083E5E5CF8438A1F40E94600E82FD44
:1020A0009EC087E40E9456190E949A192FEF80E77C
:1020B00092E0215080409040E1F700C0000087E4AA
:1020C000CFCF8CEF8C0F813A48F48C2F0E94952053
:1020D000811185C08C2F0E945619C4CF80E28C0FCD
:1020E000883048F4C77081E001C0880FCA95EAF7CC
:1020F0000E94D019B7CF8BE58C0F833068F481E84C
:1021000090E0C53A31F083E890E0C63A11F482E8F5
:1021100090E0CF910C94C30E88E58C0F853108F0C8
:102120005EC082EE90E0C83A09F456C089EE90E0B5
:10213000C93A09F451C08AEE90E0CA3A09F44CC099
:1021400085EB90E0CB3A09F447C086EB90E0CC3ABF
:1021500009F442C083EB90E0CB3BF1F184EB90E0DB
:10216000CC3BD1F187EB90E0CD3AB1F18CEC90E033
:10217000C03B91F18DEC90E0CE3A71F183E891E0B3
:10218000CF3A51F18AE891E0C13B31F182E991E027
:10219000C23B11F184E991E0C33BF1F081E292E0AE
:1021A000C43BD1F083E292E0C53BB1F084E292E01F
:1021B000C63B91F085E292E0C73B71F086E292E087
:1021C000C83B51F087E292E0C93B31F090E080E0FB
:1021D000CA3B11F48AE292E0CF910C94D90ECF91D0
:1021E0000895882309F44BC0823871F40E94600E70
:1021F00081FF45C089E30E9456190E949A1989E31C
:102200000E945D190C949A19833859F40E94600E4B
:1022100080FF35C083E50E9456190E949A1983E514
:10222000EFCF843859F40E94600E82FF28C087E403
:102230000E9456190E949A1987E4E2CF9CEF980FEA
:10224000913AF0F290E2980F983050F4877091E054
:1022500001C0990F8A95EAF7892F0E94D619D2CF2B
:102260009BE5980F933020F490E080E00C94C30E2F
:10227000885A853120F490E080E00C94D90E0895BE
:10228000882321F00E94D0190C949A19089588236C
:1022900021F00E94D6190C949A1908958F929F925A
:1022A000AF92BF92DF92EF92FF920F931F93CF9363
:1022B000DF937C01D62FC72FFC01058102950F709B
:1022C000128111110E94EF190E949319D82E8823B0
:1022D00071F0112331F180E28D0F883010F182E02E
:1022E0000E947D190E94931991E0D82ED926BC2E08
:1022F000B2949FE0B922EB2DF0E0EF57FE4E0C9424
:10230000703093119311E311E3112A12521231121A
:102310003112941231122F132F13B91331123112BB
:10232000C213D12CE4CF0C2F0F70C07F11F0029597
:10233000007F1123A9F0002359F080E28D0F88302F
:1023400010F0D11109C0802F0E94D0190E949A1953
:102350008D2F0E94161014C0802F0E94E119F6CF15
:102360008D2F0E94F110002359F080E28D0F8830EC
:1023700010F0D11124C0802F0E94D6190E949A1902
:10238000DD2009F406C20E94701980FD02C2F70127
:1023900012820E946A190E946B18C7010E94D5130D
:1023A0000E946A19DF91CF911F910F91FF90EF90DA
:1023B000DF90BF90AF909F908F900C948C18802FDF
:1023C0000E94E719DBCFFC2FFF70BF2EC07FC03209
:1023D00019F0B29480EFB822DD2369F0D13049F1D1
:1023E000112391F1002351F1F701858180FFB0CFD6
:1023F0008F70858323C0112381F0011106C00E94D4
:10240000091A8B290E944011BBCF0130C1F70E94ED
:10241000091A8B290E94031AB3CF011106C00E942A
:10242000061A8B2D0E944711ABCF013009F4A8CFBB
:10243000F6CF112329F0063008F0A2CF8B2DE2CF82
:10244000053008F09DCFEDCF002359F38D2F0E946A
:10245000F11096CF8C2F86958695837079F0813018
:10246000B9F098E0B91609F49BC0B91608F488CF02
:1024700086EF8B0D823008F493C082CF8D2F9C2F76
:102480009370111102C090E080E00E94C30E78CFDB
:102490008D2F9C2F9370111102C090E080E00E945C
:1024A000D90E6ECF112309F1D53F99F0D63FB9F07F
:1024B000D43F49F480919603909197038160909363
:1024C0009703809396038D2F0E94121C0E94FE1C7E
:1024D00057CF80919603909197038260F0CF8091BF
:1024E0009603909197038460EACFD53F89F0D63F59
:1024F000A9F0D43F49F480919603909197038E7F81
:1025000090939703809396038D2F0E947A1CDECFC1
:1025100080919603909197038D7FF2CF80919603DF
:10252000909197038B7FECCF8C2F837009F04BC079
:10253000111136C02D2F229526952770220F220FBC
:102540006D2F6F70862E912CB12CA12C022E04C001
:10255000880C991CAA1CBB1C0A94D2F760E070E09E
:10256000CB01D4FF0FC06FE070E080E090E004C0CA
:10257000660F771F881F991F2A95D2F7609570956F
:1025800080959095C695C695C370C23071F0A0F441
:10259000682979298A299B29C13091F00E941D1848
:1025A0000E94600E0E94A10BEBCE682979298A292E
:1025B0009B290E942F18F4CF0E941D18C501B40159
:1025C0000E940B18EDCF8695112311F08C2F81708E
:1025D000882331F32D2F229526952770220F220F65
:1025E0006D2F6F70862E912CB12CA12C022E04C061
:1025F000880C991CAA1CBB1C0A94D2F760E070E0FE
:10260000CB01D4FF0FC06FE070E080E090E004C029
:10261000660F771F881F991F2A95D2F760957095CE
:1026200080959095C695C695C370C23051F080F4E0
:10263000682979298A299B29C13071F00E94E21802
:10264000AFCF682979298A299B290E94F418A8CF3D
:102650000E94E218C501B4010E94D018A1CFE0E2A7
:10266000ED0FE53108F066C0F0E0E75CFC4E0C943D
:1026700070304E134E134E134E134E134E134E1313
:102680004E134E134E134E134E134E134E134E1342
:102690004E135F136D1374137B138513DF708C2F30
:1026A0008F71112331F00E946B188D2F0E94401101
:1026B000D8CE0E948C188D2F0E944711D2CE1123A4
:1026C00041F0053008F0CDCE8C2F8F710E94AF18ED
:1026D000C8CE063008F0C5CEF7CF8C2F8F711123EE
:1026E00039F00E946B18BDCE8C2F8F711123C9F366
:1026F0000E948C18B6CE112329F08C2F8F710E9466
:102700005618AFCE0E945118ACCE112349F0CF71AC
:102710008C2F0E946B1863E08C2F0E947419A1CE3D
:1027200081E00E947D19023008F49BCE82E00E9475
:102730007D1997CE112349F0002321F08D2F0E949F
:1027400016108FCE8C2F8F71CCCF002379F0D93318
:1027500049F4FFEF23EF81E0F15020408040E1F7A2
:1027600000C000008D2F0E94F1107BCE8C2F8F7146
:10277000BFCF4C2F4F706D2FC7010E94A30B0E943B
:102780008317FECD4C2F4F706D2FC7010E94A60BF3
:10279000F7CDDF91CF911F910F91FF90EF90DF90D8
:1027A000BF90AF909F908F9008950F931F93CF93FA
:1027B000DF93EC01988189812B813C81232B39F0B7
:1027C0008F3F19F481E09F3F19F080E001C081E064
:1027D00080FD17C0CE010E94AF09882391F0688167
:1027E00079818A810E9453198C010E9406190E94E6
:1027F0000818B801CE01DF91CF911F910F910C9471
:102800004E11DF91CF911F910F9108950E94EF1902
:102810000E94001A0E9464190E949A190E941F1EA9
:102820000E94FE1C90E080E00E94C30E90E080E0D9
:102830000C94D90E0E94DE190C9406140E944919BA
:10284000E92FE295EF70E250EE30E0F4F0E0E55D64
:10285000FB4E0C9470303914391442144214441451
:1028600042144214421439143914491442144214C3
:102870004914803F19F020F4803E20F481E008954F
:10288000843FE1F380E00895803EC0F3813FD1F7BB
:10289000F5CF93FB882780F90895CF93DF9300D07D
:1028A00000D01F92CDB7DEB70F900F900F900F9012
:1028B0000F90DF91CF910895CF93DF9300D000D098
:1028C00000D0CDB7DEB726960FB6F894DEBF0FBEA8
:1028D000CDBFDF91CF9108951F93CF93DF93C09128
:1028E000890116E080918A018C1304C0DF91CF9199
:1028F0001F910895D0E01C9FF0011D9FF00D112441
:10290000E557FE4F408151816281738184819581B9
:102910000E945C142196C770E5CF4091BB01509195
:10292000BC016091BD017091BE018091BF01909189
:10293000C0010C945C141F93CF93DF938091C0016E
:10294000807FD1F48091BD018823B1F0809189010D
:10295000D0918A01B091BB01C091BC014091BE01F0
:102960005091BF01A1E0BF3F09F0A0E0BA0160951E
:10297000709516E0D81304C0DF91CF911F91089590
:1029800021E04115510521F02A2FCF3F09F020E029
:1029900090E020FD38C0189FF001199FF00D112420
:1029A000E557FE4F21812C132EC020812B132BC005
:1029B0002281211128C0238134812417350700F199
:1029C000241B350B283C3105F0F42091C0012F70F9
:1029D00020612093C00126E0289FF001299FF00D7F
:1029E0001124E057FE4F80818F70806180838BEBD4
:1029F00091E00E94D513DF91CF911F910C946C143C
:102A0000260F371FDFCF01968770B4CFAF92BF92EA
:102A1000CF92DF92EF92FF920F931F93CF93DF93AA
:102A2000CDB7DEB761970FB6F894DEBF0FBECDBF4E
:102A30008C0185E0F801DE011D9601900D928A95CA
:102A4000E1F7D8014C9111965C9111971296EC9098
:102A50003091BB016091BC018091BE019091BF019A
:102A600021E0009731F06F3F19F421E03F3F09F07A
:102A700020E0B22FB170BB2E20FD80C1F801C380D1
:102A8000D480A090BD01AA2009F427C1C816D90698
:102A9000D0F1D601A81BB90BCD01FF24F394883CDB
:102AA000910508F0F12C8091C001982F907FFF20B4
:102AB00009F4CEC0911187C0FE2C651329C03413D0
:102AC00027C0E11025C08F7080618093C0010E94F3
:102AD0008D148BEB91E00E94D5138091C001F80119
:102AE00085838F2D61960FB6F894DEBF0FBECDBFE4
:102AF000DF91CF911F910F91FF90EF90DF90CF90DA
:102B0000BF90AF900895809590958C0D9D1DC5CF79
:102B100081E0CD2831F05F3F19F481E04F3F09F0AB
:102B200080E080FD24C081E08E25F82FF170DF2E3B
:102B300080FF3FC08091890120918A0136E0821395
:102B400018C04D875E878D859E850E944919292F63
:102B500022952F70223008F1243030F59F7009F152
:102B6000D80115969C91907FE1F4FB2CBACF80E0C0
:102B7000DCCF90E0389FF001399FF00D1124E5572C
:102B8000FE4F6181561306C06081461303C0628107
:102B90006E110FC001968770D2CF9F7011F08823FD
:102BA00021F3805E883008F3C8010E94D513BD2C44
:102BB000DCCFEE2009F495CF8091C0018160809335
:102BC000C001F12C8ECF651314C0341312C0E11074
:102BD00010C0F8018583C8010E94D51386E0F80172
:102BE000ABEBB1E001900D928A95E1F70E948D1454
:102BF00078CF4D875E878D859E850E941E14882321
:102C000019F1EE2009F18091C001803270F020911D
:102C1000BB013091BC0138872F831986DB86CA86B9
:102C20008C87CE0107960E94D51386E0F801ABEBA6
:102C3000B1E001900D928A95E1F70E949B140E94E9
:102C40008D14FF24F3944DCFC8010E94D513F9CF02
:102C5000911113C07C2DD98AC88A6E2D89890E9452
:102C60004D148BEB91E00E94D51386E0EBEBF1E085
:102C7000DF011D928A95E9F7B9CF651312C03413AD
:102C800010C0E1100EC0F8018583C8010E94D51361
:102C9000EBEBF1E086E0DF011D928A95E9F7FA2C73
:102CA00020CF4D875E878D859E850E941E148823C8
:102CB00059F2EE2049F28091C001803208F4B5CF7C
:102CC0002091BB013091BC013A8329831B82DD82B4
:102CD000CC828E83CE010196A6CFC816D90638F1D4
:102CE000F601E81BF90BCF01F12C883C910508F0A7
:102CF0003DC0FE2CEE2009F4A7CF651326C0341387
:102D000024C08091C00180FD17C0982F907FA1F052
:102D1000D80115968C931597903F09F45CCF982FA6
:102D2000907F905F8F70892B15968C9354CF8095F0
:102D300090958C0D9D1DD8CF86E0F801ABEBB1E0EE
:102D400001900D928A95E1F7CCCE4D875E878D85F7
:102D50009E850E941E14811168CF8091C001816000
:102D60008093C001C8010E94D513BBCE7C2DD98AA7
:102D7000C88A6E2D89890E944D1477CFEE2009F400
:102D800063CF4D875E878D859E850E941E14F82E29
:102D9000882309F459CF86E0F801ABEBB1E001904C
:102DA0000D928A95E1F78BEB91E00E9411100E9441
:102DB0009B141CCF1F93CF93DF93CDB7DEB72C9717
:102DC0000FB6F894DEBF0FBECDBF4F83588769871B
:102DD0007A878B879C87CE0107960E9406158823E9
:102DE00009F442C09F8188852A853B85232B39F0D1
:102DF0008F3F19F481E09F3F19F080E001C081E02E
:102E000080FD08C04F81588569857A858B859C85B2
:102E10000E945C1416E08091890190918A018917C3
:102E200009F467C0819FC001112485579E4F0E94FD
:102E30000615882309F45DC0E09189011E9FF00109
:102E40001124E557FE4F4081518162817381848155
:102E500095810E945C148091890190E001968770B1
:102E6000992780938901D7CF86E0FE013796DE014E
:102E7000119601900D928A95E1F79F8188852A85A8
:102E80003B85232B39F08F3F19F481E09F3F19F0E8
:102E900080E001C081E080FDBDCF20918A0130E05B
:102EA000C901019687709927409189014817190631
:102EB00099F096E0929FD001939FB00D1124A557F1
:102EC000BE4FFE01319601900D929A95E1F78093E5
:102ED0008A010E946C149ECF0E941A1410928A01DB
:102EE0001092890186E0EBEBF1E0DF011D928A95FB
:102EF000E9F72C960FB6F894DEBF0FBECDBFDF9179
:102F0000CF911F910895EF92FF920F931F93CF934C
:102F1000DF938C01892B81F0F12CEE24E394E801FE
:102F20002196F8018491843770F4843008F05FC0F2
:102F30008130B1F08230A1F1DF91CF911F910F91DB
:102F4000FF90EF900895853709F44CC008F43DC018
:102F50009CE7980F903780F78F770E94F11049C057
:102F60000E5F1F4FFE01849190E2980F983060F43D
:102F70008770FE2D01C0FF0F8A95EAF78F2F0E9400
:102F8000F2190E949A1902C00E9416108F2D8150CA
:102F900030F2EFECF7E03197F1F700C00000F7CF27
:102FA0000E5F1F4FFE01849190E2980F983050F40D
:102FB0008770FE2D01C0FF0F8A95EAF78F2F0E94C0
:102FC000F819DFCF0E94F110E1CF0E5F1F4FFE0115
:102FD000C491C150D8F28FEC97E00197F1F700C08F
:102FE0000000F7CF0E5F1F4FFE01F490CFCF0E947D
:102FF00016108E01CBCF08950E94FB176093C50178
:103000007093C6018093C7019093C8010C94061475
:1030100008950C94FC170F931F930091C501109114
:10302000C6012091C7013091C801602B712B822B02
:10303000932B1F910F910C94FC170F931F930091EA
:10304000C5011091C6012091C7013091C8016023CC
:103050007123822393231F910F910C94FC170F93DC
:103060001F930091C5011091C6012091C7013091B5
:10307000C80160277127822793271F910F910C9415
:10308000FC170C94FB170C9441180E944318609392
:10309000C1017093C2018093C3019093C4010C9449
:1030A000061460E070E0CB010C9445180F931F9359
:1030B00041E050E060E070E08A019B0104C0000F35
:1030C000111F221F331F8A95D2F7C901B8011F9122
:1030D0000F910C9445180F931F9341E050E060E06E
:1030E00070E004C0440F551F661F771F8A95D2F702
:1030F0008091C1019091C201A091C301B091C4011E
:103100008A019B01082B192B2A2B3B2BC901B801E3
:103110001F910F910C9445180F931F9341E050E0BD
:1031200060E070E004C0440F551F661F771F8A954A
:10313000D2F7CB01BA01609570958095909500917A
:10314000C1011091C2012091C3013091C4016023DB
:103150007123822393231F910F910C9445180F9391
:103160001F9341E050E060E070E004C0440F551F41
:10317000661F771F8A95D2F78091C1019091C20195
:10318000A091C301B091C4018A019B0108271927AE
:103190002A273B27C901B8011F910F910C944518AC
:1031A0000F931F930091C1011091C2012091C3019F
:1031B0003091C401602B712B822B932B1F910F91A7
:1031C0000C9445180F931F930091C1011091C201F7
:1031D0002091C3013091C401602371238223932382
:1031E0001F910F910C9445180F931F930091C101EB
:1031F0001091C2012091C3013091C4016027712751
:10320000822793271F910F910C9445180895BF9220
:10321000CF92DF92EF92FF920F931F93CF93DF93A2
:103220008C01C090C101D090C201E090C301F09028
:10323000C4018091C5019091C601A091C701B091D0
:10324000C801C82AD92AEA2AFB2ACFE1D0E0BC2E3D
:10325000D701C6010C2E04C0B695A7959795879502
:103260000A94D2F780FD0EC0219788F7B12C8B2DE0
:10327000DF91CF911F910F91FF90EF90DF90CF9052
:10328000BF900895B8018C2F0E94C40B019761F381
:10329000EECFCF93DF93EC010E940719BE01DF91BF
:1032A000CF910C94C40BCB010C944919682F8091D9
:1032B0000001909101010C94A01A682F80910001E7
:1032C000909101010C94A21A80910001909101014A
:1032D0000C94A41A8091C9018595859585950895CA
:1032E0008091C9018770089598E0899F9001112409
:1032F000622B6093C9010C946B189091C901809561
:1033000089238093C901282F277061F4282F082E64
:10331000000C330B9217130629F08595859585953A
:103320000C948C1808959091C901977081E009F46C
:1033300080E00895E0910001F09101018091D501B4
:103340008083E0910001F091010180819091D4018E
:10335000892B8083E0910001F0910101808190919F
:10336000D301892B80839091CA01992381F0E09148
:103370000001F09101018081892B808380910001FF
:10338000909101010E946C1A81111092CA018091E2
:103390000001909101010C946C0E8091D50108956B
:1033A0009091D501892B8093D5010895982F909500
:1033B0008091D50189238093D50108951092D5017C
:1033C00008959091D401892B8093D4010895982F6A
:1033D00090958091D40189238093D401089510920F
:1033E000D40108959091D301892B8093D30108953E
:1033F000982F90958091D30189238093D3010895CC
:103400001092D30108958093CA0108951092CA01C1
:1034100008958091CA0108959093450180934401D5
:103420000895829590E09C01220F331F220F331FD5
:103430002C7C95958795959587958373282B30E0FF
:10344000C901880F991F8A7A359527952575822B92
:103450000895CF93DF93D92F0E94111AC82F8D2F73
:103460000E94111A9C2FDF91CF9108956DEE7EEF8F
:1034700090E080E00E94BF3360E082E090E00E9434
:10348000AD3360E083E090E00E94AD3360E084E023
:1034900090E00E94AD3360E085E090E00C94AD33A5
:1034A00090E080E00E94A73321E08D3E9E4F09F01E
:1034B00020E0822F089582E090E00C949F3383E017
:1034C00090E00C949F3384E090E00C949F33682F3D
:1034D00084E090E00C94AD33FC0131969C01285FB0
:1034E0003F4F80E0919191118F5FE217F307D1F781
:1034F00008959C01FC0132969FEF80E041914617B0
:1035000051F09F3F19F4411101C0982F8F5F863011
:10351000A9F79F3F09F40895290F311D97FD3A95AA
:10352000F90162830895FC013296089621912613D1
:1035300003C0DF0111971C92E817F907B9F7089546
:103540000C94791A0C94931AFC0111821282138242
:103550001482158216821782089508950C94AD1A6C
:103560000E941A140E94600E0E94A10B0C94AE1AC5
:103570001F920F920FB60F9211248F939F93AF93C8
:10358000BF938091D701811113C0809198039091CE
:103590009903A0919A03B0919B034196A11DB11D7F
:1035A0008093980390939903A0939A03B0939B03FD
:1035B000BF91AF919F918F910F900FBE0F901F9071
:1035C000189582E084BD93E095BD9DE797BD8093FB
:1035D0006E0008952FB7F894809198039091990305
:1035E000A0919A03B0919B032FBF08952FB7F89431
:1035F000609198037091990380919A0390919B0335
:103600002FBF0895CF92DF92EF92FF920F931F93F7
:103610002FB7F894409198035091990360919A03C1
:1036200070919B032FBF6A017B01EE24FF248C0164
:1036300030E020E0C016D106E206F30650F0481B49
:10364000590BCA011F910F91FF90EF90DF90CF901F
:10365000089541505109F3CF78941F920F920FB6FD
:103660000F9211248F939F93AF93BF9380919803F0
:1036700090919903A0919A03B0919B030196A11D8B
:10368000B11D8093980390939903A0939A03B093EC
:103690009B03BF91AF919F918F910F900FBE0F90A1
:1036A0001F90189581E08093E00080E28093D8001D
:1036B0001092C9008FE097E20197F1F700C0000077
:1036C00087E090EBDC018093AB039093AC03A09375
:1036D000AD03B093AE0388E19CE00FB6F894A895D3
:1036E000809360000FBE90936000FFCF0E94501A3D
:1036F000811102C00E94361A0E945B1A8093D60183
:103700000E94631A90E090939D0380939C030E9413
:103710005F1A682F70E090E080E00C9409188091A7
:10372000DA0180FF12C06091050185E0689FB00159
:103730001124759567957595679560387105A8F59D
:1037400061157105A1F1862F089581FF09C060916F
:10375000050185E0689FB001112475956795EDCF4F
:1037600082FF07C06091050185E0689FB0011124C8
:10377000E4CF2091DB012223A9F090910401609114
:10378000050185E0689FB00111242917B0F6269F36
:10379000A001279F500D1124692F70E0CA010E94DB
:1037A0005C30CBCF65E070E0CECF8FE7089581E04D
:1037B00008958091DA0180FF0CC06091030170E0F0
:1037C00075956795759567956115710549F1862F12
:1037D000089581FF06C06091030170E075956795BB
:1037E000F3CF6091030182FD0BC09091DB0199231F
:1037F000A1F06091020180910301961738F0682FC3
:1038000070E06038710500F38FE70895899FC0016B
:10381000112470E00E945C30F4CF61E070E0D7CFFB
:1038200081E00895803F31F40E948F1B8195809341
:10383000DE010895813F19F40E948F1BF8CF823F6B
:1038400031F40E948F1B81958093DD010895833FA1
:1038500019F40E948F1BF8CF893F29F40E94D91BCD
:103860008093DF0108958A3F21F40E94D91B81953E
:10387000F7CF8B3F31F40E94D91B81958093E001F3
:1038800008958C3F19F40E94D91BF8CF843F31F47E
:103890008091DC0181608093DC010895853F21F4F3
:1038A0008091DC018260F7CF863F21F48091DC01BA
:1038B0008460F1CF873F21F48091DC018860EBCFF9
:1038C000883F21F48091DC018061E5CF8D3F31F4A8
:1038D0008091DA0181608093DA0108958E3F21F4AE
:1038E0008091DA018260F7CF8F3FB9F78091DA01DA
:1038F0008460F1CF803FC1F48091DE0187FD10929A
:10390000DE018091DD0181110EC08091DE01811107
:103910000AC08091DF01811106C08091E001811110
:1039200002C01092DB010895813F29F48091DE01ED
:1039300018162CF3E6CF9091DD01823F29F497FF12
:10394000E0CF1092DD01DDCF833F19F41916CCF3DF
:10395000D8CF893F39F48091DF01181694F6109280
:10396000DF01CFCF8A3F29F48091DF0187FFC9CFE4
:10397000F6CF8B3F39F48091E00187FFC2CF1092E0
:10398000E001BFCF8C3F29F48091E0011816BCF311
:10399000B8CF843F31F48091DC018E7F8093DC01CD
:1039A000B0CF853F21F48091DC018D7FF7CF863F3A
:1039B00021F48091DC018B7FF1CF873F21F480914E
:1039C000DC01877FEBCF883F21F48091DC018F7E83
:1039D000E5CF8D3F31F48091DA018E7F8093DA015B
:1039E00090CF8E3F21F48091DA018D7FF7CF8F3F0A
:1039F00009F087CF8091DA018B7FF0CF8091D601DB
:103A000083FF7EC08DE093E00E9498078091DC01E7
:103A10001F928F9388E093E09F938F930E943108C9
:103A200086E093E00E9498078091DD01282F082E00
:103A3000000C330B3F938F9383E093E09F938F931E
:103A40000E94310881E093E00E9498078091DE0196
:103A5000282F082E000C330B3F938F938EEF92E0AC
:103A60009F938F930E9431088CEF92E00E949807F9
:103A70008091DF01282F082E000C330B3F938F938A
:103A800089EF92E09F938F930E94310887EF92E035
:103A90000E9498078091E001282F082E000C330B1C
:103AA0003F938F9384EF92E09F938F930E9431080E
:103AB00081EF92E00E9498078091DB011F928F9323
:103AC0008EEE92E09F938F930E9431088CEE92E0ED
:103AD0000E9498078091DA011F928F9389EE92E0FD
:103AE0009F938F930E94310886EE92E00E94980780
:103AF0008DB79EB74C960FB6F8949EBF0FBE8DBF84
:103B00008CED91E00E94B80E0E94EA1A9093D901C0
:103B10008093D80108951F93CF93DF938091D801AC
:103B20009091D9010E94021BAC019091DB01209180
:103B3000060130E0911106C0209107018AE0289F1C
:103B4000900111244217530780F08091DD01D0913C
:103B5000DE011091DF01C091E00181110AC0D11195
:103B60006AC0111168C0C11166C0DF91CF911F9169
:103B700008959F3F19F09F5F9093DB01181624F47E
:103B80000E948F1B8093DD018091DD0187FF05C0BE
:103B90000E948F1B81958093DD011D1624F40E94E5
:103BA0008F1B8093DE018091DE0187FF05C00E949C
:103BB0008F1B81958093DE013091DD013323C1F0AD
:103BC0002091DE012223A1F045EB3403C001112432
:103BD000892F911101C081E08093DD0145EB240321
:103BE00090011124832F311101C081E08093DE0107
:103BF000111624F40E94D91B8093DF018091DF010C
:103C000087FF05C00E94D91B81958093DF011C1698
:103C100024F40E94D91B8093E0018091E00187FF8A
:103C200005C00E94D91B81958093E001DF91CF915F
:103C30001F910C94FE1C9F3F09F09DCFAECF85E0F5
:103C4000ECEDF1E0DF011D928A95E9F71092DB01BE
:103C50001092DA01089580E395E00E9498071F9280
:103C600081E08F931F9285E08F9382EE94E09F9383
:103C70008F930E9431080F900F900F900F900F902C
:103C80000F900895833009F445C028F4813061F025
:103C9000823049F10895853009F46AC008F451C0B2
:103CA000863009F47CC0089580910701482F460FA3
:103CB0005527551F4F3F510594F4680F6093070136
:103CC000809107011F928F938BE194E09F938F93D4
:103CD0000E9431080F900F900F900F9008958FEF72
:103CE00080930701EDCF80910601482F460F55279D
:103CF000551F4F3F510554F4680F609306018091A2
:103D000006011F928F9389E094E0E0CF8FEF8093BC
:103D10000601F5CF80910501482F460F5527551F05
:103D20004F3F510554F4680F6093050180910501E0
:103D30001F928F9386EF93E0C9CF8FEF8093050199
:103D4000F5CF80910401482F460F5527551F4F3F4F
:103D5000510554F4680F60930401809104011F928F
:103D60008F9381EE93E0B2CF8FEF80930401F5CF74
:103D700080910301482F460F5527551F4F3F51058E
:103D800054F4680F60930301809103011F928F9395
:103D900088EC93E09BCF8FEF80930301F5CF809168
:103DA0000201482F460F5527551F4F3F510554F428
:103DB000680F60930201809102011F928F938DEA38
:103DC00093E084CF8FEF80930201F5CF8330C9F168
:103DD00028F4813061F0823019F10895853009F4BA
:103DE00052C008F43FC0863009F45EC00895809147
:103DF0000701681790F4861B8093070180910701E3
:103E00001F928F938EE993E09F938F930E943108C6
:103E10000F900F900F900F90089510920701EECF22
:103E200080910601681750F4861B809306018091EB
:103E300006011F928F938CE893E0E6CF1092060163
:103E4000F6CF80910501681750F4861B8093050119
:103E5000809105011F928F9389E793E0D5CF10924F
:103E60000501F6CF80910401681750F4861B8093FA
:103E70000401809104011F928F9384E693E0C4CFE4
:103E800010920401F6CF80910301681750F4861B4D
:103E900080930301809103011F928F938BE493E041
:103EA000B3CF10920301F6CF80910201681750F44E
:103EB000861B80930201809102011F928F9380E301
:103EC00093E0A2CF10920201F6CFCF93C82F1F929A
:103ED0008F9385E396E09F938F930E94310861E072
:103EE00070E080E090E004C0660F771F881F991F84
:103EF000CA95D2F70E9409180F900F900F900F905B
:103F0000CF910C941A14873208F040C08E3108F01B
:103F1000FBC08E3009F497C078F4873009F478C07C
:103F20008B3009F45EC0863009F460C08DE699E0FC
:103F30000E94980780E00895863109F4AEC078F4B5
:103F40008031A1F79091D601892F877F93FF8860F8
:103F50008093D60183FF87C08CE799E011C0893137
:103F600009F484C08B3111F79091D601892F8D7F90
:103F700091FF82608093D60181FF62C085EB99E05A
:103F80000E9498078091D601816057C0883349F11B
:103F900050F4893221F0853311F0873239F680E010
:103FA0000E94651F1CC08334D1F328F48A3308F4BF
:103FB000BDCF8953F5CF883409F0B8CF0E941A14C9
:103FC0008BED99E00E9498072FEF89E698E1215048
:103FD00080409040E1F700C000000E94521B81E049
:103FE000089581EE97E00E949807F9CF8091D6015D
:103FF000817F8E7F8093D6018AEB97E00E9498079D
:1040000087EF99E00E94980781E08093E20108958C
:104010009091D601892F8E7F90FF81608093D60189
:1040200080FF03C08FEC99E0DECF82EC99E00E9424
:1040300098078091D601897F877F8093D601CFCF63
:1040400087EA99E0D0CF9091D601892F8B7F92FF9C
:1040500084608093D60182FF03C088E999E090CF05
:1040600088E899E0C0CF8FE699E0BDCF8BEA97E072
:104070000E94980781E797E00E9498078DE397E0F8
:104080000E94980784E097E00E9498078EEC96E0E3
:104090000E94980783EA96E0A6CF85E996E00E9401
:1040A00098070E94600E1F928F938BE796E09F9374
:1040B0008F930E943108809112011F928F9384E6A2
:1040C00096E09F938F930E9431088091EF011F9299
:1040D0008F9381E596E09F938F930E9431080E9411
:1040E000F61A9F938F937F936F938AE396E09F9343
:1040F0008F930E9431088DB79EB742960FB6F89401
:104100009EBF0FBE8DBF6BCF8D514ACF80E008950B
:104110000C9486208E518A3030F4E82FF0E0E25E75
:10412000FE4F8081089580E00895CF93C82F80913D
:10413000E2018130D1F038F0823009F44DC01092A4
:10414000E20180E010C0E0910001F0910101808166
:104150008232B9F78C2F0E94862081111EC08C2FCD
:104160000E94831F8170CF910895E0910001F0912A
:1041700001018081823271F38C2F0E94882081118D
:104180001BC0C431D9F060F4CB3071F0C031D1F034
:104190008BE296E00E94980713C081E090E0E2CFA6
:1041A000C93261F0C833A1F78AEB97E00E94980703
:1041B00081E396E00E94980781E0D4CF1092E2015B
:1041C00080E0D0CF0E942B1E8DE296E00E949807DF
:1041D00082E08093E201F0CFC432C8F4CE3108F01F
:1041E000BEC0CB30E1F040F4C73009F4CCC08FEC56
:1041F00094E00E94980726C0C331C1F1C431B9F7D9
:104200008091E101882351F11092E1010AC0CB3481
:1042100009F4B7C0C8F4C93299F3C83341F70E9412
:104220002B1E8091E101882309F4C4C01F928F9353
:1042300089EC94E09F938F930E9431080F900F9028
:104240000F900F9081E08FCFC13509F494C0C23533
:1042500009F48BC0CE3459F66AE08EC08EED94E03E
:104260000E94980781E08093E2017DCF88EB94E083
:104270000E94980786EA94E00E94980780910701BF
:104280001F928F9383EA94E09F938F930E9431084B
:1042900081EA94E00E9498078FE894E00E949807D2
:1042A000809106011F928F938CE894E09F938F93E7
:1042B0000E9431088AE894E00E9498078BE794E016
:1042C0000E949807809105011F928F9388E794E0E0
:1042D0009F938F930E94310886E794E00E9498078D
:1042E00085E694E00E949807809104011F928F93C5
:1042F00082E694E09F938F930E94310880E694E0D9
:104300000E9498078BE494E00E9498078091030133
:104310001F928F9388E494E09F938F930E943108BB
:1043200086E494E00E9498078FE294E00E94980748
:10433000809102011F928F938CE294E09F938F9360
:104340000E9431088AE294E00E9498078DB79EB7D8
:1043500048960FB6F8949EBF0FBE8DBF62CF8C2FCC
:104360000E948A208093E1015CCF61E08091E101AD
:104370000E94421E56CF61E08091E1010E94E61E3C
:1043800050CF6AE0F3CF8EE18093070182E3809300
:1043900006018AE08093050184E18093040188E0AE
:1043A0008093030188E28093020181ED94E00E94F2
:1043B000980737CF86EC94E01CCF8091EE010895EA
:1043C0009FB7F8941092E5019FBF9091A20394309B
:1043D00009F049C02091E9002F709091EC0090FD08
:1043E00030C090E0922B24E02093E9002091EB0074
:1043F00020FF36C02091EE0027FF32C02091E3015C
:10440000222321F02091E80025FF2AC01092E30129
:1044100026E03091E80035FF16C08093F1008091CE
:10442000E80085FD29C08091E80080FFFCCF8091E5
:10443000E8008E778093E8009F709093E90080E019
:10444000089590E8CFCF3091A203343049F43091F1
:10445000EB0035FD05C0215041F481E08093E3017C
:104460009F709093E9008FEF0895EFECF7E031979C
:10447000F1F700C00000CDCF8FB7F89421E0209372
:10448000E5018FBFD9CFEF92FF921F93CF93DF93B8
:1044900000D01F92CDB7DEB77C010E940925182FEE
:1044A0008DEF810F823080F470E060E0C7010E94E0
:1044B000F62F143059F00F900F900F90DF91CF919D
:1044C0001F91FF90EF9008951230A9F783E0898340
:1044D000FB82EA828093E9008FEF9091E80081509F
:1044E00095FD06C09AE69A95F1F700C08111F5CFC7
:1044F0008091E80085FFDFCF50E040E063E070E0AE
:10450000CE0101960E9410258091E8008E7780935D
:10451000E800D1CFCF93DF9300D01F92CDB7DEB7A5
:104520002091A203243031F522E02983805891099B
:104530009B838A8383E08093E9008FEF9091E8006A
:10454000815095FD06C09AE69A95F1F700C0811159
:10455000F5CF8091E80085FF0DC050E040E063E0BA
:1045600070E0CE0101960E9410258091E8008E77C0
:104570008093E8000F900F900F90DF91CF910895F6
:104580000F931F93CF93DF93EC010E940925182FFF
:104590008DEF810F823070F408812C814B816A810C
:1045A00089810E941C30143039F0DF91CF911F9126
:1045B0000F9108951230C9F782E08093E9008FEFE0
:1045C0009091E800815095FD06C09AE69A95F1F722
:1045D00000C08111F5CF8091E80085FFE6CF50E063
:1045E00040E065E070E0CE010E9410258091E80077
:1045F0008E778093E800D9CF1F93CF93DF93EC01A0
:104600000E940925182F8DEF810F823068F446E053
:10461000BE016E5F7F4F88810E948C2F143031F075
:10462000DF91CF911F9108951230D1F781E08093EF
:10463000E9008FEF9091E800815095FD06C09AE661
:104640009A95F1F700C08111F5CF8091E80085FFC0
:10465000E7CF50E040E068E070E0CE010E94102516
:104660008091E8008E778093E80088E0FE01A6EE56
:10467000B1E001900D928A95E1F7D2CF8CE19AE0FA
:104680000E9498078091A103811109C00E94A02671
:104690000E94FD268091E20084608093E2000895EC
:1046A00088E19AE00E9498071092A103089584E19E
:1046B0009AE00C94980780E19AE00C9498078CE0BB
:1046C0009AE00E9498070C94B01A2091E4012F5FA1
:1046D000822F62E30E945030992319F02093E40165
:1046E00008951092E4018091E5018823E9F080911A
:1046F000A2038430B9F49091E9009F708091EC009E
:1047000080FD13C080E0892B94E09093E9009091A4
:10471000EB0090FF04C09091EE0097FD0AC08F70EF
:104720008093E9001092E501089580E8ECCF1092A3
:10473000F1009091E80095FDFACF9091E80090FF8C
:10474000EECF9091E8009E779093E800E8CF42E0AA
:1047500061EC81E00E941E2642E061EC82E00E9452
:104760001E2642E061EC83E00E941E2642E261ECDC
:1047700084E00C941E268091A403833009F452C077
:1047800030F4813059F1823009F48EC008958A30B6
:1047900009F47AC08B3009F460C0893009F041C057
:1047A0008091A3038132E9F58091A7039091A8033A
:1047B000892BB9F58091E800877F8093E80080918C
:1047C000E80082FF2AC08091F1008093EE01809181
:1047D000E8008B778093E8000C9452268091A30325
:1047E000813AF9F48091E800877F8093E800809116
:1047F000A7039091A803892B61F468E086EE91E00D
:1048000070E00E945F258091E8008B778093E8003C
:10481000089560E090E080E0F3CF8091A2038111E1
:10482000CECF08958091A303813AD9F78091A70351
:104830009091A803892BA9F78091E800877F809346
:10484000E8008091E80080FFFCCF80911201809306
:10485000F1008091E8008E77BDCF8091A303813273
:1048600001F78091A7039091A803892BD1F680913D
:10487000E800877F8093E8000E9452268091A5037C
:10488000809312010C941A148091A303813249F68B
:104890008091E800877F8093E8000E9452268091F3
:1048A000A6038093EF0108958091A303813A09F054
:1048B000B8CF8091E800877F8093E8008091E8007E
:1048C00080FFFCCF8091EF01C2CF84B7877F84BF88
:1048D0000FB6F894A895809160008861809360007D
:1048E000109260000FBE80E880936100109261001A
:1048F0000E94F00E0E94A0260E94FD268091E200F8
:1049000084608093E20080EE91E20E940C1A789419
:104910000E9482290E94F40E88E091E00E945B0EC2
:104920008BEF99E00E9498070E94280F0E94BB2EEF
:10493000FBCF0C949B24292F33272330310579F1A9
:1049400058F421303105F1F02230310519F190E0B1
:1049500080E030E020E01AC021323105C9F1223276
:104960003105A9F76430710590F7FB01EE0FFF1FC9
:10497000E45DFE4F20813181685D7E4FFB018081C7
:1049800090E004C082E190E02CEB3AE0FA01318340
:104990002083089584E790E028E43AE0F7CF992750
:1049A0008130910579F040F08230910571F00397E4
:1049B00071F6E0E2FAE002C0E4E4FAE0849190E00B
:1049C0009F01E4CFE4E3FAE0F9CFE6E2FAE0F6CFC4
:1049D0006430710508F0BBCF660F771FFB01EC5CFC
:1049E000FE4F2081318189E090E0D0CF0895CF93B0
:1049F000C82F0E94F624C0931301CF91089580918F
:104A0000A203843021F00E94282E83E0089582E0E2
:104A1000089580911301811102C00C94FF24089520
:104A2000AF92BF92CF92DF92FF920F931F93CF93DB
:104A3000DF936C01EB018A010E947126F82E81112F
:104A400023C00115110539F0F80180819181C81B3F
:104A5000D90BC80ED91EB12CA12C2097A9F080919A
:104A6000E80085FD22C08091E8008E778093E80001
:104A700001151105A1F0F80180819181A80EB91EE0
:104A8000B182A08285E0F82E8F2DDF91CF911F910A
:104A90000F91FF90DF90CF90BF90AF9008950E944C
:104AA00071268823D1F2F82EEFCFF60181916F01A4
:104AB0008093F1002197FFEFAF1ABF0ACECFFC0120
:104AC0008091A9039091AA0386179707A0F061151A
:104AD000710529F49091E8009E779093E80090E0AA
:104AE0006115710551F4911108C08091E80082FFB1
:104AF00035C080E00895BC01F2CF8091A2038823E5
:104B0000C9F18530C9F18091E80083FD31C0809101
:104B1000E80082FDEACF8091E80080FFE1CF20919C
:104B2000F3008091F200322F282F6115710519F0E2
:104B30002830310558F091E02830310509F090E037
:104B40002091E8002E772093E800CACF81918093CE
:104B5000F100615071092F5F3F4FE7CF8091A203B1
:104B6000882341F0853041F08091E80083FFBDCF7C
:104B700081E0089582E0089583E00895FC0180912A
:104B8000A9039091AA0386179707A0F061157105F4
:104B900029F48091E8008E778093E80090E0611519
:104BA000710551F4911108C08091E80082FF36C070
:104BB00080E00895BC01F2CF8091A2038823D1F157
:104BC0008530D1F18091E80083FD32C08091E8000A
:104BD00082FDEACF8091E80080FFE1CF2091F300D1
:104BE0008091F200322F282F6115710519F02830BD
:104BF000310558F091E02830310509F090E08091BE
:104C0000E8008E778093E800CACF84918093F1000A
:104C10003196615071092F5F3F4FE6CF8091A2031B
:104C2000882341F0853041F08091E80083FFBCCFBC
:104C300081E0089582E0089583E00895982F9730E9
:104C400028F08F708093E90081E008959093E90047
:104C5000242F762F50E0981731F07091EC002091BE
:104C6000ED005091F00021FD02C09F5FE8CF309130
:104C7000EB003E7F3093EB003091ED003D7F3093B1
:104C8000ED003091EB0031603093EB007093EC005D
:104C90002093ED005093F0002091EE0027FDE5CF2A
:104CA00080E008958091A30387FF13C08091E800FE
:104CB00082FF06C08091E8008B778093E80004C0F3
:104CC0008091A2038111F2CF08958091A2038823DD
:104CD000D9F38091E80080FFF8CF8091E8008E77CB
:104CE000ECCF2091E4003091E50085E69091EC0056
:104CF00090FF06C09091E80090FF06C080E0089504
:104D00009091E80092FDFACF9091A203992391F03F
:104D1000953091F09091EB0095FD10C04091E4002A
:104D20005091E5002417350709F381509A01F1F6F7
:104D300084E0089582E0089583E0089581E0089575
:104D40000E940E270E941627E0EEF0E0808181602D
:104D50008083E8EDF0E080818F77808319BCA7ED38
:104D6000B0E08C918E7F8C9380818F7E80831092B7
:104D7000A10308950F931F93CF93DF930E940E27F3
:104D80000E941627C8EDD0E088818F7788838881BC
:104D90008068888388818F7D888319BC1092A203E4
:104DA00010929E031092A00310929F0300EE10E059
:104DB000F80180818B7F808388818160888342E0D5
:104DC00060E080E00E941E26E1EEF0E080818E7FB0
:104DD0008083E2EEF0E08081816080838081886062
:104DE0008083F80180818E7F8083888180618883C1
:104DF000DF91CF911F910F910895E8EDF0E0808150
:104E00008F7E8083E7EDF0E080818160808384E0A5
:104E100082BF81E08093A1030C94BA26E8EDF0E014
:104E200080818E7F80831092E20008951092DA00D4
:104E30001092E10008951F920F920FB60F92112465
:104E40002F933F934F935F936F937F938F939F9392
:104E5000AF93BF93EF93FF938091E10082FF0BC06C
:104E60008091E20082FF07C08091E1008B7F8093F8
:104E7000E1000E9465238091DA0080FF18C08091D4
:104E8000D80080FF14C08091DA008E7F8093DA0012
:104E90008091D90019BC80FF91C082E089BD09B41E
:104EA00000FEFDCF81E08093A2030E943E2380910B
:104EB000E10080FF19C08091E20080FF15C0809161
:104EC000E2008E7F8093E2008091E2008061809317
:104ED000E2008091D80080628093D80019BC85E000
:104EE0008093A2030E945B238091E10084FF28C08D
:104EF0008091E20084FF24C019BC82E089BD09B41E
:104F000000FEFDCF8091D8008F7D8093D8008091E6
:104F1000E1008F7E8093E1008091E2008F7E80939C
:104F2000E2008091E20081608093E20080919E0324
:104F3000882309F448C084E08093A2030E945F2381
:104F40008091E10083FF29C08091E20083FF25C0AA
:104F50008091E100877F8093E10082E08093A2034B
:104F600010929E038091E1008E7F8093E1008091FA
:104F7000E2008E7F8093E2008091E2008061809366
:104F8000E20042E060E080E00E941E268091F00096
:104F900088608093F0000E945723FF91EF91BF91AA
:104FA000AF919F918F917F916F915F914F913F91C1
:104FB0002F910F900FBE0F901F9018951092A20383
:104FC0000E94502374CF8091E30087FD02C081E0EE
:104FD000B3CF83E0B1CF1F920F920FB60F9211247F
:104FE0002F933F934F935F936F937F938F939F93F1
:104FF000AF93BF93CF93EF93FF93C091E900CF702E
:105000008091EC001092E9008091F000877F8093FE
:10501000F00078940E9427281092E9008091F00017
:1050200088608093F000C093E900FF91EF91CF91E9
:10503000BF91AF919F918F917F916F915F914F91B0
:105040003F912F910F900FBE0F901F9018951F93B7
:10505000CF93DF93CDB7DEB7AA970FB6F894DEBF34
:105060000FBECDBFE3EAF3E08091F100819323E02E
:10507000EB3AF207C9F70E94BB238091E80083FF57
:1050800044C08091A3039091A4039A3008F03DC0DE
:10509000E92FF0E0E25BF74D0C94703058287E2841
:1050A00085287E288528DC28FE2885285529622920
:1050B000803889F0823849F58091A7038F70873056
:1050C00020F58093E9008091EB0085FB882780F92B
:1050D0001092E90006C080919F039091A003911166
:1050E00082609091E800977F9093E8008093F100B0
:1050F0001092F1008091E8008E772DC0282F2D7F2F
:1051000021F48823D1F0823059F18091E80083FFA7
:105110000AC08091E800877F8093E8008091EB00CF
:1051200080628093EB00AA960FB6F894DEBF0FBEA4
:10513000CDBFDF91CF911F9108958091A50381305C
:1051400021F7933009F080E08093A0031092E900EA
:105150008091E800877F8093E8000E945226D5CF97
:105160008091A5038111F2CF8091A7038F702FEF5B
:10517000280F263050F68093E9002091EB0020FFA5
:10518000E5CF933031F48091EB0080628093EB00A7
:10519000DDCF9091EB0090619093EB0021E030E047
:1051A00001C0220F8A95EAF72093EA001092EA00E4
:1051B0008091EB008860EACF8111A7CF1091A50301
:1051C0001F778091E3008078812B8093E3008091AA
:1051D000E800877F8093E8000E9452268091E800D3
:1051E00080FFFCCF8091E30080688093E30083E040
:1051F000111101C082E08093A20387CF80588230D2
:1052000008F083CF8091A5039091A6038C3D23E005
:105210009207A1F583E08A838AE289834FB7F894E5
:10522000DE01139620E03EE051E2E32FF0E05093E0
:105230005700E49120FF03C0E295EF703F5FEF70ED
:105240008E2F90E0EA30C0F0C7968D939D932F5F2C
:10525000243159F74FBF8091E800877F8093E800A1
:105260006AE270E0CE0101960E945F258091E8001D
:105270008B778093E80049CFC096E7CF6091A70372
:105280007091A803AE014F5F5F4F0E949924BC014B
:10529000892B09F43ACF9091E800977F9093E8002A
:1052A00089819A810E94BE25E1CF803809F02DCFF7
:1052B0008091E800877F8093E80080919E0380932F
:1052C000F10018CF811121CF9091A503923008F001
:1052D0001CCF8091E800877F8093E80090939E0325
:1052E0000E94522680919E03882331F084E08093AF
:1052F000A2030E94A72309CF8091E30087FDF6CF88
:1053000081E0F5CFCF938091A203882399F0C091DB
:10531000E900CF708091EC0080FD0EC080E0C82BCA
:105320001092E9008091E80083FD0E942728CF7049
:10533000C093E900CF91089580E8F1CF662371F022
:10534000FC01680F792F711DE617F70738F41EBCB2
:105350000DB407FEFDCF8EB58193F6CF0895EF9281
:10536000FF920F931F93CF93DF93EC018B010E9469
:10537000EA1A7C01669912C082E08A95F1F700C0B2
:10538000C7010E94021B80179107A0F380E0DF9104
:10539000CF911F910F91FF90EF9008958091F001B0
:1053A0008CBD8091F1018DBD2C981EBC00000DB408
:1053B00007FEFDCF8EB588838E3F78F02C9A82E46D
:1053C0008A95F1F700C02C98C7010E94021B801734
:1053D000910758F380E02C9ADACF63E0CE01019672
:1053E0000E949E296B816F77613120F4CE01049673
:1053F0000E949E2981E0EFCFEF92FF920F931F93BF
:10540000CF93DF93EC018B018091F0018CBD8091F3
:10541000F1018DBD2C980E94EA1A7C0188818EBD15
:1054200000000DB407FEFDCF8EB58E3FB9F42C9A67
:1054300082E48A95F1F700C02C98C7010E94021BF4
:105440008017910758F380E02C9ADF91CF911F913C
:105450000F91FF90EF90089581E0F6CFFE01319615
:105460008B818F778D5F8E0F9F2F911DE817F90726
:1054700098F721912EBD0DB407FEFDCFF7CFDF9237
:10548000EF92FF920F931F93CF93DF93CDB7DEB7C9
:1054900064970FB6F894DEBF0FBECDBFD82EE09153
:1054A000F7018091F601E81709F453C0F0E0EE0F20
:1054B000FF1FEE50FE4F00811181669B5FC03AE5F1
:1054C000E32E3EE0F32E66E970E0CE0101960E94E5
:1054D000AF298823F1F18C8187FD2AC08091F701E3
:1054E0009091F601891769F090E0FC01EE0FFF1F23
:1054F000EE50FE4F008111810196817099278093B3
:10550000F7018091D60180FF13C00E94EA1A80172C
:10551000910768F10E94EA1A801B910B9F938F9369
:10552000FF92EF920E9431080F900F900F900F9012
:10553000DD2079F0E091F7018091F601E81749F05C
:10554000F0E0EE0FFF1FEE50FE4F008111816699D3
:10555000BACF64960FB6F894DEBF0FBECDBFDF9111
:10556000CF911F910F91FF90EF90DF9008950E94CF
:10557000EA1A00951095800F911FD0CFC8010E94A4
:10558000021B8D32914028F38091D60180FF16C016
:105590008091F6019091F701482F491B550B57FD5B
:1055A0001AC0891B1F928F938BE29EE09F938F936B
:1055B0000E9431080F900F900F900F908091F7018B
:1055C0009091F601891729F290E001968170992750
:1055D0008093F701BECF8E5FE4CF4F925F926F92C0
:1055E0007F928F929F92AF92BF92CF92DF92EF9273
:1055F000FF920F931F93CF93DF93CDB7DEB7A8979A
:105600000FB6F894DEBF0FBECDBF6C017B015A010F
:10561000522EFC0101900020E9F7CF0101973C01D7
:10562000222381F08091D60180FF0CC0DF92CF92BF
:1056300082EA9DE09F938F930E9431080F900F9014
:105640000F900F90E114F10411F180E075ED872EB9
:105650007DE0972E2091F6019091F7012917A9F08E
:1056600081110EC08091D60180FF0AC0DF92CF92D7
:105670009F928F920E9431080F900F900F900F9081
:1056800081E00E943F2A81E0E5CFF701108240E1EE
:10569000942E5AE0852E60E9462EA3014C195D092F
:1056A00041315105CCF09D8A1E8A8F8A488EF601C1
:1056B000DE015996892D01900D928A95E1F7B80186
:1056C000CE0145960E94FC29811102C0D12C68C0F0
:1056D000F0E1CF0ED11CE1CF80E18D8B1E8A8AE0F4
:1056E0008F8B842F8F77888F5527B601CE014996EF
:1056F0000E94CA30B801CE0145960E94FC29C82EEE
:10570000882321F3AE0CBF1C8701E114F10409F0DA
:1057100064C00E94EA1A8C018091F60190E09C011D
:105720002F5F3F4F217033274091F701421304C090
:1057300080E00E943F2AF0CF880F991FFC01EE50B5
:10574000FE4F118300832093F6010E94EA1ADD24A4
:10575000D3948017910728F00817190741F4DC2C1F
:105760001FC09C01201B310B21303105C1F320915A
:10577000D60120FBFF24F0F820FF12C0801791070C
:1057800038F1801B910B9F938F9388E89DE09F9346
:105790008F930E9431080F900F900F900F90DF2C85
:1057A0008D2DA8960FB6F894DEBF0FBECDBFDF914A
:1057B000CF911F910F91FF90EF90DF90CF90BF900E
:1057C000AF909F908F907F906F905F904F900895D3
:1057D00000951095800F911FD6CF6CE271E0CE013D
:1057E00001960E94AF29811109C08091D60180FFE6
:1057F0006DCF8FEB9DE00E94980768CF8981803242
:1058000019F0F701108262CF8C818F77CA2CC01AF1
:105810008C1508F4C82ECC2051F0D12CA601BE0165
:105820006B5F7F4FC8010E94CA300C0D1D1D8C811B
:1058300087FDD3CFF80110823197EE16FF0628F4CA
:1058400080818A30C1F38D30B1F36AE070E0C70126
:105850000E94DE30009701F101966CEB7DE00E9422
:10586000B130DD24D394009709F0D12C511003C03E
:10587000892B09F495CF8091D60180FF91CFFF92BB
:10588000EF9280EB9DE09F938F930E9431080F90E1
:105890000F900F900F9084CFC701DFCF8F929F9210
:1058A000AF92BF92CF92DF92EF92FF920F931F932E
:1058B000CF93DF93CDB7DEB78C015B014A01CDB644
:1058C000DEB60E94C13001962DB73EB7281B390BBA
:1058D0000FB6F8943EBF0FBE2DBF8DB79EB7019691
:1058E0007C01B8010E94BA3006E910E020E0A40172
:1058F000B501C7010E94ED2A0FB6F894DEBE0FBEB7
:10590000CDBEDF91CF911F910F91FF90EF90DF906F
:10591000CF90BF90AF909F908F9008958F929F925D
:10592000AF92BF92CF92DF92EF92FF920F931F93AD
:10593000CF93DF93CDB7DEB7CA57D1090FB6F8942E
:10594000DEBF0FBECDBF7C019091F6018091F701C3
:1059500098135DC02091890380918803281709F46A
:1059600056C08AE0829F9001112428503E4FF901D1
:10597000DE01AF58BF4F01900D928A95E1F7F90112
:10598000A080C180D28015810681B78090848184F7
:105990000E94EA1A90939503809394038C159D05B9
:1059A00008F449C0C816D90609F04CC0F1E0AF169A
:1059B00009F4B0C0AF1608F460C022E0A21609F4E2
:1059C000C7C08091890320918803821741F090E03D
:1059D000019668E270E00E945C30809389038091B8
:1059E000D60180FF14C080918903622F681B770B5A
:1059F00077FD19C1281B1F922F9385E09EE09F938E
:105A00008F930E9431080F900F900F900F90C658FF
:105A1000DF4F0FB6F894DEBF0FBECDBFDF91CF9141
:105A20001F910F91FF90EF90DF90CF90BF90AF90BC
:105A30009F908F9008959C012C193D0921303105CC
:105A400009F4B4CF2091D60120FFB0CF8C159D056D
:105A500078F08C199D099F938F9380E59CE09F932C
:105A60008F930E9431080F900F900F900F909ECF50
:105A7000C094D0948C0D9D1DEECF67E17CE0CE01EB
:105A800001966C010E94BA301F928F921F929F92D2
:105A90001F92BF921F920F931F921F93E6968FAD96
:105AA000E6971F928F93E5968FADE5971F928F93A0
:105AB000DF92CF921F9280E38F936E0191E4C90E23
:105AC000D11CDF92CF920E94F130870121E050E09B
:105AD00040E070E060E0C6010E94ED2A0FB6F89445
