:100000000C9437060C947E060C947E060C947E06A7
:100010000C947E060C947E060C947E060C947E0650
:100020000C947E060C947E060C9468290C943B2A52
:100030000C94D31C0C947E060C947E060C947E06C5
:100040000C947E060C947E060C947E060C947E0620
:100050000C947E060C94471D0C947E060C947E0630
:100060000C947E060C947E060C947E060C947E0600
:100070000C947E060C947E060C947E060C947E06F0
:100080000C947E060C947E060C947E060C947E06E0
:100090000C947E060C947E060C947E060C947E06D0
:1000A0000C947E060C947E060C947E060A00253085
:1000B000313662003A200025303258000A722F6330
:1000C00020303132333435363738394142434445B4
:1000D000460A000129022900016502650001AA0201
:1000E000AA0001AB02AB0001A902A90001AE02AE59
:1000F00000140013001C0006000500190010001871
:10010000001D000F00040011000C0016000900077C
:100110000017000B0012001500360037000D000A12
:1001200000380033001A000E0034001B00000000ED
:100130003002302B00E000E20028004C004B0000B1
:100140000000000130E3000800DB5CDC5C2C002ACE
:10015000004E00000001000100010001000100014B
:100160000001000100010001000100010001000187
:100170000001000100010001000100010001000177
:100180000001000100010001000100010001000167
:100190000000000100010001000100010001000158
:1001A0000001000000000001000100010001000149
:1001B000000100010001000000240222025200237D
:1001C0000231022F002400250026002D001F0250BE
:1001D0000051004F00200226022100220023002EA1
:1001E0000225022D021E02210231002F021E001FD5
:1001F000002000280000004A003500A50001000191
:10020000002E0035023700000000004D0001000103
:10021000000100010027000100460000000100016C
:100220000001000100010030004000410042004395
:10023000000100010001000100010027023D003E15
:10024000003F0044000100010001000100010030F6
:10025000023A003B003C00450000000100010001A3
:100260000001000100010001000100000000000188
:100270000001000100010001000100010001000077
:100280000044454255473A20656E61626C65642EB4
:100290000A000A002530325820006B6579626F61D0
:1002A00072645F7265706F72743A20000A002530C4
:1002B0003258006B6579626F6172645F7365745F59
:1002C0006C65643A20004F6E6573686F743A2074F1
:1002D000696D656F75740A0064656C5F6B65795F45
:1002E0006269743A2063616E27742064656C3A20F9
:1002F000253032580A006164645F6B65795F62691A
:10030000743A2063616E2774206164643A2025305A
:1003100032580A00290A002575002F002575005D56
:1003200028002564002000256400200025640020AA
:10033000002564007C0025303258006D6F757365B0
:100340006B6579205B62746E7C78207920762068FA
:100350005D287265702F61636C293A205B006D6BBC
:100360005F776865656C5F74696D655F746F5F6DFD
:100370006178203D2025640A006D6B5F77686565B4
:100380006C5F6D61785F7370656564203D202564E6
:100390000A006D6B5F74696D655F746F5F6D617886
:1003A000203D2025640A006D6B5F6D61785F73707E
:1003B000656564203D2025640A006D6B5F696E747D
:1003C000657276616C203D2025640A006D6B5F6468
:1003D000656C6179203D2025640A006D6B5F77684C
:1003E00065656C5F74696D655F746F5F6D617820C2
:1003F0003D2025640A006D6B5F776865656C5F6DF5
:1004000061785F7370656564203D2025640A006D26
:100410006B5F74696D655F746F5F6D6178203D20FF
:1004200025640A006D6B5F6D61785F73706565644C
:10043000203D2025640A006D6B5F696E74657276DD
:10044000616C203D2025640A006D6B5F64656C6102
:1004500079203D2025640A000A00257500363A20DF
:10046000776865656C5F74696D655F746F5F6D61FA
:10047000783A20000A00257500353A2077686565CE
:100480006C5F6D61785F73706565643A20000A0087
:10049000257500343A2074696D655F746F5F6D6116
:1004A000783A20000A00257500333A206D61785FA4
:1004B00073706565643A20000A00257500323A20A1
:1004C000696E74657276616C286D73293A20000A32
:1004D00000257500313A2064656C6179282A313035
:1004E0006D73293A20000A092D2056616C756573D9
:1004F000202D0A004D3E004D25643E20003F007334
:1005000065742064656661756C740A00433E200062
:1005100077686572652064656C74613A20637572F2
:10052000736F723D25642C20776865656C3D25648A
:100530000A53656520687474703A2F2F656E2E77A4
:10054000696B6970656469612E6F72672F77696B7B
:10055000692F4D6F7573655F6B6579730A000A09C2
:100560002D204D6F7573656B6579202D0A455343BA
:100570002F713A09717569740A313A0964656C61C1
:1005800079282A31306D73290A323A09696E746507
:100590007276616C286D73290A333A096D61785F50
:1005A00073706565640A343A0974696D655F746FC8
:1005B0005F6D61780A353A09776865656C5F6D61D2
:1005C000785F73706565640A363A09776865656CAB
:1005D0005F74696D655F746F5F6D61780A0A703A68
:1005E000097072696E742076616C7565730A643A7D
:1005F000097365742064656661756C74730A75703F
:100600003A092B310A646F776E3A092D310A706707
:1006100075703A092B31300A7067646F776E3A094A
:100620002D31300A0A7370656564203D2064656C65
:100630007461202A206D61785F7370656564202A7B
:100640002028726570656174202F2074696D655F64
:10065000746F5F6D6178290A003F004D3E200043B2
:100660003E20004C25640A0074696D65725F7265F6
:100670006164333228293A202530346C580A006BE3
:1006800065796D61705F636F6E6669672E6E6B7200
:100690006F3A2025580A006B6579626F6172645F5A
:1006A00069646C653A2025580A006B6579626F6150
:1006B00072645F70726F746F636F6C3A2025580AB2
:1006C00000686F73745F6B6579626F6172645F6CF1
:1006D00065647328293A2025580A000A092D2053F9
:1006E0007461747573202D0A004743433A20372EF6
:1006F000332E30204156522D4C4942433A20322E5F
:10070000302E30204156525F415243483A206176A4
:1007100072350A004F5054494F4E533A204C5546BB
:1007200041204D4F5553454B455920455854524152
:100730004B455920434F4E534F4C4520434F4D4D51
:10074000414E44204E4B524F20343039360A00423D
:1007500055494C443A2022302E362E35342D333430
:100760002D6762653737356522202831363A3136B4
:100770003A32302041756720323120323031382909
:100780000A005649443A2030784645454428556E7B
:100790006B6E6F776E29205049443A20307836309E
:1007A0003630284D69746F73697329205645523A63
:1007B000203078303030310A00444553433A2071BC
:1007C0002E6D2E6B2E206B6579626F6172642066D0
:1007D00069726D7761726520666F72204D69746F02
:1007E0007369730A000A092D2056657273696F6E6A
:1007F000202D0A000A092D20436F6E736F6C65204F
:100800002D0A4553432F713A09717569740A6D3A7F
:10081000096D6F7573656B65790A000A092D204DA6
:1008200061676963202D0A443A094465627567204F
:100830004D65737361676520546F67676C650A580F
:100840003A094D6174726978204465627567204D7C
:100850006F646520546F67676C65202D2053686F47
:1008600077206B65797072657373657320696E208C
:100870006D617472697820677269640A4B3A094B3A
:100880006579626F61726420446562756720546F98
:1008900067676C65202D2053686F77206B657970D2
:1008A00072657373207265706F72740A4D3A0944F1
:1008B00065627567204D6F75736520546F67676C4F
:1008C000650A563A0956657273696F6E0A533A099A
:1008D0005374617475730A433A09416374697661AC
:1008E000746520436F6E736F6C65204D6F64650A8D
:1008F00046312D4631303A09537769746368207464
:100900006F204C6179657220302D392028463130B6
:10091000203D204C30290A302D393A09537769742B
:10092000636820746F204C6179657220302D390A1C
:100930004553433A0953776974636820746F204CB8
:100940006179657220302028616C7465726E617403
:1009500065206B65792031290A47524156453A098D
:1009600053776974636820746F204C6179657220D5
:10097000302028616C7465726E617465206B6579D6
:100980002032290A50415553453A094A756D702065
:10099000746F20426F6F746C6F61646572202852AF
:1009A00065736574290A4E3A094E4B524F20546FB5
:1009B00067676C650A003F004E4B524F3A206F66E6
:1009C000660A004E4B524F3A206F6E0A000A6D6F56
:1009D0007573653A206F66660A000A6D6F757365F8
:1009E0003A206F6E0A000A6B6579626F6172643A31
:1009F000206F66660A000A6B6579626F6172643AFD
:100A0000206F6E0A000A6D61747269783A206F6611
:100A1000660A000A6D61747269783A206F6E0A0086
:100A20000A64656275673A206F66660A000A646543
:100A30006275673A206F6E0A000A0A4A756D70691E
:100A40006E6720746F20626F6F746C6F6164657283
:100A50002E2E2E2000433E20005B735D004B6579F7
:100A6000626F6172642073746172742E0A005B5746
:100A70005D005B535D005B525D005B445D005B436A
:100A80005D0004033000000010034D006900740095
:100A90006F007300690073000000100355006E00C2
:100AA0006B006E006F0077006E0000000403090405
:100AB00009028D00050100A0FA09040000010301EC
:100AC00001000921110100012240000705810308EE
:100AD000000A0904010001030102000921110100BB
:100AE00001224D000705820308000A0904020001E3
:100AF00003000000092111010001223600070583CF
:100B00000308000A09040300020300000009211180
:100B100001000122220007058403200001070504CB
:100B20000320000109040400010300000009211151
:100B30000100012239000705850320000112011080
:100B40000100000008EDFE606001000102030105E4
:100B5000010906A101050719E029E71500250195FE
:100B6000087501810205081901290595057501918E
:100B7000029501750391010507190029F715002554
:100B80000195F875018102C00631FF0974A10109C0
:100B900075150026FF00952075088102097615005D
:100BA00026FF00952075089102C005010980A1016A
:100BB00085021601002603001A81002A83007510A1
:100BC00095018100C0050C0901A1018503160100F2
:100BD000269C021A01002A9C02751095018100C012
:100BE00005010902A1010901A10005091901290551
:100BF0001500250195057501810295017503810197
:100C00000501093009311581257F95027508810696
:100C100009381581257F950175088106050C0A386C
:100C2000021581257F950175088106C0C00501095F
:100C300006A101050719E029E715002501950875AA
:100C400001810295017508810105081901290595A1
:100C50000575019102950175039101050719002998
:100C6000FF150026FF00950675088100C0001124BD
:100C70001FBECFEFDAE0DEBFCDBF04B603FE27C054
:100C80008091430290914402A0914502B0914602A6
:100C90008730904BA740B04BD1F410924302109292
:100CA0004402109245021092460214BE84B7877F18
:100CB00084BF0FB6F894A8958091600088618093F6
:100CC0006000109260000FBEE0E0F8E3099511E0CB
:100CD000A0E0B1E0E0ECF8E502C005900D92A6338B
:100CE000B107D9F722E0A6E3B1E001C01D92A33419
:100CF000B207E1F70E948B260C945E2C0C94000046
:100D0000FF93EF93E0913601F0913701309709F0AE
:100D10000995EF91FF910895FC018591803011F0C4
:100D2000EFDFFBCF0895FF27E0E230E247FF0CC082
:100D3000419597FF09C0EDE260957095809590957B
:100D4000611D711D811D911D27FF02C0219530E39A
:100D500050E2AA27660F771F881F991FAA1FA417A2
:100D600010F0A41B63955A95A9F7AA3008F0A95F63
:100D7000A05DAF93F395611571058105910541F76C
:100D8000ED3211F4EF93F395F21718F43F93F395C6
:100D9000FBCF8F91B5DFFA95E1F70895E991F991CD
:100DA0008591803021F0853219F0AADFF9CF0895BE
:100DB00020E0E89455915532C1F3503311F4689412
:100DC00055915A3348F4505390F3220F022E220FBC
:100DD000220F200D250FF4CF0EF4219589919991C2
:100DE000533619F3533729F1533559F1BC0188278C
:100DF0009927E8945C3621F48991999168945591EA
:100E0000543639F446EF7EF077FF0DC08FEF9FEF39
:100E10000AC055374AE039F0583540E121F05236E2
:100E200042E009F00895FF93EF937DDFEF91FF918A
:100E3000B7CFFF93EF93FC0181918030B9F360DF6E
:100E4000FBCFFF93EF9368DFF1CFDF93CF93CDB765
:100E5000DEB72596A3DFCF91DF91089508950C9416
:100E60000F0BEF92FF921F93CF93DF93CDB7DEB7B7
:100E70002B970FB6F894DEBF0FBECDBF1092CC00FB
:100E80001092CD0088E18093C90086E08093CA006B
:100E900083E78093CE00CE0101967C018BE0D701E1
:100EA0001D928A95E9F7D7019E01245F3F4FC70144
:100EB00040E050E0BA011091C80017FD0AC04F5F32
:100EC0005F4F6F4F7F4F4131E7E25E07610571056C
:100ED00090F31091CE00FC011193CF01E217F307BC
:100EE00051F78B85803EB1F428E331E0B701665FAE
:100EF0007F4F11968C911197F0E28F9FC0011124C2
:100F00004C91842BF901819391939F0112966A175A
:100F10007B0779F70E94110B81E02B960FB6F894AE
:100F2000DEBF0FBECDBFDF91CF911F91FF90EF903D
:100F30000895E82FF0E0EE0FFF1FE85CFE4F808180
:100F400091810895CF92DF92EF92FF920F931F93BA
:100F5000CF93DF938CEB90E00E948C0688E3E82E21
:100F600081E0F82ED0E0C0E097EBC92E90E0D92EBA
:100F70000EEA10E0DF93CF93DF92CF920E94250715
:100F800084EB90E00E948C06F701819191917F01A2
:100F90000E94A01B9F938F931F930F930E9425077E
:100FA0008CEA90E00E948C0621968DB79EB7089639
:100FB0000FB6F8949EBF0FBE8DBFC530D105D1F6D8
:100FC000DF91CF911F910F91FF90EF90DF90CF9025
:100FD00008951092CC001092CD0088E18093C90052
:100FE00086E08093CA000895519A599A80B380632D
:100FF00080BB81B3806381BB08950E942E070E944D
:10100000E9070C94F4070C94D2080895FC016130B0
:10101000E1F028F0623041F190E080E008958281B3
:10102000882339F00E94051D909344018093430169
:10103000F3CF80914301909144010E941D1D873997
:10104000910508F587EE90E0089582818111EACF3D
:1010500080914301909144010E941D1D87399105A3
:10106000A8F48DED90E0089582818111DBCF80910D
:101070004301909144010E941D1D8739910548F458
:1010800083ED90E008958CEE90E0089582EE90E07C
:10109000089588ED90E008950F931F93CF93DF9309
:1010A000EC018B016091C9017091CA018091CB0163
:1010B0009091CC010E943B1BCB3D2CE5D207D1F097
:1010C000CC3D9CE5D90709F442C01092420183301F
:1010D00009F066C0CE01CA970C9718F0E09709F0A6
:1010E0005FC0F801C28182E0CC2309F457C00E949E
:1010F000801116C0F80182818823C1F00E94051D6D
:10110000909344018093430181E08093420182E007
:101110000E94A41843E061E082E00E94FD0AC0E062
:101120008C2FDF91CF911F910F91089580914301F2
:10113000909144010E941D1D8C32914020F08091BD
:1011400042018111E7CF82E00E94C518E3CFF80188
:101150008281882379F00E94051D90934401809339
:10116000430181E0809342010E94A41881EE0E9415
:10117000BA10D0CF80914301909144010E941D1D6F
:101180008C32914020F0809142018111C3CF81E0E7
:101190000E94C51881EE0E945111BCCF0E947911A6
:1011A000C1E0BECF6091C9017091CA018091CB01AD
:1011B0009091CC010E943B1B813071F028F082306D
:1011C00039F0833059F008958D9A599A8C9A089580
:1011D0008D9A599A8C9808958D98F7CF8D9A599831
:1011E000F5CF81E008950C944C080E9453142FEF22
:1011F00084E39CE0215080409040E1F700C0000073
:1012000087E797E790930108809300080C946D1D81
:10121000FF920F931F93CF93DF938C01FC01C0814A
:10122000D18180916D01811148C08281882309F4A8
:101230003FC0CE010E949A19F82E682FCE010E945D
:101240004019BE018F2D0E94240BEC01B8010E94B1
:10125000F308882309F465C0B801CE010E94880D07
:10126000882309F45EC0B801CE010E94D70D8823FF
:1012700009F457C0C531FCE5DF0709F44AC110F590
:10128000C130ECE5DE0709F453C008F067C0C115B2
:10129000DC4509F441C081E080934A0180934B0111
:1012A000C801DF91CF911F910F91FF900C94F1082D
:1012B000CE010E946F19F82EC4CFCE010E949A1958
:1012C000BE01C1CFC63DECE5DE0709F407C1B8F4A5
:1012D000C43D8CE5D80709F4C5C0C53DDC45D9F649
:1012E000F8018281882309F4E4C010924B010E9426
:1012F000051D909349018093480180E2C0C0C93D1B
:10130000FCE5DF0719F1CA3DDC4529F6F8018281C9
:10131000882339F082E01FC0F801828181110E9488
:10132000F50880E0DF91CF911F910F91FF90089514
:10133000F80182818823A9F38091FA01816080936A
:10134000FA0181E892E00E948C06EBCFF8018281DD
:10135000882339F380E00E943027E3CFF8018281AF
:10136000882309F49DCF0E94C71B811102C00E94EF
:10137000AD1B0E94DA1B90E09093350280933402FB
:10138000FE01E350FC45809134028160E231F105B9
:10139000C8F4E353F64F0C940E2CDF09EB09EF0968
:1013A000F309F709FB09FF09030A070A0B0A0F0AE9
:1013B000130A170A1B0A1F0A230A270A2B0A8091FD
:1013C0003402826080933402809134020E94DE1BDA
:1013D0000E945314A6CF809134028460F3CF809191
:1013E00034028860EFCF809134028061EBCF80912E
:1013F00034028062E7CF809134028064E3CF809131
:1014000034028068DFCF809134028460EACF80911B
:1014100034028E7FD7CF809134028D7FD3CF8091DD
:1014200034028B7FCFCF80913402877FCBCF8091E6
:1014300034028F7EC7CF809134028F7DC3CF8091DD
:1014400034028F7BBFCF809134028F77BBCF8091E6
:1014500034028B7FEACF90913402892F97FB87F972
:101460008058B0CFF8018281882361F010924A0140
:101470000E94051D909347018093460182E00E94DF
:1014800079114FCF80914A0181110FC0809146019F
:10149000909147010E941D1D883C910530F486E221
:1014A0000E94BA1086E20E94511182E00E948011CF
:1014B00038CF80914B0181110FC0809148019091EC
:1014C00049010E941D1D883C910530F487E20E946D
:1014D000BA1087E20E94511180E2E8CFF8018281C0
:1014E000811103CF80914B018111F6CF809148018A
:1014F000909149010E941D1D883C910568F780E28A
:101500000E94801188E20E94BA1088E20E94511164
:1015100008CF0E94A61AF8019281992381F08A7A55
:1015200091E009F490E090934501811106C089E2B1
:101530000E940A1A0E94EC1AF4CE85E3F9CF80913A
:101540004501811104C089E20E94111AF3CF85E39D
:10155000FBCF8F929F92AF92BF92CF92DF92EF928A
:10156000FF920F931F936B017C0181E090E0A0E05C
:10157000B0E04C015D0104C0880C991CAA1CBB1C86
:101580004A95D2F7B501A4014C015D0104C0880C55
:10159000991CAA1CBB1C2A95D2F7482959296A29EB
:1015A0007B2904C0880F991FAA1FBB1F0A95D2F779
:1015B0008A019B010C211D212E213F2104171507B3
:1015C0002607370789F48C299D29AE29BF29BC013C
:1015D000CD011F910F91FF90EF90DF90CF90BF90C2
:1015E000AF909F908F90089580959095A095B0951D
:1015F0008C219D21AE21BF21EACF0F93382F262FBA
:101600006091C9017091CA018091CB019091CC0188
:10161000042F432F0E94A90A0F910C947E180C945A
:10162000FD070C940308282F2F7041F0822F90E0C3
:101630002A3010F44D9608950697089587E290E0B9
:1016400008950C9405080895972F70E02AE0929F62
:10165000600D711D1124FB0192E3899FE00DF11DC6
:101660001124EE0FFF1FEF50FF4F859194910895C5
:10167000FC01EE0FFF1FEF50FF4F859194910895ED
:10168000CF93DF930E94240B0E94E40CEC018115A0
:10169000904508F043C0C11580E4D80708F00AC19E
:1016A000C83ED10528F5C03ED10508F09EC0C83A15
:1016B000D10580F4C53AD10508F08DC0C130D105FF
:1016C00009F493C020F0C430D10508F08EC0D0E0FA
:1016D000C0E08BC0CD3BD10508F48BC0CE01805C4F
:1016E0009109C03CD10598F30E94380BEC017DC0F4
:1016F000C11520E2D20750F4C11581E0D80708F0E7
:1017000074C0C03FD10518F3D0656FC0C11520E388
:10171000D20708F0C5C0CE019F70E6CFC11585E5A0
:10172000D80760F5C11524E5D20708F0F1C0C1154E
:1017300082E5D80750F4C11521E5D20708F4BDC0F1
:10174000DC2FCC27C16FD06A50C09C2F9695969500
:101750009E0123703327C115D34508F0CAC0C1E0EC
:10176000D0E002C0CC0FDD1F2A95E2F720E2929F65
:10177000C0011124C82BD92BDC6837C0C11529E55D
:10178000D20780F4C11588E5D80708F0C6C0C11596
:1017900026E5D20708F09BCFDC2FCC27CC27DF71C2
:1017A000D06223C0C1158AE5D80708F4BBC0CE01BA
:1017B00090568115904208F08ACF8D2F8F710E942C
:1017C000640DDD27D06290E0982F882788279F71CD
:1017D000C82BD92B0AC0C53AD10509F4B0C0C63A06
:1017E000D10509F4AFC0C3E8D0E4CE01DF91CF91B9
:1017F0000895C83AD10509F4A8C0C93AD10509F439
:10180000A7C0CA3AD10509F4A6C0CB3AD10509F45C
:10181000A5C0CC3AD10509F4A4C0CB3BD10509F44D
:10182000A3C0CC3BD10509F4A2C0CD3AD10509F43F
:10183000A1C0C03BD10509F4A0C0CE3AD10509F43E
:101840009FC0CF3AD10509F49EC0C13BD10509F430
:101850009DC0C23BD10509F49CC0C33BD10509F42E
:101860009BC0C43BD10509F49AC0C53BD10509F41E
:1018700099C0C63BD10509F498C0C73BD10509F40E
:1018800097C0C83BD10509F496C0C93BD10509F4FE
:1018900095C0CA3BD10509F094C0CAE2D6E4A5CFF1
:1018A000CE019927D3FF03C0EC01D86C9ECFEC0189
:1018B000D06C9BCFDF70D06A98CFCE01E4E09695D4
:1018C0008795EA95E1F783709C2F937021E030E0D3
:1018D00002C0220F331F9A95E2F73C68382BC69559
:1018E000C695C37080E2C89FE0011124C22BD32BA0
:1018F0007CCFC1E0D0E002C0CC0FDD1F2A95E2F71B
:1019000020E2929FC0011124C82BD92BDA686DCF39
:10191000DC2FCC27C46FD06A68CFDC2FCC27C06FF8
:10192000D06A63CFCE0134E0969587953A95E1F77A
:101930008F70CF70C06ED0E0D06AD82B56CFC1E880
:10194000D0E453CFC2E8D0E450CFC2EED4E44DCFC0
:10195000C9EED4E44ACFCAEED4E447CFC5EBD4E411
:1019600044CFC6EBD4E441CFC3EBD4E43ECFC4EBC9
:10197000D4E43BCFC7EBD4E438CFCCECD4E435CFC0
:10198000CDECD4E432CFC3E8D5E42FCFCAE8D5E418
:101990002CCFC2E9D5E429CFC4E9D5E426CFC1E2F2
:1019A000D6E423CFC3E2D6E420CFC4E2D6E41DCFF1
:1019B000C5E2D6E41ACFC6E2D6E417CFC7E2D6E432
:1019C00014CFC0E0D4E411CF8238910549F1B0F4CE
:1019D0008133910509F45CC048F48932910509F41A
:1019E00052C08A32910509F458C008958533910593
:1019F00009F444C08933910599F00895833E910517
:101A000031F138F4803E910591F0823E9105B1F0BC
:101A10000895863E910511F1873E910541F10895A3
:101A2000209134022370C9F080EE90E00895209157
:101A3000340220FF12C089E390E00895209134021F
:101A400022FF0BC024FF2EC090E080E0089520917B
:101A5000340222FD2AC024FDF7CF089520913402DC
:101A600023FFFBCF24FDF0CF87EE90E00895209177
:101A7000340223FFF0CF86EE90E0089520913402E7
:101A800025FD16C008952091340225FD14C0089547
:101A90002091340226FD12C008952091340226FDC3
:101AA00010C0089583EE90E0089582EE90E00895CE
:101AB00089E290E0089585E390E008958AE290E05D
:101AC000089581E390E0C9CF9091340292FF06C05F
:101AD000282F2871283069F4877F846093FF06C01F
:101AE000282F2871283161F4877E846194FD877ED8
:101AF0000895282F2471243089F78B7F8860EECFDA
:101B0000282F2471243191F78B7E8861EFCF0895BF
:101B10000F931F93CF938C01FB018281811106C02B
:101B2000C1E08C2FCF911F910F910895C091590161
:101B3000C11125C006311C4599F70E94870D81E02F
:101B4000809359010E94051D90935801809357017D
:101B500010924C0110924E0110924D0110925001C2
:101B600010924F01109252011092510110925401A3
:101B7000109253011092560110925501D2CF8091CC
:101B80005701909158010E941D1D8C32914040F6E2
:101B900080914C01E82FF0E0EE0FFF1FE35BFE4F5A
:101BA000118300838F5F80934C01C0E0BACFCF9345
:101BB000DF93EC01C13080E8D807C8F0FB018281D7
:101BC0008823A9F080915A01811109C08CE090E02E
:101BD0000E94282C0E94FB0D81E080935A010E94F4
:101BE000020ECE019F770E94CD0E0E947F0E81E0F3
:101BF000DF91CF91089580935B01682F8CE090E096
:101C00000C94362CE0910001F091010180818093C9
:101C10002D0281FF03C081EE0E94511180912D029F
:101C200085FF03C085EE0E94511180912D0280FF37
:101C300003C080EE0E94511180912D0284FF03C0E9
:101C400084EE0E94511180912D0282FF03C082EE2A
:101C50000E94511180912D0286FF03C086EE0E94E2
:101C6000511180912D0283FF03C083EE0E94511118
:101C700080912D0287FF03C087EE0E945111809151
:101C80005B01823049F158F4882379F0813089F082
:101C90008FE39CE90197F1F700C0000008958430BC
:101CA00019F18530A9F786EE01C082EE0E94BA10C4
:101CB000EFCF80EE0E94BA1081EE0E94BA1088E148
:101CC0000E94BA1088E10E94511181EE0E945111C8
:101CD00080EE0E945111DCCF82EE0E94BA1087E59F
:101CE0000E94BA1087E5F5CF86EE0E94BA1086EE04
:101CF0000E94511188E10E94BA1088E1EACF8091D8
:101D00005B01813009F443C0E0F18230D1F18530CC
:101D1000E1F180912D0281FF03C081EE0E94BA1093
:101D200080912D0285FF03C085EE0E94BA1080913C
:101D30002D0280FF03C080EE0E94BA1080912D0218
:101D400084FF03C084EE0E94BA1080912D0282FFAE
:101D500003C082EE0E94BA1080912D0286FF03C05C
:101D600086EE0E94BA1080912D0283FF03C083EE9D
:101D70000E94BA1080912D0287FF0EC087EE0C944E
:101D8000BA1082EE0E945111C4CF86EEFBCF8CE2D6
:101D90000E94BA108CE2F6CF0895EF92FF921F9343
:101DA000CF93DF937C01CCE0D0E0C7010C2E02C0C2
:101DB000969587950A94E2F7182F1F70812F0E943D
:101DC000130B0E94BA10812F0E94130B0E94511115
:101DD0002497CC3F8FEFD80741F7DF91CF911F9128
:101DE000FF90EF90089590936101809360010895B2
:101DF000E0916001F0916101309721F00190F08154
:101E0000E02D099480E00895EF92FF920F931F93C5
:101E1000CF93DF938C01E0916001F09161013097E5
:101E2000C1F10280F381E02D09958091FA0182FFD2
:101E300030C080FF04C08AE992E00E948C06D0E0A6
:101E4000C0E084E9E82E82E0F82E8091FA0180FF5C
:101E50000EC0F801EC0FFD1F80811F928F93FF923F
:101E6000EF920E9425070F900F900F900F902196F0
:101E7000C032D10551F78091FA0180FF0AC082E992
:101E800092E0DF91CF911F910F91FF90EF900C9412
:101E90008C06DF91CF911F910F91FF90EF900895E5
:101EA000E0916001F0916101309721F00480F581AB
:101EB000E02D0994089520915E0130915F0128176B
:101EC000390771F090935F0180935E01E0916001AA
:101ED000F0916101309721F00680F781E02D09949F
:101EE000089520915C0130915D012817390771F048
:101EF00090935D0180935C01E0916001F09161013C
:101F0000309721F00084F185E02D0994089508951B
:101F10000C94870F81E008950E94FC1C85B78068AF
:101F200085BF85B7806885BF0E942F070C947E1DF2
:101F3000CF93C82F8091FA0182FF1EC080FF04C09A
:101F400083EB92E00E948C068091FA0180FF0CC026
:101F50001F92CF938EEA92E09F938F930E94250762
:101F60000F900F900F900F908091FA0180FF04C0A6
:101F70008CEA92E00E948C068C2FCF910C94210B5E
:101F80005F926F927F928F929F92AF92BF92CF9209
:101F9000DF92EF92FF920F931F93CF93DF93CDB712
:101FA000DEB72A970FB6F894DEBF0FBECDBF0E94F2
:101FB00031070E948A0F882309F47AC093E6A92E7C
:101FC00091E0B92E10E000E088248394912C502EEB
:101FD000802F0E9499077C01F501C190D1905F018B
:101FE000C816D90609F45EC08091FA0181FD0E94ED
:101FF000A20790E080E0CE24DF243401082E02C046
:10200000660C771C0A94E2F7960126213721232BD0
:1020100009F443C08E835F82E620F72081E0EF2839
:1020200009F480E088870E94051D8160782F9A87D7
:1020300089874E815F8168858A850E947F10000FA5
:10204000111FF801ED59FE4F808191816826792694
:10205000718260820E94931F0E94F80E909162012B
:102060008917B9F10E94F80E809362012A960FB683
:10207000F894DEBF0FBECDBFDF91CF911F910F91BE
:10208000FF90EF90DF90CF90BF90AF909F908F9098
:102090007F906F905F900C94980F01968A30910515
:1020A00009F0ABCF0F5F1F4F0530110509F08FCF3F
:1020B0008FEF89838A831B820E94051D8160782FA0
:1020C0009D838C8349815A816B818D810E947F1011
:1020D000C1CF2A960FB6F894DEBF0FBECDBFDF91F9
:1020E000CF911F910F91FF90EF90DF90CF90BF9015
:1020F000AF909F908F907F906F905F900895CF9357
:10210000DF93CDB7DEB72B970FB6F894DEBF0FBEC7
:10211000CDBF4F83588769877A878B871E821D8240
:1021200085E0FE013796DE01119601900D928A95A9
:10213000E1F70E944B1A882319F082E00E94851A69
:102140000E941E1A81110E94E51A49815A816B81F1
:102150007C818D819E812B960FB6F894DEBF0FBED9
:10216000CDBFDF91CF910C941317FC018081918139
:102170000C94DC19CF93C82F882309F490C08CEFFE
:102180008C0F813A58F48C2F0E94C022811187C095
:102190008C2F0E940A1ACF910C94EC1A80E28C0FBB
:1021A000883048F4C77081E001C0880FCA95EAF70B
:1021B0000E94A91AF0CF8BE58C0F833068F481E878
:1021C00090E0C53A31F083E890E0C63A11F482E835
:1021D00090E0CF910C945B0F88E58C0F853108F06F
:1021E0005EC082EE90E0C83A09F456C089EE90E0F5
:1021F000C93A09F451C08AEE90E0CA3A09F44CC0D9
:1022000085EB90E0CB3A09F447C086EB90E0CC3AFE
:1022100009F442C083EB90E0CB3BF1F184EB90E01A
:10222000CC3BD1F187EB90E0CD3AB1F18CEC90E072
:10223000C03B91F18DEC90E0CE3A71F183E891E0F2
:10224000CF3A51F18AE891E0C13B31F182E991E066
:10225000C23B11F184E991E0C33BF1F081E292E0ED
:10226000C43BD1F083E292E0C53BB1F084E292E05E
:10227000C63B91F085E292E0C73B71F086E292E0C6
:10228000C83B51F087E292E0C93B31F090E080E03A
:10229000CA3B11F48AE292E0CF910C94710FCF9176
:1022A0000895882329F19CEF980F913A20F40E9419
:1022B000111A0C94EC1A90E2980F983050F4877031
:1022C00091E001C0990F8A95EAF7892F0E94AF1A11
:1022D000F0CF9BE5980F933020F490E080E00C94D1
:1022E0005B0F885A853120F490E080E00C94710FE8
:1022F0000895882321F00E94A91A0C94EC1A0895DD
:10230000882321F00E94AF1A0C94EC1A08958F9242
:102310009F92AF92BF92DF92EF92FF920F931F9323
:10232000CF93DF937C01D62FC72FFC010581029547
:102330000F70128111110E94C81A0E949F1AD82E84
:10234000882371F0112331F180E28D0F883010F174
:1023500082E00E94851A0E949F1A91E0D82ED92609
:10236000BC2EB2949FE0B922EB2DF0E0E654FE4E75
:102370000C940E2CCC11CC111C121C1263128B125B
:102380006A126A12CD126A1268136813F2136A1283
:102390006A12FB13D12CE4CF0C2F0F70C07F11F009
:1023A0000295007F1123A9F0002359F080E28D0FE0
:1023B000883010F0D11109C0802F0E94A91A0E9404
:1023C000EC1A8D2F0E94BA1014C0802F0E94BA1AE6
:1023D000F6CF8D2F0E945111002359F080E28D0F0E
:1023E000883010F0D11124C0802F0E94AF1A0E94B3
:1023F000EC1ADD2009F406C20E94471A80FD02C2D1
:10240000F70112820E94411A0E94A418C7010E947B
:102410000E140E94411ADF91CF911F910F91FF90EE
:10242000EF90DF90BF90AF909F908F900C94C51865
:10243000802F0E94C01ADBCFFC2FFF70BF2EC07F01
:10244000C03219F0B29480EFB822DD2369F0D130A8
:1024500049F1112391F1002351F1F701858180FFAA
:10246000B0CF8F70858323C0112381F0011106C086
:102470000E94331B8B290E947911BBCF0130C1F719
:102480000E94331B8B290E94DC1AB3CF011106C0B6
:102490000E94E51A8B2D0E948011ABCF013009F408
:1024A000A8CFF6CF112329F0063008F0A2CF8B2D4C
:1024B000E2CF053008F09DCFEDCF002359F38D2FEB
:1024C0000E94511196CF8C2F86958695837079F056
:1024D0008130B9F098E0B91609F49BC0B91608F438
:1024E00088CF86EF8B0D823008F493C082CF8D2F7A
:1024F0009C2F9370111102C090E080E00E945B0F4E
:1025000078CF8D2F9C2F9370111102C090E080E046
:102510000E94710F6ECF112309F1D53F99F0D63F7C
:10252000B9F0D43F49F480912E0290912F0281603E
:1025300090932F0280932E028D2F0E941A1E0E94CC
:10254000061F57CF80912E0290912F028260F0CF0C
:1025500080912E0290912F028460EACFD53F89F0BE
:10256000D63FA9F0D43F49F480912E0290912F02DA
:102570008E7F90932F0280932E028D2F0E94821EB9
:10258000DECF80912E0290912F028D7FF2CF80912D
:102590002E0290912F028B7FECCF8C2F837009F04D
:1025A0004BC0111136C02D2F229526952770220F72
:1025B000220F6D2F6F70862E912CB12CA12C022E24
:1025C00004C0880C991CAA1CBB1C0A94D2F760E0BA
:1025D00070E0CB01D4FF0FC06FE070E080E090E0CE
:1025E00004C0660F771F881F991F2A95D2F7609540
:1025F000709580959095C695C695C370C23071F060
:10260000A0F4682979298A299B29C13091F00E9478
:1026100056180E94F80E0E94210BEBCE68297929EA
:102620008A299B290E946818F4CF0E945618C50178
:10263000B4010E944418EDCF8695112311F08C2F20
:102640008170882331F32D2F229526952770220F34
:10265000220F6D2F6F70862E912CB12CA12C022E83
:1026600004C0880C991CAA1CBB1C0A94D2F760E019
:1026700070E0CB01D4FF0FC06FE070E080E090E02D
:1026800004C0660F771F881F991F2A95D2F760959F
:10269000709580959095C695C695C370C23051F0DF
:1026A00080F4682979298A299B29C13071F00E9418
:1026B0001B19AFCF682979298A299B290E942D19D6
:1026C000A8CF0E941B19C501B4010E940919A1CF0E
:1026D000E0E2ED0FE53108F066C0F0E0EE58FC4EA8
:1026E0000C940E2C87138713871387138713871374
:1026F000871387138713871387138713871387130A
:10270000871387139813A613AD13B413BE13DF708A
:102710008C2F8F71112331F00E94A4188D2F0E94ED
:102720007911D8CE0E94C5188D2F0E948011D2CE6B
:10273000112341F0053008F0CDCE8C2F8F710E940F
:10274000E818C8CE063008F0C5CEF7CF8C2F8F71B1
:10275000112339F00E94A418BDCE8C2F8F71112344
:10276000C9F30E94C518B6CE112329F08C2F8F71A2
:102770000E948F18AFCE0E948A18ACCE112349F068
:10278000CF718C2F0E94A41863E08C2F0E94751AC1
:10279000A1CE81E00E94851A023008F49BCE82E02F
:1027A0000E94851A97CE112349F0002321F08D2F26
:1027B0000E94BA108FCE8C2F8F71CCCF002379F06E
:1027C000D93349F4FFEF27EE83E0F15020408040F9
:1027D000E1F700C000008D2F0E9451117BCE8C2F9D
:1027E0008F71BFCF4C2F4F706D2FC7010E9406080D
:1027F0000E94BC17FECD4C2F4F706D2FC7010E9459
:10280000230BF7CDDF91CF911F910F91FF90EF90A8
:10281000DF90BF90AF909F908F9008950F931F937C
:10282000CF93DF93EC01988189812B813C81232B0D
:1028300039F08F3F19F481E09F3F19F080E001C02B
:1028400081E080FD17C0CE010E940809882391F025
:10285000688179818A810E94E6198C010E943F1962
:102860000E944118B801CE01DF91CF911F910F91C5
:102870000C948711DF91CF911F910F9108950E94C1
:10288000C81A0E94D91A0E94181A0E94EC1A0E94B3
:1028900027200E94061F90E080E00E945B0F90E0DE
:1028A00080E00C94710F0E94B71A0C943F140E94A0
:1028B000DC19E92FE295EF70E250EE30E0F4F0E041
:1028C000EC59FB4E0C940E2C721472147B147B1476
:1028D0007D147B147B147B147214721482147B1489
:1028E0007B148214803F19F020F4803E20F481E0B4
:1028F0000895843FE1F380E00895803EC0F3813F76
:10290000D1F7F5CF93FB882780F90895CF93DF9314
:1029100000D000D01F92CDB7DEB70F900F900F9070
:102920000F900F90DF91CF910895CF93DF9300D058
:1029300000D000D0CDB7DEB726960FB6F894DEBF34
:102940000FBECDBFDF91CF9108951F93CF93DF933B
:10295000C0916E0116E080916F018C1304C0DF916D
:10296000CF911F910895D0E01C9FF0011D9FF00DA5
:102970001124E059FE4F408151816281738184812D
:1029800095810E9495142196C770E5CF4091A001D2
:102990005091A1016091A2017091A3018091A401C5
:1029A0009091A5010C9495141F93CF93DF93809180
:1029B000A501807FD1F48091A2018823B1F080919C
:1029C0006E01D0916F01B091A001C091A101409121
:1029D000A3015091A401A1E0BF3F09F0A0E0BA011A
:1029E0006095709516E0D81304C0DF91CF911F91C8
:1029F000089521E04115510521F02A2FCF3F09F01C
:102A000020E090E020FD38C0189FF001199FF00DE4
:102A10001124E059FE4F21812C132EC020812B134D
:102A20002BC02281211128C023813481241735072E
:102A300000F1241B350B283C3105F0F42091A50151
:102A40002F7020612093A50126E0289FF001299F87
:102A5000F00D1124EB58FE4F80818F7080618083D0
:102A600080EA91E00E940E14DF91CF911F910C94A7
:102A7000A514260F371FDFCF01968770B4CFAF9212
:102A8000BF92CF92DF92EF92FF920F931F93CF935B
:102A9000DF93CDB7DEB761970FB6F894DEBF0FBEF8
:102AA000CDBF8C0185E0F801DE011D9601900D92ED
:102AB0008A95E1F7D8014C9111965C911197129685
:102AC000EC903091A0016091A1018091A3019091BF
:102AD000A40121E0009731F06F3F19F421E03F3F5E
:102AE00009F020E0B22FB170BB2E20FD80C1F801AB
:102AF000C380D480A090A201AA2009F427C1C816DF
:102B0000D906D0F1D601A81BB90BCD01FF24F3944F
:102B1000883C910508F0F12C8091A501982F907FB9
:102B2000FF2009F4CEC0911187C0FE2C651329C087
:102B3000341327C0E11025C08F7080618093A501F8
:102B40000E94C61480EA91E00E940E148091A501B3
:102B5000F80185838F2D61960FB6F894DEBF0FBE06
:102B6000CDBFDF91CF911F910F91FF90EF90DF903C
:102B7000CF90BF90AF900895809590958C0D9D1D3E
:102B8000C5CF81E0CD2831F05F3F19F481E04F3FA0
:102B900009F080E080FD24C081E08E25F82FF170DF
:102BA000DF2E80FF3FC080916E0120916F0136E0E3
:102BB000821318C04D875E878D859E850E94DC1923
:102BC000292F22952F70223008F1243030F59F7084
:102BD00009F1D80115969C91907FE1F4FB2CBACFB6
:102BE00080E0DCCF90E0389FF001399FF00D112498
:102BF000E059FE4F6181561306C06081461303C041
:102C000062816E110FC001968770D2CF9F7011F054
:102C1000882321F3805E883008F3C8010E940E14D7
:102C2000BD2CDCCFEE2009F495CF8091A501816009
:102C30008093A501F12C8ECF651314C0341312C0FC
:102C4000E11010C0F8018583C8010E940E1486E0CF
:102C5000F801A0EAB1E001900D928A95E1F70E9497
:102C6000C61478CF4D875E878D859E850E94571448
:102C7000882319F1EE2009F18091A501803270F0CE
:102C80002091A0013091A10138872F831986DB861E
:102C9000CA868C87CE0107960E940E1486E0F80142
:102CA000A0EAB1E001900D928A95E1F70E94D41458
:102CB0000E94C614FF24F3944DCFC8010E940E1445
:102CC000F9CF911113C07C2DD98AC88A6E2D8989BC
:102CD0000E94861480EA91E00E940E1486E0E0EAE9
:102CE000F1E0DF011D928A95E9F7B9CF651312C0B3
:102CF000341310C0E1100EC0F8018583C8010E9492
:102D00000E14E0EAF1E086E0DF011D928A95E9F712
:102D1000FA2C20CF4D875E878D859E850E945714A3
:102D2000882359F2EE2049F28091A501803208F4FF
:102D3000B5CF2091A0013091A1013A8329831B8254
:102D4000DD82CC828E83CE010196A6CFC816D9062D
:102D500038F1F601E81BF90BCF01F12C883C910505
:102D600008F03DC0FE2CEE2009F4A7CF651326C065
:102D7000341324C08091A50180FD17C0982F907F47
:102D8000A1F0D80115968C931597903F09F45CCF6C
:102D9000982F907F905F8F70892B15968C9354CFCE
:102DA000809590958C0D9D1DD8CF86E0F801A0EA06
:102DB000B1E001900D928A95E1F7CCCE4D875E8708
:102DC0008D859E850E945714811168CF8091A50141
:102DD00081608093A501C8010E940E14BBCE7C2D9A
:102DE000D98AC88A6E2D89890E94861477CFEE20F1
:102DF00009F463CF4D875E878D859E850E945714A9
:102E0000F82E882309F459CF86E0F801A0EAB1E052
:102E100001900D928A95E1F780EA91E00E94B51049
:102E20000E94D4141CCF1F93CF93DF93CDB7DEB78E
:102E30002C970FB6F894DEBF0FBECDBF4F835887D7
:102E400069877A878B879C87CE0107960E943F15FA
:102E5000882309F442C09F8188852A853B85232BDE
:102E600039F08F3F19F481E09F3F19F080E001C0F5
:102E700081E080FD08C04F81588569857A858B8502
:102E80009C850E94951416E080916E0190916F01CF
:102E9000891709F467C0819FC001112480599E4F92
:102EA0000E943F15882309F45DC0E0916E011E9FCA
:102EB000F0011124E059FE4F4081518162817381FC
:102EC000848195810E94951480916E0190E0019615
:102ED0008770992780936E01D7CF86E0FE013796E1
:102EE000DE01119601900D928A95E1F79F81888508
:102EF0002A853B85232B39F08F3F19F481E09F3FD2
:102F000019F080E001C081E080FDBDCF20916F010C
:102F100030E0C90101968770992740916E014817EA
:102F2000190699F096E0929FD001939FB00D11245D
:102F3000A059BE4FFE01319601900D929A95E1F78E
:102F400080936F010E94A5149ECF0E94531410928B
:102F50006F0110926E0186E0E0EAF1E0DF011D9260
:102F60008A95E9F72C960FB6F894DEBF0FBECDBF59
:102F7000DF91CF911F910895EF92FF920F931F93CE
:102F8000CF93DF938C01892B81F0F12CEE24E39415
:102F9000E8012196F8018491843770F4843008F0B8
:102FA0005FC08130B1F08230A1F1DF91CF911F91EC
:102FB0000F91FF90EF900895853709F44CC008F405
:102FC0003DC09CE7980F903780F78F770E94511192
:102FD00049C00E5F1F4FFE01849190E2980F983018
:102FE00060F48770FE2D01C0FF0F8A95EAF78F2FDE
:102FF0000E94CB1A0E94EC1A02C00E94BA108F2DB8
:10300000815030F2EFE9FFE03197F1F700C00000A6
:10301000F7CF0E5F1F4FFE01849190E2980F98301A
:1030200050F48770FE2D01C0FF0F8A95EAF78F2FAD
:103030000E94D11ADFCF0E945111E1CF0E5F1F4FC6
:10304000FE01C491C150D8F28FE99FE00197F1F7DA
:1030500000C00000F7CF0E5F1F4FFE01F490CFCFEE
:103060000E94BA108E01CBCF08950E94341860934D
:10307000CD017093CE018093CF019093D0010C9439
:103080003F1408950C9435180F931F930091CD01B0
:103090001091CE012091CF013091D001602B712B86
:1030A000822B932B1F910F910C9435180F931F9324
:1030B0000091CD011091CE012091CF013091D0012E
:1030C00060237123822393231F910F910C94351851
:1030D0000F931F930091CD011091CE012091CF014C
:1030E0003091D00160277127822793271F910F917C
:1030F0000C9435180C9434180C947A180E947C188F
:103100006093C9017093CA018093CB019093CC0165
:103110000C943F1460E070E0CB010C947E180F9388
:103120001F9341E050E060E070E08A019B0104C021
:10313000000F111F221F331F8A95D2F7C901B80152
:103140001F910F910C947E180F931F9341E050E054
:1031500060E070E004C0440F551F661F771F8A951A
:10316000D2F78091C9019091CA01A091CB01B09191
:10317000CC018A019B01082B192B2A2B3B2BC9015F
:10318000B8011F910F910C947E180F931F9341E08B
:1031900050E060E070E004C0440F551F661F771FC9
:1031A0008A95D2F7CB01BA0160957095809590957C
:1031B0000091C9011091CA012091CB013091CC013D
:1031C00060237123822393231F910F910C947E1807
:1031D0000F931F9341E050E060E070E004C0440FA3
:1031E000551F661F771F8A95D2F78091C90190916C
:1031F000CA01A091CB01B091CC018A019B010827A3
:1032000019272A273B27C901B8011F910F910C9458
:103210007E180F931F930091C9011091CA0120914C
:10322000CB013091CC01602B712B822B932B1F9102
:103230000F910C947E180F931F930091C901109168
:10324000CA012091CB013091CC01602371238223EC
:1032500093231F910F910C947E180F931F9300914D
:10326000C9011091CA012091CB013091CC01602796
:103270007127822793271F910F910C947E18089530
:103280002AE0929F800D1124982F977071E001C061
:10329000770F9A95EAF786958695869525E0829F21
:1032A000C001112450E040E0A62FB0E0FC01E40F83
:1032B000F51FEA55FE4F60819D01042E02C0369530
:1032C00027950A94E2F721702195262727232627A0
:1032D00020834F5F5F4F4530510541F708952AE045
:1032E000929F800D1124982F9770869586958695CC
:1032F00025E0829FA001112470E060E080E0FA01E7
:10330000E60FF71FEA55FE4F208130E0092E02C07C
:10331000369527950A94E2F721703327062E01C0CF
:10332000220F0A94EAF7822B6F5F7F4F6530710599
:1033300031F70895BF92CF92DF92EF92FF920F93F1
:103340001F93CF93DF938C01C090C901D090CA0125
:10335000E090CB01F090CC018091CD019091CE0115
:10336000A091CF01B091D001C82AD92AEA2AFB2A1C
:10337000CFE1D0E0BC2ED701C6010C2E04C0B6951B
:10338000A795979587950A94D2F780FD0EC021974F
:1033900088F7B12C8B2DDF91CF911F910F91FF906A
:1033A000EF90DF90CF90BF900895B8018C2F0E94CE
:1033B000400B019761F3EECFCF93DF93EC010E94B6
:1033C0009A19BE01DF91CF910C94400B1F93CF93BC
:1033D000DF93EB0190916D01992331F0CB01DF91E7
:1033E000CF911F910C94DC19882379F0CB010E94B6
:1033F0009A19182F682FCE010E944019BE01812F03
:10340000DF91CF911F910C94400BCB010E946F195B
:10341000182FF4CF682F80910001909101010C9436
:10342000621C682F80910001909101010C946D1C29
:1034300080910001909101010C94781C0E94051D5F
:103440002091D4013091D5018217930778F00E9422
:10345000051D2091D4013091D501821B930B9C0155
:1034600081E0243F314008F480E008950E94051D6A
:103470002091D4013091D50120953095280F391F26
:10348000EFCF8091D301859585958595089580919D
:10349000D301877008950E94051D2091D1013091BC
:1034A000D20182179307B0F00E94051D2091D1012F
:1034B0003091D201821B930B843F914018F480E03D
:1034C000817008958091D30182FB882780F991E073
:1034D0008927F6CF0E94051D2091D1013091D2019C
:1034E00020953095820F931FE7CF98E0899F900138
:1034F0001124622B6093D3010E94A4180E94051D21
:103500009093D2018093D10108959091D301809539
:1035100089238093D301282F277081F4282F082E28
:10352000000C330B9217130649F085958595859508
:103530000E94C5181092D2011092D1010895909165
:10354000D301977081E009F480E008958091F9013A
:1035500008959091F901892B8093F9010895982F8E
:1035600090958091F90189238093F9010895109233
:10357000F90108959091F801892B8093F80108953D
:10358000982F90958091F80189238093F8010895F0
:103590001092F80108959091F701892B8093F7011B
:1035A0000895982F90958091F70189238093F701D2
:1035B00008951092F70108958093D6010E94051D89
:1035C0009093D5018093D40108951092D601109262
:1035D000D5011092D4010895E0910001F09101010C
:1035E0008091F9018083E0910001F09101018081D7
:1035F0009091F801892B8083E0910001F091010105
:1036000080819091F701892B80838091D601882356
:1036100021F10E941E1A882371F08091FA0180FF27
:1036200008C086EC92E09F938F930E9425070F902D
:103630000F900E94E51AE0910001F0910101808154
:103640009091D601892B8083809100019091010196
:103650000E94E31B81110E94E51A80910001909164
:1036600001010C94040F8091D601089590933701C5
:10367000809336010895CF92DF92EF92FF926C0112
:10368000EE24FF2420E0C114D104E104F10419F078
:10369000C701B60120E1C72ED82EE92EFF24C114A0
:1036A000D104E104F10419F0285FC701B6016B01F0
:1036B0007C0154E0F694E794D794C7945A95D1F7D7
:1036C000C114D104E104F10419F02C5FC701B60163
:1036D0006B017C0142E0F694E794D794C7944A9535
:1036E000D1F7C114D104E104F10419F02E5FC70130
:1036F000B6019695879577956795672B682B692B0B
:1037000009F02F5F822FFF90EF90DF90CF90089508
:10371000829590E09C01220F331F220F331F2C7CD7
:1037200095958795959587958373282B30E0C901EA
:10373000880F991F8A7A359527952575822B0895CC
:10374000CF93DF93D92F0E94881BC82F8D2F0E9403
:10375000881B9C2FDF91CF9108956DEE7EEF90E056
:1037600080E00E94482C60E082E090E00E94362CCD
:1037700060E083E090E00E94362C60E084E090E01E
:103780000E94362C60E085E090E00C94362C90E0AE
:1037900080E00E94302C21E08D3E9E4F09F020E019
:1037A000822F089582E090E00C94282C83E090E032
:1037B0000C94282C84E090E00C94282C682F84E052
:1037C00090E00C94362CFC0131969C01205E3F4F1A
:1037D00080E0919191118F5FE217F307D1F708957F
:1037E0009C01FC0132969FEF80E04191461751F019
:1037F0009F3F19F4411101C0982F8F5F8E31A9F7B7
:103800009F3F09F40895290F311D97FD3A95F9015D
:1038100062830895FC01329680962191261303C09D
:10382000DF0111971C92E817F907B9F70895E62F01
:10383000E695E695E695EF3171F0E80FF92FF11D69
:10384000677021E030E001C0220F6A95EAF78181BC
:10385000822B818308958091FA0180FF0CC01F9212
:103860006F9386EF92E09F938F930E9425070F90AE
:103870000F900F900F900895E62FE695E695E69548
:10388000EF3179F0E80FF92FF11D677021E030E09A
:1038900001C0220F6A95EAF72095818128232183B0
:1038A00008958091FA0180FF0CC01F926F9388EDFC
:1038B00092E09F938F930E9425070F900F900F9097
:1038C0000F90089520911201222329F020913402B3
:1038D00027FD0C94171C0C94F01B2091120122233D
:1038E00029F02091340227FD0C943C1C0C940A1CF6
:1038F000FC01319680961192E817F907E1F70895D7
:10390000089508950C94811C80913A02843049F105
:103910001092FB0188E190E020E40FB6F894A8959E
:10392000809360000FBE2093600080E00E94210B16
:103930000E94821C83B7817F846083BF83B78160CC
:1039400083BF7894889583B78E7F83BF0FB6F89432
:10395000A89580916000886180936000109260005B
:103960000FBE08950895CF930E94801C0E943107D6
:103970000E94B21CC0E08C2F0E949907892B31F461
:10398000CF5FC530C1F780E0CF91089581E0FCCFD3
:1039900008950C94C81C0E9453140E94F80E0E94B3
:1039A000210B0C94C91C1F920F920FB60F92112479
:1039B0008F939F93AF93BF938091FB01811113C0AD
:1039C0008091300290913102A0913202B091330285
:1039D0004196A11DB11D8093300290933102A093B6
:1039E0003202B0933302BF91AF919F918F910F90AC
:1039F0000FBE0F901F90189582E084BD93E095BD97
:103A00009AEF97BD80936E0008952FB7F894809138
:103A1000300290913102A0913202B09133022FBF57
:103A200008952FB7F894609130027091310280911F
:103A30003202909133022FBF0895CF92DF92EF921E
:103A4000FF920F931F932FB7F8944091300250913B
:103A5000310260913202709133022FBF6A017B0103
:103A6000EE24FF248C0130E020E0C016D106E206EF
:103A7000F30650F0481B590BCA011F910F91FF909C
:103A8000EF90DF90CF90089541505109F3CF789493
:103A90001F920F920FB60F9211248F939F93AF93A3
:103AA000BF938091300290913102A0913202B09187
:103AB00033020196A11DB11D809330029093310213
:103AC000A0933202B0933302BF91AF919F918F9137
:103AD0000F900FBE0F901F90189587E797E7909370
:103AE00001088093000888E19AE00FB6F894A89541
:103AF000809360000FBE90936000FFCF0E94C71BB1
:103B0000811102C00E94AD1B0E94D21B8093FA015A
:103B10000E94DA1B90E090933502809334020E9459
:103B2000D61B682F70E090E080E00C9442188091E2
:103B3000FE0180FF12C06091050185E0689FB00121
:103B40001124759567957595679560387105A8F589
:103B500061157105A1F1862F089581FF09C060915B
:103B6000050185E0689FB001112475956795EDCF3B
:103B700082FF07C06091050185E0689FB0011124B4
:103B8000E4CF2091FF012223A9F0909104016091DC
:103B9000050185E0689FB00111242917B0F6269F22
:103BA000A001279F500D1124692F70E0CA010E94C7
:103BB000FA2BCBCF65E070E0CECF8FE7089581E0A0
:103BC00008958091FE0180FF0CC06091030170E0B8
:103BD00075956795759567956115710549F1862FFE
:103BE000089581FF06C06091030170E075956795A7
:103BF000F3CF6091030182FD0BC09091FF019923E7
:103C0000A1F06091020180910301961738F0682FAE
:103C100070E06038710500F38FE70895899FC00157
:103C2000112470E00E94FA2BF4CF61E070E0D7CF4E
:103C300081E00895803F31F40E94971D8195809323
:103C400002020895813F19F40E94971DF8CF823F28
:103C500031F40E94971D8195809301020895833F5E
:103C600019F40E94971DF8CF893F29F40E94E11DA5
:103C70008093030208958A3F21F40E94E11D8195FB
:103C8000F7CF8B3F31F40E94E11D819580930402B0
:103C900008958C3F19F40E94E11DF8CF843F31F460
:103CA000809100028160809300020895853F21F495
:103CB000809100028260F7CF863F21F4809100025C
:103CC0008460F1CF873F21F4809100028860EBCFC0
:103CD000883F21F4809100028061E5CF8D3F31F46F
:103CE0008091FE0181608093FE0108958E3F21F452
:103CF0008091FE018260F7CF8F3FB9F78091FE017E
:103D00008460F1CF803FC1F48091020287FD109260
:103D100002028091010281110EC080910202811184
:103D20000AC080910302811106C0809104028111B2
:103D300002C01092FF010895813F29F48091020290
:103D400018162CF3E6CF90910102823F29F497FFD9
:103D5000E0CF10920102DDCF833F19F41916CCF3A6
:103D6000D8CF893F39F480910302181694F6109247
:103D70000302CFCF8A3F29F48091030287FFC9CF86
:103D8000F6CF8B3F39F48091040287FFC2CF1092A7
:103D90000402BFCF8C3F29F4809104021816BCF3B3
:103DA000B8CF843F31F4809100028E7F809300026F
:103DB000B0CF853F21F4809100028D7FF7CF863F01
:103DC00021F4809100028B7FF1CF873F21F4809115
:103DD0000002877FEBCF883F21F4809100028F7E25
:103DE000E5CF8D3F31F48091FE018E7F8093FE01FF
:103DF00090CF8E3F21F48091FE018D7FF7CF8F3FD2
:103E000009F087CF8091FE018B7FF0CF8091FA017E
:103E100083FF7EC08BE393E00E948C0680910002BA
:103E20001F928F9386E393E09F938F930E942507C1
:103E300084E393E00E948C0680910102282F082ED3
:103E4000000C330B3F938F9381E393E09F938F9309
:103E50000E9425078FE293E00E948C068091020267
:103E6000282F082E000C330B3F938F938CE293E0A6
:103E70009F938F930E9425078AE293E00E948C060D
:103E800080910302282F082E000C330B3F938F9351
:103E900087E293E09F938F930E94250785E293E04A
:103EA0000E948C0680910402282F082E000C330BF0
:103EB0003F938F9382E293E09F938F930E94250715
:103EC0008FE193E00E948C068091FF011F928F93F7
:103ED0008CE193E09F938F930E9425078AE193E002
:103EE0000E948C068091FE011F928F9387E193E0E0
:103EF0009F938F930E94250784E193E00E948C0694
:103F00008DB79EB74C960FB6F8949EBF0FBE8DBF6F
:103F100080E092E00E94500F0E94051D9093FD01E9
:103F20008093FC0108951F93CF93DF938091FC0150
:103F30009091FD010E941D1DAC019091FF01209107
:103F4000060130E0911106C0209107018AE0289F08
:103F5000900111244217530780F080910102D09103
:103F6000020210910302C091040281110AC0D11112
:103F70006AC0111168C0C11166C0DF91CF911F9155
:103F800008959F3F19F09F5F9093FF01181624F446
:103F90000E94971D809301028091010287FF05C056
:103FA0000E94971D8195809301021D1624F40E94A2
:103FB000971D809302028091020287FF05C00E9434
:103FC000971D819580930202309101023323C1F045
:103FD000209102022223A1F045EB3403C0011124F9
:103FE000892F911101C081E08093010245EB2403E8
:103FF00090011124832F311101C081E080930202CE
:10400000111624F40E94E11D8093030280910302A3
:1040100087FF05C00E94E11D8195809303021C1655
:1040200024F40E94E11D809304028091040287FF22
:1040300005C00E94E11D819580930402DF91CF911C
:104040001F910C94061F9F3F09F09DCFAECF85E0D6
:10405000E0E0F2E0DF011D928A95E9F71092FF019E
:104060001092FE0108958EE595E00E948C061F9245
:1040700081E08F931F9285E08F9380E195E09F937D
:104080008F930E9425070F900F900F900F900F9025
:104090000F900895833009F445C028F4813061F011
:1040A000823049F10895853009F46AC008F451C09E
:1040B000863009F47CC0089580910701482F460F8F
:1040C0005527551F4F3F510594F4680F6093070122
:1040D000809107011F928F9389E494E09F938F93BF
:1040E0000E9425070F900F900F900F9008958FEF6B
:1040F00080930701EDCF80910601482F460F552789
:10410000551F4F3F510554F4680F6093060180918D
:1041100006011F928F9387E394E0E0CF8FEF8093A7
:104120000601F5CF80910501482F460F5527551FF1
:104130004F3F510554F4680F6093050180910501CC
:104140001F928F9384E294E0C9CF8FEF8093050193
:10415000F5CF80910401482F460F5527551F4F3F3B
:10416000510554F4680F60930401809104011F927B
:104170008F938FE094E0B2CF8FEF80930401F5CF5F
:1041800080910301482F460F5527551F4F3F51057A
:1041900054F4680F60930301809103011F928F9381
:1041A00086EF93E09BCF8FEF80930301F5CF809153
:1041B0000201482F460F5527551F4F3F510554F414
:1041C000680F60930201809102011F928F938BED23
:1041D00093E084CF8FEF80930201F5CF8330C9F154
:1041E00028F4813061F0823019F10895853009F4A6
:1041F00052C008F43FC0863009F45EC00895809133
:104200000701681790F4861B8093070180910701CE
:104210001F928F938CEC93E09F938F930E942507BE
:104220000F900F900F900F90089510920701EECF0E
:1042300080910601681750F4861B809306018091D7
:1042400006011F928F938AEB93E0E6CF109206014E
:10425000F6CF80910501681750F4861B8093050105
:10426000809105011F928F9387EA93E0D5CF10923A
:104270000501F6CF80910401681750F4861B8093E6
:104280000401809104011F928F9382E993E0C4CFCF
:1042900010920401F6CF80910301681750F4861B39
:1042A00080930301809103011F928F9389E793E02C
:1042B000B3CF10920301F6CF80910201681750F43A
:1042C000861B80930201809102011F928F938EE5DD
:1042D00093E0A2CF10920201F6CFCF93C82F1F9286
:1042E0008F9383E696E09F938F930E94250761E06A
:1042F00070E080E090E004C0660F771F881F991F70
:10430000CA95D2F70E9442180F900F900F900F900D
:10431000CF910C945314873208F052C08E3108F0BC
:104320001EC1803109F4ADC0F8F4873009F48BC0A8
:1043300048F4863009F475C086EB99E00E948C063B
:1043400080E008958B3009F467C08E30A9F7909112
:10435000FA01892F8B7F92FF84608093FA0182FF9C
:104360008DC086EF99E026C0863109F4B1C088F48B
:10437000813111F70E94531490913402892F97FBD9
:1043800087F980588093340287FFE6C083EC99E078
:1043900045C0893109F485C08B3171F69091FA01DD
:1043A000892F8D7F91FF82608093FA0181FF63C026
:1043B00083E19AE00E948C068091FA01816058C0E6
:1043C000883351F158F4893229F0853319F0873256
:1043D00009F0B2CF80E00E946D211CC08334D1F37C
:1043E00028F48A3308F4A8CF8953F5CF883409F02C
:1043F000A3CF0E94531489E39AE00E948C062FEF0A
:1044000083ED90E3215080409040E1F700C0000030
:104410000E946D1D81E008958BE198E00E948C065A
:10442000F9CF8091FA01817F8E7F8093FA0184EF2A
:1044300097E00E948C0685E59AE00E948C0681E058
:104440008093060208959091FA01892F8E7F90FF44
:1044500081608093FA0180FF03C08DE29AE0DECF95
:1044600080E29AE00E948C068091FA01897F877F22
:104470008093FA01CFCF85E09AE0D0CF86EE99E025
:10448000CDCF9091FA01892F877F93FF8860809329
:10449000FA0183FF03C08AED99E08CCF8DEC99E09F
:1044A000BDCF85EE97E00E948C0689EB97E00E94D5
:1044B0008C0682E897E00E948C068FE497E00E94C9
:1044C0008C0684E197E00E948C0689EE96E0A6CFE8
:1044D0008BED96E00E948C060E94F80E1F928F933F
:1044E00081EC96E09F938F930E94250780911201A3
:1044F0001F928F938AEA96E09F938F930E942507DD
:1045000080912B021F928F9387E996E09F938F9360
:104510000E9425078091340287FB882780F91F922B
:104520008F938FE796E09F938F930E9425070E94B9
:10453000111D9F938F937F936F9388E696E09F93CF
:104540008F930E9425078DB79EB746960FB6F894B5
:104550009EBF0FBE8DBF5ECF88EB99E05FCF8D51C0
:104560003ACF80E008950C94B1228E518A3030F415
:10457000E82FF0E0ED5EFE4F8081089580E0089521
:10458000CF93C82F809106028130D1F038F082306D
:1045900009F44DC01092060280E010C0E0910001C5
:1045A000F091010180818232B9F78C2F0E94B122F3
:1045B00081111EC08C2F0E948B218170CF91089594
:1045C000E0910001F09101018081823271F38C2F22
:1045D0000E94B32281111BC0C431D9F060F4CB30EA
:1045E00071F0C031D1F089E596E00E948C0613C0CD
:1045F00081E090E0E2CFC93261F0C833A1F784EFE7
:1046000097E00E948C068FE596E00E948C0681E080
:10461000D4CF1092060280E0D0CF0E9433208BE5E9
:1046200096E00E948C0682E080930602F0CFC432AE
:10463000C8F4CE3108F0BEC0CB30E1F040F4C73052
:1046400009F4CCC08DEF94E00E948C0626C0C331E3
:10465000C1F1C431B9F780910502882351F110925C
:1046600005020AC0CB3409F4B7C0C8F4C93299F3C3
:10467000C83341F70E94332080910502882309F452
:10468000C4C01F928F9387EF94E09F938F930E94F3
:1046900025070F900F900F900F9081E08FCFC135BD
:1046A00009F494C0C23509F48BC0CE3459F66AE0DF
:1046B0008EC08CE095E00E948C0681E0809306021B
:1046C0007DCF86EE94E00E948C0684ED94E00E94FB
:1046D0008C06809107011F928F9381ED94E09F9348
:1046E0008F930E9425078FEC94E00E948C068DEB3F
:1046F00094E00E948C06809106011F928F938AEBB2
:1047000094E09F938F930E94250788EB94E00E948A
:104710008C0689EA94E00E948C06809105011F9224
:104720008F9386EA94E09F938F930E94250784EAF3
:1047300094E00E948C0683E994E00E948C068091AC
:1047400004011F928F9380E994E09F938F930E94BE
:1047500025078EE894E00E948C0689E794E00E9489
:104760008C06809103011F928F9386E794E09F93BC
:104770008F930E94250784E794E00E948C068DE5C4
:1047800094E00E948C06809102011F928F938AE52B
:1047900094E09F938F930E94250788E594E00E9400
:1047A0008C068DB79EB748960FB6F8949EBF0FBE85
:1047B0008DBF62CF8C2F0E94B522809305025CCF03
:1047C00061E0809105020E944A2056CF61E080910D
:1047D00005020E94EE2050CF6AE0F3CF8EE1809375
:1047E000070182E3809306018AE08093050184E15A
:1047F0008093040188E08093030188E280930201A2
:104800008FEF94E00E948C0637CF84EF94E01CCFAA
:1048100080912A0208959FB7F894109209029FBFD1
:1048200090913A02943009F049C02091E9002F702C
:104830009091EC0090FD30C090E0922B24E020930A
:10484000E9002091EB0020FF36C02091EE0027FF09
:1048500032C020910702222321F02091E80025FF99
:104860002AC01092070226E03091E80035FF16C0FA
:104870008093F1008091E80085FD29C08091E800D7
:1048800080FFFCCF8091E8008E778093E8009F70D6
:104890009093E90080E0089590E8CFCF30913A02FC
:1048A000343049F43091EB0035FD05C0215041F41E
:1048B00081E0809307029F709093E9008FEF089545
:1048C000EFE9FFE03197F1F700C00000CDCF8FB7DF
:1048D000F89421E0209309028FBFD9CF0F931F9343
:1048E000CF93DF9300D01F92CDB7DEB78C010E942B
:1048F0004027823011F0843019F583E089831B83CF
:104900000A838093E9008FEF9091E800815095FD34
:1049100006C095ED9A95F1F700008111F5CF8091D1
:10492000E80085FF0DC050E040E063E070E0CE019C
:1049300001960E945D278091E8008E778093E800C1
:104940000F900F900F90DF91CF911F910F910895CD
:10495000CF93DF9300D01F92CDB7DEB720913A02FC
:10496000243031F522E02983805891099B838A8382
:1049700083E08093E9008FEF9091E800815095FDEE
:1049800006C095ED9A95F1F700008111F5CF809161
:10499000E80085FF0DC050E040E063E070E0CE012C
:1049A00001960E945D278091E8008E778093E80051
:1049B0000F900F900F90DF91CF910895CF93DF93D9
:1049C000EC010E944027823011F08430F9F482E03B
:1049D0008093E9008FEF9091E800815095FD06C02B
:1049E00095ED9A95F1F700008111F5CF8091E800DF
:1049F00085FF0CC050E040E065E070E0CE010E9411
:104A00005D278091E8008E778093E800DF91CF9159
:104A10000895CF93DF93EC010E944027823011F07C
:104A20008430F9F4809112018823F1F080913402EE
:104A300087FF1AC085E08093E9008FEF9091E8002E
:104A4000815095FD06C095E19A95F1F7000081111E
:104A5000F5CF8091E80050E040E060E270E085FD35
:104A60001AC0DF91CF91089581E08093E9008FEF24
:104A70009091E800815095FD06C095ED9A95F1F76B
:104A800000008111F5CF8091E80085FFEACF50E06A
:104A900040E068E070E0CE010E945D278091E80070
:104AA0008E778093E80080E2FE01AAE0B2E00190F8
:104AB0000D928A95E1F7D5CF8EE79AE00E948C0699
:104AC00080913902811109C00E94ED280E944A2973
:104AD0008091E20084608093E20008958AE79AE082
:104AE0000E948C0610923902089586E79AE00C9491
:104AF0008C0682E79AE00C948C068EE69AE00E947F
:104B00008C060C94CB1C209108022F5F822F62E34D
:104B10000E94EE2B992319F0209308020895109219
:104B20000802809109028823E9F080913A028430DA
:104B3000B9F49091E9009F708091EC0080FD13C062
:104B400080E0892B94E09093E9009091EB0090FF36
:104B500004C09091EE0097FD0AC08F708093E90029
:104B600010920902089580E8ECCF1092F100909124
:104B7000E80095FDFACF9091E80090FFEECF90917C
:104B8000E8009E779093E800E8CF42E061EC81E096
:104B90000E946B2842E061EC82E00E946B2842E0B8
:104BA00061EC83E00E946B2842E261EC84E00E94A9
:104BB0006B2842E261EC85E00C946B2880913C020A
:104BC000833009F455C030F4813071F1823009F43A
:104BD00091C008958A3009F47DC08B3009F463C018
:104BE000893009F044C080913B02813209F03FC016
:104BF00080913F0290914002009711F00497B9F51F
:104C00008091E800877F8093E8008091E80082FF30
:104C10002AC08091F10080932A028091E8008B776E
:104C20008093E8000C949F2880913B02813AF9F42C
:104C30008091E800877F8093E80080913F02909107
:104C40004002892B61F460E28AE092E070E00E9409
:104C5000AC278091E8008B778093E800089560E0AE
:104C600090E080E0F3CF80913A028111CECF089599
:104C700080913B02813AD9F780913F0290914002A6
:104C8000892BA9F78091E800877F8093E8008091C5
:104C9000E80080FFFCCF809112018093F1008091A9
:104CA000E8008E77BDCF80913B02813201F7809181
:104CB0003F0290914002892BD1F68091E800877FD6
:104CC0008093E8000E949F2880913D02809312010A
:104CD0000C94531480913B02813249F68091E80094
:104CE000877F8093E8000E949F2880913E028093F6
:104CF0002B02089580913B02813A09F0B8CF809150
:104D0000E800877F8093E8008091E80080FFFCCF77
:104D100080912B02C2CF84B7877F84BF0FB6F894EF
:104D2000A895809160008861809360001092600077
:104D30000FBE80E880936100109261000E94880F8E
:104D40000E94ED280E944A298091E20084608093AD
:104D5000E2008BE094E20E94361B78940E94D22BF2
:104D60000E948C0F88E091E00E94F30E8DE59AE09E
:104D70000E948C0680913A02853019F00E94C00F83
:104D8000F9CF89E59AE00E948C060E94841C8091EC
:104D90003802882379F30E94B31C882359F30E94B8
:104DA0004727E8CF0C94D426292F33272330310509
:104DB00079F158F421303105F1F02230310519F143
:104DC00090E080E030E020E01AC021323105C9F1E6
:104DD00022323105A9F76530710590F7FB01EE0F1E
:104DE000FF1FEE5DFE4F20813181635E7E4FFB0130
:104DF000808190E004C082E190E02DE33BE0FA0185
:104E00003183208308958DE890E020EB3AE0F7CFDE
:104E100099278130910579F040F08230910571F049
:104E2000039771F6E2E8FAE002C0ECEAFAE0849156
:104E300090E09F01E4CFEAE9FAE0F9CFE8E8FAE090
:104E4000F6CF6530710508F0BBCF660F771FFB0109
:104E5000E45DFE4F2081318189E090E0D0CF08955C
:104E6000CF93C82F0E942F27C0932C02CF91089573
:104E700080913A02843011F081E0089582E0089533
:104E800080912C02811102C00C943827089580E192
:104E900089BD82E189BD09B400FEFDCF8091D800B3
:104EA0008F7D8093D8008091E00082608093E00045
:104EB0008091E00081FDFCCF0895AF92BF92CF9228
:104EC000DF92FF920F931F93CF93DF936C01EB015F
:104ED0008A010E94BE28F82E811123C001151105F8
:104EE00039F0F80180819181C81BD90BC80ED91EF9
:104EF000B12CA12C2097A9F08091E80085FD22C05B
:104F00008091E8008E778093E80001151105A1F0EB
:104F1000F80180819181A80EB91EB182A08285E03E
:104F2000F82E8F2DDF91CF911F910F91FF90DF9081
:104F3000CF90BF90AF9008950E94BE288823D1F2F1
:104F4000F82EEFCFF60181916F018093F100219748
:104F5000FFEFAF1ABF0ACECFFC01809141029091C2
:104F6000420286179707A0F06115710529F4909108
:104F7000E8009E779093E80090E06115710551F488
:104F8000911108C08091E80082FF35C080E008954B
:104F9000BC01F2CF80913A028823C9F18530C9F172
:104FA0008091E80083FD31C08091E80082FDEACF66
:104FB0008091E80080FFE1CF2091F3008091F20022
:104FC000322F282F6115710519F02830310558F05E
:104FD00091E02830310509F090E02091E8002E772B
:104FE0002093E800CACF81918093F100615071094C
:104FF0002F5F3F4FE7CF80913A02882341F0853001
:1050000041F08091E80083FFBDCF81E0089582E008
:10501000089583E00895FC0180914102909142023D
:1050200086179707A0F06115710529F48091E800B3
:105030008E778093E80090E06115710551F491112D
:1050400008C08091E80082FF36C080E00895BC016E
:10505000F2CF80913A028823D1F18530D1F180914D
:10506000E80083FD32C08091E80082FDEACF8091A4
:10507000E80080FFE1CF2091F3008091F200322F11
:10508000282F6115710519F02830310558F091E08D
:105090002830310509F090E08091E8008E77809308
:1050A000E800CACF84918093F10031966150710974
:1050B0002F5F3F4FE6CF80913A02882341F0853041
:1050C00041F08091E80083FFBCCF81E0089582E049
:1050D000089583E00895982F973028F08F7080937B
:1050E000E90081E008959093E900242F762F50E0A5
:1050F000981731F07091EC002091ED005091F00084
:1051000021FD02C09F5FE8CF3091EB003E7F3093DE
:10511000EB003091ED003D7F3093ED003091EB00DE
:1051200031603093EB007093EC002093ED005093CE
:10513000F0002091EE0027FDE5CF80E008958091FA
:105140003B0287FF13C08091E80082FF06C0809178
:10515000E8008B778093E80004C080913A028111C7
:10516000F2CF089580913A028823D9F38091E80024
:1051700080FFF8CF8091E8008E77ECCF2091E4009B
:105180003091E50085E69091EC0090FF06C090918B
:10519000E80090FF06C080E008959091E80092FD3D
:1051A000FACF90913A02992391F0953091F0909135
:1051B000EB0095FD10C04091E4005091E5002417EC
:1051C000350709F381509A01F1F684E0089582E0F1
:1051D000089583E0089581E008950E945B290E946C
:1051E0006329E0EEF0E0808181608083E8EDF0E00B
:1051F00080818F77808319BCA7EDB0E08C918E7F82
:105200008C9380818F7E80831092390208950F9352
:105210001F93CF93DF930E945B290E946329C8EDFF
:10522000D0E088818F7788838881806888838881AF
:105230008F7D888319BC10923A0210923602109228
:1052400038021092370200EE10E0F80180818B7F67
:10525000808388818160888342E060E080E00E94F2
:105260006B28E1EEF0E080818E7F8083E2EEF0E05B
:10527000808181608083808188608083F801808163
:105280008E7F8083888180618883DF91CF911F9199
:105290000F910895E8EDF0E080818F7E8083E7ED47
:1052A000F0E080818160808384E082BF81E0809330
:1052B00039020C940729E8EDF0E080818E7F80832D
:1052C0001092E20008951092DA001092E100089521
:1052D0001F920F920FB60F9211242F933F934F936B
:1052E0005F936F937F938F939F93AF93BF93EF934E
:1052F000FF938091E10082FF0BC08091E20082FF6A
:1053000007C08091E1008B7F8093E1000E9483259C
:105310008091DA0080FF19C08091D80080FF15C00D
:105320008091DA008E7F8093DA008091D90080FF2F
:1053300094C080E189BD82E189BD09B400FEFDCF42
:1053400081E080933A020E945C258091E10080FF19
:1053500019C08091E20080FF15C08091E2008E7F2D
:105360008093E2008091E20080618093E20080916E
:10537000D80080628093D80019BC85E080933A02FF
:105380000E9479258091E10084FF29C08091E2008C
:1053900084FF25C080E189BD82E189BD09B400FE9A
:1053A000FDCF8091D8008F7D8093D8008091E1005F
:1053B0008F7E8093E1008091E2008F7E8093E200F7
:1053C0008091E20081608093E20080913602882320
:1053D00009F449C084E080933A020E947D258091BF
:1053E000E10083FF29C08091E20083FF25C0809106
:1053F000E100877F8093E10082E080933A0210927F
:1054000036028091E1008E7F8093E1008091E2007E
:105410008E7F8093E2008091E20080618093E200C1
:1054200042E060E080E00E946B288091F00088609C
:105430008093F0000E947525FF91EF91BF91AF918D
:105440009F918F917F916F915F914F913F912F919C
:105450000F900FBE0F901F90189519BC10923A0232
:105460000E946E2572CF8091E30087FD02C081E02B
:10547000B2CF83E0B0CF1F920F920FB60F921124DC
:105480002F933F934F935F936F937F938F939F934C
:10549000AF93BF93CF93EF93FF93C091E900CF7089
:1054A0008091EC001092E9008091F000877F80935A
:1054B000F00078940E94772A1092E9008091F00021
:1054C00088608093F000C093E900FF91EF91CF9145
:1054D000BF91AF919F918F917F916F915F914F910C
:1054E0003F912F910F900FBE0F901F9018951F9313
:1054F000CF93DF93CDB7DEB7AA970FB6F894DEBF90
:105500000FBECDBFEBE3F2E08091F100819322E08A
:10551000E334F207C9F70E94DE258091E80083FF9B
:1055200044C080913B0290913C029A3008F03DC00B
:10553000E92FF0E0E256F54D0C940E2CA82ACE2A65
:10554000D52ACE2AD52A2C2B4E2BD52AA52BB22BE9
:10555000803889F0823849F580913F028F7087301A
:1055600020F58093E9008091EB0085FB882780F986
:105570001092E90006C08091370290913802911193
:1055800082609091E800977F9093E8008093F1000B
:105590001092F1008091E8008E772DC0282F2D7F8A
:1055A00021F48823D1F0823059F18091E80083FF03
:1055B0000AC08091E800877F8093E8008091EB002B
:1055C00080628093EB00AA960FB6F894DEBF0FBE00
:1055D000CDBFDF91CF911F91089580913D02813021
:1055E00021F7933009F080E0809338021092E900AF
:1055F0008091E800877F8093E8000E949F28D5CFA4
:1056000080913D028111F2CF80913F028F702FEF88
:10561000280F263050F68093E9002091EB0020FF00
:10562000E5CF933031F48091EB0080628093EB0002
:10563000DDCF9091EB0090619093EB0021E030E0A2
:1056400001C0220F8A95EAF72093EA001092EA003F
:105650008091EB008860EACF8111A7CF10913D02C5
:105660001F778091E3008078812B8093E300809105
:10567000E800877F8093E8000E949F288091E800DF
:1056800080FFFCCF8091E30080688093E30083E09B
:10569000111101C082E080933A0287CF8058823096
:1056A00008F083CF80913D0290913E028C3D23E033
:1056B0009207A1F583E08A838AE289834FB7F89441
:1056C000DE01139620E03EE051E2E32FF0E050933C
:1056D0005700E49120FF03C0E295EF703F5FEF7049
:1056E0008E2F90E0EA30C0F0C7968D939D932F5F88
:1056F000243159F74FBF8091E800877F8093E800FD
:105700006AE270E0CE0101960E94AC278091E80029
:105710008B778093E80049CFC096E7CF60913F0236
:1057200070914002AE014F5F5F4F0E94D226BC01D4
:10573000892B09F43ACF9091E800977F9093E80085
:1057400089819A810E940B28E1CF803809F02DCF02
:105750008091E800877F8093E800809136028093F3
:10576000F10018CF811121CF90913D02923008F0C5
:105770001CCF8091E800877F8093E80090933602E9
:105780000E949F2880913602882331F084E0809324
:105790003A020E94C52509CF8091E30087FDF6CF2C
:1057A00081E0F5CFCF9380913A02882399F0C091A0
:1057B000E900CF708091EC0080FD0EC080E0C82B26
:1057C0001092E9008091E80083FD0E94772ACF7053
:1057D000C093E900CF91089580E8F1CF991B79E05B
:1057E00004C0991F961708F0961B881F7A95C9F771
:1057F0008095089597FB072E16F4009407D077FD47
:1058000009D00E94142C07FC05D03EF49095819598
:105810009F4F0895709561957F4F0895EE0FFF1F7C
:105820000590F491E02D0994AA1BBB1B51E107C020
:10583000AA1FBB1FA617B70710F0A61BB70B881F20
:10584000991F5A95A9F780959095BC01CD010895AF
:10585000F999FECF92BD81BDF89A992780B5089538
:10586000A8E1B0E042E050E00C94502C262FF999CA
:10587000FECF92BD81BDF89A019700B4021639F0AF
:105880001FBA20BD0FB6F894FA9AF99A0FBE089580
:105890000196272F0E94372C0C94362CDC01CB016B
:1058A000FC01F999FECF06C0F2BDE1BDF89A319630
:1058B00000B40D9241505040B8F70895F894FFCFCE
:1058C000D7012808140A321E08240925DE24A8243A
:1058D0006E240101020304050607080900404D3645
:1058E00022392D0CE00BAA0B880B4F0BC20ADB0AE6
:0658F000F40A0D0B2D0B64
:00000001FF
