:100000000C9417030C945E030C945E030C945E0333
:100010000C945E030C945E030C945E030C945E03DC
:100020000C945E030C945E030C949F1D0C94721E42
:100030000C9435160C945E030C945E030C945E03D2
:100040000C945E030C945E030C945E030C945E03AC
:100050000C945E030C949D160C945E030C945E034A
:100060000C945E030C945E030C945E030C945E038C
:100070000C945E030C945E030C945E030C945E037C
:100080000C945E030C945E030C945E030C945E036C
:100090000C945E030C945E030C945E030C945E035C
:1000A0000C945E030C945E030C945E0302E1270340
:1000B000E16F0002E12703E1610002E12703E16F44
:1000C0000002E12703E161001400070015001A0097
:1000D00005000D000900180013003300040016008D
:1000E0000B0017000A001C001100080012000C0091
:1000F0001D001B001000060019000E000F00360046
:10010000370034000000E300E0000251E100E500A8
:100110000251E400E70000000000000FE20001517E
:100120002A002C000151E600000F00002900010008
:100130005200010001001F022002210222023502AA
:100140002B00500051004F00010023022402310215
:1001500035002D023100270230023000370236020E
:100160002F002F0226023800000001000100035179
:100170000100010003510100010000000000010026
:10018000010001004C0028000100010001000000F6
:100190000100010001000100010054005F00600047
:1001A00061006200DB5C01000100010001005500FC
:1001B0005C005D005E005700DC5C01000100010096
:1001C0000100560059005A005B0067000000010062
:1001D0000100010001000100010001000100000018
:1001E000000001000100035101005800035101000B
:1001F00001000000010001004B000100A90068009F
:10020000400041004200430001004A004E004D0002
:10021000AA0069003D003E003F0044000453AC00CA
:10022000AE00AB00A8006A003A003B003C0045006D
:1002300000000100010001000100010001000100B7
:1002400001000000000001000100010001000100A8
:100250000100010001000000E20014001A00080083
:10026000150017001C0018000C001200E10004002B
:100270001600070009000A000B000D000E000F0019
:10028000E0001D001B000600190005001100100011
:1002900036003700000001000A0001000C000100D8
:1002A0000100010001000000000001000D000551E7
:1002B0002C0001000100010001000000010001000C
:1002C000010059005A000100010001000100010075
:1002D00001000100010001005B00010001000100BC
:1002E000010001000100010001005C005D0001004F
:1002F00001000100010001000000010001000651A1
:100300005E0001000100010001000000000001008A
:1003100001000100010001000100010001000000D6
:1003200001000100010001000100010001000100C5
:1003300001000100010001000100010001000100B5
:10034000010001000100010004530100010001004F
:100350000100010001000100010001000000010096
:100360000100010001000100010001000100000086
:100370000000010001000100010001000100010076
:100380000100000000000000000000002A2B2800EF
:100390000000000000000000000000000000002934
:1003A000000000002C1E3420212224342627252E74
:1003B000362D3738271E1F202122232425263333AC
:1003C000362E37381F0405060708090A0B0C0D0ED8
:1003D0000F101112131415161718191A1B1C1D2FA4
:1003E0003130232D350405060708090A0B0C0D0EC4
:1003F0000F101112131415161718191A1B1C1D2F84
:100400003130354C0000000000000000000000000A
:1004100000000000000000000000000000000000DC
:1004200000000000000101010101010001010101C2
:1004300000000000000000000000000000000100BB
:10044000010001010101010101010101010101019D
:10045000010101010101010101010101010101008D
:10046000000001010000000000000000000000008A
:10047000000000000000000000000000000000017B
:100480000101010004033000000010034D00690069
:1004900074006F00730069007300000010035500C2
:1004A0006E006B006E006F0077006E0000000403AA
:1004B000090409026D00040100A0FA09040000010A
:1004C00003010100092111010001224000070581FB
:1004D0000308000A090401000103010200092111B7
:1004E000010001224D000705820308000A090402E9
:1004F000000103000000092111010001223600075C
:1005000005830308000A0904030001030000000931
:100510002111010001223900070584032000011286
:1005200001100100000008EDFE60600100010203FF
:100530000105010906A101050719E029E7150025B4
:1005400001950875018102050819012905950575B0
:100550000191029501750391010507190029F7150D
:1005600000250195F875018102C005010980A101EE
:1005700085021601002603001A81002A83007510E7
:1005800095018100C0050C0901A101850316010038
:10059000269C021A01002A9C02751095018100C058
:1005A00005010902A1010901A10005091901290597
:1005B00015002501950575018102950175038101DD
:1005C0000501093009311581257F950275088106DD
:1005D00009381581257F950175088106050C0A38B3
:1005E000021581257F950175088106C0C0050109A6
:1005F00006A101050719E029E715002501950875F1
:1006000001810295017508810105081901290595E7
:1006100005750191029501750391010507190029DE
:10062000FF150026FF00950675088100C000112403
:100630001FBECFEFDAE0DEBFCDBF04B603FE27C09A
:1006400080912A0290912B02A0912C02B0912D0250
:100650008730904BA740B04BD1F410922A021092F1
:100660002B0210922C0210922D0214BE84B7877FA9
:1006700084BF0FB6F894A89580916000886180933C
:100680006000109260000FBEE0E0F8E3099511E011
:10069000A0E0B1E0E8E1F1E402C005900D92A832DB
:1006A000B107D9F722E0A8E2B1E001C01D92AA3259
:1006B000B207E1F70E94CE1A0C948A200C94000035
:1006C00008950C948B06EF92FF921F93CF93DF93C4
:1006D000CDB7DEB72B970FB6F894DEBF0FBECDBFF8
:1006E0001092CC001092CD0088E18093C90086E082
:1006F0008093CA0083E78093CE00CE0101967C01EF
:100700008BE0D7011D928A95E9F7D7019E01245FFE
:100710003F4FC70140E050E0BA011091C80017FDFB
:100720000AC04F5F5F4F6F4F7F4F4131E7E25E0777
:100730006105710590F31091CE00FC011193CF017A
:10074000E217F30751F78B85803EB1F428E231E0E0
:10075000B701665F7F4F11968C911197F0E28F9FE2
:10076000C00111244C91842BF901819391939F0135
:1007700012966A177B0779F70E948D0681E02B9607
:100780000FB6F894DEBF0FBECDBFDF91CF911F91A2
:10079000FF90EF900895E82FF0E0EE0FFF1FE85D67
:1007A000FE4F80819181089508951092CC0010929F
:1007B000CD0088E18093C90086E08093CA00089547
:1007C000519A599A80B3806380BB81B3806381BBA7
:1007D00008950E9460030E94D5030C94E0030C94DA
:1007E0004D040895FF920F931F93CF93DF93EB0176
:1007F00087339105B9F048F403E311E028E3F22EC2
:100800008633910599F0C1E031C08B3D2CE592070C
:1008100029F18C3D9C45B9F78A818823A1F38AEBA5
:1008200090E021C002E311E03EE1F32E2A81222371
:1008300039F08B3DFCE59F0701F18C3D9C4501F1B2
:100840000E94AE14CA81CC23F1F08272E1F281E001
:10085000F80180838F2D0E94A60A07C08A81882311
:10086000D9F281EC90E00E948806C0E08C2FDF91E5
:10087000CF911F910F91FF90089583EB90E0F3CFFC
:100880008CEA90E0F0CFF8018081882309F4BBCF97
:1008900010828F2D0E94590BE9CF4091B6015091E3
:1008A000B7016091B8017091B90131B3DB01CA01A0
:1008B000880F991FAA1FBB1F842B952BA62BB72B24
:1008C000E3E0440F551F661F771FEA95D1F740728A
:1008D000552766277727842B952BA62BB72B80953A
:1008E0009095A095B095282F2F6C23238073822B91
:1008F00081BB2BB18091B6018095982F9D6F92237B
:100900008270892B8BB9089581E008950C94F203CD
:100910000E945B0E2FEF84E39CE0215080409040CA
:10092000E1F700C0000087E797E790930108809304
:1009300000080C94C316FF920F931F93CF93DF937D
:100940008C01FC01C081D18180915A01811140C08C
:1009500082818823C1F1CE010E94A213F82E682F54
:10096000CE010E944813BE018F2D0E949506EC0116
:10097000B8010E948604882309F45EC0B801CE0144
:100980000E94F908882309F457C0C531FCE5DF0748
:1009900009F446C110F5C130ECE5DE0709F453C097
:1009A00008F063C0C115DC4509F441C081E08093C3
:1009B000390180933A01C801DF91CF911F910F91C6
:1009C000FF900C948404CE010E947713F82ECBCFB5
:1009D000CE010E94A213BE01C8CFC63DECE5DE07E2
:1009E00009F403C1B8F4C43D8CE5D80709F4C1C0CB
:1009F000C53DDC45D9F6F8018281882309F4E0C0C1
:100A000010923A010E946716909338018093370143
:100A100080E2BCC0C93DFCE5DF07F9F0CA3DDC451A
:100A200029F6F8018281882339F082E01BC0F801A1
:100A3000828181110E94880480E0DF91CF911F9113
:100A40000F91FF900895F80182818823A9F3809186
:100A5000E70181608093E701EFCFF801828188236D
:100A600059F380E00E94671BE7CFF8018281882359
:100A700009F4A1CF0E944B15811102C00E943115CB
:100A80000E945E1590E090931C0280931B02FE0171
:100A9000E350FC4580911B028160E231F105C8F40E
:100AA000EC5AFA4F0C943A206605720576057A05E1
:100AB0007E05820586058A058E05920596059A05AE
:100AC0009E05A205A605AA05AE05B20580911B02EA
:100AD000826080931B0280911B020E9462150E941B
:100AE0005B0EAACF80911B028460F3CF80911B0222
:100AF0008860EFCF80911B028061EBCF80911B0259
:100B00008062E7CF80911B028064E3CF80911B025B
:100B10008068DFCF80911B028460EACF80911B0246
:100B20008E7FD7CF80911B028D7FD3CF80911B0208
:100B30008B7FCFCF80911B02877FCBCF80911B0211
:100B40008F7EC7CF80911B028F7DC3CF80911B0208
:100B50008F7BBFCF80911B028F77BBCF80911B0211
:100B60008B7FEACF90911B02892F97FB87F98058E2
:100B7000B0CFF8018281882361F0109239010E9480
:100B80006716909336018093350182E00E94810BB5
:100B900053CF8091390181110FC08091350190911F
:100BA00036010E947316883C910530F486E20E945B
:100BB000A60A86E20E94590B82E00E94880B3CCF75
:100BC00080913A0181110FC08091370190913801D5
:100BD0000E947316883C910530F487E20E94A60AB1
:100BE00087E20E94590B80E2E8CFF80182818111EF
:100BF00007CF80913A018111F6CF80913701909112
:100C000038010E947316883C910568F780E20E94C3
:100C1000880B88E20E94A60A88E20E94590B0CCF3A
:100C20000E94AE14F8019281992381F08A7A91E0B2
:100C300009F490E090933401811106C089E20E948A
:100C400012140E94F414F8CE85E3F9CF8091340198
:100C5000811104C089E20E941914F3CF85E3FBCF10
:100C6000CF9390E0FC01EC57FC4FC4918C5F9B4FFD
:100C7000FC018491882369F081EE0E94A60A8C2FE2
:100C80000E94A60A8C2F0E94590B81EECF910C94E2
:100C9000590B8C2F0E94A60A8C2FF8CFFF920F932E
:100CA0001F93CF93DF938C01F62EF8018491882354
:100CB00049F1E8012196813049F4FE011491812F18
:100CC0000E94A60A812F0E94590B06C0823089F427
:100CD000FE0184910E94A60A8E010F5F1F4F8F2D87
:100CE000815018F3EFE9FFE03197F1F700C0000001
:100CF000F7CF833019F4FE018491E5CF0E943006CE
:100D0000E801EACFDF91CF911F910F91FF900895F5
:100D100060E00C944E060C94E9030C94EF030C94E1
:100D2000F10390E080E008950895972F70E02AE0A5
:100D3000929F600D711D1124FB0192E3899FE00DCC
:100D4000F11D1124EE0FFF1FE853FF4F8591949181
:100D50000895FC01EE0FFF1FEC57FB4F8591949116
:100D60000895CF93DF930E9495060E945508EC01E9
:100D70008115904508F043C0C11580E4D80708F0FC
:100D80000AC1C83ED10528F5C03ED10508F09EC075
:100D9000C83AD10580F4C53AD10508F08DC0C130FC
:100DA000D10509F493C020F0C430D10508F08EC0FD
:100DB000D0E0C0E08BC0CD3BD10508F48BC0CE01A4
:100DC000805C9109C03CD10598F30E94A906EC0112
:100DD0007DC0C11520E2D20750F4C11581E0D807CB
:100DE00008F074C0C03FD10518F3D0656FC0C115BD
:100DF00020E3D20708F0C5C0CE019F70E6CFC11531
:100E000085E5D80760F5C11524E5D20708F0F1C0E3
:100E1000C11582E5D80750F4C11521E5D20708F4C1
:100E2000BDC0DC2FCC27C16FD06A50C09C2F9695D7
:100E300096959E0123703327C115D34508F0CAC08B
:100E4000C1E0D0E002C0CC0FDD1F2A95E2F720E21E
:100E5000929FC0011124C82BD92BDC6837C0C11563
:100E600029E5D20780F4C11588E5D80708F0C6C087
:100E7000C11526E5D20708F09BCFDC2FCC27CC2765
:100E8000DF71D06223C0C1158AE5D80708F4BBC062
:100E9000CE0190568115904208F08ACF8D2F8F7128
:100EA0000E94D508DD27D06290E0982F88278827F8
:100EB0009F71C82BD92B0AC0C53AD10509F4B0C01F
:100EC000C63AD10509F4AFC0C3E8D0E4CE01DF9142
:100ED000CF910895C83AD10509F4A8C0C93AD105FF
:100EE00009F4A7C0CA3AD10509F4A6C0CB3AD10586
:100EF00009F4A5C0CC3AD10509F4A4C0CB3BD10577
:100F000009F4A3C0CC3BD10509F4A2C0CD3AD10568
:100F100009F4A1C0C03BD10509F4A0C0CE3AD10567
:100F200009F49FC0CF3AD10509F49EC0C13BD10559
:100F300009F49DC0C23BD10509F49CC0C33BD10557
:100F400009F49BC0C43BD10509F49AC0C53BD10547
:100F500009F499C0C63BD10509F498C0C73BD10537
:100F600009F497C0C83BD10509F496C0C93BD10527
:100F700009F495C0CA3BD10509F094C0CAE2D6E491
:100F8000A5CFCE019927D3FF03C0EC01D86C9ECF2B
:100F9000EC01D06C9BCFDF70D06A98CFCE01E4E03B
:100FA00096958795EA95E1F783709C2F937021E0E1
:100FB00030E002C0220F331F9A95E2F73C68382BCD
:100FC000C695C695C37080E2C89FE0011124C22B6C
:100FD000D32B7CCFC1E0D0E002C0CC0FDD1F2A951F
:100FE000E2F720E2929FC0011124C82BD92BDA68C6
:100FF0006DCFDC2FCC27C46FD06A68CFDC2FCC2715
:10100000C06FD06A63CFCE0134E0969587953A954C
:10101000E1F78F70CF70C06ED0E0D06AD82B56CF7A
:10102000C1E8D0E453CFC2E8D0E450CFC2EED4E45C
:101030004DCFC9EED4E44ACFCAEED4E447CFC5EBD6
:10104000D4E444CFC6EBD4E441CFC3EBD4E43ECFE9
:10105000C4EBD4E43BCFC7EBD4E438CFCCECD4E43E
:1010600035CFCDECD4E432CFC3E8D5E42FCFCAE8F6
:10107000D5E42CCFC2E9D5E429CFC4E9D5E426CF05
:10108000C1E2D6E423CFC3E2D6E420CFC4E2D6E463
:101090001DCFC5E2D6E41ACFC6E2D6E417CFC7E229
:1010A000D6E414CFC0E0D4E411CF8238910549F1E1
:1010B000B0F48133910509F45CC048F4893291059C
:1010C00009F452C08A32910509F458C00895853355
:1010D000910509F444C08933910599F00895833E40
:1010E000910531F138F4803E910591F0823E9105F1
:1010F000B1F00895863E910511F1873E910541F1C9
:10110000089520911B022370C9F080EE90E00895AD
:1011100020911B0220FF12C089E390E008952091E6
:101120001B0222FF0BC024FF2EC090E080E0089538
:1011300020911B0222FD2AC024FDF7CF08952091A3
:101140001B0223FFFBCF24FDF0CF87EE90E0089534
:1011500020911B0223FFF0CF86EE90E008952091AE
:101160001B0225FD16C0089520911B0225FD14C009
:10117000089520911B0226FD12C0089520911B02A4
:1011800026FD10C0089583EE90E0089582EE90E071
:10119000089589E290E0089585E390E008958AE259
:1011A00090E0089581E390E0C9CF90911B0292FFF7
:1011B00006C0282F2871283069F4877F846093FF48
:1011C00006C0282F2871283161F4877E846194FD40
:1011D000877E0895282F2471243089F78B7F8860BB
:1011E000EECF282F2471243191F78B7E8861EFCFC9
:1011F00008950F931F93CF938C01FB01828181117E
:1012000006C0C1E08C2FCF911F910F910895C0911E
:101210004801C11125C006311C4599F70E94F80804
:1012200081E0809348010E94671690934701809364
:10123000460110923B0110923D0110923C01109228
:101240003F0110923E011092410110924001109214
:101250004301109242011092450110924401D2CFF5
:1012600080914601909147010E9473168C32914003
:1012700040F680913B01E82FF0E0EE0FFF1FE45CA9
:10128000FE4F118300838F5F80933B01C0E0BACF94
:1012900090934E0180934D010895E0914D01F0919E
:1012A0004E01309721F00190F081E02D099480E00B
:1012B0000895E0914D01F0914E01309721F00280A8
:1012C000F381E02D09940895E0914D01F0914E01D4
:1012D000309721F00480F581E02D09940895209144
:1012E0004B0130914C012817390771F090934C0154
:1012F00080934B01E0914D01F0914E01309721F028
:101300000680F781E02D09940895209149013091DC
:101310004A012817390771F090934A0180934901D7
:10132000E0914D01F0914E01309721F00084F1855C
:10133000E02D0994089508950C949B0981E0089587
:101340000E945E1685B7806885BF85B7806885BFB7
:101350000E9461030C94D4165F926F927F928F92D9
:101360009F92AF92BF92CF92DF92EF92FF920F9334
:101370001F93CF93DF93CDB7DEB72A970FB6F894BC
:10138000DEBF0FBECDBF0E9463030E949E0988236B
:1013900009F47AC090E5A92E91E0B92E10E000E0A2
:1013A00088248394912C502E802F0E94CB037C01A3
:1013B000F501C190D1905F01C816D90609F45EC04D
:1013C0008091E70181FD0E94D40390E080E0CE246B
:1013D000DF243401082E02C0660C771C0A94E2F761
:1013E000960126213721232B09F443C08E835F8287
:1013F000E620F72081E0EF2809F480E088870E944A
:1014000067168160782F9A8789874E815F8168850A
:101410008A850E946B0A000F111FF801E05BFE4FE6
:101420008081918168267926718260820E94671886
:101430000E944D0990914F018917B9F10E944D0901
:1014400080934F012A960FB6F894DEBF0FBECDBF32
:10145000DF91CF911F910F91FF90EF90DF90CF9090
:10146000BF90AF909F908F907F906F905F900C9403
:101470008F0601968A30910509F0ABCF0F5F1F4FA1
:101480000530110509F08FCF8FEF89838A831B8286
:101490000E9467168160782F9D838C8349815A81D1
:1014A0006B818D810E946B0AC1CF2A960FB6F8948A
:1014B000DEBF0FBECDBFDF91CF911F910F91FF9087
:1014C000EF90DF90CF90BF90AF909F908F907F90E4
:1014D0006F905F900895CF93DF93CDB7DEB72B97D2
:1014E0000FB6F894DEBF0FBECDBF4F835887698714
:1014F0007A878B871E821D8285E0FE013796DE018A
:10150000119601900D928A95E1F70E945314882359
:1015100019F082E00E948D140E94261481110E940D
:10152000ED1449815A816B817C818D819E812B963E
:101530000FB6F894DEBF0FBECDBFDF91CF910C94F4
:101540001B11FC01808191810C94E413882309F420
:10155000AFC09CEF980F913A20F40E9412140C94A3
:10156000F41490E2980F983050F4877091E001C025
:10157000990F8A95EAF7892F0E94B114F0CF9BE565
:10158000980F933070F4853A31F0863A39F083E859
:1015900090E00C946F0981E890E0FBCF82E890E046
:1015A000F8CF98E5980F953108F082C0883A09F491
:1015B00040C0893A09F440C08A3A09F440C08B3AE5
:1015C00009F440C08C3A09F440C08B3B09F440C098
:1015D0008C3B09F440C08D3A09F440C0803B09F4CB
:1015E00040C08E3A09F440C08F3A09F440C0813BB4
:1015F00009F440C0823B09F440C0833B09F440C079
:10160000843B09F440C0853B09F440C0863B09F4A3
:1016100040C0873B09F440C0883B09F440C0893B87
:1016200009F440C08A3B09F440C090E080E00C948B
:10163000850982EE90E0FBCF89EE90E0F8CF8AEE4C
:1016400090E0F5CF85EB90E0F2CF86EB90E0EFCF26
:1016500083EB90E0ECCF84EB90E0E9CF87EB90E078
:10166000E6CF8CEC90E0E3CF8DEC90E0E0CF83E828
:1016700091E0DDCF8AE891E0DACF82E991E0D7CF3F
:1016800084E991E0D4CF81E292E0D1CF83E292E08D
:10169000CECF84E292E0CBCF85E292E0C8CF86E263
:1016A00092E0C5CF87E292E0C2CF8AE292E0BFCF5C
:1016B0000895882329F19CEF980F913A20F40E9415
:1016C00019140C94F41490E2980F983050F4877029
:1016D00091E001C0990F8A95EAF7892F0E94B7140B
:1016E000F0CF9BE5980F933020F490E080E00C94CD
:1016F0006F09885A853120F490E080E00C948509C8
:101700000895882321F00E94B1140C94F4140895D4
:10171000882321F00E94B7140C94F41408958F923A
:101720009F92AF92BF92DF92EF92FF920F931F931F
:10173000CF93DF937C01D62FC72FFC010581029543
:101740000F70128111110E94D0140E94A714D82E7C
:10175000882371F0112331F180E28D0F883010F170
:1017600082E00E948D140E94A71491E0D82ED92601
:10177000BC2EB2949FE0B922EB2DF0E0EE53F44F73
:101780000C943A20D40BD40B240C240C6B0C930C2B
:10179000720C720CD50C720C700D700DFA0D720C6F
:1017A000720C030ED12CE4CF0C2F0F70C07F11F000
:1017B0000295007F1123A9F0002359F080E28D0FDC
:1017C000883010F0D11109C0802F0E94B1140E94FE
:1017D000F4148D2F0E94A60A14C0802F0E94C214F8
:1017E000F6CF8D2F0E94590B002359F080E28D0F08
:1017F000883010F0D11124C0802F0E94B7140E94AD
:10180000F414DD2009F406C20E944F1480FD02C2C8
:10181000F70112820E9449140E94AC12C7010E9473
:10182000160E0E944914DF91CF911F910F91FF90E6
:10183000EF90DF90BF90AF909F908F900C94CD125F
:10184000802F0E94C814DBCFFC2FFF70BF2EC07FFB
:10185000C03219F0B29480EFB822DD2369F0D130A4
:1018600049F1112391F1002351F1F701858180FFA6
:10187000B0CF8F70858323C0112381F0011106C082
:101880000E942E158B290E94810BBBCF0130C1F71E
:101890000E942E158B290E94E414B3CF011106C0BB
:1018A0000E94ED148B2D0E94880BABCF013009F400
:1018B000A8CFF6CF112329F0063008F0A2CF8B2D48
:1018C000E2CF053008F09DCFEDCF002359F38D2FE7
:1018D0000E94590B96CF8C2F86958695837079F050
:1018E0008130B9F098E0B91609F49BC0B91608F434
:1018F00088CF86EF8B0D823008F493C082CF8D2F76
:101900009C2F9370111102C090E080E00E946F093B
:1019100078CF8D2F9C2F9370111102C090E080E042
:101920000E9485096ECF112309F1D53F99F0D63F6A
:10193000B9F0D43F49F4809115029091160281606C
:1019400090931602809315028D2F0E9470170E94AB
:101950005C1857CF80911502909116028260F0CFEB
:1019600080911502909116028460EACFD53F89F0EC
:10197000D63FA9F0D43F49F4809115029091160208
:101980008E7F90931602809315028D2F0E94D81798
:10199000DECF80911502909116028D7FF2CF80915B
:1019A0001502909116028B7FECCF8C2F837009F07B
:1019B0004BC0111136C02D2F229526952770220F6E
:1019C000220F6D2F6F70862E912CB12CA12C022E20
:1019D00004C0880C991CAA1CBB1C0A94D2F760E0B6
:1019E00070E0CB01D4FF0FC06FE070E080E090E0CA
:1019F00004C0660F771F881F991F2A95D2F760953C
:101A0000709580959095C695C695C370C23071F05B
:101A1000A0F4682979298A299B29C13091F00E9474
:101A20005E120E944D090E948F06EBCE682979292B
:101A30008A299B290E947012F4CF0E945E12C50170
:101A4000B4010E944C12EDCF8695112311F08C2F1A
:101A50008170882331F32D2F229526952770220F30
:101A6000220F6D2F6F70862E912CB12CA12C022E7F
:101A700004C0880C991CAA1CBB1C0A94D2F760E015
:101A800070E0CB01D4FF0FC06FE070E080E090E029
:101A900004C0660F771F881F991F2A95D2F760959B
:101AA000709580959095C695C695C370C23051F0DB
:101AB00080F4682979298A299B29C13071F00E9414
:101AC0002313AFCF682979298A299B290E943513CE
:101AD000A8CF0E942313C501B4010E941113A1CF06
:101AE000E0E2ED0FE53108F066C0F0E0E658F24FB5
:101AF0000C943A208F0D8F0D8F0D8F0D8F0D8F0D44
:101B00008F0D8F0D8F0D8F0D8F0D8F0D8F0D8F0DF5
:101B10008F0D8F0DA00DAE0DB50DBC0DC60DDF7078
:101B20008C2F8F71112331F00E94AC128D2F0E94E7
:101B3000810BD8CE0E94CD128D2F0E94880BD2CE61
:101B4000112341F0053008F0CDCE8C2F8F710E940B
:101B5000F012C8CE063008F0C5CEF7CF8C2F8F71AB
:101B6000112339F00E94AC12BDCE8C2F8F7111233E
:101B7000C9F30E94CD12B6CE112329F08C2F8F719C
:101B80000E949712AFCE0E949212ACCE112349F060
:101B9000CF718C2F0E94AC1263E08C2F0E947D14B9
:101BA000A1CE81E00E948D14023008F49BCE82E029
:101BB0000E948D1497CE112349F0002321F08D2F20
:101BC0000E94A60A8FCE8C2F8F71CCCF002379F084
:101BD000D93349F4FFEF27EE83E0F15020408040F5
:101BE000E1F700C000008D2F0E94590B7BCE8C2F97
:101BF0008F71BFCF4C2F4F706D2FC7010E94910680
:101C00000E94C411FECD4C2F4F706D2FC7010E9452
:101C10009406F7CDDF91CF911F910F91FF90EF9038
:101C2000DF90BF90AF909F908F9008950F931F9378
:101C3000CF93DF93EC01988189812B813C81232B09
:101C400039F08F3F19F481E09F3F19F080E001C027
:101C500081E080FD17C0CE010E949B04882391F093
:101C6000688179818A810E94EE138C010E9447135A
:101C70000E944912B801CE01DF91CF911F910F91BF
:101C80000C948F0BDF91CF911F910F9108950E94BB
:101C9000D0140E94E1140E9420140E94F4140E94A7
:101CA000FB180E945C1890E080E00E946F0990E0B1
:101CB00080E00C9485090E94BF140C94470E0E948A
:101CC000E413E92FE295EF70E250EE30E0F4F0E03B
:101CD000E459F14F0C943A207A0E7A0E830E830E5B
:101CE000850E830E830E830E7A0E7A0E8A0E830E75
:101CF000830E8A0E803F19F020F4803E20F481E0AC
:101D00000895843FE1F380E00895803EC0F3813F71
:101D1000D1F7F5CF93FB882780F90895CF93DF9310
:101D200000D000D01F92CDB7DEB70F900F900F906C
:101D30000F900F90DF91CF910895CF93DF9300D054
:101D400000D000D0CDB7DEB726960FB6F894DEBF30
:101D50000FBECDBFDF91CF9108951F93CF93DF9337
:101D6000C0915B0116E080915C018C1304C0DF918F
:101D7000CF911F910895D0E01C9FF0011D9FF00DA1
:101D80001124E35AFE4F4081518162817381848125
:101D900095810E949D0E2196C770E5CF40918D01DF
:101DA00050918E0160918F0170919001809191010D
:101DB000909192010C949D0E1F93CF93DF9380918D
:101DC0009201807FD1F480918F018823B1F08091BE
:101DD0005B01D0915C01B0918D01C0918E01409169
:101DE000900150919101A1E0BF3F09F0A0E0BA013C
:101DF0006095709516E0D81304C0DF91CF911F91C4
:101E0000089521E04115510521F02A2FCF3F09F017
:101E100020E090E020FD38C0189FF001199FF00DE0
:101E20001124E35AFE4F21812C132EC020812B1345
:101E30002BC02281211128C023813481241735072A
:101E400000F1241B350B283C3105F0F42091920160
:101E50002F7020612093920126E0289FF001299F96
:101E6000F00D1124EE59FE4F80818F7080618083C8
:101E70008DE891E00E94160EDF91CF911F910C9496
:101E8000AD0E260F371FDFCF01968770B4CFAF920C
:101E9000BF92CF92DF92EF92FF920F931F93CF9357
:101EA000DF93CDB7DEB761970FB6F894DEBF0FBEF4
:101EB000CDBF8C0185E0F801DE011D9601900D92E9
:101EC0008A95E1F7D8014C9111965C911197129681
:101ED000EC9030918D0160918E01809190019091F4
:101EE000910121E0009731F06F3F19F421E03F3F6D
:101EF00009F020E0B22FB170BB2E20FD80C1F801A7
:101F0000C380D480A0908F01AA2009F427C1C816ED
:101F1000D906D0F1D601A81BB90BCD01FF24F3944B
:101F2000883C910508F0F12C80919201982F907FC8
:101F3000FF2009F4CEC0911187C0FE2C651329C083
:101F4000341327C0E11025C08F7080618093920107
:101F50000E94CE0E8DE891E00E94160E80919201B3
:101F6000F80185838F2D61960FB6F894DEBF0FBE02
:101F7000CDBFDF91CF911F910F91FF90EF90DF9038
:101F8000CF90BF90AF900895809590958C0D9D1D3A
:101F9000C5CF81E0CD2831F05F3F19F481E04F3F9C
:101FA00009F080E080FD24C081E08E25F82FF170DB
:101FB000DF2E80FF3FC080915B0120915C0136E005
:101FC000821318C04D875E878D859E850E94E4131D
:101FD000292F22952F70223008F1243030F59F7080
:101FE00009F1D80115969C91907FE1F4FB2CBACFB2
:101FF00080E0DCCF90E0389FF001399FF00D112494
:10200000E35AFE4F6181561306C06081461303C038
:1020100062816E110FC001968770D2CF9F7011F050
:10202000882321F3805E883008F3C8010E94160ED1
:10203000BD2CDCCFEE2009F495CF80919201816018
:1020400080939201F12C8ECF651314C0341312C00B
:10205000E11010C0F8018583C8010E94160E86E0C9
:10206000F801ADE8B1E001900D928A95E1F70E9488
:10207000CE0E78CF4D875E878D859E850E945F0E40
:10208000882319F1EE2009F180919201803270F0DD
:1020900020918D0130918E0138872F831986DB8640
:1020A000CA868C87CE0107960E94160E86E0F8013C
:1020B000ADE8B1E001900D928A95E1F70E94DC0E47
:1020C0000E94CE0EFF24F3944DCFC8010E94160E3D
:1020D000F9CF911113C07C2DD98AC88A6E2D8989B8
:1020E0000E948E0E8DE891E00E94160E86E0EDE8CB
:1020F000F1E0DF011D928A95E9F7B9CF651312C0AF
:10210000341310C0E1100EC0F8018583C8010E948D
:10211000160EEDE8F1E086E0DF011D928A95E9F701
:10212000FA2C20CF4D875E878D859E850E945F0E9D
:10213000882359F2EE2049F280919201803208F40E
:10214000B5CF20918D0130918E013A8329831B8276
:10215000DD82CC828E83CE010196A6CFC816D90629
:1021600038F1F601E81BF90BCF01F12C883C910501
:1021700008F03DC0FE2CEE2009F4A7CF651326C061
:10218000341324C08091920180FD17C0982F907F56
:10219000A1F0D80115968C931597903F09F45CCF68
:1021A000982F907F905F8F70892B15968C9354CFCA
:1021B000809590958C0D9D1DD8CF86E0F801ADE8F7
:1021C000B1E001900D928A95E1F7CCCE4D875E8704
:1021D0008D859E850E945F0E811168CF809192014E
:1021E000816080939201C8010E94160EBBCE7C2DA7
:1021F000D98AC88A6E2D89890E948E0E77CFEE20EB
:1022000009F463CF4D875E878D859E850E945F0EA2
:10221000F82E882309F459CF86E0F801ADE8B1E043
:1022200001900D928A95E1F78DE891E00E94A10A54
:102230000E94DC0E1CCF1F93CF93DF93CDB7DEB788
:102240002C970FB6F894DEBF0FBECDBF4F835887D3
:1022500069877A878B879C87CE0107960E94470FF4
:10226000882309F442C09F8188852A853B85232BDA
:1022700039F08F3F19F481E09F3F19F080E001C0F1
:1022800081E080FD08C04F81588569857A858B85FE
:102290009C850E949D0E16E080915B0190915C01EF
:1022A000891709F467C0819FC0011124835A9E4F8A
:1022B0000E94470F882309F45DC0E0915B011E9FD7
:1022C000F0011124E35AFE4F4081518162817381F4
:1022D000848195810E949D0E80915B0190E0019622
:1022E0008770992780935B01D7CF86E0FE013796F0
:1022F000DE01119601900D928A95E1F79F81888504
:102300002A853B85232B39F08F3F19F481E09F3FCD
:1023100019F080E001C081E080FDBDCF20915C011B
:1023200030E0C90101968770992740915B014817F9
:10233000190699F096E0929FD001939FB00D112459
:10234000A35ABE4FFE01319601900D929A95E1F786
:1023500080935C010E94AD0E9ECF0E945B0E109296
:102360005C0110925B0186E0EDE8F1E0DF011D9277
:102370008A95E9F72C960FB6F894DEBF0FBECDBF55
:10238000DF91CF911F910895EF92FF920F931F93CA
:10239000CF93DF938C01892B81F0F12CEE24E39411
:1023A000E8012196F8018491843770F4843008F0B4
:1023B0005FC08130B1F08230A1F1DF91CF911F91E8
:1023C0000F91FF90EF900895853709F44CC008F401
:1023D0003DC09CE7980F903780F78F770E94590B8C
:1023E00049C00E5F1F4FFE01849190E2980F983014
:1023F00060F48770FE2D01C0FF0F8A95EAF78F2FDA
:102400000E94D3140E94F41402C00E94A60A8F2DC9
:10241000815030F2EFE9FFE03197F1F700C00000A2
:10242000F7CF0E5F1F4FFE01849190E2980F983016
:1024300050F48770FE2D01C0FF0F8A95EAF78F2FA9
:102440000E94D914DFCF0E94590BE1CF0E5F1F4FBE
:10245000FE01C491C150D8F28FE99FE00197F1F7D6
:1024600000C00000F7CF0E5F1F4FFE01F490CFCFEA
:102470000E94A60A8E01CBCF08950E943C12609361
:10248000BA017093BB018093BC019093BD010C9481
:10249000470E08950C943D120F931F930091BA01BB
:1024A0001091BB012091BC013091BD01602B712BBB
:1024B000822B932B1F910F910C943D120F931F931E
:1024C0000091BA011091BB012091BC013091BD0176
:1024D00060237123822393231F910F910C943D124B
:1024E0000F931F930091BA011091BB012091BC0181
:1024F0003091BD0160277127822793271F910F918B
:102500000C943D120C943C120C9482120E94841282
:102510006093B6017093B7018093B8019093B901AD
:102520000C94470E60E070E0CB010C9486120F9380
:102530001F9341E050E060E070E08A019B0104C01D
:10254000000F111F221F331F8A95D2F7C901B8014E
:102550001F910F910C9486120F931F9341E050E04E
:1025600060E070E004C0440F551F661F771F8A9516
:10257000D2F78091B6019091B701A091B801B091C6
:10258000B9018A019B01082B192B2A2B3B2BC9016E
:10259000B8011F910F910C9486120F931F9341E085
:1025A00050E060E070E004C0440F551F661F771FC5
:1025B0008A95D2F7CB01BA01609570958095909578
:1025C0000091B6011091B7012091B8013091B90185
:1025D00060237123822393231F910F910C94861201
:1025E0000F931F9341E050E060E070E004C0440F9F
:1025F000551F661F771F8A95D2F78091B60190917B
:10260000B701A091B801B091B9018A019B010827D7
:1026100019272A273B27C901B8011F910F910C9454
:1026200086120F931F930091B6011091B70120916C
:10263000B8013091B901602B712B822B932B1F9124
:102640000F910C9486120F931F930091B601109175
:10265000B7012091B8013091B90160237123822321
:1026600093231F910F910C9486120F931F93009147
:10267000B6011091B7012091B8013091B9016027DE
:102680007127822793271F910F910C94861208952A
:102690002AE0929F800D1124982F977071E001C05D
:1026A000770F9A95EAF786958695869525E0829F1D
:1026B000C001112450E040E0A62FB0E0FC01E40F7F
:1026C000F51FED56FE4F60819D01042E02C0369528
:1026D00027950A94E2F7217021952627272326279C
:1026E00020834F5F5F4F4530510541F708952AE041
:1026F000929F800D1124982F9770869586958695C8
:1027000025E0829FA001112470E060E080E0FA01E2
:10271000E60FF71FED56FE4F208130E0092E02C074
:10272000369527950A94E2F721703327062E01C0CB
:10273000220F0A94EAF7822B6F5F7F4F6530710595
:1027400031F70895BF92CF92DF92EF92FF920F93ED
:102750001F93CF93DF938C01C090B601D090B70147
:10276000E090B801F090B9018091BA019091BB015D
:10277000A091BC01B091BD01C82AD92AEA2AFB2A3E
:10278000CFE1D0E0BC2ED701C6010C2E04C0B69517
:10279000A795979587950A94D2F780FD0EC021974B
:1027A00088F7B12C8B2DDF91CF911F910F91FF9066
:1027B000EF90DF90CF90BF900895B8018C2F0E94CA
:1027C000B106019761F3EECFCF93DF93EC010E9446
:1027D000A213BE01DF91CF910C94B1061F93CF934A
:1027E000DF93EB0190915A01992331F0CB01DF91F6
:1027F000CF911F910C94E413882379F0CB010E94B0
:10280000A213182F682FCE010E944813BE01812FFA
:10281000DF91CF911F910C94B106CB010E947713E9
:10282000182FF4CF682F80910001909101010C9432
:10283000C415682F80910001909101010C94CF156F
:1028400080910001909101010C94DA150E946716A5
:102850002091C1013091C2018217930778F00E9444
:1028600067162091C1013091C201821B930B9C011C
:1028700081E0243F314008F480E008950E9467160B
:102880002091C1013091C20120953095280F391F48
:10289000EFCF8091C00185958595859508958091AC
:1028A000C001877008950E9467162091BE01309183
:1028B000BF0182179307B0F00E9467162091BE01F6
:1028C0003091BF01821B930B843F914018F480E04C
:1028D000817008958091C00182FB882780F991E082
:1028E0008927F6CF0E9467162091BE013091BF0163
:1028F00020953095820F931FE7CF98E0899F900134
:102900001124622B6093C0010E94AC120E946716D2
:102910009093BF018093BE0108959091C00180956E
:1029200089238093C001282F277081F4282F082E37
:10293000000C330B9217130649F085958595859504
:102940000E94CD121092BF011092BE010895909185
:10295000C001977081E009F480E008958091E6015C
:1029600008959091E601892B8093E6010895982FB0
:1029700090958091E60189238093E6010895109255
:10298000E60108959091E501892B8093E501089572
:10299000982F90958091E50189238093E501089512
:1029A0001092E50108959091E401892B8093E40150
:1029B0000895982F90958091E40189238093E401F4
:1029C00008951092E40108958093C3010E94671650
:1029D0009093C2018093C10108951092C301109297
:1029E000C2011092C1010895E0910001F09101012E
:1029F0008091E6018083E0910001F09101018081E6
:102A00009091E501892B8083E0910001F091010113
:102A100080819091E401892B80838091C301882378
:102A2000B9F00E94261481110E94ED14E09100017A
:102A3000F091010180819091C301892B8083809165
:102A40000001909101010E94671581110E94ED140F
:102A500080910001909101010C9459098091C3016A
:102A600008956DEE7EEF90E080E00E94742060E0BB
:102A700082E090E00E94622060E083E090E00E94AB
:102A8000622060E084E090E00E94622060E085E0E7
:102A900090E00C94622090E080E00E945C2021E0B5
:102AA0008D3E9E4F09F020E0822F089582E090E055
:102AB0000C94542083E090E00C94542084E090E047
:102AC0000C945420682F84E090E00C946220FC0168
:102AD00031969C01205E3F4F80E0919191118F5F74
:102AE000E217F307D1F708959C01FC0132969FEF9E
:102AF00080E04191461751F09F3F19F4411101C008
:102B0000982F8F5F8E31A9F79F3F09F40895290F01
:102B1000311D97FD3A95F90162830895FC013296C3
:102B200080962191261303C0DF0111971C92E817AC
:102B3000F907B9F70895E62FE695E695E695EF31A2
:102B400069F0E80FF92FF11D677021E030E001C056
:102B5000220F6A95EAF78181822B81830895E62FFF
:102B6000E695E695E695EF3171F0E80FF92FF11D46
:102B7000677021E030E001C0220F6A95EAF72095E6
:102B8000818128232183089520911201222329F095
:102B900020911B0227FD0C949B150C947415209119
:102BA0001201222329F020911B0227FD0C94AF155E
:102BB0000C948E15FC01319680961192E817F90756
:102BC000E1F70895089508950C94E315809121028A
:102BD000843049F11092E80188E190E020E40FB6DA
:102BE000F894A895809360000FBE2093600080E069
:102BF0000E948F060E94E41583B7817F846083BFA3
:102C000083B7816083BF7894889583B78E7F83BFB5
:102C10000FB6F894A8958091600088618093600059
:102C2000109260000FBE08950895CF930E94E215A0
:102C30000E9463030E941416C0E08C2F0E94CB03F5
:102C4000892B31F4CF5FC530C1F780E0CF91089573
:102C500081E0FCCF08950C942A160E945B0E0E941E
:102C60004D090E948F060C942B161F920F920FB6DF
:102C70000F9211248F939F93AF93BF938091E8019C
:102C8000811113C08091170290911802A09119022E
:102C9000B0911A024196A11DB11D80931702909325
:102CA0001802A0931902B0931A02BF91AF919F919D
:102CB0008F910F900FBE0F901F90189582E084BDEA
:102CC00093E095BD9AEF97BD80936E0008952FB75E
:102CD000F8948091170290911802A0911902B09176
:102CE0001A022FBF0895CF92DF92EF92FF920F93B7
:102CF0001F932FB7F89440911702509118026091DA
:102D0000190270911A022FBF6A017B01EE24FF2481
:102D10008C0130E020E0C016D106E206F30650F048
:102D2000481B590BCA011F910F91FF90EF90DF9044
:102D3000CF90089541505109F3CF78941F920F928C
:102D40000FB60F9211248F939F93AF93BF938091EF
:102D5000170290911802A0911902B0911A020196DF
:102D6000A11DB11D8093170290931802A093190220
:102D7000B0931A02BF91AF919F918F910F900FBEA8
:102D80000F901F90189587E797E79093010880931D
:102D9000000888E19AE00FB6F894A8958093600047
:102DA0000FBE90936000FFCF0E944B15811102C0AF
:102DB0000E9431150E9456158093E7010E945E150E
:102DC00090E090931C0280931B020E945A15682F7A
:102DD00070E090E080E00C944A128091EB0180FF5B
:102DE00012C06091050185E0689FB00111247595BE
:102DF00067957595679560387105A8F5611571053A
:102E0000A1F1862F089581FF09C06091050185E039
:102E1000689FB001112475956795EDCF82FF07C0BB
:102E20006091050185E0689FB0011124E4CF2091F5
:102E3000EC012223A9F0909104016091050185E045
:102E4000689FB00111242917B0F6269FA001279F83
:102E5000500D1124692F70E0CA010E942620CBCFAB
:102E600065E070E0CECF8FE7089581E0089580910E
:102E7000EB0180FF0CC06091030170E075956795D0
:102E8000759567956115710549F1862F089581FF44
:102E900006C06091030170E075956795F3CF60916E
:102EA000030182FD0BC09091EC019923A1F0609188
:102EB000020180910301961738F0682F70E06038A6
:102EC000710500F38FE70895899FC001112470E018
:102ED0000E942620F4CF61E070E0D7CF81E0089512
:102EE000803F31F40E94ED1681958093EF010895A3
:102EF000813F19F40E94ED16F8CF823F31F40E9411
:102F0000ED1681958093EE010895833F19F40E9498
:102F1000ED16F8CF893F29F40E9437178093F0010E
:102F200008958A3F21F40E9437178195F7CF8B3F90
:102F300031F40E94371781958093F10108958C3FF9
:102F400019F40E943717F8CF843F31F48091ED01D6
:102F500081608093ED010895853F21F48091ED011A
:102F60008260F7CF863F21F48091ED018460F1CF3C
:102F7000873F21F48091ED018860EBCF883F21F4F9
:102F80008091ED018061E5CF8D3F31F48091EB01BF
:102F900081608093EB0108958E3F21F48091EB01D5
:102FA0008260F7CF8F3FB9F78091EB018460F1CF5A
:102FB000803FC1F48091EF0187FD1092EF01809175
:102FC000EE0181110EC08091EF0181110AC0809144
:102FD000F001811106C08091F101811102C01092AF
:102FE000EC010895813F29F48091EF0118162CF32C
:102FF000E6CF9091EE01823F29F497FFE0CF109247
:10300000EE01DDCF833F19F41916CCF3D8CF893FF9
:1030100039F48091F001181694F61092F001CFCF98
:103020008A3F29F48091F00187FFC9CFF6CF8B3F0B
:1030300039F48091F10187FFC2CF1092F101BFCF27
:103040008C3F29F48091F1011816BCF3B8CF843F6E
:1030500031F48091ED018E7F8093ED01B0CF853FFB
:1030600021F48091ED018D7FF7CF863F21F480918F
:10307000ED018B7FF1CF873F21F48091ED01877FB8
:10308000EBCF883F21F48091ED018F7EE5CF8D3F1E
:1030900031F48091EB018E7F8093EB0190CF8E3FD6
:1030A00021F48091EB018D7FF7CF8F3F09F087CF1F
:1030B0008091EB018B7FF0CF8DEE91E00E9464094F
:1030C0000E9467169093EA018093E90108951F9387
:1030D000CF93DF938091E9019091EA010E947316EA
:1030E000AC019091EC012091060130E0911106C0F5
:1030F000209107018AE0289F90011124421753076D
:1031000080F08091EE01D091EF011091F001C0911B
:10311000F10181110AC0D1116AC0111168C0C11139
:1031200066C0DF91CF911F9108959F3F19F09F5F77
:103130009093EC01181624F40E94ED168093EE0192
:103140008091EE0187FF05C00E94ED168195809366
:10315000EE011D1624F40E94ED168093EF0180917C
:10316000EF0187FF05C00E94ED1681958093EF0166
:103170003091EE013323C1F02091EF012223A1F021
:1031800045EB3403C0011124892F911101C081E066
:103190008093EE0145EB240390011124832F31111C
:1031A00001C081E08093EF01111624F40E943717CB
:1031B0008093F0018091F00187FF05C00E943717CE
:1031C00081958093F0011C1624F40E943717809398
:1031D000F1018091F10187FF05C00E9437178195A9
:1031E0008093F101DF91CF911F910C945C189F3F68
:1031F00009F09DCFAECF85E0EDEEF1E0DF011D924D
:103200008A95E9F71092EC011092EB0108958091F4
:10321000120208950F931F93CF93DF9300D01F9254
:10322000CDB7DEB78C010E94771B823011F084305D
:1032300019F583E089831B830A838093E9008FEF6C
:103240009091E800815095FD06C095ED9A95F1F7B3
:1032500000008111F5CF8091E80085FF0DC050E09E
:1032600040E063E070E0CE0101960E94941B8091E3
:10327000E8008E778093E8000F900F900F90DF9119
:10328000CF911F910F910895CF93DF9300D01F929C
:10329000CDB7DEB720912102243031F522E0298319
:1032A000805891099B838A8383E08093E9008FEFA4
:1032B0009091E800815095FD06C095ED9A95F1F743
:1032C00000008111F5CF8091E80085FF0DC050E02E
:1032D00040E063E070E0CE0101960E94941B809173
:1032E000E8008E778093E8000F900F900F90DF91A9
:1032F000CF910895CF93DF93EC010E94771B82302A
:1033000011F08430F9F482E08093E9008FEF90911E
:10331000E800815095FD06C095ED9A95F1F7000003
:103320008111F5CF8091E80085FF0CC050E040E0AE
:1033300065E070E0CE010E94941B8091E8008E77DA
:103340008093E800DF91CF910895CF93DF93EC0154
:103350000E94771B823011F08430F9F480911201C1
:103360008823F1F080911B0287FF1AC084E08093CC
:10337000E9008FEF9091E800815095FD06C095E13E
:103380009A95F1F700008111F5CF8091E80050E0A7
:1033900040E060E270E085FD1AC0DF91CF910895B2
:1033A00081E08093E9008FEF9091E800815095FDD6
:1033B00006C095ED9A95F1F700008111F5CF809147
:1033C000E80085FFEACF50E040E068E070E0CE0121
:1033D0000E94941B8091E8008E778093E80080E241
:1033E000FE01A2EFB1E001900D928A95E1F7D5CFF1
:1033F00080912002811109C00E94241D0E94811D1C
:103400008091E20084608093E2000895109220028F
:103410000895089508950C942D1642E061EC81E022
:103420000E94A21C42E061EC82E00E94A21C42E0E9
:1034300061EC83E00E94A21C42E261EC84E00C9407
:10344000A21C80912302833009F455C030F48130EE
:1034500071F1823009F491C008958A3009F47DC079
:103460008B3009F463C0893009F044C08091220296
:10347000813209F03FC08091260290912702009787
:1034800011F00397B9F58091E800877F8093E800F9
:103490008091E80082FF2AC08091F100809312029F
:1034A0008091E8008B778093E8000C94D61C809183
:1034B0002202813AF9F48091E800877F8093E80046
:1034C0008091260290912702892B61F460E282EFBD
:1034D00091E070E00E94E31B8091E8008B7780937D
:1034E000E800089560E090E080E0F3CF8091210251
:1034F0008111CECF089580912202813AD9F780912F
:10350000260290912702892BA9F78091E800877FF6
:103510008093E8008091E80080FFFCCF8091120149
:103520008093F1008091E8008E77BDCF80912202D8
:10353000813201F78091260290912702892BD1F6E2
:103540008091E800877F8093E8000E94D61C8091DC
:103550002402809312010C945B0E8091220281322E
:1035600049F68091E800877F8093E8000E94D61C8E
:103570008091250280931302089580912202813A5E
:1035800009F0B8CF8091E800877F8093E8008091B0
:10359000E80080FFFCCF80911302C2CF84B7877F01
:1035A00084BF0FB6F894A8958091600088618093DD
:1035B0006000109260000FBE80E88093610010925E
:1035C00061000E949C090E94241D0E94811D80911F
:1035D000E20084608093E20078940E940A200E94B6
:1035E000A00988E091E00E9448098091210285307D
:1035F00019F00E94AC09F9CF0E94E61580911F02D4
:10360000882399F30E941516882379F30E947E1B64
:10361000ECCF0C940B1B292F33272330310579F184
:1036200058F421303105F1F02230310519F190E0E4
:1036300080E030E020E01AC021323105C9F12232A9
:103640003105A9F76430710590F7FB01EE0FFF1FFC
:10365000E95EFE4F208131816D5E7E4FFB018081EE
:1036600090E004C082E190E02FE135E0FA0131837F
:10367000208308958DE690E022EB34E0F7CF992780
:103680008130910579F040F08230910571F0039717
:1036900071F6E4E8F4E002C0EEEAF4E0849190E030
:1036A0009F01E4CFECE9F4E0F9CFEAE8F4E0F6CFEB
:1036B0006430710508F0BBCF660F771FFB01E15E38
:1036C000FE4F2081318189E090E0D0CF0895CF93E3
:1036D000C82F0E94661BC0931402CF910895809159
:1036E0002102843011F081E0089582E008958091F4
:1036F0001402811102C00C946F1B089580E189BDF2
:1037000082E189BD09B400FEFDCF8091D8008F7D94
:103710008093D8008091E00082608093E0008091E7
:10372000E00081FDFCCF0895AF92BF92CF92DF926F
:10373000FF920F931F93CF93DF936C01EB018A01EC
:103740000E94F51CF82E811123C00115110539F0D6
:10375000F80180819181C81BD90BC80ED91EB12CEC
:10376000A12C2097A9F08091E80085FD22C08091CE
:10377000E8008E778093E80001151105A1F0F801AB
:1037800080819181A80EB91EB182A08285E0F82EB9
:103790008F2DDF91CF911F910F91FF90DF90CF90F0
:1037A000BF90AF9008950E94F51C8823D1F2F82EA7
:1037B000EFCFF60181916F018093F1002197FFEF28
:1037C000AF1ABF0ACECFFC01809128029091290246
:1037D00086179707A0F06115710529F49091E8000C
:1037E0009E779093E80090E06115710551F4911176
:1037F00008C08091E80082FF35C080E00895BC01D8
:10380000F2CF809121028823C9F18530C9F18091DE
:10381000E80083FD31C08091E80082FDEACF80910D
:10382000E80080FFE1CF2091F3008091F200322F79
:10383000282F6115710519F02830310558F091E0F5
:103840002830310509F090E02091E8002E77209390
:10385000E800CACF81918093F100615071092F5F18
:103860003F4FE7CF80912102882341F0853041F01E
:103870008091E80083FFBDCF81E0089582E0089544
:1038800083E00895FC018091280290912902861717
:103890009707A0F06115710529F48091E8008E77F3
:1038A0008093E80090E06115710551F4911108C012
:1038B0008091E80082FF36C080E00895BC01F2CF1D
:1038C000809121028823D1F18530D1F18091E800E7
:1038D00083FD32C08091E80082FDEACF8091E8004C
:1038E00080FFE1CF2091F3008091F200322F282F4A
:1038F0006115710519F02830310558F091E0283034
:10390000310509F090E08091E8008E778093E8001F
:10391000CACF84918093F1003196615071092F5F75
:103920003F4FE6CF80912102882341F0853041F05E
:103930008091E80083FFBCCF81E0089582E0089584
:1039400083E00895982F973028F08F708093E900D6
:1039500081E008959093E900242F762F50E0981786
:1039600031F07091EC002091ED005091F00021FDBC
:1039700002C09F5FE8CF3091EB003E7F3093EB00B9
:103980003091ED003D7F3093ED003091EB003160E0
:103990003093EB007093EC002093ED005093F00017
:1039A0002091EE0027FDE5CF80E00895809122026E
:1039B00087FF13C08091E80082FF06C08091E80075
:1039C0008B778093E80004C0809121028111F2CFAF
:1039D0000895809121028823D9F38091E80080FF27
:1039E000F8CF8091E8008E77ECCF2091E400309101
:1039F000E50085E69091EC0090FF06C09091E8000C
:103A000090FF06C080E008959091E80092FDFACF03
:103A100090912102992391F0953091F09091EB00D3
:103A200095FD10C04091E4005091E5002417350742
:103A300009F381509A01F1F684E0089582E0089537
:103A400083E0089581E008950E94921D0E949A1DCE
:103A5000E0EEF0E0808181608083E8EDF0E080813D
:103A60008F77808319BCA7EDB0E08C918E7F8C930B
:103A700080818F7E80831092200208950F931F9380
:103A8000CF93DF930E94921D0E949A1DC8EDD0E053
:103A900088818F77888388818068888388818F7DFB
:103AA000888319BC1092210210921D0210921F02ED
:103AB00010921E0200EE10E0F80180818B7F80835F
:103AC00088818160888342E060E080E00E94A21CDF
:103AD000E1EEF0E080818E7F8083E2EEF0E0808195
:103AE00081608083808188608083F80180818E7FFF
:103AF0008083888180618883DF91CF911F910F91AE
:103B00000895E8EDF0E080818F7E8083E7EDF0E0BE
:103B100080818160808384E082BF81E08093200285
:103B20000C943E1DE8EDF0E080818E7F8083109242
:103B3000E20008951092DA001092E10008951F92B9
:103B40000F920FB60F9211242F933F934F935F93D1
:103B50006F937F938F939F93AF93BF93EF93FF9355
:103B60008091E10082FF0BC08091E20082FF07C0DC
:103B70008091E1008B7F8093E1000E940920809179
:103B8000DA0080FF19C08091D80080FF15C08091B5
:103B9000DA008E7F8093DA008091D90080FF94C094
:103BA00080E189BD82E189BD09B400FEFDCF81E0DD
:103BB000809321020E94F8198091E10080FF19C0D2
:103BC0008091E20080FF15C08091E2008E7F80939B
:103BD000E2008091E20080618093E2008091D80051
:103BE00080628093D80019BC85E0809321020E94F6
:103BF0000A1A8091E10084FF29C08091E20084FFCD
:103C000025C080E189BD82E189BD09B400FEFDCFF8
:103C10008091D8008F7D8093D8008091E1008F7EC5
:103C20008093E1008091E2008F7E8093E20080919A
:103C3000E20081608093E20080911D02882309F4F4
:103C400049C084E0809321020E940B1A8091E10018
:103C500083FF29C08091E20083FF25C08091E100AD
:103C6000877F8093E10082E08093210210921D0201
:103C70008091E1008E7F8093E1008091E2008E7F51
:103C80008093E2008091E20080618093E20042E054
:103C900060E080E00E94A21C8091F0008860809328
:103CA000F0000E94091AFF91EF91BF91AF919F918F
:103CB0008F917F916F915F914F913F912F910F90D5
:103CC0000FBE0F901F90189519BC109221020E94F0
:103CD000061A72CF8091E30087FD02C081E0B2CF67
:103CE00083E0B0CF1F920F920FB60F9211242F9343
:103CF0003F934F935F936F937F938F939F93AF9374
:103D0000BF93CF93EF93FF93C091E900CF70809161
:103D1000EC001092E9008091F000877F8093F00022
:103D200078940E94AE1E1092E9008091F0008860A5
:103D30008093F000C093E900FF91EF91CF91BF9184
:103D4000AF919F918F917F916F915F914F913F9133
:103D50002F910F900FBE0F901F9018951F93CF9328
:103D6000DF93CDB7DEB7AA970FB6F894DEBF0FBECC
:103D7000CDBFE2E2F2E08091F100819322E0EA32ED
:103D8000F207C9F70E94211A8091E80083FF44C01E
:103D900080912202909123029A3008F03DC0E92FD1
:103DA000F0E0EB52F14E0C943A20DF1E051F0C1F81
:103DB000051F0C1F631F851F0C1FDC1FE91F8038A8
:103DC00089F0823849F5809126028F70873020F57E
:103DD0008093E9008091EB0085FB882780F91092A1
:103DE000E90006C080911E0290911F02911182602D
:103DF0009091E800977F9093E8008093F1001092F3
:103E0000F1008091E8008E772DC0282F2D7F21F4BE
:103E10008823D1F0823059F18091E80083FF0AC0F5
:103E20008091E800877F8093E8008091EB008062BA
:103E30008093EB00AA960FB6F894DEBF0FBECDBFFD
:103E4000DF91CF911F91089580912402813021F755
:103E5000933009F080E080931F021092E900809176
:103E6000E800877F8093E8000E94D61CD5CF809120
:103E700024028111F2CF809126028F702FEF280F3C
:103E8000263050F68093E9002091EB0020FFE5CF2B
:103E9000933031F48091EB0080628093EB00DDCFB2
:103EA0009091EB0090619093EB0021E030E001C035
:103EB000220F8A95EAF72093EA001092EA00809197
:103EC000EB008860EACF8111A7CF109124021F7701
:103ED0008091E3008078812B8093E3008091E8005B
:103EE000877F8093E8000E94D61C8091E80080FFC5
:103EF000FCCF8091E30080688093E30083E01111A0
:103F000001C082E08093210287CF8058823008F080
:103F100083CF80912402909125028C3D23E092076B
:103F2000A1F583E08A838AE289834FB7F894DE01A2
:103F3000139620E03EE051E2E32FF0E0509357006B
:103F4000E49120FF03C0E295EF703F5FEF708E2F8A
:103F500090E0EA30C0F0C7968D939D932F5F243197
:103F600059F74FBF8091E800877F8093E8006AE2AD
:103F700070E0CE0101960E94E31B8091E8008B77F0
:103F80008093E80049CFC096E7CF609126027091F8
:103F90002702AE014F5F5F4F0E94091BBC01892BB6
:103FA00009F43ACF9091E800977F9093E8008981D7
:103FB0009A810E94421CE1CF803809F02DCF809178
:103FC000E800877F8093E80080911D028093F100D4
:103FD00018CF811121CF90912402923008F01CCF8C
:103FE0008091E800877F8093E80090931D020E94F3
:103FF000D61C80911D02882331F084E08093210239
:104000000E940D1A09CF8091E30087FDF6CF81E071
:10401000F5CF0895CF9380912102882399F0C09124
:10402000E900CF708091EC0080FD0EC080E0C82BCD
:104030001092E9008091E80083FD0E94AE1ECF70CF
:10404000C093E900CF91089580E8F1CF97FB072E48
:1040500016F4009407D077FD09D00E94402007FC99
:1040600005D03EF4909581959F4F08957095619588
:104070007F4F0895EE0FFF1F0590F491E02D0994F6
:10408000AA1BBB1B51E107C0AA1FBB1FA617B7077E
:1040900010F0A61BB70B881F991F5A95A9F780959A
:1040A0009095BC01CD010895F999FECF92BD81BDD7
:1040B000F89A992780B50895A8E1B0E042E050E071
:1040C0000C947C20262FF999FECF92BD81BDF89AE1
:1040D000019700B4021639F01FBA20BD0FB6F8944C
:1040E000FA9AF99A0FBE08950196272F0E9463202D
:1040F0000C946220DC01CB01FC01F999FECF06C0D3
:10410000F2BDE1BDF89A319600B40D924150504095
:08411000B8F70895F894FFCF01
:10411800C4012808140A321E0719A5197A19441966
:104128000A1901404D3639ED05A0056A053105C467
:0841380004DD04F6040F05008C
:00000001FF
