:100000000C94ED020C9434030C9434030C943403DC
:100010000C9434030C9434030C9434030C94340384
:100020000C9434030C9434030C94371E0C940A1F64
:100030000C94CD160C9434030C9434030C943403B8
:100040000C9434030C9434030C9434030C94340354
:100050000C9434030C9435170C9434030C9434032F
:100060000C9434030C9434030C9434030C94340334
:100070000C9434030C9434030C9434030C94340324
:100080000C9434030C9434030C9434030C94340314
:100090000C9434030C9434030C9434030C94340304
:1000A0000C9434030C9434030C94340314001A009D
:1000B0000800150017001C0018000C0012001300A7
:1000C00004001600070009000A000B000D000E00D6
:1000D0000F0033001D001B00060019000500110071
:1000E000100036003700340000002A004C00E00009
:1000F00002530353E40028002A0000000000E2003D
:100100002700E1002C002C00E5003900E60000008B
:100110001400070015001A0005000D000900180062
:1001200013003300040016000B0017000A001C0027
:100130001100080012000C001D001B00100006003A
:1001400019000E000F0036003700340000000100D7
:100150000100010001000100010001000100000098
:10016000000001001E00010001000100010001006B
:1001700001000000260025002400230022003B008F
:100180004E0052002B004B00210020001F001E00DB
:1001900027004A00500051004F004D001D011B0177
:1001A00006011901E30007002D0236002D0037007B
:1001B000000001000100010002530353010001008F
:1001C00001000000000001001F000100010001000B
:1001D000010001000100000020021F02240237007C
:1001E00033002D02360031022302220225022E02A4
:1001F0002F02260233023402270230022D002E0085
:100200003100380236022F00210235023000370259
:100210001E023800000001000100010004530353D6
:1002200001000100010000000000010020000100A9
:100230000100010001000100010000003F0040003A
:100240004100420043007600F400F000F500F900A0
:100250003A003B003C003D003E007600F200F10019
:10026000F300FA004400450035007F0029004600F5
:100270004700FB00FC00F600000001000100010047
:1002800004530553010001000100000000000100BB
:100290002100010001000100010001000100000037
:1002A0001E021E021E021E021E0201531E021E021A
:1002B0001E021E021E021E021E021E021E021E023E
:1002C0001E021E021E021E0206531E0207531E02BB
:1002D00008531E021E021E021E021E020000010022
:1002E0000100010005530553010001000100000059
:1002F00000000100220001000100010001000100D6
:100300000100000014001A00080015001700130077
:100310001C0052000E001E00040016000700090019
:100320000A000B00500051004F001F001D001B0071
:1003300006001900050010002502250225022000F4
:10034000000001000100010006532300010001002C
:100350000100000000000100230001000100010075
:100360000100010001000000A280BC80BD80A383C9
:10037000D8800FA533A513A5BB8318A0F180A98051
:10038000B080B1800FAB23A54BA52BA5948319A0FA
:10039000A180BF80D780F780C08317A53BA51BA590
:1003A0001CA01DA000000100010001000753240053
:1003B0000100010001000000000001002400010014
:1003C00001000100010001000100000063005F0066
:1003D0006000610056006700A900AA00800081004B
:1003E00062005C005D005E0057005300B600A8008C
:1003F000E7004800550059005A005B0054005800BF
:10040000AE00AC00AB00490000000100010001009B
:100410000853250001000100010000000000010058
:1004200025000100010001000100010001000000A1
:1004300004033000000010034D00690074006F00D9
:100440007300690073000000100355006E006B001C
:100450006E006F0077006E000000040309040902BB
:100460006D00040100A0FA0904000001030101006D
:100470000921110100012240000705810308000A3B
:1004800009040100010301020009211101000122F8
:100490004D000705820308000A0904020001030059
:1004A000000009211101000122360007058303081D
:1004B000000A0904030001030000000921110100E2
:1004C00001223900070584032000011201100100F8
:1004D000000008EDFE606001000102030105010952
:1004E00006A101050719E029E71500250195087502
:1004F00001810205081901290595057501910295EB
:1005000001750391010507190029F71500250195CB
:10051000F875018102C005010980A101850216015B
:10052000002603001A81002A8300751095018100BE
:10053000C0050C0901A1018503160100269C021AC1
:1005400001002A9C02751095018100C00501090275
:10055000A1010901A10005091901290515002501BD
:100560009505750181029501750381010501093029
:1005700009311581257F9502750881060938158195
:10058000257F950175088106050C0A38021581251D
:100590007F950175088106C0C005010906A1010506
:1005A0000719E029E71500250195087501810295D5
:1005B0000175088101050819012905950575019145
:1005C000029501750391010507190029FF15002601
:1005D000FF00950675088100C00011241FBECFEFF3
:1005E000DAE0DEBFCDBF04B603FE27C080912B0248
:1005F00090912C02A0912D02B0912E028730904B49
:10060000A740B04BD1F410922B0210922C02109202
:100610002D0210922E0214BE84B7877F84BF0FB6BE
:10062000F894A89580916000886180936000109292
:1006300060000FBEE0E0F8E3099511E0A0E0B1E052
:10064000E8E4F2E402C005900D92A832B107D9F7B0
:1006500022E0A8E2B1E001C01D92AB32B207E1F79F
:100660000E94661B0C9422210C9400000C94AC0593
:10067000EF92FF921F93CF93DF93CDB7DEB72B9707
:100680000FB6F894DEBF0FBECDBF1092CC00109213
:10069000CD0088E18093C90086E08093CA0083E79B
:1006A0008093CE00CE0101967C018BE0D7011D9294
:1006B0008A95E9F7D7019E01245F3F4FC70140E0CB
:1006C00050E0BA011091C80017FD0AC04F5F5F4F9C
:1006D0006F4F7F4F4131E7E25E076105710590F38F
:1006E0001091CE00FC011193CF01E217F30751F7EF
:1006F0008B85803EB1F428E231E0B701665F7F4F21
:1007000011968C911197F0E28F9FC00111244C91AA
:10071000842BF901819391939F0112966A177B07AD
:1007200079F70E94AE0581E02B960FB6F894DEBFF4
:100730000FBECDBFDF91CF911F91FF90EF90089535
:10074000E82FF0E0EE0FFF1FE85DFE4F8081918102
:10075000089508951092CC001092CD0088E1809306
:10076000C90086E08093CA000895519A599A80B3CF
:10077000806380BB81B3806381BB08950E94F303D3
:100780000E94AA030C94B5030C94C70308956091CA
:10079000B6017091B7018091B8019091B9010E94A2
:1007A0007C158830A8F4E82FF0E0E752FC4F0C9459
:1007B000D220E103E103E503E903EB03EE03E803E1
:1007C000F0038D9A599A8C9A08958D9A599A8C981B
:1007D00008958D98F7CF8D9A5998F5CF8D98FCCFC5
:1007E0008D9A5998F4CF81E00C949B0881E008958C
:1007F00081E008950C94F8030E94A60E2FEF84E385
:100800009CE0215080409040E1F700C0000087E765
:1008100097E790930108809300080C945B17FF9270
:100820000F931F93CF93DF938C01FC01C081D18183
:1008300080915A01811148C08281882309F43FC008
:10084000CE010E94ED13F82E682FCE010E94931363
:10085000BE018F2D0E94C405EC01B8010E94FA036D
:10086000882309F465C0B801CE010E9428088823B6
:1008700009F45EC0B801CE010E947708882309F40C
:1008800057C0C531FCE5DF0709F446C110F5C1309A
:10089000ECE5DE0709F453C008F063C0C115DC4580
:1008A00009F441C081E08093370180933801C80189
:1008B000DF91CF911F910F91FF900C94F603CE0121
:1008C0000E94C213F82EC4CFCE010E94ED13BE01C8
:1008D000C1CFC63DECE5DE0709F403C1B8F4C43D61
:1008E0008CE5D80709F4C1C0C53DDC45D9F6F8014F
:1008F0008281882309F4E0C0109238010E94FF161B
:10090000909336018093350180E2BCC0C93DFCE57F
:10091000DF07F9F0CA3DDC4529F6F801828188231A
:1009200039F082E01BC0F801828181110E94FC0332
:1009300080E0DF91CF911F910F91FF900895F80112
:1009400082818823A9F38091E70181608093E70188
:10095000EFCFF8018281882359F380E00E94FF1BCA
:10096000E7CFF8018281882309F4A1CF0E94E31523
:10097000811102C00E94C9150E94F61590E0909363
:100980001D0280931C02FE01E350FC4580911C0275
:100990008160E231F105C8F4E053FB4F0C94D220A2
:1009A000E204EE04F204F604FA04FE04020506056D
:1009B0000A050E05120516051A051E05220526054F
:1009C0002A052E0580911C02826080931C02809172
:1009D0001C020E94FA150E94A60EAACF80911C024A
:1009E0008460F3CF80911C028860EFCF80911C025D
:1009F0008061EBCF80911C028062E7CF80911C0266
:100A00008064E3CF80911C028068DFCF80911C025C
:100A10008460EACF80911C028E7FD7CF80911C0228
:100A20008D7FD3CF80911C028B7FCFCF80911C0212
:100A3000877FCBCF80911C028F7EC7CF80911C0215
:100A40008F7DC3CF80911C028F7BBFCF80911C0212
:100A50008F77BBCF80911C028B7FEACF90911C02D5
:100A6000892F97FB87F98058B0CFF80182818823BE
:100A700061F0109237010E94FF1690933401809329
:100A8000330182E00E94CC0B53CF8091370181115A
:100A90000FC080913301909134010E940B17883C64
:100AA000910530F486E20E94F10A86E20E94A40BCE
:100AB00082E00E94D30B3CCF8091380181110FC09E
:100AC00080913501909136010E940B17883C910569
:100AD00030F487E20E94F10A87E20E94A40B80E2D0
:100AE000E8CFF8018281811107CF8091380181110F
:100AF000F6CF80913501909136010E940B17883C0A
:100B0000910568F780E20E94D30B88E20E94F10A07
:100B100088E20E94A40B0CCF0E94F914F801928184
:100B2000992381F08A7A91E009F490E09093320160
:100B3000811106C089E20E945D140E943F15F8CE23
:100B400085E3F9CF80913201811104C089E20E94CE
:100B50006414F3CF85E3FBCF0C94BE030C94C40361
:100B6000282F2F7041F0822F90E02A3010F44D96FC
:100B700008950697089587E290E008950C94C603BF
:100B800090E080E008950895972F70E02AE0929F0A
:100B9000600D711D1124FB0192E3899FE00DF11D91
:100BA0001124EE0FFF1FE455FF4F85919491089596
:100BB000FC01EE0FFF1FE05DFB4F859194910895BE
:100BC000CF93DF930E94C4050E948407EC01811536
:100BD000904508F043C0C11580E4D80708F00AC169
:100BE000C83ED10528F5C03ED10508F09EC0C83AE0
:100BF000D10580F4C53AD10508F08DC0C130D105CA
:100C000009F493C020F0C430D10508F08EC0D0E0C4
:100C1000C0E08BC0CD3BD10508F48BC0CE01805C19
:100C20009109C03CD10598F30E94D805EC017DC024
:100C3000C11520E2D20750F4C11581E0D80708F0B1
:100C400074C0C03FD10518F3D0656FC0C11520E353
:100C5000D20708F0C5C0CE019F70E6CFC11585E56B
:100C6000D80760F5C11524E5D20708F0F1C0C11519
:100C700082E5D80750F4C11521E5D20708F4BDC0BC
:100C8000DC2FCC27C16FD06A50C09C2F96959695CB
:100C90009E0123703327C115D34508F0CAC0C1E0B7
:100CA000D0E002C0CC0FDD1F2A95E2F720E2929F30
:100CB000C0011124C82BD92BDC6837C0C11529E528
:100CC000D20780F4C11588E5D80708F0C6C0C11561
:100CD00026E5D20708F09BCFDC2FCC27CC27DF718D
:100CE000D06223C0C1158AE5D80708F4BBC0CE0185
:100CF00090568115904208F08ACF8D2F8F710E94F7
:100D00000408DD27D06290E0982F882788279F71FC
:100D1000C82BD92B0AC0C53AD10509F4B0C0C63AD0
:100D2000D10509F4AFC0C3E8D0E4CE01DF91CF9183
:100D30000895C83AD10509F4A8C0C93AD10509F403
:100D4000A7C0CA3AD10509F4A6C0CB3AD10509F427
:100D5000A5C0CC3AD10509F4A4C0CB3BD10509F418
:100D6000A3C0CC3BD10509F4A2C0CD3AD10509F40A
:100D7000A1C0C03BD10509F4A0C0CE3AD10509F409
:100D80009FC0CF3AD10509F49EC0C13BD10509F4FB
:100D90009DC0C23BD10509F49CC0C33BD10509F4F9
:100DA0009BC0C43BD10509F49AC0C53BD10509F4E9
:100DB00099C0C63BD10509F498C0C73BD10509F4D9
:100DC00097C0C83BD10509F496C0C93BD10509F4C9
:100DD00095C0CA3BD10509F094C0CAE2D6E4A5CFBC
:100DE000CE019927D3FF03C0EC01D86C9ECFEC0154
:100DF000D06C9BCFDF70D06A98CFCE01E4E096959F
:100E00008795EA95E1F783709C2F937021E030E09D
:100E100002C0220F331F9A95E2F73C68382BC69523
:100E2000C695C37080E2C89FE0011124C22BD32B6A
:100E30007CCFC1E0D0E002C0CC0FDD1F2A95E2F7E5
:100E400020E2929FC0011124C82BD92BDA686DCF04
:100E5000DC2FCC27C46FD06A68CFDC2FCC27C06FC3
:100E6000D06A63CFCE0134E0969587953A95E1F745
:100E70008F70CF70C06ED0E0D06AD82B56CFC1E84B
:100E8000D0E453CFC2E8D0E450CFC2EED4E44DCF8B
:100E9000C9EED4E44ACFCAEED4E447CFC5EBD4E4DC
:100EA00044CFC6EBD4E441CFC3EBD4E43ECFC4EB94
:100EB000D4E43BCFC7EBD4E438CFCCECD4E435CF8B
:100EC000CDECD4E432CFC3E8D5E42FCFCAE8D5E4E3
:100ED0002CCFC2E9D5E429CFC4E9D5E426CFC1E2BD
:100EE000D6E423CFC3E2D6E420CFC4E2D6E41DCFBC
:100EF000C5E2D6E41ACFC6E2D6E417CFC7E2D6E4FD
:100F000014CFC0E0D4E411CF8238910549F1B0F498
:100F10008133910509F45CC048F48932910509F4E4
:100F200052C08A32910509F458C00895853391055D
:100F300009F444C08933910599F00895833E9105E1
:100F400031F138F4803E910591F0823E9105B1F087
:100F50000895863E910511F1873E910541F108956E
:100F600020911C022370C9F080EE90E0089520913A
:100F70001C0220FF12C089E390E0089520911C021A
:100F800022FF0BC024FF2EC090E080E00895209146
:100F90001C0222FD2AC024FDF7CF089520911C02D7
:100FA00023FFFBCF24FDF0CF87EE90E00895209142
:100FB0001C0223FFF0CF86EE90E0089520911C02E2
:100FC00025FD16C0089520911C0225FD14C008952A
:100FD00020911C0226FD12C0089520911C0226FDBE
:100FE00010C0089583EE90E0089582EE90E0089599
:100FF00089E290E0089585E390E008958AE290E028
:10100000089581E390E0C9CF90911C0292FF06C041
:10101000282F2871283069F4877F846093FF06C0E9
:10102000282F2871283161F4877E846194FD877EA2
:101030000895282F2471243089F78B7F8860EECFA4
:10104000282F2471243191F78B7E8861EFCF08958A
:101050000F931F93CF938C01FB018281811106C0F6
:10106000C1E08C2FCF911F910F910895C09146013F
:10107000C11125C006311C4599F70E94270881E05F
:10108000809346010E94FF1690934501809344018E
:101090001092390110923B0110923A0110923D01D9
:1010A00010923C0110923F0110923E0110924101BA
:1010B000109240011092430110924201D2CF8091D0
:1010C0004401909145010E940B178C32914040F6EB
:1010D00080913901E82FF0E0EE0FFF1FE65CFE4F34
:1010E000118300838F5F80933901C0E0BACFCF9323
:1010F000DF93EC01C13080E8D807C8F0FB018281A2
:101100008823A9F080914701811109C08CE090E00B
:101110000E94EC200E949B0881E0809347010E947E
:10112000A208CE019F770E946D090E941F0981E0ED
:10113000DF91CF91089580934801682F8CE090E073
:101140000C94FA20E0910001F091010180818093DC
:10115000150281FF03C081EE0E94A40B809115024D
:1011600085FF03C085EE0E94A40B8091150280FFCD
:1011700003C080EE0E94A40B8091150284FF03C07F
:1011800084EE0E94A40B8091150282FF03C082EEC0
:101190000E94A40B8091150286FF03C086EE0E9478
:1011A000A40B8091150283FF03C083EE0E94A40B61
:1011B0008091150287FF03C087EE0E94A40B8091E7
:1011C0004801823049F158F4882379F0813089F060
:1011D0008FE39CE90197F1F700C000000895843087
:1011E00019F18530A9F786EE01C082EE0E94F10A5E
:1011F000EFCF80EE0E94F10A81EE0E94F10A88E1B1
:101200000E94F10A88E10E94A40B81EE0E94A40BC7
:1012100080EE0E94A40BDCCF82EE0E94F10A87E5EB
:101220000E94F10A87E5F5CF86EE0E94F10A86EE6C
:101230000E94A40B88E10E94F10A88E1EACF809124
:101240004801813009F443C0E0F18230D1F18530AA
:10125000E1F18091150281FF03C081EE0E94F10A45
:101260008091150285FF03C085EE0E94F10A8091EE
:10127000150280FF03C080EE0E94F10A80911502E2
:1012800084FF03C084EE0E94F10A8091150282FF60
:1012900003C082EE0E94F10A8091150286FF03C00E
:1012A00086EE0E94F10A8091150283FF03C083EE4F
:1012B0000E94F10A8091150287FF0EC087EE0C9400
:1012C000F10A82EE0E94A40BC4CF86EEFBCF8CE223
:1012D0000E94F10A8CE2F6CF0895EF92FF921F93DD
:1012E000CF93DF937C01CCE0D0E0C7010C2E02C08D
:1012F000969587950A94E2F7182F1F70812F0E9408
:10130000B0050E94F10A812F0E94B0050E94A40B33
:101310002497CC3F8FEFD80741F7DF91CF911F91F2
:10132000FF90EF90089590934E0180934D010895A2
:10133000E0914D01F0914E01309721F00190F08144
:10134000E02D099480E00895E0914D01F0914E0167
:10135000309721F00280F381E02D09940895E09107
:101360004D01F0914E01309721F00480F581E02D80
:101370000994089520914B0130914C0128173907A9
:1013800071F090934C0180934B01E0914D01F091ED
:101390004E01309721F00680F781E02D09940895E1
:1013A0002091490130914A012817390771F0909333
:1013B0004A0180934901E0914D01F0914E0130972F
:1013C00021F00084F185E02D0994089508950C948E
:1013D000E60981E008950E94F61685B7806885BF0A
:1013E00085B7806885BF0E9436030C946C175F92A6
:1013F0006F927F928F929F92AF92BF92CF92DF9225
:10140000EF92FF920F931F93CF93DF93CDB7DEB789
:101410002A970FB6F894DEBF0FBECDBF0E943803E7
:101420000E94E909882309F47AC090E5A92E91E089
:10143000B92E10E000E088248394912C502E802F48
:101440000E94A0037C01F501C190D1905F01C816F4
:10145000D90609F45EC08091E70181FD0E94A903CD
:1014600090E080E0CE24DF243401082E02C0660C18
:10147000771C0A94E2F7960126213721232B09F4E1
:1014800043C08E835F82E620F72081E0EF2809F4D5
:1014900080E088870E94FF168160782F9A8789876D
:1014A0004E815F8168858A850E94B60A000F111FF0
:1014B000F801E05BFE4F8081918168267926718278
:1014C00060820E94FF180E94980990914F0189172D
:1014D000B9F10E94980980934F012A960FB6F894AB
:1014E000DEBF0FBECDBFDF91CF911F910F91FF9057
:1014F000EF90DF90CF90BF90AF909F908F907F90B4
:101500006F905F900C94BE0501968A30910509F0AA
:10151000ABCF0F5F1F4F0530110509F08FCF8FEF55
:1015200089838A831B820E94FF168160782F9D83A6
:101530008C8349815A816B818D810E94B60AC1CF0B
:101540002A960FB6F894DEBF0FBECDBFDF91CF91C4
:101550001F910F91FF90EF90DF90CF90BF90AF90D1
:101560009F908F907F906F905F900895CF93DF93BF
:10157000CDB7DEB72B970FB6F894DEBF0FBECDBF49
:101580004F83588769877A878B871E821D8285E003
:10159000FE013796DE01119601900D928A95E1F7D2
:1015A0000E949E14882319F082E00E94D8140E94A1
:1015B000711481110E94381549815A816B817C8197
:1015C0008D819E812B960FB6F894DEBF0FBECDBFE6
:1015D000DF91CF910C946611FC01808191810C9474
:1015E0002F14882309F4AFC09CEF980F913A20F490
:1015F0000E945D140C943F1590E2980F983050F4BF
:10160000877091E001C0990F8A95EAF7892F0E94AF
:10161000FC14F0CF9BE5980F933070F4853A31F0CD
:10162000863A39F083E890E00C94BA0981E890E0BA
:10163000FBCF82E890E0F8CF98E5980F953108F05D
:1016400082C0883A09F440C0893A09F440C08A3A15
:1016500009F440C08B3A09F440C08C3A09F440C008
:101660008B3B09F440C08C3B09F440C08D3A09F42F
:1016700040C0803B09F440C08E3A09F440C08F3A24
:1016800009F440C0813B09F440C0823B09F440C0EA
:10169000833B09F440C0843B09F440C0853B09F416
:1016A00040C0863B09F440C0873B09F440C0883BFA
:1016B00009F440C0893B09F440C08A3B09F440C0AA
:1016C00090E080E00C94D00982EE90E0FBCF89EEB0
:1016D00090E0F8CF8AEE90E0F5CF85EB90E0F2CF86
:1016E00086EB90E0EFCF83EB90E0ECCF84EB90E0E3
:1016F000E9CF87EB90E0E6CF8CEC90E0E3CF8DEC88
:1017000090E0E0CF83E891E0DDCF8AE891E0DACFA6
:1017100082E991E0D7CF84E991E0D4CF81E292E0F1
:10172000D1CF83E292E0CECF84E292E0CBCF85E2CC
:1017300092E0C8CF86E292E0C5CF87E292E0C2CFC6
:101740008AE292E0BFCF0895882329F19CEF980F99
:10175000913A20F40E9464140C943F1590E2980F83
:10176000983050F4877091E001C0990F8A95EAF79C
:10177000892F0E940215F0CF9BE5980F933020F43B
:1017800090E080E00C94BA09885A853120F490E00A
:1017900080E00C94D0090895882321F00E94FC1465
:1017A0000C943F150895882321F00E9402150C9493
:1017B0003F1508958F929F92AF92BF92DF92EF9262
:1017C000FF920F931F93CF93DF937C01D62FC72FE8
:1017D000FC01058102950F70128111110E941B15E9
:1017E0000E94F214D82E882371F0112331F180E287
:1017F0008D0F883010F182E00E94D8140E94F214FC
:1018000091E0D82ED926BC2EB2949FE0B922EB2DC0
:10181000F0E0E35FF34F0C94D2201F0C1F0C6F0C11
:101820006F0CB60CDE0CBD0CBD0C200DBD0CBB0D41
:10183000BB0D450EBD0CBD0C4E0ED12CE4CF0C2FB4
:101840000F70C07F11F00295007F1123A9F00023D3
:1018500059F080E28D0F883010F0D11109C0802F2F
:101860000E94FC140E943F158D2F0E94F10A14C0A3
:10187000802F0E940D15F6CF8D2F0E94A40B002300
:1018800059F080E28D0F883010F0D11124C0802FE4
:101890000E9402150E943F15DD2009F406C20E9435
:1018A0009A1480FD02C2F70112820E9494140E94D1
:1018B000F712C7010E94610E0E949414DF91CF912C
:1018C0001F910F91FF90EF90DF90BF90AF909F908E
:1018D0008F900C941813802F0E941315DBCFFC2FD0
:1018E000FF70BF2EC07FC03219F0B29480EFB822D3
:1018F000DD2369F0D13049F1112391F1002351F139
:10190000F701858180FFB0CF8F70858323C01123BD
:1019100081F0011106C00E9479158B290E94CC0B21
:10192000BBCF0130C1F70E9479158B290E942F157A
:10193000B3CF011106C00E9438158B2D0E94D30B26
:10194000ABCF013009F4A8CFF6CF112329F0063030
:1019500008F0A2CF8B2DE2CF053008F09DCFEDCF60
:10196000002359F38D2F0E94A40B96CF8C2F8695C0
:101970008695837079F08130B9F098E0B91609F452
:101980009BC0B91608F488CF86EF8B0D823008F41F
:1019900093C082CF8D2F9C2F9370111102C090E0C5
:1019A00080E00E94BA0978CF8D2F9C2F937011117F
:1019B00002C090E080E00E94D0096ECF112309F1AF
:1019C000D53F99F0D63FB9F0D43F49F48091160243
:1019D00090911702816090931702809316028D2FC9
:1019E0000E9408180E94F41857CF80911602909117
:1019F00017028260F0CF80911602909117028460E6
:101A0000EACFD53F89F0D63FA9F0D43F49F4809181
:101A10001602909117028E7F909317028093160200
:101A20008D2F0E947018DECF8091160290911702C0
:101A30008D7FF2CF80911602909117028B7FECCFB1
:101A40008C2F837009F04BC0111136C02D2F2295B9
:101A500026952770220F220F6D2F6F70862E912CE6
:101A6000B12CA12C022E04C0880C991CAA1CBB1CF2
:101A70000A94D2F760E070E0CB01D4FF0FC06FE0B2
:101A800070E080E090E004C0660F771F881F991F08
:101A90002A95D2F76095709580959095C695C695D4
:101AA000C370C23071F0A0F4682979298A299B2972
:101AB000C13091F00E94A9120E9498090E94BE05AF
:101AC000EBCE682979298A299B290E94BB12F4CF81
:101AD0000E94A912C501B4010E949712EDCF86950C
:101AE000112311F08C2F8170882331F32D2F229533
:101AF00026952770220F220F6D2F6F70862E912C46
:101B0000B12CA12C022E04C0880C991CAA1CBB1C51
:101B10000A94D2F760E070E0CB01D4FF0FC06FE011
:101B200070E080E090E004C0660F771F881F991F67
:101B30002A95D2F76095709580959095C695C69533
:101B4000C370C23051F080F4682979298A299B2911
:101B5000C13071F00E946E13AFCF682979298A29AC
:101B60009B290E948013A8CF0E946E13C501B40167
:101B70000E945C13A1CFE0E2ED0FE53108F066C0F2
:101B8000F0E0EB53F24F0C94D220DA0DDA0DDA0DBF
:101B9000DA0DDA0DDA0DDA0DDA0DDA0DDA0DDA0D0D
:101BA000DA0DDA0DDA0DDA0DDA0DEB0DF90D000EA6
:101BB000070E110EDF708C2F8F71112331F00E94F0
:101BC000F7128D2F0E94CC0BD8CE0E9418138D2FA8
:101BD0000E94D30BD2CE112341F0053008F0CDCEB8
:101BE0008C2F8F710E943B13C8CE063008F0C5CEF3
:101BF000F7CF8C2F8F71112339F00E94F712BDCED1
:101C00008C2F8F711123C9F30E941813B6CE1123A4
:101C100029F08C2F8F710E94E212AFCE0E94DD124C
:101C2000ACCE112349F0CF718C2F0E94F71263E0E4
:101C30008C2F0E94C814A1CE81E00E94D8140230DB
:101C400008F49BCE82E00E94D81497CE112349F06D
:101C5000002321F08D2F0E94F10A8FCE8C2F8F71DF
:101C6000CCCF002379F0D93349F4FFEF27EE83E09E
:101C7000F15020408040E1F700C000008D2F0E940D
:101C8000A40B7BCE8C2F8F71BFCF4C2F4F706D2F3D
:101C9000C7010E94C0050E940F12FECD4C2F4F704D
:101CA0006D2FC7010E94C305F7CDDF91CF911F9122
:101CB0000F91FF90EF90DF90BF90AF909F908F902B
:101CC00008950F931F93CF93DF93EC01988189813F
:101CD0002B813C81232B39F08F3F19F481E09F3F0A
:101CE00019F080E001C081E080FD17C0CE010E94A4
:101CF0000F04882391F0688179818A810E943914C8
:101D00008C010E9492130E949412B801CE01DF91BF
:101D1000CF911F910F910C94DA0BDF91CF911F910E
:101D20000F9108950E941B150E942C150E946B14A0
:101D30000E943F150E9493190E94F41890E080E0E1
:101D40000E94BA0990E080E00C94D0090E940A1524
:101D50000C94920E0E942F14E92FE295EF70E2503E
:101D6000EE30E0F4F0E0E954F14F0C94D220C50ECF
:101D7000C50ECE0ECE0ED00ECE0ECE0ECE0EC50E93
:101D8000C50ED50ECE0ECE0ED50E803F19F020F426
:101D9000803E20F481E00895843FE1F380E00895DF
:101DA000803EC0F3813FD1F7F5CF93FB882780F9C0
:101DB0000895CF93DF9300D000D01F92CDB7DEB748
:101DC0000F900F900F900F900F90DF91CF9108958B
:101DD000CF93DF9300D000D000D0CDB7DEB72696EA
:101DE0000FB6F894DEBF0FBECDBFDF91CF9108953F
:101DF0001F93CF93DF93C0915B0116E080915C014C
:101E00008C1304C0DF91CF911F910895D0E01C9FE7
:101E1000F0011D9FF00D1124E35AFE4F40815181C6
:101E200062817381848195810E94E80E2196C7703A
:101E3000E5CF40918D0150918E0160918F0170919D
:101E4000900180919101909192010C94E80E1F9362
:101E5000CF93DF9380919201807FD1F480918F01A5
:101E60008823B1F080915B01D0915C01B0918D012C
:101E7000C0918E014091900150919101A1E0BF3F2E
:101E800009F0A0E0BA016095709516E0D81304C07F
:101E9000DF91CF911F91089521E04115510521F067
:101EA0002A2FCF3F09F020E090E020FD38C0189F96
:101EB000F001199FF00D1124E35AFE4F21812C13DC
:101EC0002EC020812B132BC02281211128C02381F9
:101ED00034812417350700F1241B350B283C3105CC
:101EE000F0F4209192012F7020612093920126E05E
:101EF000289FF001299FF00D1124EE59FE4F80819B
:101F00008F70806180838DE891E00E94610EDF9187
:101F1000CF911F910C94F80E260F371FDFCF01963B
:101F20008770B4CFAF92BF92CF92DF92EF92FF92C1
:101F30000F931F93CF93DF93CDB7DEB761970FB6A3
:101F4000F894DEBF0FBECDBF8C0185E0F801DE0145
:101F50001D9601900D928A95E1F7D8014C9111964A
:101F60005C9111971296EC9030918D0160918E01E9
:101F7000809190019091910121E0009731F06F3FA5
:101F800019F421E03F3F09F020E0B22FB170BB2EE1
:101F900020FD80C1F801C380D480A0908F01AA20C9
:101FA00009F427C1C816D906D0F1D601A81BB90B70
:101FB000CD01FF24F394883C910508F0F12C809129
:101FC0009201982F907FFF2009F4CEC0911187C015
:101FD000FE2C651329C0341327C0E11025C08F7073
:101FE0008061809392010E94190F8DE891E00E9418
:101FF000610E80919201F80185838F2D61960FB655
:10200000F894DEBF0FBECDBFDF91CF911F910F912E
:10201000FF90EF90DF90CF90BF90AF9008958095A4
:1020200090958C0D9D1DC5CF81E0CD2831F05F3F8F
:1020300019F481E04F3F09F080E080FD24C081E089
:102040008E25F82FF170DF2E80FF3FC080915B015D
:1020500020915C0136E0821318C04D875E878D8524
:102060009E850E942F14292F22952F70223008F16F
:10207000243030F59F7009F1D80115969C91907F1E
:10208000E1F4FB2CBACF80E0DCCF90E0389FF00188
:10209000399FF00D1124E35AFE4F6181561306C09B
:1020A0006081461303C062816E110FC00196877074
:1020B000D2CF9F7011F0882321F3805E883008F31F
:1020C000C8010E94610EBD2CDCCFEE2009F495CF33
:1020D00080919201816080939201F12C8ECF6513E3
:1020E00014C0341312C0E11010C0F8018583C80178
:1020F0000E94610E86E0F801ADE8B1E001900D921A
:102100008A95E1F70E94190F78CF4D875E878D85FC
:102110009E850E94AA0E882319F1EE2009F1809174
:102120009201803270F020918D0130918E013887BC
:102130002F831986DB86CA868C87CE0107960E947C
:10214000610E86E0F801ADE8B1E001900D928A954C
:10215000E1F70E94270F0E94190FFF24F3944DCF3F
:10216000C8010E94610EF9CF911113C07C2DD98A4C
:10217000C88A6E2D89890E94D90E8DE891E00E944F
:10218000610E86E0EDE8F1E0DF011D928A95E9F746
:10219000B9CF651312C0341310C0E1100EC0F8019E
:1021A0008583C8010E94610EEDE8F1E086E0DF0161
:1021B0001D928A95E9F7FA2C20CF4D875E878D8591
:1021C0009E850E94AA0E882359F2EE2049F2809142
:1021D0009201803208F4B5CF20918D0130918E01AB
:1021E0003A8329831B82DD82CC828E83CE010196C5
:1021F000A6CFC816D90638F1F601E81BF90BCF01B6
:10220000F12C883C910508F03DC0FE2CEE2009F42D
:10221000A7CF651326C0341324C08091920180FD9E
:1022200017C0982F907FA1F0D80115968C93159721
:10223000903F09F45CCF982F907F905F8F70892B2F
:1022400015968C9354CF809590958C0D9D1DD8CF6D
:1022500086E0F801ADE8B1E001900D928A95E1F7D2
:10226000CCCE4D875E878D859E850E94AA0E8111FA
:1022700068CF80919201816080939201C8010E9491
:10228000610EBBCE7C2DD98AC88A6E2D89890E94A9
:10229000D90E77CFEE2009F463CF4D875E878D8509
:1022A0009E850E94AA0EF82E882309F459CF86E055
:1022B000F801ADE8B1E001900D928A95E1F78DE863
:1022C00091E00E94EC0A0E94270F1CCF1F93CF932E
:1022D000DF93CDB7DEB72C970FB6F894DEBF0FBEF5
:1022E000CDBF4F83588769877A878B879C87CE01BC
:1022F00007960E94920F882309F442C09F81888527
:102300002A853B85232B39F08F3F19F481E09F3FCD
:1023100019F080E001C081E080FD08C04F81588540
:1023200069857A858B859C850E94E80E16E08091F0
:102330005B0190915C01891709F467C0819FC0011E
:102340001124835A9E4F0E94920F882309F45DC086
:10235000E0915B011E9FF0011124E35AFE4F408182
:10236000518162817381848195810E94E80E809100
:102370005B0190E001968770992780935B01D7CF2E
:1023800086E0FE013796DE01119601900D928A9546
:10239000E1F79F8188852A853B85232B39F08F3F84
:1023A00019F481E09F3F19F080E001C081E080FDD9
:1023B000BDCF20915C0130E0C9010196877099275B
:1023C00040915B014817190699F096E0929FD00161
:1023D000939FB00D1124A35ABE4FFE013196019078
:1023E0000D929A95E1F780935C010E94F80E9ECFC2
:1023F0000E94A60E10925C0110925B0186E0EDE84F
:10240000F1E0DF011D928A95E9F72C960FB6F8945A
:10241000DEBF0FBECDBFDF91CF911F910895EF9228
:10242000FF920F931F93CF93DF938C01892B81F041
:10243000F12CEE24E394E8012196F801849184378D
:1024400070F4843008F05FC08130B1F08230A1F1C7
:10245000DF91CF911F910F91FF90EF9008958537F5
:1024600009F44CC008F43DC09CE7980F903780F702
:102470008F770E94A40B49C00E5F1F4FFE0184910D
:1024800090E2980F983060F48770FE2D01C0FF0F26
:102490008A95EAF78F2F0E941E150E943F1502C0F1
:1024A0000E94F10A8F2D815030F2EFE9FFE0319761
:1024B000F1F700C00000F7CF0E5F1F4FFE018491BF
:1024C00090E2980F983050F48770FE2D01C0FF0FF6
:1024D0008A95EAF78F2F0E942415DFCF0E94A40B64
:1024E000E1CF0E5F1F4FFE01C491C150D8F28FE9BA
:1024F0009FE00197F1F700C00000F7CF0E5F1F4F7C
:10250000FE01F490CFCF0E94F10A8E01CBCF089547
:102510000E9487126093BA017093BB018093BC0143
:102520009093BD010C94920E08950C9488120F9311
:102530001F930091BA011091BB012091BC01309111
:10254000BD01602B712B822B932B1F910F910C944B
:1025500088120F931F930091BA011091BB01209133
:10256000BC013091BD0160237123822393231F910D
:102570000F910C9488120F931F930091BA01109140
:10258000BB012091BC013091BD01602771278227DA
:1025900093271F910F910C9488120C9487120C941E
:1025A000CD120E94CF126093B6017093B701809351
:1025B000B8019093B9010C94920E60E070E0CB01E9
:1025C0000C94D1120F931F9341E050E060E070E053
:1025D0008A019B0104C0000F111F221F331F8A951F
:1025E000D2F7C901B8011F910F910C94D1120F932A
:1025F0001F9341E050E060E070E004C0440F551FBD
:10260000661F771F8A95D2F78091B6019091B70126
:10261000A091B801B091B9018A019B01082B192B37
:102620002A2B3B2BC901B8011F910F910C94D11299
:102630000F931F9341E050E060E070E004C0440F4E
:10264000551F661F771F8A95D2F7CB01BA01609597
:102650007095809590950091B6011091B7012091E9
:10266000B8013091B90160237123822393231F9114
:102670000F910C94D1120F931F9341E050E060E052
:1026800070E004C0440F551F661F771F8A95D2F76C
:102690008091B6019091B701A091B801B091B901B4
:1026A0008A019B01082719272A273B27C901B8015E
:1026B0001F910F910C94D1120F931F930091B601AB
:1026C0001091B7012091B8013091B901602B712BA5
:1026D000822B932B1F910F910C94D1120F931F9368
:1026E0000091B6011091B7012091B8013091B90164
:1026F00060237123822393231F910F910C94D11295
:102700000F931F930091B6011091B7012091B8016A
:102710003091B90160277127822793271F910F916C
:102720000C94D11208952AE0929F800D1124982FC5
:10273000977071E001C0770F9A95EAF786958695B4
:10274000869525E0829FC001112450E040E0A62F2D
:10275000B0E0FC01E40FF51FED56FE4F60819D01D6
:10276000042E02C0369527950A94E2F72170219530
:1027700026272723262720834F5F5F4F45305105AB
:1027800041F708952AE0929F800D1124982F9770A9
:1027900086958695869525E0829FA001112470E09C
:1027A00060E080E0FA01E60FF71FED56FE4F208152
:1027B00030E0092E02C0369527950A94E2F7217081
:1027C0003327062E01C0220F0A94EAF7822B6F5F8F
:1027D0007F4F6530710531F70895BF92CF92DF9238
:1027E000EF92FF920F931F93CF93DF938C01C090D2
:1027F000B601D090B701E090B801F090B901809196
:10280000BA019091BB01A091BC01B091BD01C82A51
:10281000D92AEA2AFB2ACFE1D0E0BC2ED701C60193
:102820000C2E04C0B695A795979587950A94D2F774
:1028300080FD0EC0219788F7B12C8B2DDF91CF91B1
:102840001F910F91FF90EF90DF90CF90BF90089570
:10285000B8018C2F0E94E005019761F3EECFCF9372
:10286000DF93EC010E94ED13BE01DF91CF910C9438
:10287000E0051F93CF93DF93EB0190915A019923C9
:1028800031F0CB01DF91CF911F910C942F1488234D
:1028900079F0CB010E94ED13182F682FCE010E9412
:1028A0009313BE01812FDF91CF911F910C94E0050E
:1028B000CB010E94C213182FF4CF682F8091000122
:1028C000909101010C945C16682F80910001909109
:1028D00001010C94671680910001909101010C9404
:1028E00072160E94FF162091C1013091C201821719
:1028F000930778F00E94FF162091C1013091C20128
:10290000821B930B9C0181E0243F314008F480E05E
:1029100008950E94FF162091C1013091C2012095B7
:102920003095280F391FEFCF8091C001859585958F
:10293000859508958091C001877008950E94FF16C3
:102940002091BE013091BF0182179307B0F00E9421
:10295000FF162091BE013091BF01821B930B843F73
:10296000914018F480E0817008958091C00182FB4D
:10297000882780F991E08927F6CF0E94FF162091E1
:10298000BE013091BF0120953095820F931FE7CF94
:1029900098E0899F90011124622B6093C0010E94EE
:1029A000F7120E94FF169093BF018093BE01089515
:1029B0009091C001809589238093C001282F2770B2
:1029C00081F4282F082E000C330B9217130649F0C0
:1029D0008595859585950E9418131092BF011092D8
:1029E000BE0108959091C001977081E009F480E0E4
:1029F00008958091E60108959091E601892B8093D6
:102A0000E6010895982F90958091E601892380939F
:102A1000E60108951092E60108959091E501892B51
:102A20008093E5010895982F90958091E501892381
:102A30008093E50108951092E50108959091E401D5
:102A4000892B8093E4010895982F90958091E4015B
:102A500089238093E40108951092E40108958093FE
:102A6000C3010E94FF169093C2018093C101089593
:102A70001092C3011092C2011092C1010895E09119
:102A80000001F09101018091E6018083E091000155
:102A9000F091010180819091E501892B8083E09183
:102AA0000001F091010180819091E401892B8083E4
:102AB0008091C3018823B9F00E94711481110E9492
:102AC0003815E0910001F091010180819091C301DE
:102AD000892B808380910001909101010E94FF1554
:102AE00081110E94381580910001909101010C9490
:102AF000A4098091C3010895CF92DF92EF92FF92D3
:102B00006C01EE24FF2420E0C114D104E104F1049F
:102B100019F0C701B60120E1C72ED82EE92EFF24F7
:102B2000C114D104E104F10419F0285FC701B60112
:102B30006B017C0154E0F694E794D794C7945A95BE
:102B4000D1F7C114D104E104F10419F02C5FC701DD
:102B5000B6016B017C0142E0F694E794D794C794E8
:102B60004A95D1F7C114D104E104F10419F02E5FA4
:102B7000C701B6019695879577956795672B682B62
:102B8000692B09F02F5F822FFF90EF90DF90CF909D
:102B900008956DEE7EEF90E080E00E940C2160E0F1
:102BA00082E090E00E94FA2060E083E090E00E94E2
:102BB000FA2060E084E090E00E94FA2060E085E086
:102BC00090E00C94FA2090E080E00E94F42021E054
:102BD0008D3E9E4F09F020E0822F089582E090E024
:102BE0000C94EC2083E090E00C94EC2084E090E0E6
:102BF0000C94EC20682F84E090E00C94FA20FC0107
:102C000031969C01205E3F4F80E0919191118F5F42
:102C1000E217F307D1F708959C01FC0132969FEF6C
:102C200080E04191461751F09F3F19F4411101C0D6
:102C3000982F8F5F8E31A9F79F3F09F40895290FD0
:102C4000311D97FD3A95F90162830895FC01329692
:102C500080962191261303C0DF0111971C92E8177B
:102C6000F907B9F70895E62FE695E695E695EF3171
:102C700069F0E80FF92FF11D677021E030E001C025
:102C8000220F6A95EAF78181822B81830895E62FCE
:102C9000E695E695E695EF3171F0E80FF92FF11D15
:102CA000677021E030E001C0220F6A95EAF72095B5
:102CB000818128232183089520911201222329F064
:102CC00020911C0227FD0C9433160C940C162091B5
:102CD0001201222329F020911C0227FD0C94471693
:102CE0000C942616FC01319680961192E817F9078C
:102CF000E1F70895089508950C947B1680912202BF
:102D0000843049F11092E80188E190E020E40FB6A8
:102D1000F894A895809360000FBE2093600080E037
:102D20000E94BE050E947C1683B7817F846083BFAA
:102D300083B7816083BF7894889583B78E7F83BF84
:102D40000FB6F894A8958091600088618093600028
:102D5000109260000FBE08950895CF930E947A16D6
:102D60000E9438030E94AC16C0E08C2F0E94A00382
:102D7000892B31F4CF5FC530C1F780E0CF91089542
:102D800081E0FCCF08950C94C2160E94A60E0E940A
:102D900098090E94BE050C94C3161F920F920FB69D
:102DA0000F9211248F939F93AF93BF938091E8016B
:102DB000811113C08091180290911902A0911A02FA
:102DC000B0911B024196A11DB11D809318029093F2
:102DD0001902A0931A02B0931B02BF91AF919F9169
:102DE0008F910F900FBE0F901F90189582E084BDB9
:102DF00093E095BD9AEF97BD80936E0008952FB72D
:102E0000F8948091180290911902A0911A02B09141
:102E10001B022FBF0895CF92DF92EF92FF920F9384
:102E20001F932FB7F89440911802509119026091A6
:102E30001A0270911B022FBF6A017B01EE24FF244E
:102E40008C0130E020E0C016D106E206F30650F017
:102E5000481B590BCA011F910F91FF90EF90DF9013
:102E6000CF90089541505109F3CF78941F920F925B
:102E70000FB60F9211248F939F93AF93BF938091BE
:102E8000180290911902A0911A02B0911B020196AA
:102E9000A11DB11D8093180290931902A0931A02EC
:102EA000B0931B02BF91AF919F918F910F900FBE76
:102EB0000F901F90189587E797E7909301088093EC
:102EC000000888E19AE00FB6F894A8958093600016
:102ED0000FBE90936000FFCF0E94E315811102C0E6
:102EE0000E94C9150E94EE158093E7010E94F61515
:102EF00090E090931D0280931C020E94F215682FAF
:102F000070E090E080E00C9495128091EB0180FFDE
:102F100012C06091050185E0689FB001112475958C
:102F200067957595679560387105A8F56115710508
:102F3000A1F1862F089581FF09C06091050185E008
:102F4000689FB001112475956795EDCF82FF07C08A
:102F50006091050185E0689FB0011124E4CF2091C4
:102F6000EC012223A9F0909104016091050185E014
:102F7000689FB00111242917B0F6269FA001279F52
:102F8000500D1124692F70E0CA010E94BE20CBCFE2
:102F900065E070E0CECF8FE7089581E008958091DD
:102FA000EB0180FF0CC06091030170E0759567959F
:102FB000759567956115710549F1862F089581FF13
:102FC00006C06091030170E075956795F3CF60913D
:102FD000030182FD0BC09091EC019923A1F0609157
:102FE000020180910301961738F0682F70E0603875
:102FF000710500F38FE70895899FC001112470E0E7
:103000000E94BE20F4CF61E070E0D7CF81E0089548
:10301000803F31F40E94851781958093EF010895D8
:10302000813F19F40E948517F8CF823F31F40E9446
:10303000851781958093EE010895833F19F40E94CE
:103040008517F8CF893F29F40E94CF178093F001AC
:1030500008958A3F21F40E94CF178195F7CF8B3FC7
:1030600031F40E94CF1781958093F10108958C3F30
:1030700019F40E94CF17F8CF843F31F48091ED010D
:1030800081608093ED010895853F21F48091ED01E9
:103090008260F7CF863F21F48091ED018460F1CF0B
:1030A000873F21F48091ED018860EBCF883F21F4C8
:1030B0008091ED018061E5CF8D3F31F48091EB018E
:1030C00081608093EB0108958E3F21F48091EB01A4
:1030D0008260F7CF8F3FB9F78091EB018460F1CF29
:1030E000803FC1F48091EF0187FD1092EF01809144
:1030F000EE0181110EC08091EF0181110AC0809113
:10310000F001811106C08091F101811102C010927D
:10311000EC010895813F29F48091EF0118162CF3FA
:10312000E6CF9091EE01823F29F497FFE0CF109215
:10313000EE01DDCF833F19F41916CCF3D8CF893FC8
:1031400039F48091F001181694F61092F001CFCF67
:103150008A3F29F48091F00187FFC9CFF6CF8B3FDA
:1031600039F48091F10187FFC2CF1092F101BFCFF6
:103170008C3F29F48091F1011816BCF3B8CF843F3D
:1031800031F48091ED018E7F8093ED01B0CF853FCA
:1031900021F48091ED018D7FF7CF863F21F480915E
:1031A000ED018B7FF1CF873F21F48091ED01877F87
:1031B000EBCF883F21F48091ED018F7EE5CF8D3FED
:1031C00031F48091EB018E7F8093EB0190CF8E3FA5
:1031D00021F48091EB018D7FF7CF8F3F09F087CFEE
:1031E0008091EB018B7FF0CF8DEE91E00E94AF09D3
:1031F0000E94FF169093EA018093E90108951F93BE
:10320000CF93DF938091E9019091EA010E940B171F
:10321000AC019091EC012091060130E0911106C0C3
:10322000209107018AE0289F90011124421753073B
:1032300080F08091EE01D091EF011091F001C091EA
:10324000F10181110AC0D1116AC0111168C0C11108
:1032500066C0DF91CF911F9108959F3F19F09F5F46
:103260009093EC01181624F40E9485178093EE01C8
:103270008091EE0187FF05C00E948517819580939C
:10328000EE011D1624F40E9485178093EF018091B2
:10329000EF0187FF05C00E94851781958093EF019C
:1032A0003091EE013323C1F02091EF012223A1F0F0
:1032B00045EB3403C0011124892F911101C081E035
:1032C0008093EE0145EB240390011124832F3111EB
:1032D00001C081E08093EF01111624F40E94CF1702
:1032E0008093F0018091F00187FF05C00E94CF1705
:1032F00081958093F0011C1624F40E94CF178093CF
:10330000F1018091F10187FF05C00E94CF178195DF
:103310008093F101DF91CF911F910C94F4189F3F9E
:1033200009F09DCFAECF85E0EDEEF1E0DF011D921B
:103330008A95E9F71092EC011092EB0108958091C3
:10334000120208950F931F93CF93DF9300D01F9223
:10335000CDB7DEB78C010E940F1C823011F0843093
:1033600019F583E089831B830A838093E9008FEF3B
:103370009091E800815095FD06C095ED9A95F1F782
:1033800000008111F5CF8091E80085FF0DC050E06D
:1033900040E063E070E0CE0101960E942C1C809119
:1033A000E8008E778093E8000F900F900F90DF91E8
:1033B000CF911F910F910895CF93DF9300D01F926B
:1033C000CDB7DEB720912202243031F522E02983E7
:1033D000805891099B838A8383E08093E9008FEF73
:1033E0009091E800815095FD06C095ED9A95F1F712
:1033F00000008111F5CF8091E80085FF0DC050E0FD
:1034000040E063E070E0CE0101960E942C1C8091A8
:10341000E8008E778093E8000F900F900F90DF9177
:10342000CF910895CF93DF93EC010E940F1C82305F
:1034300011F08430F9F482E08093E9008FEF9091ED
:10344000E800815095FD06C095ED9A95F1F70000D2
:103450008111F5CF8091E80085FF0CC050E040E07D
:1034600065E070E0CE010E942C1C8091E8008E7710
:103470008093E800DF91CF910895CF93DF93EC0123
:103480000E940F1C823011F08430F9F480911201F7
:103490008823F1F080911C0287FF1AC084E080939A
:1034A000E9008FEF9091E800815095FD06C095E10D
:1034B0009A95F1F700008111F5CF8091E80050E076
:1034C00040E060E270E085FD1AC0DF91CF91089581
:1034D00081E08093E9008FEF9091E800815095FDA5
:1034E00006C095ED9A95F1F700008111F5CF809116
:1034F000E80085FFEACF50E040E068E070E0CE01F0
:103500000E942C1C8091E8008E778093E80080E276
:10351000FE01A2EFB1E001900D928A95E1F7D5CFBF
:1035200080912102811109C00E94BC1D0E94191EB8
:103530008091E20084608093E2000895109221025D
:103540000895089508950C94C51642E061EC81E059
:103550000E943A1D42E061EC82E00E943A1D42E086
:1035600061EC83E00E943A1D42E261EC84E00C943D
:103570003A1D80912402833009F455C030F4813023
:1035800071F1823009F491C008958A3009F47DC048
:103590008B3009F463C0893009F044C08091230264
:1035A000813209F03FC08091270290912802009754
:1035B00011F00397B9F58091E800877F8093E800C8
:1035C0008091E80082FF2AC08091F100809312026E
:1035D0008091E8008B778093E8000C946E1D8091B9
:1035E0002302813AF9F48091E800877F8093E80014
:1035F0008091270290912802892B61F460E282EF8A
:1036000091E070E00E947B1C8091E8008B778093B2
:10361000E800089560E090E080E0F3CF809122021E
:103620008111CECF089580912302813AD9F78091FC
:10363000270290912802892BA9F78091E800877FC3
:103640008093E8008091E80080FFFCCF8091120118
:103650008093F1008091E8008E77BDCF80912302A6
:10366000813201F78091270290912802892BD1F6AF
:103670008091E800877F8093E8000E946E1D809112
:103680002502809312010C94A60E809123028132B0
:1036900049F68091E800877F8093E8000E946E1DC4
:1036A0008091260280931302089580912302813A2B
:1036B00009F0B8CF8091E800877F8093E80080917F
:1036C000E80080FFFCCF80911302C2CF84B7877FD0
:1036D00084BF0FB6F894A8958091600088618093AC
:1036E0006000109260000FBE80E88093610010922D
:1036F00061000E94E7090E94BC1D0E94191E809172
:10370000E20084608093E20078940E94A2200E94EC
:10371000EB0988E091E00E949309809122028530B4
:1037200019F00E94F709F9CF0E947E1680912002BD
:10373000882399F30E94AD16882379F30E94161C02
:10374000ECCF0C94A31B292F33272330310579F1BB
:1037500058F421303105F1F02230310519F190E0B3
:1037600080E030E020E01AC021323105C9F1223278
:103770003105A9F76430710590F7FB01EE0FFF1FCB
:10378000E95EFE4F208131816D5E7E4FFB018081BD
:1037900090E004C082E190E02BEC34E0FA01318348
:1037A000208308958DE690E02EE534E0F7CF992749
:1037B0008130910579F040F08230910571F00397E6
:1037C00071F6E0E3F4E002C0EAE5F4E0849190E011
:1037D0009F01E4CFE8E4F4E0F9CFE6E3F4E0F6CFCC
:1037E0006430710508F0BBCF660F771FFB01E15E07
:1037F000FE4F2081318189E090E0D0CF0895CF93B2
:10380000C82F0E94FE1BC0931402CF91089580918F
:103810002202843011F081E0089582E008958091C1
:103820001402811102C00C94071C089580E189BD27
:1038300082E189BD09B400FEFDCF8091D8008F7D63
:103840008093D8008091E00082608093E0008091B6
:10385000E00081FDFCCF0895AF92BF92CF92DF923E
:10386000FF920F931F93CF93DF936C01EB018A01BB
:103870000E948D1DF82E811123C00115110539F00C
:10388000F80180819181C81BD90BC80ED91EB12CBB
:10389000A12C2097A9F08091E80085FD22C080919D
:1038A000E8008E778093E80001151105A1F0F8017A
:1038B00080819181A80EB91EB182A08285E0F82E88
:1038C0008F2DDF91CF911F910F91FF90DF90CF90BF
:1038D000BF90AF9008950E948D1D8823D1F2F82EDD
:1038E000EFCFF60181916F018093F1002197FFEFF7
:1038F000AF1ABF0ACECFFC018091290290912A0213
:1039000086179707A0F06115710529F49091E800DA
:103910009E779093E80090E06115710551F4911144
:1039200008C08091E80082FF35C080E00895BC01A6
:10393000F2CF809122028823C9F18530C9F18091AC
:10394000E80083FD31C08091E80082FDEACF8091DC
:10395000E80080FFE1CF2091F3008091F200322F48
:10396000282F6115710519F02830310558F091E0C4
:103970002830310509F090E02091E8002E7720935F
:10398000E800CACF81918093F100615071092F5FE7
:103990003F4FE7CF80912202882341F0853041F0EC
:1039A0008091E80083FFBDCF81E0089582E0089513
:1039B00083E00895FC018091290290912A028617E4
:1039C0009707A0F06115710529F48091E8008E77C2
:1039D0008093E80090E06115710551F4911108C0E1
:1039E0008091E80082FF36C080E00895BC01F2CFEC
:1039F000809122028823D1F18530D1F18091E800B5
:103A000083FD32C08091E80082FDEACF8091E8001A
:103A100080FFE1CF2091F3008091F200322F282F18
:103A20006115710519F02830310558F091E0283002
:103A3000310509F090E08091E8008E778093E800EE
:103A4000CACF84918093F1003196615071092F5F44
:103A50003F4FE6CF80912202882341F0853041F02C
:103A60008091E80083FFBCCF81E0089582E0089553
:103A700083E00895982F973028F08F708093E900A5
:103A800081E008959093E900242F762F50E0981755
:103A900031F07091EC002091ED005091F00021FD8B
:103AA00002C09F5FE8CF3091EB003E7F3093EB0088
:103AB0003091ED003D7F3093ED003091EB003160AF
:103AC0003093EB007093EC002093ED005093F000E6
:103AD0002091EE0027FDE5CF80E00895809123023C
:103AE00087FF13C08091E80082FF06C08091E80044
:103AF0008B778093E80004C0809122028111F2CF7D
:103B00000895809122028823D9F38091E80080FFF4
:103B1000F8CF8091E8008E77ECCF2091E4003091CF
:103B2000E50085E69091EC0090FF06C09091E800DA
:103B300090FF06C080E008959091E80092FDFACFD2
:103B400090912202992391F0953091F09091EB00A1
:103B500095FD10C04091E4005091E5002417350711
:103B600009F381509A01F1F684E0089582E0089506
:103B700083E0089581E008950E942A1E0E94321E6B
:103B8000E0EEF0E0808181608083E8EDF0E080810C
:103B90008F77808319BCA7EDB0E08C918E7F8C93DA
:103BA00080818F7E80831092210208950F931F934E
:103BB000CF93DF930E942A1E0E94321EC8EDD0E0F0
:103BC00088818F77888388818068888388818F7DCA
:103BD000888319BC1092220210921E0210922002B9
:103BE00010921F0200EE10E0F80180818B7F80832D
:103BF00088818160888342E060E080E00E943A1D15
:103C0000E1EEF0E080818E7F8083E2EEF0E0808163
:103C100081608083808188608083F80180818E7FCD
:103C20008083888180618883DF91CF911F910F917C
:103C30000895E8EDF0E080818F7E8083E7EDF0E08D
:103C400080818160808384E082BF81E08093210253
:103C50000C94D61DE8EDF0E080818E7F8083109279
:103C6000E20008951092DA001092E10008951F9288
:103C70000F920FB60F9211242F933F934F935F93A0
:103C80006F937F938F939F93AF93BF93EF93FF9324
:103C90008091E10082FF0BC08091E20082FF07C0AB
:103CA0008091E1008B7F8093E1000E94A1208091B0
:103CB000DA0080FF19C08091D80080FF15C0809184
:103CC000DA008E7F8093DA008091D90080FF94C063
:103CD00080E189BD82E189BD09B400FEFDCF81E0AC
:103CE000809322020E94901A8091E10080FF19C007
:103CF0008091E20080FF15C08091E2008E7F80936A
:103D0000E2008091E20080618093E2008091D8001F
:103D100080628093D80019BC85E0809322020E94C3
:103D2000A21A8091E10084FF29C08091E20084FF03
:103D300025C080E189BD82E189BD09B400FEFDCFC7
:103D40008091D8008F7D8093D8008091E1008F7E94
:103D50008093E1008091E2008F7E8093E200809169
:103D6000E20081608093E20080911E02882309F4C2
:103D700049C084E0809322020E94A31A8091E1004E
:103D800083FF29C08091E20083FF25C08091E1007C
:103D9000877F8093E10082E08093220210921E02CE
:103DA0008091E1008E7F8093E1008091E2008E7F20
:103DB0008093E2008091E20080618093E20042E023
:103DC00060E080E00E943A1D8091F000886080935E
:103DD000F0000E94A11AFF91EF91BF91AF919F91C6
:103DE0008F917F916F915F914F913F912F910F90A4
:103DF0000FBE0F901F90189519BC109222020E94BE
:103E00009E1A72CF8091E30087FD02C081E0B2CF9D
:103E100083E0B0CF1F920F920FB60F9211242F9311
:103E20003F934F935F936F937F938F939F93AF9342
:103E3000BF93CF93EF93FF93C091E900CF70809130
:103E4000EC001092E9008091F000877F8093F000F1
:103E500078940E94461F1092E9008091F0008860DB
:103E60008093F000C093E900FF91EF91CF91BF9153
:103E7000AF919F918F917F916F915F914F913F9102
:103E80002F910F900FBE0F901F9018951F93CF93F7
:103E9000DF93CDB7DEB7AA970FB6F894DEBF0FBE9B
:103EA000CDBFE3E2F2E08091F100819322E0EB32BA
:103EB000F207C9F70E94B91A8091E80083FF44C055
:103EC00080912302909124029A3008F03DC0E92F9E
:103ED000F0E0E359F04E0C94D220771F9D1FA41FF1
:103EE0009D1FA41FFB1F1D20A41F7420812080384C
:103EF00089F0823849F5809127028F70873020F54C
:103F00008093E9008091EB0085FB882780F910926F
:103F1000E90006C080911F029091200291118260F9
:103F20009091E800977F9093E8008093F1001092C1
:103F3000F1008091E8008E772DC0282F2D7F21F48D
:103F40008823D1F0823059F18091E80083FF0AC0C4
:103F50008091E800877F8093E8008091EB00806289
:103F60008093EB00AA960FB6F894DEBF0FBECDBFCC
:103F7000DF91CF911F91089580912502813021F723
:103F8000933009F080E0809320021092E900809144
:103F9000E800877F8093E8000E946E1DD5CF809156
:103FA00025028111F2CF809127028F702FEF280F09
:103FB000263050F68093E9002091EB0020FFE5CFFA
:103FC000933031F48091EB0080628093EB00DDCF81
:103FD0009091EB0090619093EB0021E030E001C004
:103FE000220F8A95EAF72093EA001092EA00809166
:103FF000EB008860EACF8111A7CF109125021F77CF
:104000008091E3008078812B8093E3008091E80029
:10401000877F8093E8000E946E1D8091E80080FFFA
:10402000FCCF8091E30080688093E30083E011116E
:1040300001C082E08093220287CF8058823008F04E
:1040400083CF80912502909126028C3D23E0920738
:10405000A1F583E08A838AE289834FB7F894DE0171
:10406000139620E03EE051E2E32FF0E0509357003A
:10407000E49120FF03C0E295EF703F5FEF708E2F59
:1040800090E0EA30C0F0C7968D939D932F5F243166
:1040900059F74FBF8091E800877F8093E8006AE27C
:1040A00070E0CE0101960E947B1C8091E8008B7726
:1040B0008093E80049CFC096E7CF609127027091C6
:1040C0002802AE014F5F5F4F0E94A11BBC01892BEC
:1040D00009F43ACF9091E800977F9093E8008981A6
:1040E0009A810E94DA1CE1CF803809F02DCF8091AF
:1040F000E800877F8093E80080911E028093F100A2
:1041000018CF811121CF90912502923008F01CCF59
:104110008091E800877F8093E80090931E020E94C0
:104120006E1D80911E02882331F084E0809322026C
:104130000E94A51A09CF8091E30087FDF6CF81E0A8
:10414000F5CF0895CF9380912202882399F0C091F2
:10415000E900CF708091EC0080FD0EC080E0C82B9C
:104160001092E9008091E80083FD0E94461FCF7005
:10417000C093E900CF91089580E8F1CF97FB072E17
:1041800016F4009407D077FD09D00E94D82007FCD0
:1041900005D03EF4909581959F4F08957095619557
:1041A0007F4F0895EE0FFF1F0590F491E02D0994C5
:1041B000AA1BBB1B51E107C0AA1FBB1FA617B7074D
:1041C00010F0A61BB70B881F991F5A95A9F7809569
:1041D0009095BC01CD010895F999FECF92BD81BDA6
:1041E000F89A992780B50895A8E1B0E042E050E040
:1041F0000C941421262FF999FECF92BD81BDF89A17
:10420000019700B4021639F01FBA20BD0FB6F8941A
:10421000FA9AF99A0FBE08950196272F0E94FB2063
:104220000C94FA20DC01CB01FC01F999FECF06C009
:10423000F2BDE1BDF89A319600B40D924150504064
:08424000B8F70895F894FFCFD0
:10424800C4012808140A321E9F193D1A121ADC19D3
:10425800A21901404D363999054C051605DD047043
:08426800048904A204BB040058
:00000001FF
