:100000000C9402030C9449030C9449030C94490387
:100010000C9449030C9449030C9449030C94490330
:100020000C9449030C9449030C94291D0C94FB1D5A
:100030000C94AA150C9449030C9449030C9449039D
:100040000C9449030C9449030C9449030C94490300
:100050000C9449030C9412160C9449030C94490314
:100060000C9449030C9449030C9449030C944903E0
:100070000C9449030C9449030C9449030C944903D0
:100080000C9449030C9449030C9449030C944903C0
:100090000C9449030C9449030C9449030C944903B0
:1000A0000C9449030C9449030C9449031F05210542
:1000B0002C0523052505270529052B052E053005CB
:1000C00032053D053405360538053A053C053F0542
:1000D000830B830BB50BB50BF30B130C830D830D47
:1000E000550C830D020D020D730D830D830D7C0DD8
:1000F0000F0D0F0D0F0D0F0D0F0D0F0D0F0D0F0D20
:100100000F0D0F0D0F0D0F0D0F0D0F0D0F0D0F0D0F
:10011000200D2E0D350D3C0D460D120E120E240E27
:10012000240E1B0E240E240E240E120E120E200E70
:10013000240E240E200E681E8F1E811F8F1E811F0D
:10014000DB1EFE1E811F541F631F02E12703E16FA8
:100150000002E12703E1610002E12703E16F0002F1
:10016000E12703E161001400070015001A000500F3
:100170000D000900180013003300040016000B00E6
:1001800017000A001C001100080012000C001D00DE
:100190001B001000060019000E000F00360037008B
:1001A00034000000E300E0000351E100E5000351EA
:1001B000E400E70000000000000FE20002512A0006
:1001C0002C000251E600000F000014001A00080085
:1001D000150017001C0018000C001200130004008A
:1001E0001600070009000A000B000D000E000F00AA
:1001F00033001D001B00060019000500110010004F
:100200003600370034000000010001000100010049
:1002100001000100010001000000000001000100D8
:10022000010001000100010001000100000029009F
:1002300001005200010001001F02200221022202DF
:1002400035022B00500051004F0001002302240210
:10025000310235002D023100270230023000370212
:1002600036022F002F022602380000000100010094
:1002700004510100010004510100010000000000D0
:100280000100010001004C002800010001000100F4
:1002900000000100010001000100010054005F00A6
:1002A000600061006200DB5C0100010001000100F0
:1002B00055005C005D005E005700DC5C0100010041
:1002C00001000100560059005A005B006700000061
:1002D0000100010001000100010001000100010016
:1002E0000000000001000100045101005800045109
:1002F000010001000000010001004B000100A90005
:100300006800400041004200430001004A004E00E6
:100310004D00AA0069003D003E003F00440001532B
:10032000AC00AE00AB00A8006A003A003B003C0005
:100330004500000001000100010001000100010072
:1003400001000100000000000100010001000100A7
:100350000100010001000100000000000000000099
:1003600000002A2B28000000000000000000000010
:10037000000000000029000000002C1E3420212273
:1003800024342627252E362D3738271E1F202122DC
:10039000232425263333362E37381F040506070855
:1003A000090A0B0C0D0E0F10111213141516171845
:1003B000191A1B1C1D2F3130232D35040506070883
:1003C000090A0B0C0D0E0F10111213141516171825
:1003D000191A1B1C1D2F3130354C00000000000085
:1003E000000000000000000000000000000000000D
:1003F00000000000000000000000000101010101F8
:1004000001000101010100000000000000000000E7
:1004100000000000010001000101010101010101D2
:1004200001010101010101010101010101010101BC
:1004300001010101010000000101000000000000B5
:1004400000000000000000000000000000000000AC
:100450000000000000010101010004033000000061
:1004600010034D00690074006F0073006900730091
:100470000000100355006E006B006E006F007700E7
:100480006E0000000403090409026D00040100A0CD
:10049000FA09040000010301010009211101000112
:1004A0002240000705810308000A09040100010336
:1004B000010200092111010001224D0007058203FC
:1004C00008000A09040200010300000009211101CB
:1004D00000012236000705830308000A090403000F
:1004E0000103000000092111010001223900070564
:1004F00084032000011201100100000008EDFE60DD
:100500006001000102030105010906A101050719A7
:10051000E029E715002501950875018102050819F4
:100520000129059505750191029501750391010554
:1005300007190029F71500250195F875018102C0FA
:1005400005010980A10185021601002603001A8118
:10055000002A8300751095018100C0050C0901A1D6
:10056000018503160100269C021A01002A9C0275CF
:100570001095018100C005010902A1010901A10036
:100580000509190129051500250195057501810247
:100590009501750381010501093009311581257F18
:1005A00095027508810609381581257F9501750822
:1005B0008106050C0A38021581257F950175088191
:1005C00006C0C005010906A101050719E029E715C4
:1005D00000250195087501810295017508810105C5
:1005E0000819012905950575019102950175039179
:1005F000010507190029FF150026FF00950675085B
:100600008100C00011241FBECFEFDAE0DEBFCDBFF6
:1006100004B603FE27C080912A0290912B02A0917C
:100620002C02B0912D028730904BA740B04BD1F4F3
:1006300010922A0210922B0210922C0210922D027C
:1006400014BE84B7877F84BF0FB6F894A8958091B5
:100650006000886180936000109260000FBEE0E04F
:10066000F8E3099511E0A0E0B1E0E6E3F0E402C0B0
:1006700005900D92A832B107D9F722E0A8E2B1E0C7
:1006800001C01D92AA32B207E1F70E94501A0C94E1
:1006900019200C94000008950C945706CF93DF9313
:1006A000CDB7DEB72B970FB6F894DEBF0FBECDBF28
:1006B0001092CC001092CD0088E18093C90086E0B2
:1006C0008093CA0083E78093CE00FE0131968BE0D1
:1006D000DF011D928A95E9F7DF0140E050E0BA01A1
:1006E0008BE08E0F9091C80097FD0AC04F5F5F4F5F
:1006F0006F4F7F4F413197E259076105710590F3C4
:100700009091CE009D938A13EDCF8B85803E91F41E
:10071000A8E2B1E09E01255F3F4F818140E2849FC6
:10072000C00111244081842B8D939D933296E21752
:10073000F30799F70E94590681E02B960FB6F894BB
:10074000DEBF0FBECDBFDF91CF910895E82FF0E05F
:10075000EE0FFF1FE85DFE4F80819181089508959F
:100760001092CC001092CD0088E18093C90086E001
:100770008093CA000895519A599A80B3806380BBD0
:1007800081B3806381BB08950E944B030E94B00334
:100790000C94BB030C9437040895EF92FF920F93CF
:1007A0001F93CF93DF931F92CDB7DEB79C017B01E0
:1007B0008733910581F038F4C69709F04EC003E302
:1007C00011E098E31CC02B3D8CE5380741F02C3D2F
:1007D0003C4561F042C002E311E09EE110C0FB0124
:1007E0008281882319F08FE591E006C0F7018281AC
:1007F000882399F188E591E00E94540621C0F70111
:100800008281882369F02B3DFCE53F0731F02C3DC8
:100810003C4531F48AE491E0EFCF81E591E0ECCF03
:1008200099830E942714F70122819981222351F094
:10083000827299F081E0F8018083892F0E94700A0A
:1008400020E00CC0F8018081882339F01082892FC4
:1008500029830E94130B298101C021E0822F0F9070
:10086000DF91CF911F910F91FF90EF9008958091AC
:10087000B6019091B701A091B801B091B90121B32F
:10088000AC01BD01440F551F661F771F482B592B24
:100890006A2B7B2B84709927AA27BB27E3E0880F5C
:1008A000991FAA1FBB1FEA95D1F7842B952BA62B66
:1008B000B72B80959095A095B095382F3F6C23234A
:1008C0008073822B81BB9BB18091B6018095282FCC
:1008D0002D6F92238270892B8BB9089581E0089542
:1008E0000C94CD030E94000E2FEF84E39CE0215076
:1008F00080409040E1F700C0000087E797E79093C1
:100900000108809300080C943816FF920F931F93F0
:10091000CF93DF938C01FC01C081D18180915A017A
:10092000811113C08281882349F0CE010E943013C7
:10093000F82E682FCE010E94D51204C0CE010E946D
:100940000413F82EBE018F2D04C0CE010E94301377
:10095000BE010E946106EC01B8010E947004882368
:1009600009F442C1B801CE010E94BF08882309F4EE
:100970003BC1C531FCE5DF0739F50E942714282F5C
:10098000F80182814091000150910101882379F0A2
:100990002A7A91E009F490E090933401911102C019
:1009A00069E201C065E3CA010E9439150AC080915D
:1009B0003401811102C069E201C065E3CA010E94ED
:1009C00044150E946A1410C1C6318CE5D80708F09E
:1009D0007EC0C130ECE5DE0759F4F801828188233E
:1009E00009F402C18091E70181608093E701FCC0B6
:1009F000C230FCE5DF0708F452C0F8018281882389
:100A000009F455C00E94C114811102C00E94A714AC
:100A10000E94D41490E090931C0280931B02FE016C
:100A2000E350FC45E231F10530F4EA5AFF4F809182
:100A30001B020C94C91F80911B02816027C0826039
:100A400025C0846023C0806121C080621FC0806493
:100A50001DC080681BC08460886018C08E7F16C06F
:100A60008D7F14C08B7F12C08F7E10C08F7D0EC013
:100A70008F7B0CC08F770AC08B7F877F07C087FB77
:100A8000222720F991E0922790FB87F980931B029F
:100A900080911B020E94D8140E94000EA5C0C115AF
:100AA000DC4569F081E08093390180933A01C80107
:100AB000DF91CF911F910F91FF900C946E04F8017C
:100AC0008281882309F490C00E9472048DC0C63DC3
:100AD000ECE5DE0759F5F8018281882361F0109278
:100AE0003A010E94DC15909338018093370180E22F
:100AF0000E943F0B79C080913A01882321F080E267
:100B00000E94460B71C080913701909138010E947C
:100B1000E815883C910598F780E20E94460B88E230
:100B20000E94700A88E20E94130B5EC0C73DFCE57C
:100B3000DF0708F044C0C43D8CE5D80719F5F8017B
:100B40008281882351F0109239010E94DC15909324
:100B500036018093350182E0CBCF8091390181113C
:100B60000FC080913501909136010E94E815883CB4
:100B7000910530F486E20E94700A86E20E94130B0F
:100B800082E0BECFC53DDC4509F08CCFF801828103
:100B90008111A5CF80913A018111B1CF80913701A8
:100BA000909138010E94E815883C910508F0A7CF84
:100BB00087E20E94700A87E20E94130BA0CFC93D12
:100BC000FCE5DF0731F4F8018281882369F080E0D9
:100BD00009C0CA3DDC4509F065CFF8018281882350
:100BE00019F082E00E94EC1A80E0DF91CF911F9112
:100BF0000F91FF900895CF93282F30E0F901E65A26
:100C0000FC4FC491F901E652FC4F2491222359F084
:100C100081EE0E94700A8C2F0E94700A8C2F0E9415
:100C2000130B81EE04C08C2F0E94700A8C2FCF9181
:100C30000C94130B0F931F93CF93DF93EC01062FAC
:100C4000FE018491882359F19E012F5F3F4F81302F
:100C500041F4E901F9011491812F0E94700A812F5A
:100C60000DC0823031F4E901F90184910E94700ACB
:100C70000AC0833031F4E901F90184910E94130B19
:100C800002C00E94FB052196802F8823C9F2EFE95C
:100C9000FFE03197F1F700C000008150F6CFDF91FF
:100CA000CF911F910F91089560E00C941A060C9457
:100CB000C4030C94CA030C94CC0380E090E0089524
:100CC00008959AE0799FF001112492E3899FE00D45
:100CD000F11D1124E60FF11DEE0FFF1FEA59FE4F23
:100CE000859194910895880F991FFC01E65AFB4F56
:100CF000859194910895CF93DF930E9461060E949D
:100D00001E08EC01811520E59207F0F5811530E40D
:100D1000930708F018C1883E910500F5803E9105C3
:100D200008F088C1883A910570F4853A910508F079
:100D30009AC08130910509F47DC108F434C104974B
:100D400008F078C130C18D3B910508F497C0803C14
:100D5000910508F428C1805C9109E7C08115904293
:100D600058F4C11581E0D80708F064C1C03FD1052F
:100D700008F419C1D0655EC1C11590E3D90708F028
:100D8000D8C0CE019F70D1C0811525E5920708F02B
:100D900043C0811534E5930708F0ECC0811542E5A6
:100DA000940708F5C11581E5D80708F0CFC02C2FAE
:100DB000237081E090E002C0880F991F2A95E2F726
:100DC0009C689E0174E0369527957A95E1F723702B
:100DD000922BCF70C695C69530E2C39FE0011124D7
:100DE000C82BD92B27C1869586959E012370332762
:100DF000C115D34508F0AFC040E2849FC001112463
:100E0000C1E0D0E002C0CC0FDD1F2A95E2F78C2BA9
:100E10009D2BEC01DC680EC1811529E5920778F461
:100E2000811538E5930708F0AAC08115964508F0AA
:100E3000BAC0CF71DD27DC2FCC27D062FBC0C11533
:100E40008AE5D80708F4A0C0CE01905681159042DB
:100E500008F0A9C08D2F8F710E949B08DD27D062FA
:100E60008F71D82BE7C0853A910509F49FC0863A67
:100E7000910509F09EC0C2E8D0E4DCC0883A910533
:100E800009F49AC0893A910509F499C08A3A910502
:100E900009F498C08B3A910509F497C08C3A9105F2
:100EA00009F496C08B3B910509F495C08C3B9105E4
:100EB00009F494C08D3A910509F493C0803B9105E3
:100EC00009F492C08E3A910509F491C08F3A9105C8
:100ED00009F490C0813B910509F48FC0823B9105D4
:100EE00009F48EC0833B910509F48DC0843B9105C4
:100EF00009F48CC0853B910509F48BC0863B9105B4
:100F000009F48AC0873B910509F489C0883B9105A3
:100F100009F488C0893B910509F487C08A3B910593
:100F200009F486C0C0E0D4E485C00E947306EC01D9
:100F300081C0CE019927D3FF03C0EC01D86C7AC0E1
:100F4000EC01D06C77C0DF70D06A74C0DC2FCC2786
:100F5000C16FD06A6FC040E2849FC0011124C1E01C
:100F6000D0E002C0CC0FDD1F2A95E2F7C82BD92BA9
:100F7000DA6860C0D82FCC27C46FD06A5BC0D82F86
:100F8000CC27C06FD06A56C08C2F8F70806E90E0D7
:100F9000906A24E0D695C7952A95E1F7CF709C0119
:100FA0003C2BE90147C0C0E0D0E044C0C1E8D0E438
:100FB00041C0C3E8D0E43EC0C2EED4E43BC0C9EEB9
:100FC000D4E438C0CAEED4E435C0C5EBD4E432C0B2
:100FD000C6EBD4E42FC0C3EBD4E42CC0C4EBD4E400
:100FE00029C0C7EBD4E426C0CCECD4E423C0CDECBC
:100FF000D4E420C0C3E8D5E41DC0CAE8D5E41AC0D3
:10100000C2E9D5E417C0C4E9D5E414C0C1E2D6E40E
:1010100011C0C3E2D6E40EC0C4E2D6E40BC0C5E200
:10102000D6E408C0C6E2D6E405C0C7E2D6E402C0F2
:10103000CAE2D6E4CE01DF91CF91089582389105BE
:1010400049F1B0F48133910509F458C048F489326C
:10105000910509F44EC08A32910509F454C00895EF
:101060008533910509F440C08933910599F00895BD
:10107000833E910529F138F4803E910591F0823E3E
:101080009105A1F00895863E9105F9F0873E9105FE
:1010900031F1089520911B0220FD3AC021FD38C096
:1010A000089580911B0280FD35C032C080911B02E3
:1010B00082FF32C080911B0284FD30C083EE39C0B4
:1010C00080911B0282FD28C0F5CF80911B0283FF17
:1010D00027C080911B0284FD21C087EE2AC0809129
:1010E0001B0283FD1DC0F5CF80911B0285FD1AC038
:1010F0001BC080911B0285FD17C014C080911B028C
:1011000086FD14C015C080911B0286FD11C00EC063
:1011100080EE0FC089E30DC082EE0BC080E009C0F5
:1011200086EE07C089E205C085E303C08AE201C0FC
:1011300081E390E0089590911B0292FF0DC0282F4B
:101140002871283019F4877F846006C0282F247105
:10115000243011F48B7F886093FF0DC0282F2871F5
:10116000283119F4877E846106C0282F2471243128
:1011700011F48B7E886194FD877E089508950F9306
:101180001F93CF93FB012281211102C0C1E041C016
:101190008C01C0914801C11125C086319C45B1F731
:1011A0000E94BE0881E0809348010E94DC15909364
:1011B00047018093460110923B0110923D0110922D
:1011C0003C0110923F0110923E0110924101109299
:1011D0004001109243011092420110924501109279
:1011E000440117C080914601909147010E94E81583
:1011F0008C32914058F690913B01E92FF0E0EE0FD0
:10120000FF1FE45CFE4F118300839F5F90933B01BF
:10121000C0E08C2FCF911F910F91089590934E01B4
:1012200080934D010895E0914D01F0914E0130976A
:1012300021F00190F081E02D099480E00895E09183
:101240004D01F0914E01309721F00280F381E02DA5
:1012500009940895E0914D01F0914E01309721F0ED
:101260000480F581E02D0994089520914B0130917F
:101270004C018217930771F090934C0180934B01BE
:10128000E0914D01F0914E01309721F00680F781F9
:10129000E02D099408952091490130914A01821767
:1012A000930771F090934A0180934901E0914D01B9
:1012B000F0914E01309721F00084F185E02D0994E2
:1012C000089508950C94610981E008950E94D31552
:1012D00085B7806885BF85B7806885BF0E944C034D
:1012E0000C9449164F925F927F928F929F92AF9289
:1012F000BF92CF92DF92EF92FF920F931F93CF9303
:10130000DF93CDB7DEB72A970FB6F894DEBF0FBED6
:10131000CDBF0E944E030E946409811111C08FEF5E
:1013200089838A831B820E94DC158160782F9D83CC
:101330008C8349815A816B818D810E94300A57C00C
:1013400090E5C92E91E0D92E00E010E0AA24A394E4
:10135000B12C702E802F0E94A6034C01F601419003
:1013600051906F01482659264114510431F40F5F02
:101370001F4F0530110569F7D2CF8091E70181FD3C
:101380000E94AF0320E030E07501022E02C0EE0C97
:10139000FF1C0A94E2F7C70184219521892B09F1EA
:1013A0002E837F828E209F2091E0892809F490E08F
:1013B00098870E94DC158160782F9A8789874E81F3
:1013C0005F8168858A850E94300A000F111FF8012D
:1013D000E05BFE4F80819181E826F926F182E08270
:1013E00006C02F5F3F4F2A30310571F6C0CF0E94F3
:1013F000DC1710914F010E9413091817D9F00E94B1
:10140000130980934F012A960FB6F894DEBF0FBEE2
:10141000CDBFDF91CF911F910F91FF90EF90DF90A3
:10142000CF90BF90AF909F908F907F905F904F90A4
:101430000C945B062A960FB6F894DEBF0FBECDBFA4
:10144000DF91CF911F910F91FF90EF90DF90CF90A0
:10145000BF90AF909F908F907F905F904F90089536
:10146000CF93DF93CDB7DEB72B970FB6F894DEBFDF
:101470000FBECDBF4F83588769877A878B87DE0180
:10148000119686E0FD0111928A95E9F785E0FE014B
:10149000379601900D928A95E1F70E94CA1388232E
:1014A00019F082E00E9405140E949D1381110E9490
:1014B000631449815A816B817C818D819E810E9458
:1014C000A7102B960FB6F894DEBF0FBECDBFDF91ED
:1014D000CF910895FC01808191810E946F1308953E
:1014E000882309F49FC0682F8CEF860F813A38F467
:1014F00080910001909101010E9439150CC080E299
:10150000860F883050F4677081E001C0880F6A95BB
:10151000EAF70E942A140C946A148BE5860F833034
:1015200070F4653A29F0663A31F083E890E005C03E
:1015300081E890E002C082E890E00C94350988E5EB
:10154000860F853108F06EC0683A61F1693A69F139
:101550006A3A71F16B3A79F16C3A81F16B3B89F13E
:101560006C3B91F16D3A99F1603BA1F16E3AA9F1B2
:101570006F3AB1F1613BB9F1623BC1F1633BC9F133
:10158000643BD1F1653BD9F1663BE1F1673BE9F1A1
:10159000683BF1F1693BF9F16A3B09F43FC080E037
:1015A00090E03EC082EE90E03BC089EE90E038C013
:1015B0008AEE90E035C085EB90E032C086EB90E09B
:1015C0002FC083EB90E02CC084EB90E029C087EB28
:1015D00090E026C08CEC90E023C08DEC90E020C021
:1015E00083E891E01DC08AE891E01AC082E991E0A9
:1015F00017C084E991E014C081E292E011C083E257
:1016000092E00EC084E292E00BC085E292E008C056
:1016100086E292E005C087E292E002C08AE292E0B0
:101620000C944B090895882349F1682F8CEF860F9D
:10163000813A38F480910001909101010E94441593
:101640000CC080E2860F883050F4677081E001C0E2
:10165000880F6A95EAF70E9430140C946A148BE59F
:10166000860F833020F480E090E00C943509685AAE
:10167000653120F480E090E00C944B0908958823B4
:1016800021F00E942A140C946A140895882321F0F2
:101690000E9430140C946A1408954F925F926F92D6
:1016A0007F92BF92CF92DF92EF92FF920F931F93A0
:1016B000CF93DF937C01D62FC72FFC0105810295C4
:1016C0000F70128111110E9447140E942014882368
:1016D00079F0112369F080E28D0F883048F082E0C4
:1016E0000E9405140E94201491E0B82EB92601C072
:1016F000B12CCC2EC2948FE0C822D12CF601E8592F
:10170000FF4F0C94C91F8C2F807FCF70882311F05E
:10171000C295C07F112399F0CC2309F4CFC180E298
:101720008D0F883010F0D11104C08C2F0E942A1424
:1017300003C08C2F0E943A140E946A14BFC18D2FDF
:101740000E94130BCC2309F4DEC180E28D0F883098
:1017500010F0D11104C08C2F0E94301403C08C2FC4
:101760000E9440140E946A14CEC18C2F807FCF70DB
:10177000803211F0C295C07FDD2319F0D130C9F05D
:1017800022C0112371F0002341F0013031F40E9496
:10179000A4148C2B0E945A14B6C10E94A4148C2B42
:1017A00046C1002319F0013009F4ADC10E94631451
:1017B00018C0112321F0063008F0A5C10EC0053075
:1017C00008F0A1C10EC0112351F0002331F0F70140
:1017D000858180FF73C18F7085838C2F28C1011193
:1017E0007EC18C2F2AC18C2F86958695837090E0C0
:1017F000009719F0019761F086C1112321F08D2F18
:101800009C2F937002C080E090E00E9435098BC14C
:10181000112321F08D2F9C2F937002C080E090E067
:101820000E944B0980C11123F9F0D53F51F0D63FFA
:1018300071F0D43FA9F48091150290911602816055
:101840000BC08091150290911602826005C08091B4
:1018500015029091160284609093160280931502EF
:101860008D2F0E94E4161EC0D53F51F0D63F71F077
:10187000D43FA9F480911502909116028E7F0BC07F
:1018800080911502909116028D7F05C080911502FE
:10189000909116028B7F90931602809315028D2FE4
:1018A0000E944C170E94D1173EC18C2F837009F003
:1018B00050C0111134C18D2F829586958770880F85
:1018C000880F9D2F9F70492E512C612C712C082E52
:1018D00004C0440C551C661C771C0A94D2F7D4FF34
:1018E00014C00FE010E020E030E0B901A80104C00E
:1018F000440F551F661F771F8A95D2F7CB01BA0197
:10190000609570958095909503C060E070E0CB0184
:10191000C695C695C370D0E0C230D10561F0C33022
:10192000D10581F06429752986299729219771F0BD
:101930000E94EA11F4C064297529862997290E941A
:10194000FC11EDC00E94EA11C301B2010E94D8113E
:10195000E6C0112319F08C2F817001C08695882371
:1019600009F4DDC08D2F829586958770880F880FCA
:101970009D2F9F70492E512C612C712C082E04C074
:10198000440C551C661C771C0A94D2F7D4FF14C073
:101990000FE010E020E030E0B901A80104C0440FDE
:1019A000551F661F771F8A95D2F7CB01BA01609544
:1019B00070958095909503C060E070E0CB01C6956E
:1019C000C695C3704C2F50E04230510569F043304A
:1019D000510589F0642975298629972941305105D7
:1019E00071F00E94B0129BC064297529862997293D
:1019F0000E94C21294C00E94B012C301B2010E94A0
:101A00009E128DC08D2F90E0FC01E05EF109E53162
:101A1000F10508F04FC0E858FF4F0C94C91FDF7064
:101A20008C2F8F71112331F00E9437128D2F0E945D
:101A30003F0B69C00E9458128D2F0E94460B63C055
:101A4000112341F0053008F05EC08C2F8F710E9489
:101A50007D1259C0063008F056C0F7CF112339F077
:101A60008C2F8F710E9437124EC01123C9F38C2F17
:101A70008F710E94581247C0112329F08C2F8F714B
:101A80000E94221240C00E941D123DC0112349F045
:101A9000CF718C2F0E94371263E08C2F0E94F513B8
:101AA00032C081E00E940514023068F182E00E9499
:101AB000051429C0112331F0002391F28D2F0E94CB
:101AC000700A21C0002399F2D93349F45FEF67EE21
:101AD00073E0515060407040E1F700C000008D2F6E
:101AE0000E94130B10C04C2F4F706D2FC7010E9426
:101AF0005D060E944B1117C04C2F4F706D2FC70110
:101B00000E94600610C088E0C816D10441F05CF065
:101B1000EAE0CE1AD108F2E0CF16D10420F40E94F8
:101B200013090E945B06BB20F1F00E94C61380FDE2
:101B30001AC0F70112820E94C0130E943712C70117
:101B40000E94C10D0E94C013DF91CF911F910F9190
:101B5000FF90EF90DF90CF90BF907F906F905F905D
:101B60004F900C945812DF91CF911F910F91FF90DD
:101B7000EF90DF90CF90BF907F906F905F904F90ED
:101B800008950F931F93CF93DF93EC018881998180
:101B90002B813C81232BB9F09F3F11F48F3F99F0AB
:101BA000CE010E948504882371F0688179818A8141
:101BB0000E947A138C010E94D4120E94D511B801A0
:101BC000CE010E944D0BDF91CF911F910F9108958F
:101BD0000E9447140E9457148091000190910101C6
:101BE0000E944F150E946A140E9477180E94D11714
:101BF00080E090E00E94350980E090E00C944B0971
:101C00000E9437140C94E80D0E946F13E92FE2959F
:101C1000EF70F0E03297EE30F105B0F4E357FF4F8C
:101C20000C94C91F803F91F018F4803E68F40EC0F8
:101C3000843F51F40BC0803E48F0813F29F406C038
:101C400093FB882780F9089580E0089581E0089546
:101C5000CF93DF9300D000D01F92CDB7DEB70F90A7
:101C60000F900F900F900F90DF91CF910895CF9329
:101C7000DF9300D000D000D0CDB7DEB726960FB6E8
:101C8000F894DEBF0FBECDBFDF91CF9108951F93B3
:101C9000CF93DF93C0915B0116E080915C01C81780
:101CA00099F0D0E01C9FF0011D9FF00D1124E35A24
:101CB000FE4F4081518162817381848195810E94B0
:101CC000370E2196C770E9CFDF91CF911F9108950C
:101CD00040918D0150918E0160918F017091900122
:101CE00080919101909192010C94370E8091920114
:101CF00082958F7009F054C080918F01882309F478
:101D00004FC080915B01A0915C0160918D01709149
:101D10008E014091900150919101B6E08A1709F42B
:101D20003FC090E041155105C1F17F3F11F46F3F75
:101D3000A1F1B89FF001B99FF00D1124E35AFE4FB5
:101D4000218172132AC02081621327C022812111B0
:101D500024C0238134812417350710F42150310920
:101D6000241B350B283C3105C0F4209192012F70C3
:101D700020612093920126E0289FF001299FF00D19
:101D80001124EE59FE4F80818F70806180838DE831
:101D900091E00E94C10D0C94470E01968770BECF52
:101DA0000895CF92DF92EF92FF920F931F93CF93FC
:101DB000DF93CDB7DEB762970FB6F894DEBF0FBEE4
:101DC000CDBF8C0185E0F801DE011D9601900D92DA
:101DD0008A95E1F7D8014C9111965C911197129672
:101DE0006C9112971396CD90DC90149730918D01E1
:101DF00070918E018091900190919101009709F46A
:101E00006BC17F3F19F43F3F09F466C1E0908F0139
:101E1000EE2009F4C0C020919201C816D90628F01E
:101E2000F601E81BF90BCF0104C0809590958C0D4D
:101E30009D1DFF24F394883C910578F0F12C207FC0
:101E400009F0C6C07C2DD98AC88A89890E94280ECB
:101E50008DE891E00E94C10DB1C0822F807F09F012
:101E600046C0751314C0341312C0611110C02F7016
:101E70002061209392010E94680E8DE891E00E94FB
:101E8000C10D80919201D80115968C932EC0CD285A
:101E900019F15F3F11F44F3FF9F0F62E61111CC0AC
:101EA00080915B0120915C0136E0821709F45AC0F1
:101EB00090E0389FF001399FF00D1124E35AFE4F56
:101EC0007181571306C07081471303C0728171116D
:101ED00003C001968770E9CFF62E662309F427C167
:101EE00080919201816080939201F12C20C1751341
:101EF00008C0341306C0611104C080919201D8015A
:101F0000C3C04D875E878D859E856A8B0E94040EB7
:101F10006A898823E1F16623D1F120919201822F11
:101F200082958F7090E0029774F080918D0190916E
:101F30008E0198878F831986DB86CA862C87CE010F
:101F400007960E94C10D86E0F801ADE8B1E001906E
:101F50000D928A95E1F70E94760E0E94680EFF248A
:101F6000F394E5C04D875E878D859E850E946F1333
:101F7000292F22952F7030E0223031050CF0CBC094
:101F80009F7009F0C5C0805E883008F4D0C0C801D9
:101F90000E94C10DE4CFC816D90608F453C0F6015B
:101FA000E81BF90BCF01883C910508F450C0F12CD7
:101FB0007C2DD98AC88A89890E94280EEDE8F1E033
:101FC00086E0DF011D928A95E9F70E94680EAFC096
:101FD000751314C0341312C0611110C080919201A6
:101FE000F8018583C8010E94C10D86E0EDE8F1E0AB
:101FF000DF011D928A95E9F7FE2C99C04D875E8717
:102000008D859E856A8B0E94040E6A89882309F457
:10201000BECF662309F4BBCF20919201822F829517
:102020008F7090E002970CF48ECF80918D0190918B
:102030008E019A8389831B82DD82CC822E83CE011E
:1020400001967FCF809590958C0D9D1DACCFF62E7F
:10205000662309F49CCF75132EC034132CC0209135
:10206000920120FD1FC0822F82958F70D9F0D80178
:1020700015962C9315978F3049F08F5F982F929576
:10208000907F822F8F70892B15968C93C8010E94A8
:10209000C10D86E0F801ADE8B1E001900D928A959E
:1020A000E1F793CF86E0F801ADE8B1E001900D9241
:1020B0008A95E1F73CC04D875E878D859E850E949D
:1020C000040E811140CF8091920181608093920132
:1020D000C8010E94C10D2BC0662309F458CF4D875B
:1020E0005E878D859E850E94040EF82E882309F454
:1020F0004ECF86E0F801ADE8B1E001900D928A95EF
:10210000E1F78DE891E00E946A0A0E94760E5DCFA9
:10211000811139CF0CC0243031050CF038CF9F70BD
:1021200009F431CFF8019581907F09F02CCF8F2DE4
:1021300062960FB6F894DEBF0FBECDBFDF91CF9190
:102140001F910F91FF90EF90DF90CF9008951F9314
:10215000CF93DF93CDB7DEB72C970FB6F894DEBFE1
:102160000FBECDBF4F83588769877A878B879C873F
:10217000CE0107960E94D10E882369F08F81988541
:102180002A853B85232BF1F19F3F09F063C08F3FE8
:1021900009F060C037C086E0FE013796DE01119677
:1021A00001900D928A95E1F76F817885EA85FB852C
:1021B000309741F17F3F11F46F3F21F120915C0195
:1021C00030E0C90101968770992740915B0150E08A
:1021D0008417950709F447C069837A83FD83EC83EC
:1021E00096E0929FD001939FB00D1124A35ABE4F49
:1021F000FE01319601900D929A95E1F780935C0172
:102200000E94470E16E080915B0190915C01891756
:10221000C1F1189FC0011124835A9E4F0E94D10E14
:10222000882379F1E0915B011E9FF0011124E35AAC
:10223000FE4F4081518162817381848195810E942A
:10224000370E80915B0190E001968770992780930B
:102250005B01D9CF4F81588569857A858B859C85AF
:102260000E94370ECFCF0E94000E10925C01109298
:102270005B01EDE8F1E086E0DF011D928A95E9F768
:10228000C1CF2C960FB6F894DEBF0FBECDBFDF9145
:10229000CF911F910895EF92FF920F931F93CF93C9
:1022A000DF938C01892B09F46CC0F12CEE24E394AC
:1022B000E8012196F8018491843740F4843008F0D5
:1022C00051C0813081F0823019F15BC0853709F44B
:1022D00044C0A8F19CE7980F903708F052C08F7760
:1022E0000E94130B41C00E5F1F4FFE01C49180E29C
:1022F0008C0F883048F4C7708E2D01C0880FCA95A6
:10230000EAF70E944A1414C08C2F0E94700A2DC054
:102310000E5F1F4FFE01C49180E28C0F883058F48D
:10232000C7708E2D01C0880FCA95EAF70E9450141D
:102330000E946A141AC08C2F0E94130B16C00E5FE5
:102340001F4FFE01C491CC2381F08FE99FE00197DC
:10235000F1F700C00000C150F6CF0E5F1F4FFE0125
:10236000F49003C00E94700A8E018F2D882309F417
:102370009FCFEFE9FFE03197F1F700C000008150F7
:10238000F5CFDF91CF911F910F91FF90EF900895BE
:1023900008950E94C8116093BA017093BB018093A5
:1023A000BC019093BD010C94E80D08950C94C911E3
:1023B0000F931F930091BA011091BB012091BC01B2
:1023C0003091BD01602B712B822B932B1F910F91AC
:1023D0000C94C9110F931F930091BA011091BB0186
:1023E0002091BC013091BD0160237123822393238E
:1023F0001F910F910C94C9110F931F930091BA0173
:102400001091BB012091BC013091BD016027712763
:10241000822793271F910F910C94C91108950C9452
:102420000E120E940F126093B6017093B701809351
:10243000B8019093B9010C94E80D60E070E0CB0115
:102440000C9411120F931F9341E050E060E070E094
:102450008A019B0104C0000F111F221F331F8A95A0
:10246000D2F7C901B8011F910F910C9411120F936B
:102470001F9341E050E060E070E004C0440F551F3E
:10248000661F771F8A95D2F78091B6019091B701A8
:10249000A091B801B091B9018A019B01082B192BB9
:1024A0002A2B3B2BC901B8011F910F910C941112DB
:1024B0000F931F9341E050E060E070E004C0440FD0
:1024C000551F661F771F8A95D2F7409550956095E6
:1024D00070958091B6019091B701A091B801B0912B
:1024E000B9018A019B01082319232A233B23C9012F
:1024F000B8011F910F910C9411120F931F9341E09B
:1025000050E060E070E004C0440F551F661F771F65
:102510008A95D2F78091B6019091B701A091B80148
:10252000B091B9018A019B01082719272A273B2767
:10253000C901B8011F910F910C9411120F931F93B1
:102540000091B6011091B7012091B8013091B90105
:10255000602B712B822B932B1F910F910C941112D6
:102560000F931F930091B6011091B7012091B8010C
:102570003091B90160237123822393231F910F911E
:102580000C9411120F931F930091B6011091B70193
:102590002091B8013091B9016027712782279327D4
:1025A0001F910F910C94111208952AE0929F800DB3
:1025B0001124A82FA695A695A695877051E001C075
:1025C000550F8A95EAF785E0A89FD001112420E0F5
:1025D00030E070E0F901EA0FFB1FED56FE4F40813D
:1025E000CB01022E02C0969587950A94E2F781707E
:1025F0009927819584278523842780832F5F3F4FE8
:102600002530310539F708952AE0929F800D112475
:10261000682F669566956695982F977085E0689FF8
:10262000B001112440E050E080E0FA01E60FF71F0E
:10263000ED56FE4F208130E0092E02C036952795D9
:102640000A94E2F721703327042E01C0220F0A9466
:10265000EAF7822B4F5F5F4F4530510531F7089500
:10266000CF92DF92EF92FF920F931F93CF93DF935E
:102670008C01C090BA01D090BB01E090BC01F090F9
:10268000BD018091B6019091B701A091B801B091C0
:10269000B901C82AD92AEA2AFB2ACFE1D0E0D7011A
:1026A000C6010C2E04C0B695A795979587950A94F8
:1026B000D2F780FF06C0B8018C2F0E947B060197DD
:1026C00021F4219760F780E001C08C2FDF91CF913A
:1026D0001F910F91FF90EF90DF90CF900895CF93CF
:1026E000DF93EC010E943013BE010E947B06DF9154
:1026F000CF9108951F93CF93DF93EB0190915A01EF
:10270000992321F0CB010E946F1313C0882349F055
:10271000CB010E943013182F682FCE010E94D512D2
:1027200004C0CB010E940413182FBE01812F0E9408
:102730007B06DF91CF911F9108950E94DC152091B7
:10274000C1013091C2018217930750F00E94DC153D
:102750002091C1013091C201821B930B9C010AC0E0
:102760000E94DC152091C1013091C2012095309565
:10277000280F391F81E0243F314008F480E008959C
:102780008091C00185958595859508958091C001BA
:10279000877008950E94DC152091BE013091BF0121
:1027A00082179307A8F00E94DC152091BE0130919A
:1027B000BF01821B930B843F914010F480E013C053
:1027C0008091C00182FB882780F991E089270BC0A6
:1027D0000E94DC152091BE013091BF0120953095FB
:1027E000820F931FE8CF8170089598E0899F900130
:1027F0001124262B2093C0010E9437120E94DC1561
:102800009093BF018093BE0108952091C0018095EF
:1028100082238093C001982F977089F430E0482F6D
:10282000082E000C550B2417350749F08595859522
:1028300085950E9458121092BF011092BE01089512
:102840009091C001977081E009F480E00895809133
:10285000E60108959091E601892B8093E6010895A1
:1028600080959091E60189238093E6010895109266
:10287000E60108959091E501892B8093E501089583
:1028800080959091E50189238093E5010895109248
:10289000E50108959091E401892B8093E401089566
:1028A00080959091E40189238093E401089510922A
:1028B000E40108958093C3010E94DC159093C20146
:1028C0008093C10108951092C3011092C201109229
:1028D000C1010895E0910001F09101018091E601AC
:1028E0008083E0910001F091010190818091E501E8
:1028F000892B8083E0910001F0910101908180910A
:10290000E401892B80838091C3018823B9F00E9460
:102910009D1381110E946314E0910001F091010167
:1029200090818091C301892B8083809100019091D7
:1029300001010E94DD1481110E9463148091000145
:10294000909101010C941F098091C30108956DEECF
:102950007EEF80E090E00E94032060E082E090E063
:102960000E94F11F60E083E090E00E94F11F60E0B0
:1029700084E090E00E94F11F60E085E090E00C941C
:10298000F11F80E090E00E94EB1F21E08D3E9E4F02
:1029900009F020E0822F089582E090E00C94E31F7C
:1029A00083E090E00C94E31F84E090E00C94E31F3C
:1029B000682F84E090E00C94F11FFC0131969C019B
:1029C000205E3F4F80E0919191118F5FE217F307F6
:1029D000D1F708959C01FC0132969FEF80E0419170
:1029E000461789F09F3F19F4411101C0982F8F5F5E
:1029F0008E31A9F79F3F39F0F901E90FF11D97FDDD
:102A0000FA95628308950895FC013296809620819C
:102A1000261301C010823196E817F907C1F708950F
:102A2000262F2695269526952F3168F4FC01E20F76
:102A3000F11D677021E030E001C0220F6A95EAF7CE
:102A40008181282B21830895262F2695269526956A
:102A50002F3170F4FC01E20FF11D677021E030E0CE
:102A600001C0220F6A95EAF72095818128232183EE
:102A7000089520911201222329F020911B0227FDA5
:102A80000C9410150C94EA1420911201222329F0C1
:102A900020911B0227FD0C9424150C940415FC01B5
:102AA000319680961192E817F907E1F70895089595
:102AB0000C94571580912102843049F11092E8015D
:102AC00020E488E190E00FB6F894A8958093600028
:102AD0000FBE2093600080E00E945B060E945815A4
:102AE00083B7817F846083BF83B7816083BF78941D
:102AF000889583B78E7F83BF0FB6F894A895809191
:102B00006000886180936000109260000FBE08959D
:102B100008950895CF930E9488150E944E030E9445
:102B20008915C0E08C2F0E94A603892B29F4CF5F62
:102B3000C530C1F780E001C081E0CF9108950895CC
:102B40000C949F150E94000E0E9413090E945B06C0
:102B50000C94A0151F920F920FB60F9211248F9311
:102B60009F93AF93BF938091E801811113C080912F
:102B7000170290911802A0911902B0911A02419681
:102B8000A11DB11D8093170290931802A093190202
:102B9000B0931A02BF91AF919F918F910F900FBE8A
:102BA0000F901F90189582E084BD93E095BD9AEF39
:102BB00097BD80936E0008952FB7F8948091170207
:102BC00090911802A0911902B0911A022FBF089596
:102BD000CF92DF92EF92FF920F931F932FB7F8944B
:102BE00040911702509118026091190270911A02D7
:102BF0002FBF6A017B01EE24FF248C0120E030E02E
:102C0000C016D106E206F30610F4415051099A01AC
:102C1000281B390BC9011F910F91FF90EF90DF9096
:102C2000CF90089578941F920F920FB60F921124AF
:102C30008F939F93AF93BF93809117029091180247
:102C4000A0911902B0911A020196A11DB11D8093A5
:102C5000170290931802A0931902B0931A02BF9121
:102C6000AF919F918F910F900FBE0F901F9018956D
:102C700087E797E790930108809300089AE088E13E
:102C80000FB6F894A895809360000FBE90936000F3
:102C9000FFCF0E94C114811102C00E94A7140E949C
:102CA000CC148093E7010E94D41490E090931C020E
:102CB00080931B020E94D014682F70E080E090E0A7
:102CC0000C94D6118091EB0180FF0BC0609105013F
:102CD00085E0689FB0011124759567957595679596
:102CE0002BC081FF09C06091050185E0689FB0019C
:102CF00011247595679520C082FF07C0609105017A
:102D000085E0689FB001112417C09091EC019923D0
:102D1000D1F060910401961788F72091050185E0B4
:102D2000289F90011124929FA001939F500D112480
:102D300070E0CA010E94B51F6038710540F461154A
:102D4000710539F002C065E070E0862F08958FE7C5
:102D5000089581E008958091EB0180FF08C06091A3
:102D6000030170E0759567957595679521C081FFA2
:102D700006C06091030170E07595679519C082FFE8
:102D800004C06091030170E010C09091EC019923A0
:102D9000C1F0609102019617A0F780910301899F0D
:102DA000C001112470E00E94B51F6038710528F43D
:102DB0006115710521F0862F08958FE7089581E050
:102DC000089561E070E0F4CF803F21F40E94621624
:102DD000819504C0813F29F40E9462168093EF011F
:102DE0000895823F21F40E946216819504C0833FBA
:102DF00029F40E9462168093EE010895893F19F428
:102E00000E94AB1605C08A3F31F40E94AB16819533
:102E10008093F00108958B3F21F40E94AB168195B9
:102E200004C08C3F29F40E94AB168093F1010895F1
:102E3000843F21F48091ED01816017C0853F21F42A
:102E40008091ED01826011C0863F21F48091ED01F7
:102E500084600BC0873F21F48091ED01886005C03C
:102E6000883F31F48091ED0180618093ED010895F8
:102E70008D3F21F48091EB0181600BC08E3F21F4E6
:102E80008091EB01826005C08F3F29F48091EB01B6
:102E900084608093EB010895803F39F48091EF01C5
:102EA00087FF6CC01092EF0169C0813F29F48091C7
:102EB000EF011816BCF362C09091EE01823F29F435
:102EC00097FF5CC01092EE0159C0833F19F41916A8
:102ED000CCF354C0893F41F48091F00118160CF0F6
:102EE0004DC01092F0014AC08A3F29F48091F00150
:102EF00087FF44C0F6CF8B3F39F48091F10187FF03
:102F00003DC01092F1013AC08C3F29F48091F1014B
:102F10001816BCF333C0843F21F48091ED018E7FFD
:102F200017C0853F21F48091ED018D7F11C0863F50
:102F300021F48091ED018B7F0BC0873F21F48091BC
:102F4000ED01877F05C0883F31F48091ED018F7ED0
:102F50008093ED0113C08D3F21F48091EB018E7FB2
:102F60000BC08E3F21F48091EB018D7F05C08F3F18
:102F700029F48091EB018B7F8093EB018091EE012E
:102F800081110EC08091EF0181110AC08091F00182
:102F9000811106C08091F101811102C01092EC01F3
:102FA00008958DEE91E00E942A090E94DC1590930D
:102FB000EA018093E90108951F93CF93DF938091F5
:102FC000E9019091EA010E94E815AC019091EC01B1
:102FD000992321F02091060130E006C020910701DD
:102FE0008AE0289F900111244217530708F47BC000
:102FF0008091EE01C091EF01D091F0011091F101AB
:10300000811107C0C1116BC0D11169C0111167C016
:103010006AC09F3F19F09F5F9093EC01181624F44B
:103020000E9462168093EE018091EE0187FF05C039
:103030000E94621681958093EE011C1624F40E9472
:1030400062168093EF018091EF0187FF05C00E9417
:10305000621681958093EF013091EE013323E1F008
:103060002091EF012223C1F045EB3403C00111246C
:10307000892F990F990B009709F481E08093EE0155
:1030800035EB2303C0011124892F990F990B009769
:1030900009F481E08093EF011D1624F40E94AB1621
:1030A0008093F0018091F00187FF05C00E94AB166C
:1030B00081958093F001111624F40E94AB16809341
:1030C000F1018091F10187FF05C00E94AB16819547
:1030D0008093F101DF91CF911F910C94D1179F3F05
:1030E00009F099CFA1CFDF91CF911F910895EDEE17
:1030F000F1E085E0DF011D928A95E9F71092EC017D
:103100001092EB0108958091120208950F931F937E
:10311000CF93DF9300D01F92CDB7DEB78C010E9412
:10312000FC1A823011F0843019F593E099831B83E7
:103130000A839093E9008FEF9091E800815095FD0C
:1031400006C095ED9A95F1F700008111F5CF8091B9
:10315000E80085FF0DC040E050E063E070E0CE0184
:1031600001960E94191B8091E8008E778093E800F9
:103170000F900F900F90DF91CF911F910F910895B5
:10318000CF93DF9300D01F92CDB7DEB720912102FD
:10319000243031F522E02983805891099B838A836A
:1031A00083E08093E9008FEF9091E800815095FDD6
:1031B00006C095ED9A95F1F700008111F5CF809149
:1031C000E80085FF0DC040E050E063E070E0CE0114
:1031D00001960E94191B8091E8008E778093E80089
:1031E0000F900F900F90DF91CF910895CF93DF93C1
:1031F000EC010E94FC1A823011F08430F9F482E074
:103200008093E9009FEF8091E800915085FD06C012
:1032100085ED8A95F1F700009111F5CF8091E800D6
:1032200085FF0CC040E050E065E070E0CE010E94F8
:10323000191B8091E8008E778093E800DF91CF9191
:103240000895CF93DF93EC010E94FC1A823019F0AD
:10325000843009F047C0809112018823E1F0809109
:103260001B0287FF18C084E08093E9008FEF9091E4
:10327000E800815095FD06C095E19A95F1F70000B0
:103280008111F5CF8091E80085FF2CC040E050E02F
:1032900060E270E017C081E08093E9008FEF9091C9
:1032A000E800815095FD06C095ED9A95F1F7000074
:1032B0008111F5CF8091E80085FF14C040E050E017
:1032C00068E070E0CE010E94191B8091E8008E77C3
:1032D0008093E80080E2FE01A2EFB1E001900D9240
:1032E0008A95E1F7DF91CF910895809120028111B5
:1032F00009C00E94AE1C0E940B1D8091E2008460F8
:103300008093E20008951092200208950895089590
:103310000C94A21542E061EC81E00E94281C42E07E
:1033200061EC82E00E94281C42E061EC83E00E9494
:10333000281C42E261EC84E00C94281C809123025A
:10334000833009F455C030F4813071F0823009F4D3
:103350008EC008958A3009F47AC08B3009F460C0B9
:10336000893009F09CC020C080912202813A09F086
:1033700096C08091E800877F8093E80080912602C4
:1033800090912702892B21F460E282EF91E003C043
:1033900060E080E090E070E00E94641B8091E800B3
:1033A0008B778093E800089580912202813209F0A2
:1033B00076C08091260290912702009719F003971A
:1033C00009F06DC08091E800877F8093E8008091CC
:1033D000E80082FD05C0809121028111F8CF5FC015
:1033E0008091F100809312028091E8008B7753C0A6
:1033F00080912202813A09F052C080912602909178
:103400002702892B09F04BC08091E800877F8093C9
:10341000E8008091E80080FFFCCF8091120136C067
:10342000809122028132D9F5809126029091270263
:10343000892BA9F58091E800877F8093E8000E949E
:103440005D1C80912402809312010C94000E8091E7
:103450002202813221F58091E800877F8093E80085
:103460000E945D1C80912502809313020895809133
:103470002202813AA1F48091E800877F8093E800DE
:103480008091E80080FFFCCF809113028093F100CF
:103490008091E8008E778093E8000C945D1C08957D
:1034A00084B7877F84BF0FB6F894A8958091600099
:1034B000886180936000109260000FBE80E8809366
:1034C0006100109261000E9462090E94AE1C0E947D
:1034D0000B1D8091E20084608093E20078940E944A
:1034E0009A1F0E94660988E091E00E940E0980916F
:1034F0002102853069F40E945A1580911F028823A9
:10350000B1F30E948A15882391F30E94031BEFCF29
:103510000E947209ECCF0C948D1A292F3327233087
:103520003105C9F064F42130310581F022303105D4
:1035300009F049C08DE690E028E834E048C0213227
:10354000310521F12232310571F13DC082E190E077
:1035500025EF34E03CC099278130910571F02CF4BF
:10356000892B89F5E4E8F4E00DC08230910541F043
:10357000039749F5EAE5F4E005C0E2E7F4E002C0AC
:10358000E0E6F4E0849190E09F0121C06430710591
:10359000D0F4660F771FFB01E15EFE4F2081318181
:1035A00089E090E014C06430710568F4FB01EE0F0F
:1035B000FF1FE95EFE4F20813181FB01ED5EFE4F72
:1035C000808190E004C080E090E020E030E0FA01EB
:1035D0003183208308950895CF93C82F0E94EB1A5A
:1035E000C0931402CF91089580912102843011F08C
:1035F00081E0089582E0089580911402811102C053
:103600000C94F41A089580E189BD82E189BD09B462
:1036100000FEFDCF8091D8008F7D8093D8008091EF
:10362000E00082608093E0008091E00081FDFCCFAB
:103630000895CF92DF92EF92FF920F931F93CF9353
:10364000DF93EC018B016A010E947C1C811133C065
:10365000C114D10439F0F60180819181081B190B46
:10366000C80FD91FE12CF12C0115110519F180911A
:10367000E80085FD16C08091E8008E778093E80011
:10368000C114D10449F0F60180819181E80EF91E40
:10369000F182E08285E00FC00E947C1C882321F328
:1036A0000AC089918093F10001501109FFEFEF1AD0
:1036B000FF0ADACF80E0DF91CF911F910F91FF9049
:1036C000EF90DF90CF900895209128023091290249
:1036D0002617370748F06115710539F42091E80085
:1036E0002E772093E80001C0B90140E06115710513
:1036F000A9F120912102222309F443C0253009F4C5
:1037000042C02091E80023FD40C02091E80022FD46
:1037100032C02091E80020FFE9CF4091F3002091D2
:10372000F20030E0342BFC01CF016115710559F036
:103730002830310540F481918093F1006150710986
:103740002F5F3F4FF1CF41E02830310509F040E0D5
:103750002091E8002E772093E800C8CF4111C9CF0F
:103760000AC080912102882361F0853061F0809148
:10377000E80083FD0AC08091E80082FFF2CF80E07C
:10378000089582E0089583E0089581E008952091EE
:103790002802309129022617370748F06115710574
:1037A00039F42091E8002E772093E80001C0B90198
:1037B000FC0120E06115710591F1809121028823BF
:1037C00009F440C0853009F43FC08091E80083FDD2
:1037D0003DC08091E80082FD2FC08091E80080FF0D
:1037E000E9CF2091F3008091F20090E0922B6115D7
:1037F000710559F08830910540F424912093F1002F
:103800003196615071090196F2CF21E0089709F0D5
:1038100020E08091E8008E778093E800CBCF2111E3
:10382000CCCF0AC080912102882361F0853061F0FD
:103830008091E80083FD0AC08091E80082FFF2CF0A
:1038400080E0089582E0089583E0089581E008957E
:10385000982F973058F59093E900981739F07091A8
:10386000EC002091ED005091F00003C0242F762F42
:1038700050E021FF19C03091EB003E7F3093EB0008
:103880003091ED003D7F3093ED003091EB003160E1
:103890003093EB007093EC002093ED005093F00018
:1038A0002091EE0027FF07C09F5FD3CF8F708093DA
:1038B000E90081E0089580E008958091220287FF69
:1038C00011C08091E80082FD05C080912102811124
:1038D000F8CF11C08091E8008B770BC08091210256
:1038E000882349F08091E80080FFF8CF8091E800BC
:1038F0008E778093E80008952091E4003091E500F0
:1039000095E64091EC00842F817040FF22C08091A9
:10391000E80080FD1CC080912102882391F0853051
:1039200091F08091EB0085FD10C04091E400509132
:10393000E5004217530729F39A01915011F784E0EB
:10394000089582E0089583E0089581E0089580E07D
:1039500008954091E80042FFDECF08950E941C1DAB
:103960000E94241DE0EEF0E0808181608083E8ED1C
:10397000F0E080818F77808319BCA7EDB0E08C9157
:103980008E7F8C9380818F7E808310922002089599
:103990000F931F93CF93DF930E941C1D0E94241D41
:1039A000C8EDD0E088818F7788838881806888839C
:1039B00088818F7D888319BC1092210210921D028C
:1039C00010921F0210921E0200EE10E0F80180819A
:1039D0008B7F808388818160888342E060E080E023
:1039E0000E94281CE1EEF0E080818E7F8083E2EE71
:1039F000F0E0808181608083808188608083F8012D
:103A000080818E7F8083888180618883DF91CF91E0
:103A10001F910F910895E8EDF0E080818F7E808303
:103A2000E7EDF0E080818160808384E082BF81E007
:103A3000809320020C94C81CE8EDF0E080818E7F1A
:103A400080831092E20008951092DA001092E10053
:103A500008951F920F920FB60F9211242F933F9348
:103A60004F935F936F937F938F939F93AF93BF9386
:103A7000EF93FF938091E10082FF0BC08091E20001
:103A800082FF07C08091E1008B7F8093E1000E945C
:103A9000991F8091DA0080FF1FC08091D80080FFBD
:103AA0001BC08091DA008E7F8093DA008091D9006C
:103AB00080FF0DC080E189BD82E189BD09B400FEAF
:103AC000FDCF81E0809321020E94751905C019BCC9
:103AD000109221020E9483198091E10080FF19C099
:103AE0008091E20080FF15C08091E2008E7F80937C
:103AF000E2008091E20080618093E2008091D80032
:103B000080628093D80019BC85E0809321020E94D6
:103B100087198091E10084FF30C08091E20084FF2A
:103B20002CC080E189BD82E189BD09B400FEFDCFD2
:103B30008091D8008F7D8093D8008091E1008F7EA6
:103B40008093E1008091E2008F7E8093E20080917B
:103B5000E20081608093E20080911D02882311F0D1
:103B600084E007C08091E30087FD02C081E001C0CE
:103B700083E0809321020E9488198091E10083FFF5
:103B800029C08091E20083FF25C08091E100877FFA
:103B90008093E10082E08093210210921D028091C7
:103BA000E1008E7F8093E1008091E2008E7F809320
:103BB000E2008091E20080618093E20042E060E0F8
:103BC00080E00E94281C8091F00088608093F000C3
:103BD0000E948619FF91EF91BF91AF919F918F91B4
:103BE0007F916F915F914F913F912F910F900FBEF9
:103BF0000F901F9018951F920F920FB60F921124DD
:103C00002F933F934F935F936F937F938F939F93E4
:103C1000AF93BF93CF93DF93EF93FF93C091E900EE
:103C2000CF708091EC00D82FD17080FDD0E8109239
:103C3000E9008091F000877F8093F00078940E94E3
:103C40003F1E1092E9008091F00088608093F000A0
:103C5000CD2BCF70C093E900FF91EF91DF91CF9111
:103C6000BF91AF919F918F917F916F915F914F9194
:103C70003F912F910F900FBE0F901F9018951F939B
:103C8000CF93DF93CDB7DEB7AA970FB6F894DEBF18
:103C90000FBECDBFE2E2F2E088E08E0F9091F1001E
:103CA00091938E13FBCF0E949E198091E80083FFB1
:103CB00028C18091220290912302492F50E04A307E
:103CC000510508F01EC1FA01E556FF4F0C94C91FBB
:103CD000803821F0823809F014C108C080911E029A
:103CE00090911F02992389F082600FC08091260273
:103CF0008F70873008F005C18093E9008091EB0058
:103D000085FB882780F91092E9009091E800977F61
:103D10009093E8008093F1001092F100D0C0282F1A
:103D20002D7F09F0EEC0882319F0823061F0E9C0E0
:103D300080912402813009F0E4C0933009F080E0E2
:103D400080931F022EC08091240281112AC080918D
:103D500026028F702FEF280F263008F0D2C08093F4
:103D6000E9002091EB0020FF1CC0933021F48091EA
:103D7000EB00806214C09091EB0090619093EB0097
:103D800021E030E0A90102C0440F551F8A95E2F7F7
:103D90004093EA001092EA008091EB0088608093E3
:103DA000EB001092E9008091E800877F8093E800A3
:103DB0000E945D1CA6C08111A4C0109124021F772F
:103DC0008091E3008078812B8093E3008091E8006C
:103DD000877F8093E8000E945D1C8091E80080FF4F
:103DE000FCCF8091E30080688093E300111102C052
:103DF00082E001C083E08093210283C0805882303A
:103E000008F07FC080912402909125028C3D53E000
:103E1000950779F583E08A838AE289834FB7F8941E
:103E2000DE01139620E03EE051E2E32FF0E05093F4
:103E30005700E49120FF03C0E295EF703F5FEF7001
:103E40008E2F90E0EA3010F0C79601C0C0968D9397
:103E50009D932F5F243149F74FBF8091E800877F02
:103E60008093E8006AE270E0CE0101960E94641B34
:103E700015C06091260270912702AE014F5F5F4F1F
:103E80000E948B1ABC01892BE1F19091E800977F89
:103E90009093E80089819A810E94C71B8091E80075
:103EA0008B778093E8002DC0803859F58091E80029
:103EB000877F8093E80080911D028093F1008091BC
:103EC000E8008E7773CF81111CC09091240292304C
:103ED000C0F48091E800877F8093E80090931D02F2
:103EE0000E945D1C80911D02811106C08091E3003B
:103EF00087FD02C081E001C084E0809321020E941E
:103F00008A198091E80083FF0AC08091E800877FCA
:103F10008093E8008091EB0080628093EB00AA968A
:103F20000FB6F894DEBF0FBECDBFDF91CF911F91CA
:103F300008950895CF93809121028823A1F0C09124
:103F4000E900CF709091EC00892F817090FD80E89E
:103F5000C82B1092E9008091E80083FD0E943F1E6B
:103F6000CF70C093E900CF91089597FB072E16F408
:103F7000009407D077FD09D00E94CF1F07FC05D021
:103F80003EF4909581959F4F0895709561957F4F70
:103F90000895EE0FFF1F0590F491E02D0994AA1BE0
:103FA000BB1B51E107C0AA1FBB1FA617B70710F024
:103FB000A61BB70B881F991F5A95A9F78095909556
:103FC000BC01CD010895F999FECF92BD81BDF89A4B
:103FD000992780B50895A8E1B0E042E050E00C9444
:103FE0000B20262FF999FECF92BD81BDF89A01973B
:103FF00000B4021639F01FBA20BD0FB6F894FA9A31
:10400000F99A0FBE08950196272F0E94F21F0C9473
:10401000F11FDC01CB01FC01F999FECF06C0F2BD16
:10402000E1BDF89A319600B40D9241505040B8F776
:064030000895F894FFCF93
:10403600C4012808140A321E83182119F618C0185C
:10404600861801404D3639C3057605400507059AA1
:0840560004B304CC04E50400EE
:00000001FF
