:100000000C94F6050C943D060C943D060C943D06AC
:100010000C943D060C943D060C943D060C943D0654
:100020000C943D060C943D060C94F5270C94C828BE
:100030000C94601B0C943D060C943D060C943D06FC
:100040000C943D060C943D060C943D060C943D0624
:100050000C943D060C94D41B0C943D060C943D0668
:100060000C943D060C943D060C943D060C943D0604
:100070000C943D060C943D060C943D060C943D06F4
:100080000C943D060C943D060C943D060C943D06E4
:100090000C943D060C943D060C943D060C943D06D4
:1000A0000C943D060C943D060C943D060A00253048
:1000B000313662003A200025303258000A722F6330
:1000C00020303132333435363738394142434445B4
:1000D000460A0014001A000800150017001C00183A
:1000E000000C001200130004001600070009000AAB
:1000F000000B000D000E000F0033001D001B00065A
:10010000001900050011001000360037003800000B
:10011000004B002B00E0002C00E1002800520046BC
:1001200000000000004E00E300E2000251015150C7
:100130000051004F0000002B00010001002D002E97
:100140000030005500570056002F001E001F0020F1
:100150000021002200230024002500260027003A69
:10016000003B003C003D003E003F0040004100429B
:1001700000430000004400450001000100010001AF
:100180000001000100000000000100010001000169
:10019000000100010001000100000035000100F035
:1001A0000001000100F900FB00F600FC002F00290F
:1001B00000F200F100F3000100FA00F400F5000184
:1001C0000034006500AC00AE00AD00AB0001002AB9
:1001D000004C00490031000000A9000100010001AD
:1001E00000010001004B00010000000000AA000116
:1001F000000100010001004A004E004D00000044D3
:10020000454255473A20656E61626C65642E0A006E
:100210000A002530325820006B6579626F61726484
:100220005F7265706F72743A20000A002530325890
:10023000006B6579626F6172645F7365745F6C6592
:10024000643A20004F6E6573686F743A2074696D6C
:10025000656F75740A0064656C5F6B65795F6269D0
:10026000743A2063616E27742064656C3A202530EF
:1002700032580A006164645F6B65795F6269743A41
:100280002063616E2774206164643A2025303258FF
:100290000A00290A002575002F002575005D280039
:1002A000256400200025640020002564002000252E
:1002B00064007C0025303258006D6F7573656B6586
:1002C00079205B62746E7C782079207620685D28C6
:1002D0007265702F61636C293A205B006D6B5F77EC
:1002E0006865656C5F74696D655F746F5F6D61787B
:1002F000203D2025640A006D6B5F776865656C5F43
:100300006D61785F7370656564203D2025640A0027
:100310006D6B5F74696D655F746F5F6D6178203DB3
:100320002025640A006D6B5F6D61785F7370656591
:1003300064203D2025640A006D6B5F696E746572F0
:1003400076616C203D2025640A006D6B5F64656CEE
:100350006179203D2025640A006D6B5F77686565D3
:100360006C5F74696D655F746F5F6D6178203D20AF
:1003700025640A006D6B5F776865656C5F6D6178F9
:100380005F7370656564203D2025640A006D6B5FB6
:1003900074696D655F746F5F6D6178203D202564C1
:1003A0000A006D6B5F6D61785F7370656564203DF9
:1003B0002025640A006D6B5F696E74657276616CEE
:1003C000203D2025640A006D6B5F64656C617920B7
:1003D0003D2025640A000A00257500363A2077681A
:1003E00065656C5F74696D655F746F5F6D61783AA8
:1003F00020000A00257500353A20776865656C5F36
:100400006D61785F73706565643A20000A00257538
:1004100000343A2074696D655F746F5F6D61783A7E
:1004200020000A00257500333A206D61785F7370F3
:100430006565643A20000A00257500323A20696E2D
:1004400074657276616C286D73293A20000A002564
:100450007500313A2064656C6179282A31306D73FA
:10046000293A20000A092D2056616C756573202DEC
:100470000A004D3E004D25643E20003F0073657428
:100480002064656661756C740A00433E20007768DD
:100490006572652064656C74613A20637572736F70
:1004A000723D25642C20776865656C3D25640A5390
:1004B000656520687474703A2F2F656E2E77696BAE
:1004C0006970656469612E6F72672F77696B692F38
:1004D0004D6F7573655F6B6579730A000A092D208E
:1004E0004D6F7573656B6579202D0A4553432F71E8
:1004F0003A09717569740A313A0964656C61792841
:100500002A31306D73290A323A09696E7465727640
:10051000616C286D73290A333A096D61785F7370D5
:100520006565640A343A0974696D655F746F5F6D5F
:1005300061780A353A09776865656C5F6D61785F47
:1005400073706565640A363A09776865656C5F742F
:10055000696D655F746F5F6D61780A0A703A097042
:1005600072696E742076616C7565730A643A0973FA
:1005700065742064656661756C74730A75703A09F8
:100580002B310A646F776E3A092D310A70677570E6
:100590003A092B31300A7067646F776E3A092D3152
:1005A000300A0A7370656564203D2064656C74616F
:1005B000202A206D61785F7370656564202A202889
:1005C000726570656174202F2074696D655F746F4A
:1005D0005F6D6178290A003F004D3E2000433E20B8
:1005E000004C25640A0074696D65725F7265616410
:1005F000333228293A202530346C580A006B65794B
:100600006D61705F636F6E6669672E6E6B726F3AB5
:100610002025580A006B6579626F6172645F6964B6
:100620006C653A2025580A006B6579626F617264C7
:100630005F70726F746F636F6C3A2025580A0068A0
:100640006F73745F6B6579626F6172645F6C656410
:100650007328293A2025580A000A092D205374616D
:10066000747573202D0A004743433A20372E332EEA
:1006700030204156522D4C4942433A20322E302EE2
:1006800030204156525F415243483A2061767235DC
:100690000A004F5054494F4E533A204C5546412082
:1006A0004D4F5553454B45592045585452414B45A4
:1006B0005920434F4E534F4C4520434F4D4D414ED3
:1006C00044204E4B524F20343039360A00425549AF
:1006D0004C443A2022302E362E35342D33342D67BB
:1006E00062653737356522202831363A31363A315E
:1006F00030204175672032312032303138290A00EC
:100700005649443A2030784645454428556E6B6E2C
:100710006F776E29205049443A2030783630363091
:10072000284D69746F73697329205645523A2030F9
:1007300078303030310A00444553433A20712E6DF1
:100740002E6B2E206B6579626F6172642066697210
:100750006D7761726520666F72204D69746F736981
:10076000730A000A092D2056657273696F6E202D79
:100770000A000A092D20436F6E736F6C65202D0AE5
:100780004553432F713A09717569740A6D3A096DC1
:100790006F7573656B65790A000A092D204D6167D5
:1007A0006963202D0A443A094465627567204D65E6
:1007B000737361676520546F67676C650A583A09FF
:1007C0004D6174726978204465627567204D6F646D
:1007D0006520546F67676C65202D2053686F772004
:1007E0006B65797072657373657320696E206D61D6
:1007F0007472697820677269640A4B3A094B6579AB
:10080000626F61726420446562756720546F676728
:100810006C65202D2053686F77206B657970726549
:100820007373207265706F72740A4D3A0944656281
:100830007567204D6F75736520546F67676C650A27
:10084000563A0956657273696F6E0A533A095374C2
:10085000617475730A433A0941637469766174651A
:1008600020436F6E736F6C65204D6F64650A46316F
:100870002D4631303A0953776974636820746F20CC
:100880004C6179657220302D392028463130203D69
:10089000204C30290A302D393A095377697463683E
:1008A00020746F204C6179657220302D390A4553D0
:1008B000433A0953776974636820746F204C6179F7
:1008C000657220302028616C7465726E61746520D9
:1008D0006B65792031290A47524156453A095377C9
:1008E0006974636820746F204C61796572203020D0
:1008F00028616C7465726E617465206B6579203255
:10090000290A50415553453A094A756D7020746F54
:1009100020426F6F746C6F6164657220285265733A
:100920006574290A4E3A094E4B524F20546F67673F
:100930006C650A003F004E4B524F3A206F66660AC4
:10094000004E4B524F3A206F6E0A000A6D6F75735E
:10095000653A206F66660A000A6D6F7573653A2006
:100960006F6E0A000A6B6579626F6172643A206F7C
:1009700066660A000A6B6579626F6172643A206F7D
:100980006E0A000A6D61747269783A206F66660AB1
:10099000000A6D61747269783A206F6E0A000A6409
:1009A000656275673A206F66660A000A646562755B
:1009B000673A206F6E0A000A0A4A756D70696E67A1
:1009C00020746F20626F6F746C6F616465722E2E7D
:1009D0002E2000433E20005B735D004B6579626F03
:1009E0006172642073746172742E0A005B575D003B
:1009F0005B535D005B525D005B445D005B435D00EB
:100A000004033000000010034D00690074006F0003
:100A10007300690073000000100355006E006B0046
:100A20006E006F0077006E000000040309040902E5
:100A30008D00050100A0FA09040000010301010076
:100A40000921110100012240000705810308000A65
:100A50000904010001030102000921110100012222
:100A60004D000705820308000A0904020001030083
:100A70000000092111010001223600070583030847
:100A8000000A09040300020300000009211101000B
:100A9000012222000705840320000107050403202A
:100AA00000010904040001030000000921110100F4
:100AB0000122390007058503200001120110010001
:100AC000000008EDFE60600100010203010501095C
:100AD00006A101050719E029E7150025019508750C
:100AE00001810205081901290595057501910295F5
:100AF00001750391010507190029F71500250195D6
:100B0000F875018102C00631FF0974A1010975154C
:100B10000026FF009520750881020976150026FF42
:100B200000952075089102C005010980A101850288
:100B30001601002603001A81002A83007510950112
:100B40008100C0050C0901A1018503160100269C46
:100B5000021A01002A9C02751095018100C005014E
:100B60000902A1010901A1000509190129051500C2
:100B70002501950575018102950175038101050126
:100B8000093009311581257F9502750881060938DC
:100B90001581257F950175088106050C0A38021517
:100BA00081257F950175088106C0C005010906A150
:100BB00001050719E029E715002501950875018150
:100BC000029501750881010508190129059505752A
:100BD0000191029501750391010507190029FF157F
:100BE0000026FF00950675088100C00011241FBE75
:100BF000CFEFDAE0DEBFCDBF04B603FE27C08091A1
:100C0000400290914102A0914202B091430287308C
:100C1000904BA740B04BD1F4109240021092410289
:100C2000109242021092430214BE84B7877F84BFA1
:100C30000FB6F894A8958091600088618093600059
:100C4000109260000FBEE0E0F8E3099511E0A0E02B
:100C5000B1E0EAEDF5E502C005900D92A633B107CB
:100C6000D9F722E0A6E3B1E001C01D92A034B2079B
:100C7000E1F70E9418250C94EB2A0C940000FF93D6
:100C8000EF93E0913601F0913701309709F0099523
:100C9000EF91FF910895FC018591803011F0EFDF15
:100CA000FBCF0895FF27E0E230E247FF0CC04195FB
:100CB00097FF09C0EDE26095709580959095611D54
:100CC000711D811D911D27FF02C0219530E350E267
:100CD000AA27660F771F881F991FAA1FA41710F055
:100CE000A41B63955A95A9F7AA3008F0A95FA05DE7
:100CF000AF93F395611571058105910541F7ED32CB
:100D000011F4EF93F395F21718F43F93F395FBCF9B
:100D10008F91B5DFFA95E1F70895E991F991859101
:100D2000803021F0853219F0AADFF9CF089520E054
:100D3000E89455915532C1F3503311F468945591AC
:100D40005A3348F4505390F3220F022E220F220FF1
:100D5000200D250FF4CF0EF42195899199915336EA
:100D600019F3533729F1533559F1BC0188279927D5
:100D7000E8945C3621F489919991689455915436A0
:100D800039F446EF7EF077FF0DC08FEF9FEF0AC07A
:100D900055374AE039F0583540E121F0523642E00B
:100DA00009F00895FF93EF937DDFEF91FF91B7CFA7
:100DB000FF93EF93FC0181918030B9F360DFFBCFAB
:100DC000FF93EF9368DFF1CFDF93CF93CDB7DEB71B
:100DD0002596A3DFCF91DF91089508950C9499098A
:100DE000EF92FF921F93CF93DF93CDB7DEB72B9790
:100DF0000FB6F894DEBF0FBECDBF1092CC0010929C
:100E0000CD0088E18093C90086E08093CA0083E723
:100E10008093CE00CE0101967C018BE0D7011D921C
:100E20008A95E9F7D7019E01245F3F4FC70140E053
:100E300050E0BA011091C80017FD0AC04F5F5F4F24
:100E40006F4F7F4F4131E7E25E076105710590F317
:100E50001091CE00FC011193CF01E217F30751F777
:100E60008B85803EB1F428E331E0B701665F7F4FA8
:100E700011968C911197F0E28F9FC00111244C9133
:100E8000842BF901819391939F0112966A177B0736
:100E900079F70E949B0981E02B960FB6F894DEBF8C
:100EA0000FBECDBFDF91CF911F91FF90EF900895BE
:100EB000E82FF0E0EE0FFF1FE85CFE4F808191818C
:100EC0000895CF92DF92EF92FF920F931F93CF93EB
:100ED000DF938CEB90E00E944B0688E3E82E81E0E4
:100EE000F82ED0E0C0E097EBC92E90E0D92E0EEAA4
:100EF00010E0DF93CF93DF92CF920E94E40684EB61
:100F000090E00E944B06F701819191917F010E9430
:100F10002D1A9F938F931F930F930E94E4068CEAE0
:100F200090E00E944B0621968DB79EB708960FB6AB
:100F3000F8949EBF0FBE8DBFC530D105D1F6DF91AD
:100F4000CF911F910F91FF90EF90DF90CF90089578
:100F50001092CC001092CD0088E18093C90086E009
:100F60008093CA000895519A599A80B3806380BBD8
:100F700081B3806381BB08950E94ED060E94A8079B
:100F80000C94B3070C94C50708956091C601709145
:100F9000C7018091C8019091C9010E94C819813090
:100FA00061F018F0823029F008958D9A599A8C9A40
:100FB00008958D9A599A8C9808958D98F7CF81E06D
:100FC000089581E008950C94E1070E94E0122FEF4C
:100FD00084E39CE0215080409040E1F700C0000095
:100FE00087E797E790930108809300080C94FA1B19
:100FF000FF920F931F93CF93DF938C01FC01C0816D
:10100000D18180916A01811148C08281882309F4CD
:101010003FC0CE010E942718F82E682FCE010E94F3
:10102000CD17BE018F2D0E94B109EC01B8010E94BD
:10103000E307882309F465C0B801CE010E94150CAE
:10104000882309F45EC0B801CE010E94640C882395
:1010500009F457C0C531FCE5DF0709F44AC110F5B2
:10106000C130ECE5DE0709F453C008F067C0C115D4
:10107000DC4509F441C081E0809347018093480139
:10108000C801DF91CF911F910F91FF900C94DF0762
:10109000CE010E94FC17F82EC4CFCE010E94271863
:1010A000BE01C1CFC63DECE5DE0709F407C1B8F4C7
:1010B000C43D8CE5D80709F4C5C0C53DDC45D9F66B
:1010C000F8018281882309F4E4C0109248010E944B
:1010D000921B909346018093450180E2C0C0C93DB8
:1010E000FCE5DF0719F1CA3DDC4529F6F8018281EC
:1010F000882339F082E01FC0F801828181110E94AB
:10110000E50780E0DF91CF911F910F91FF90089547
:10111000F80182818823A9F38091F701816080938F
:10112000F7018FEF91E00E944B06EBCFF80182812F
:10113000882339F380E00E94BD25E3CFF801828146
:10114000882309F49DCF0E94541A811102C00E9485
:101150003A1A0E94671A90E090933202809331020B
:10116000FE01E350FC45809131028160E231F105DE
:10117000C8F4E354F74F0C949B2ACF08DB08DF0830
:10118000E308E708EB08EF08F308F708FB08FF0897
:10119000030907090B090F09130917091B09809196
:1011A0003102826080933102809131020E946B1A79
:1011B0000E94E012A6CF809131028460F3CF80912B
:1011C00031028860EFCF809131028061EBCF809156
:1011D00031028062E7CF809131028064E3CF809159
:1011E00031028068DFCF809131028460EACF809144
:1011F00031028E7FD7CF809131028D7FD3CF809106
:1012000031028B7FCFCF80913102877FCBCF80910E
:1012100031028F7EC7CF809131028F7DC3CF809105
:1012200031028F7BBFCF809131028F77BBCF80910E
:1012300031028B7FEACF90913102892F97FB87F99A
:101240008058B0CFF8018281882361F01092470165
:101250000E94921B909344018093430182E00E947C
:1012600006104FCF8091470181110FC0809143013B
:10127000909144010E94AA1B883C910530F486E2BB
:101280000E94470F86E20E94DE0F82E00E940D104E
:1012900038CF8091480181110FC080914501909114
:1012A00046010E94AA1B883C910530F487E20E9407
:1012B000470F87E20E94DE0F80E2E8CFF8018281CB
:1012C000811103CF809148018111F6CF80914501B2
:1012D000909146010E94AA1B883C910568F780E224
:1012E0000E940D1088E20E94470F88E20E94DE0FE4
:1012F00008CF0E943319F8019281992381F08A7AEC
:1013000091E009F490E090934201811106C089E2D6
:101310000E9497180E947919F4CE85E3F9CF809145
:101320004201811104C089E20E949E18F3CF85E337
:10133000FBCF0C94BC070C94C207282F2F7041F0F0
:10134000822F90E02A3010F44D9608950697089564
:1013500087E290E008950C94C40790E080E008953F
:101360000895972F70E02AE0929F600D711D11245F
:10137000FB0192E3899FE00DF11D1124EE0FFF1F89
:10138000ED52FF4F859194910895FC01EE0FFF1FE0
:10139000E05FFD4F859194910895CF93DF930E9474
:1013A000B1090E94710BEC018115904508F043C012
:1013B000C11580E4D80708F00AC1C83ED10528F558
:1013C000C03ED10508F09EC0C83AD10580F4C53AA8
:1013D000D10508F08DC0C130D10509F493C020F0CB
:1013E000C430D10508F08EC0D0E0C0E08BC0CD3B4A
:1013F000D10508F48BC0CE01805C9109C03CD105B9
:1014000098F30E94C509EC017DC0C11520E2D20706
:1014100050F4C11581E0D80708F074C0C03FD10571
:1014200018F3D0656FC0C11520E3D20708F0C5C01E
:10143000CE019F70E6CFC11585E5D80760F5C115CF
:1014400024E5D20708F0F1C0C11582E5D80750F4B1
:10145000C11521E5D20708F4BDC0DC2FCC27C16F30
:10146000D06A50C09C2F969596959E012370332785
:10147000C115D34508F0CAC0C1E0D0E002C0CC0F0E
:10148000DD1F2A95E2F720E2929FC0011124C82BAC
:10149000D92BDC6837C0C11529E5D20780F4C11506
:1014A00088E5D80708F0C6C0C11526E5D20708F0C0
:1014B0009BCFDC2FCC27CC27DF71D06223C0C11596
:1014C0008AE5D80708F4BBC0CE019056811590423A
:1014D00008F08ACF8D2F8F710E94F10BDD27D0622B
:1014E00090E0982F882788279F71C82BD92B0AC096
:1014F000C53AD10509F4B0C0C63AD10509F4AFC068
:10150000C3E8D0E4CE01DF91CF910895C83AD10568
:1015100009F4A8C0C93AD10509F4A7C0CA3AD1054F
:1015200009F4A6C0CB3AD10509F4A5C0CC3AD1053F
:1015300009F4A4C0CB3BD10509F4A3C0CC3BD10531
:1015400009F4A2C0CD3AD10509F4A1C0C03BD10530
:1015500009F4A0C0CE3AD10509F49FC0CF3AD10515
:1015600009F49EC0C13BD10509F49DC0C23BD10521
:1015700009F49CC0C33BD10509F49BC0C43BD10511
:1015800009F49AC0C53BD10509F499C0C63BD10501
:1015900009F498C0C73BD10509F497C0C83BD105F1
:1015A00009F496C0C93BD10509F495C0CA3BD105E1
:1015B00009F094C0CAE2D6E4A5CFCE019927D3FFA3
:1015C00003C0EC01D86C9ECFEC01D06C9BCFDF70D8
:1015D000D06A98CFCE01E4E096958795EA95E1F739
:1015E00083709C2F937021E030E002C0220F331FE4
:1015F0009A95E2F73C68382BC695C695C37080E291
:10160000C89FE0011124C22BD32B7CCFC1E0D0E0D6
:1016100002C0CC0FDD1F2A95E2F720E2929FC001A5
:101620001124C82BD92BDA686DCFDC2FCC27C46FDF
:10163000D06A68CFDC2FCC27C06FD06A63CFCE01D1
:1016400034E0969587953A95E1F78F70CF70C06E2C
:10165000D0E0D06AD82B56CFC1E8D0E453CFC2E84F
:10166000D0E450CFC2EED4E44DCFC9EED4E44ACF9B
:10167000CAEED4E447CFC5EBD4E444CFC6EBD4E400
:1016800041CFC3EBD4E43ECFC4EBD4E43BCFC7EBB4
:10169000D4E438CFCCECD4E435CFCDECD4E432CFA5
:1016A000C3E8D5E42FCFCAE8D5E42CCFC2E9D5E40E
:1016B00029CFC4E9D5E426CFC1E2D6E423CFC3E2E3
:1016C000D6E420CFC4E2D6E41DCFC5E2D6E41ACFDB
:1016D000C6E2D6E417CFC7E2D6E414CFC0E0D4E424
:1016E00011CF8238910549F1B0F48133910509F4A5
:1016F0005CC048F48932910509F452C08A329105E0
:1017000009F458C008958533910509F444C089331C
:10171000910599F00895833E910531F138F4803EAA
:10172000910591F0823E9105B1F00895863E9105B4
:1017300011F1873E910541F1089520913102237006
:10174000C9F080EE90E008952091310220FF12C090
:1017500089E390E008952091310222FF0BC024FF1D
:101760002EC090E080E008952091310222FD2AC031
:1017700024FDF7CF08952091310223FFFBCF24FDF4
:10178000F0CF87EE90E008952091310223FFF0CF53
:1017900086EE90E008952091310225FD16C008954F
:1017A0002091310225FD14C008952091310226FDBB
:1017B00012C008952091310226FD10C0089583EED5
:1017C00090E0089582EE90E0089589E290E0089517
:1017D00085E390E008958AE290E0089581E390E047
:1017E000C9CF9091310292FF06C0282F287128306E
:1017F00069F4877F846093FF06C0282F2871283101
:1018000061F4877E846194FD877E0895282F24717A
:10181000243089F78B7F8860EECF282F2471243104
:1018200091F78B7E8861EFCF08950F931F93CF932D
:101830008C01FB018281811106C0C1E08C2FCF9108
:101840001F910F910895C0915601C11125C0063115
:101850001C4599F70E94140C81E0809356010E9468
:10186000921B90935501809354011092490110925C
:101870004B0110924A0110924D0110924C011092AE
:101880004F0110924E01109251011092500110928E
:10189000530110925201D2CF809154019091550181
:1018A0000E94AA1B8C32914040F680914901E82F9A
:1018B000F0E0EE0FFF1FE65BFE4F118300838F5FAA
:1018C00080934901C0E0BACFCF93DF93EC01C130E0
:1018D00080E8D807C8F0FB0182818823A9F08091B5
:1018E0005701811109C08CE090E00E94B52A0E9446
:1018F000880C81E0809357010E948F0CCE019F7766
:101900000E945A0D0E940C0D81E0DF91CF91089545
:1019100080935801682F8CE090E00C94C32AE091EA
:101920000001F0910101808180932A0281FF03C0B0
:1019300081EE0E94DE0F80912A0285FF03C085EEB2
:101940000E94DE0F80912A0280FF03C080EE0E9479
:10195000DE0F80912A0284FF03C084EE0E94DE0F16
:1019600080912A0282FF03C082EE0E94DE0F8091E6
:101970002A0286FF03C086EE0E94DE0F80912A02B3
:1019800083FF03C083EE0E94DE0F80912A0287FF4F
:1019900003C087EE0E94DE0F80915801823049F12A
:1019A00058F4882379F0813089F08FE39CE901971E
:1019B000F1F700C000000895843019F18530A9F7CF
:1019C00086EE01C082EE0E94470FEFCF80EE0E94AC
:1019D000470F81EE0E94470F88E10E94470F88E180
:1019E0000E94DE0F81EE0E94DE0F80EE0E94DE0F6D
:1019F000DCCF82EE0E94470F87E50E94470F87E504
:101A0000F5CF86EE0E94470F86EE0E94DE0F88E13A
:101A10000E94470F88E1EACF80915801813009F494
:101A200043C0E0F18230D1F18530E1F180912A02AA
:101A300081FF03C081EE0E94470F80912A0285FF3B
:101A400003C085EE0E94470F80912A0280FF03C0E9
:101A500080EE0E94470F80912A0284FF03C084EE2B
:101A60000E94470F80912A0282FF03C082EE0E94EB
:101A7000470F80912A0286FF03C086EE0E94470F1F
:101A800080912A0283FF03C083EE0E94470F80915A
:101A90002A0287FF0EC087EE0C94470F82EE0E9449
:101AA000DE0FC4CF86EEFBCF8CE20E94470F8CE2A4
:101AB000F6CF0895EF92FF921F93CF93DF937C01AF
:101AC000CCE0D0E0C7010C2E02C0969587950A9411
:101AD000E2F7182F1F70812F0E949D090E94470F67
:101AE000812F0E949D090E94DE0F2497CC3F8FEF2B
:101AF000D80741F7DF91CF911F91FF90EF900895A4
:101B000090935E0180935D010895E0915D01F091F5
:101B10005E01309721F00190F081E02D099480E082
:101B20000895EF92FF920F931F93CF93DF938C0151
:101B3000E0915D01F0915E013097C1F10280F38187
:101B4000E02D09958091F70182FF30C080FF04C02D
:101B500088E192E00E944B06D0E0C0E082E1E82EEE
:101B600082E0F82E8091F70180FF0EC0F801EC0FA3
:101B7000FD1F80811F928F93FF92EF920E94E406D7
:101B80000F900F900F900F902196C032D10551F712
:101B90008091F70180FF0AC080E192E0DF91CF9150
:101BA0001F910F91FF90EF900C944B06DF91CF9116
:101BB0001F910F91FF90EF900895E0915D01F091DA
:101BC0005E01309721F00480F581E02D099408959D
:101BD00020915B0130915C012817390771F09093D7
:101BE0005C0180935B01E0915D01F0915E013097B3
:101BF00021F00680F781E02D099408952091590184
:101C000030915A012817390771F090935A01809347
:101C10005901E0915D01F0915E01309721F000845F
:101C2000F185E02D0994089508950C94140E81E037
:101C300008950E94891B85B7806885BF85B7806835
:101C400085BF0E94EE060C940B1CCF93C82F809189
:101C5000F70182FF1EC080FF04C081E392E00E9472
:101C60004B068091F70180FF0CC01F92CF938CE24E
:101C700092E09F938F930E94E4060F900F900F9035
:101C80000F908091F70180FF04C08AE292E00E94E9
:101C90004B068C2FCF910C94AB095F926F927F9281
:101CA0008F929F92AF92BF92CF92DF92EF92FF926C
:101CB0000F931F93CF93DF93CDB7DEB72A970FB65D
:101CC000F894DEBF0FBECDBF0E94F0060E94170E33
:101CD000882309F47AC090E6A92E91E0B92E10E08D
:101CE00000E088248394912C502E802F0E94580766
:101CF0007C01F501C190D1905F01C816D90609F4A5
:101D00005EC08091F70181FD0E94610790E080E054
:101D1000CE24DF243401082E02C0660C771C0A94FE
:101D2000E2F7960126213721232B09F443C08E8345
:101D30005F82E620F72081E0EF2809F480E08887C1
:101D40000E94921B8160782F9A8789874E815F81DC
:101D500068858A850E940C0F000F111FF801E05A58
:101D6000FE4F8081918168267926718260820E946F
:101D7000201E0E94850D90915F018917B9F10E9484
:101D8000850D80935F012A960FB6F894DEBF0FBED3
:101D9000CDBFDF91CF911F910F91FF90EF90DF901A
:101DA000CF90BF90AF909F908F907F906F905F90FB
:101DB0000C94250E01968A30910509F0ABCF0F5F88
:101DC0001F4F0530110509F08FCF8FEF89838A836C
:101DD0001B820E94921B8160782F9D838C83498196
:101DE0005A816B818D810E940C0FC1CF2A960FB64C
:101DF000F894DEBF0FBECDBFDF91CF911F910F9141
:101E0000FF90EF90DF90CF90BF90AF909F908F901A
:101E10007F906F905F900895CF93DF93CDB7DEB73B
:101E20002B970FB6F894DEBF0FBECDBF4F835887F8
:101E300069877A878B871E821D8285E0FE0137962F
:101E4000DE01119601900D928A95E1F70E94D81853
:101E5000882319F082E00E9412190E94AB188111A8
:101E60000E94721949815A816B817C818D819E818A
:101E70002B960FB6F894DEBF0FBECDBFDF91CF918A
:101E80000C94A015FC01808191810C946918CF936A
:101E9000C82F882309F490C08CEF8C0F813A58F436
:101EA0008C2F0E944D21811187C08C2F0E94971882
:101EB000CF910C94791980E28C0F883048F4C77068
:101EC00081E001C0880FCA95EAF70E943619F0CF69
:101ED0008BE58C0F833068F481E890E0C53A31F0EF
:101EE00083E890E0C63A11F482E890E0CF910C9438
:101EF000E80D88E58C0F853108F05EC082EE90E039
:101F0000C83A09F456C089EE90E0C93A09F451C0C4
:101F10008AEE90E0CA3A09F44CC085EB90E0CB3AE7
:101F200009F447C086EB90E0CC3A09F442C083EB59
:101F300090E0CB3BF1F184EB90E0CC3BD1F187EB2F
:101F400090E0CD3AB1F18CEC90E0C03B91F18DEC9A
:101F500090E0CE3A71F183E891E0CF3A51F18AE80E
:101F600091E0C13B31F182E991E0C23B11F184E99A
:101F700091E0C33BF1F081E292E0C43BD1F083E217
:101F800092E0C53BB1F084E292E0C63B91F085E27D
:101F900092E0C73B71F086E292E0C83B51F087E2E5
:101FA00092E0C93B31F090E080E0CA3B11F48AE254
:101FB00092E0CF910C94FE0DCF910895882329F1E2
:101FC0009CEF980F913A20F40E949E180C94791976
:101FD00090E2980F983050F4877091E001C0990F0B
:101FE0008A95EAF7892F0E943C19F0CF9BE5980F5C
:101FF000933020F490E080E00C94E80D885A85310D
:1020000020F490E080E00C94FE0D0895882321F0E8
:102010000E9436190C9479190895882321F00E94A2
:102020003C190C94791908958F929F92AF92BF92A8
:10203000DF92EF92FF920F931F93CF93DF937C0178
:10204000D62FC72FFC01058102950F701281111147
:102050000E9455190E942C19D82E882371F0112343
:1020600031F180E28D0F883010F182E00E94121968
:102070000E942C1991E0D82ED926BC2EB2949FE054
:10208000B922EB2DF0E0E95BFF4E0C949B2A59102E
:102090005910A910A910F0101811F710F7105A11C3
:1020A000F710F511F5117F12F710F7108812D12CE7
:1020B000E4CF0C2F0F70C07F11F00295007F112329
:1020C000A9F0002359F080E28D0F883010F0D11173
:1020D00009C0802F0E9436190E9479198D2F0E9405
:1020E000470F14C0802F0E944719F6CF8D2F0E94F2
:1020F000DE0F002359F080E28D0F883010F0D111EF
:1021000024C0802F0E943C190E947919DD2009F417
:1021100006C20E94D41880FD02C2F70112820E94FA
:10212000CE180E943117C7010E949B120E94CE1840
:10213000DF91CF911F910F91FF90EF90DF90BF90B3
:10214000AF909F908F900C945217802F0E944D1942
:10215000DBCFFC2FFF70BF2EC07FC03219F0B294CE
:1021600080EFB822DD2369F0D13049F1112391F1DC
:10217000002351F1F701858180FFB0CF8F708583F7
:1021800023C0112381F0011106C00E94C0198B29C0
:102190000E940610BBCF0130C1F70E94C0198B29E5
:1021A0000E946919B3CF011106C00E9472198B2DCC
:1021B0000E940D10ABCF013009F4A8CFF6CF112348
:1021C00029F0063008F0A2CF8B2DE2CF053008F0C1
:1021D0009DCFEDCF002359F38D2F0E94DE0F96CFB8
:1021E0008C2F86958695837079F08130B9F098E0D0
:1021F000B91609F49BC0B91608F488CF86EF8B0D89
:10220000823008F493C082CF8D2F9C2F93701111D0
:1022100002C090E080E00E94E80D78CF8D2F9C2FC7
:102220009370111102C090E080E00E94FE0D6ECF0D
:10223000112309F1D53F99F0D63FB9F0D43F49F4C5
:1022400080912B0290912C02816090932C028093BC
:102250002B028D2F0E94A71C0E94931D57CF8091A7
:102260002B0290912C028260F0CF80912B029091F2
:102270002C028460EACFD53F89F0D63FA9F0D43F45
:1022800049F480912B0290912C028E7F90932C0226
:1022900080932B028D2F0E940F1DDECF80912B0289
:1022A00090912C028D7FF2CF80912B0290912C0285
:1022B0008B7FECCF8C2F837009F04BC0111136C08F
:1022C0002D2F229526952770220F220F6D2F6F70CC
:1022D000862E912CB12CA12C022E04C0880C991CA6
:1022E000AA1CBB1C0A94D2F760E070E0CB01D4FFBB
:1022F0000FC06FE070E080E090E004C0660F771FD1
:10230000881F991F2A95D2F76095709580959095B2
:10231000C695C695C370C23071F0A0F468297929BA
:102320008A299B29C13091F00E94E3160E94850DF5
:102330000E94AB09EBCE682979298A299B290E9442
:10234000F516F4CF0E94E316C501B4010E94D11620
:10235000EDCF8695112311F08C2F8170882331F3F6
:102360002D2F229526952770220F220F6D2F6F702B
:10237000862E912CB12CA12C022E04C0880C991C05
:10238000AA1CBB1C0A94D2F760E070E0CB01D4FF1A
:102390000FC06FE070E080E090E004C0660F771F30
:1023A000881F991F2A95D2F7609570958095909512
:1023B000C695C695C370C23051F080F4682979295A
:1023C0008A299B29C13071F00E94A817AFCF6829D4
:1023D00079298A299B290E94BA17A8CF0E94A81799
:1023E000C501B4010E949617A1CFE0E2ED0FE531DF
:1023F00008F066C0F0E0E150FE4E0C949B2A1412E7
:10240000141214121412141214121412141214129C
:10241000141214121412141214121412141225127B
:1024200033123A1241124B12DF708C2F8F7111232D
:1024300031F00E9431178D2F0E940610D8CE0E94D5
:1024400052178D2F0E940D10D2CE112341F005306E
:1024500008F0CDCE8C2F8F710E947517C8CE063034
:1024600008F0C5CEF7CF8C2F8F71112339F00E9461
:102470003117BDCE8C2F8F711123C9F30E945217D3
:10248000B6CE112329F08C2F8F710E941C17AFCE6E
:102490000E941717ACCE112349F0CF718C2F0E94E8
:1024A000311763E08C2F0E940219A1CE81E00E94B7
:1024B0001219023008F49BCE82E00E94121997CEC6
:1024C000112349F0002321F08D2F0E94470F8FCE5A
:1024D0008C2F8F71CCCF002379F0D93349F4FFEFE3
:1024E00027EE83E0F15020408040E1F700C000007B
:1024F0008D2F0E94DE0F7BCE8C2F8F71BFCF4C2F84
:102500004F706D2FC7010E94AD090E944916FECD84
:102510004C2F4F706D2FC7010E94B009F7CDDF918E
:10252000CF911F910F91FF90EF90DF90BF90AF90F0
:102530009F908F9008950F931F93CF93DF93EC019B
:10254000988189812B813C81232B39F08F3F19F4AD
:1025500081E09F3F19F080E001C081E080FD17C05D
:10256000CE010E94F807882391F0688179818A81E1
:102570000E9473188C010E94CC170E94CE16B801DD
:10258000CE01DF91CF911F910F910C941410DF9128
:10259000CF911F910F9108950E9455190E946619BD
:1025A0000E94A5180E9479190E94B41E0E94931DD2
:1025B00090E080E00E94E80D90E080E00C94FE0D39
:1025C0000E9444190C94CC120E946918E92FE295DC
:1025D000EF70E250EE30E0F4F0E0EF50FD4E0C947E
:1025E0009B2AFF12FF12081308130A13081308137B
:1025F0000813FF12FF120F13081308130F13803F65
:1026000019F020F4803E20F481E00895843FE1F346
:1026100080E00895803EC0F3813FD1F7F5CF93FB72
:10262000882780F90895CF93DF9300D000D01F92C0
:10263000CDB7DEB70F900F900F900F900F90DF91F6
:10264000CF910895CF93DF9300D000D000D0CDB7C5
:10265000DEB726960FB6F894DEBF0FBECDBFDF9172
:10266000CF9108951F93CF93DF93C0916B0116E034
:1026700080916C018C1304C0DF91CF911F9108955C
:10268000D0E01C9FF0011D9FF00D1124E359FE4F77
:102690004081518162817381848195810E942213DE
:1026A0002196C770E5CF40919D0150919E016091A8
:1026B0009F017091A0018091A1019091A2010C94C1
:1026C00022131F93CF93DF938091A201807FD1F4D7
:1026D00080919F018823B1F080916B01D0916C01B2
:1026E000B0919D01C0919E014091A0015091A10126
:1026F000A1E0BF3F09F0A0E0BA016095709516E037
:10270000D81304C0DF91CF911F91089521E04115A6
:10271000510521F02A2FCF3F09F020E090E020FD65
:1027200038C0189FF001199FF00D1124E359FE4F96
:1027300021812C132EC020812B132BC0228121112B
:1027400028C0238134812417350700F1241B350B61
:10275000283C3105F0F42091A2012F7020612093D4
:10276000A20126E0289FF001299FF00D1124EE58C8
:10277000FE4F80818F70806180838DE991E00E949F
:102780009B12DF91CF911F910C943213260F371FAC
:10279000DFCF01968770B4CFAF92BF92CF92DF9216
:1027A000EF92FF920F931F93CF93DF93CDB7DEB7D6
:1027B00061970FB6F894DEBF0FBECDBF8C0185E0E8
:1027C000F801DE011D9601900D928A95E1F7D8017E
:1027D0004C9111965C9111971296EC9030919D015D
:1027E00060919E018091A0019091A10121E000974C
:1027F00031F06F3F19F421E03F3F09F020E0B22FA4
:10280000B170BB2E20FD80C1F801C380D480A090A0
:102810009F01AA2009F427C1C816D906D0F1D60114
:10282000A81BB90BCD01FF24F394883C910508F057
:10283000F12C8091A201982F907FFF2009F4CEC047
:10284000911187C0FE2C651329C0341327C0E110F5
:1028500025C08F7080618093A2010E9453138DE97F
:1028600091E00E949B128091A201F80185838F2D37
:1028700061960FB6F894DEBF0FBECDBFDF91CF914A
:102880001F910F91FF90EF90DF90CF90BF90AF908E
:102890000895809590958C0D9D1DC5CF81E0CD2824
:1028A00031F05F3F19F481E04F3F09F080E080FD97
:1028B00024C081E08E25F82FF170DF2E80FF3FC00D
:1028C00080916B0120916C0136E0821318C04D8716
:1028D0005E878D859E850E946918292F22952F700D
:1028E000223008F1243030F59F7009F1D801159697
:1028F0009C91907FE1F4FB2CBACF80E0DCCF90E09C
:10290000389FF001399FF00D1124E359FE4F61818A
:10291000561306C06081461303C062816E110FC05A
:1029200001968770D2CF9F7011F0882321F3805ECB
:10293000883008F3C8010E949B12BD2CDCCFEE202A
:1029400009F495CF8091A20181608093A201F12CBE
:102950008ECF651314C0341312C0E11010C0F801FB
:102960008583C8010E949B1286E0F801ADE9B1E0C1
:1029700001900D928A95E1F70E94531378CF4D870D
:102980005E878D859E850E94E412882319F1EE20D2
:1029900009F18091A201803270F020919D01309167
:1029A0009E0138872F831986DB86CA868C87CE01E5
:1029B00007960E949B1286E0F801ADE9B1E0019014
:1029C0000D928A95E1F70E9461130E945313FF2430
:1029D000F3944DCFC8010E949B12F9CF911113C0FF
:1029E0007C2DD98AC88A6E2D89890E9413138DE99E
:1029F00091E00E949B1286E0EDE9F1E0DF011D927B
:102A00008A95E9F7B9CF651312C0341310C0E110ED
:102A10000EC0F8018583C8010E949B12EDE9F1E028
:102A200086E0DF011D928A95E9F7FA2C20CF4D87C9
:102A30005E878D859E850E94E412882359F2EE20E0
:102A400049F28091A201803208F4B5CF20919D0116
:102A500030919E013A8329831B82DD82CC828E8352
:102A6000CE010196A6CFC816D90638F1F601E81BAB
:102A7000F90BCF01F12C883C910508F03DC0FE2CEC
:102A8000EE2009F4A7CF651326C0341324C080912B
:102A9000A20180FD17C0982F907FA1F0D801159654
:102AA0008C931597903F09F45CCF982F907F905F9F
:102AB0008F70892B15968C9354CF809590958C0DA3
:102AC0009D1DD8CF86E0F801ADE9B1E001900D92EF
:102AD0008A95E1F7CCCE4D875E878D859E850E94D5
:102AE000E412811168CF8091A20181608093A201DC
:102AF000C8010E949B12BBCE7C2DD98AC88A6E2D3C
:102B000089890E94131377CFEE2009F463CF4D8794
:102B10005E878D859E850E94E412F82E882309F435
:102B200059CF86E0F801ADE9B1E001900D928A95A8
:102B3000E1F78DE991E00E94420F0E9461131CCFE2
:102B40001F93CF93DF93CDB7DEB72C970FB6F894D2
:102B5000DEBF0FBECDBF4F83588769877A878B87CB
:102B60009C87CE0107960E94CC13882309F442C0AB
:102B70009F8188852A853B85232B39F08F3F19F467
:102B800081E09F3F19F080E001C081E080FD08C036
:102B90004F81588569857A858B859C850E94221393
:102BA00016E080916B0190916C01891709F467C060
:102BB000819FC001112483599E4F0E94CC1388230A
:102BC00009F45DC0E0916B011E9FF0011124E359EF
:102BD000FE4F4081518162817381848195810E9481
:102BE000221380916B0190E0019687709927809362
:102BF0006B01D7CF86E0FE013796DE01119601907A
:102C00000D928A95E1F79F8188852A853B85232B44
:102C100039F08F3F19F481E09F3F19F080E001C047
:102C200081E080FDBDCF20916C0130E0C9010196AB
:102C30008770992740916B014817190699F096E023
:102C4000929FD001939FB00D1124A359BE4FFE0156
:102C5000319601900D929A95E1F780936C010E9454
:102C600032139ECF0E94E01210926C0110926B0101
:102C700086E0EDE9F1E0DF011D928A95E9F72C96F7
:102C80000FB6F894DEBF0FBECDBFDF91CF911F917D
:102C90000895EF92FF920F931F93CF93DF938C01D0
:102CA000892B81F0F12CEE24E394E8012196F801C0
:102CB0008491843770F4843008F05FC08130B1F0C3
:102CC0008230A1F1DF91CF911F910F91FF90EF9092
:102CD0000895853709F44CC008F43DC09CE7980F6F
:102CE000903780F78F770E94DE0F49C00E5F1F4F2D
:102CF000FE01849190E2980F983060F48770FE2D69
:102D000001C0FF0F8A95EAF78F2F0E9458190E9481
:102D1000791902C00E94470F8F2D815030F2EFE9E0
:102D2000FFE03197F1F700C00000F7CF0E5F1F4FB3
:102D3000FE01849190E2980F983050F48770FE2D38
:102D400001C0FF0F8A95EAF78F2F0E945E19DFCF2F
:102D50000E94DE0FE1CF0E5F1F4FFE01C491C150F4
:102D6000D8F28FE99FE00197F1F700C00000F7CF9C
:102D70000E5F1F4FFE01F490CFCF0E94470F8E01D0
:102D8000CBCF08950E94C1166093CA017093CB0106
:102D90008093CC019093CD010C94CC1208950C94A7
:102DA000C2160F931F930091CA011091CB0120917D
:102DB000CC013091CD01602B712B822B932B1F9175
:102DC0000F910C94C2160F931F930091CA0110919A
:102DD000CB012091CC013091CD016023712382235E
:102DE00093231F910F910C94C2160F931F93009180
:102DF000CA011091CB012091CC013091CD01602707
:102E00007127822793271F910F910C94C2160C945F
:102E1000C1160C9407170E9409176093C60170939E
:102E2000C7018093C8019093C9010C94CC1260E053
:102E300070E0CB010C940B170F931F9341E050E00F
:102E400060E070E08A019B0104C0000F111F221F87
:102E5000331F8A95D2F7C901B8011F910F910C94C5
:102E60000B170F931F9341E050E060E070E004C047
:102E7000440F551F661F771F8A95D2F78091C601B0
:102E80009091C701A091C801B091C9018A019B012D
:102E9000082B192B2A2B3B2BC901B8011F910F912D
:102EA0000C940B170F931F9341E050E060E070E02B
:102EB00004C0440F551F661F771F8A95D2F7CB01B8
:102EC000BA0160957095809590950091C60110911A
:102ED000C7012091C8013091C90160237123822369
:102EE00093231F910F910C940B170F931F9341E0A5
:102EF00050E060E070E004C0440F551F661F771F6C
:102F00008A95D2F78091C6019091C701A091C8011E
:102F1000B091C9018A019B01082719272A273B275D
:102F2000C901B8011F910F910C940B170F931F93B8
:102F30000091C6011091C7012091C8013091C901CB
:102F4000602B712B822B932B1F910F910C940B17DD
:102F50000F931F930091C6011091C7012091C801E2
:102F60003091C90160237123822393231F910F9114
:102F70000C940B170F931F930091C6011091C7017A
:102F80002091C8013091C9016027712782279327BA
:102F90001F910F910C940B1708952AE0929F800DBA
:102FA0001124982F977071E001C0770F9A95EAF776
:102FB00086958695869525E0829FC001112450E074
:102FC00040E0A62FB0E0FC01E40FF51FED55FE4FE9
:102FD00060819D01042E02C0369527950A94E2F780
:102FE0002170219526272723262720834F5F5F4FB7
:102FF0004530510541F708952AE0929F800D112434
:10300000982F977086958695869525E0829FA001DA
:10301000112470E060E080E0FA01E60FF71FED5543
:10302000FE4F208130E0092E02C0369527950A9484
:10303000E2F721703327062E01C0220F0A94EAF727
:10304000822B6F5F7F4F6530710531F70895BF9216
:10305000CF92DF92EF92FF920F931F93CF93DF9364
:103060008C01C090C601D090C701E090C801F090DB
:10307000C9018091CA019091CB01A091CC01B0917E
:10308000CD01C82AD92AEA2AFB2ACFE1D0E0BC2EFA
:10309000D701C6010C2E04C0B695A79597958795C4
:1030A0000A94D2F780FD0EC0219788F7B12C8B2DA2
:1030B000DF91CF911F910F91FF90EF90DF90CF9014
:1030C000BF900895B8018C2F0E94CD09019761F33C
:1030D000EECFCF93DF93EC010E942718BE01DF9162
:1030E000CF910C94CD091F93CF93DF93EB01909177
:1030F0006A01992331F0CB01DF91CF911F910C949C
:103100006918882379F0CB010E942718182F682F9F
:10311000CE010E94CD17BE01812FDF91CF911F916B
:103120000C94CD09CB010E94FC17182FF4CF682F07
:1031300080910001909101010C94EF1A682F809109
:103140000001909101010C94FA1A80910001909174
:1031500001010C94051B0E94921B2091D10130911A
:10316000D2018217930778F00E94921B2091D1011F
:103170003091D201821B930B9C0181E0243F3140AE
:1031800008F480E008950E94921B2091D1013091B3
:10319000D20120953095280F391FEFCF8091D001B3
:1031A00085958595859508958091D00187700895BE
:1031B0000E94921B2091CE013091CF01821793077C
:1031C000B0F00E94921B2091CE013091CF01821B62
:1031D000930B843F914018F480E0817008958091B2
:1031E000D00182FB882780F991E08927F6CF0E94E1
:1031F000921B2091CE013091CF0120953095820F06
:10320000931FE7CF98E0899F90011124622B609370
:10321000D0010E9431170E94921B9093CF0180939E
:10322000CE0108959091D001809589238093D0019B
:10323000282F277081F4282F082E000C330B9217AB
:10324000130649F08595859585950E945217109231
:10325000CF011092CE0108959091D001977081E036
:1032600009F480E008958091F60108959091F601A7
:10327000892B8093F6010895982F90958091F601FF
:1032800089238093F60108951092F6010895909194
:10329000F501892B8093F5010895982F90958091E1
:1032A000F50189238093F50108951092F5010895A1
:1032B0009091F401892B8093F4010895982F9095B3
:1032C0008091F40189238093F40108951092F40110
:1032D00008958093D3010E94921B9093D201809312
:1032E000D10108951092D3011092D2011092D10110
:1032F0000895E0910001F09101018091F601808331
:10330000E0910001F091010180819091F501892BFC
:103310008083E0910001F091010180819091F4019E
:10332000892B80838091D301882321F10E94AB18DF
:10333000882371F08091F70180FF08C084E492E057
:103340009F938F930E94E4060F900F900E94721932
:10335000E0910001F091010180819091D301892BCE
:10336000808380910001909101010E94701A811167
:103370000E94721980910001909101010C94910DAD
:103380008091D30108959093370180933601089579
:10339000CF92DF92EF92FF926C01EE24FF2420E0A7
:1033A000C114D104E104F10419F0C701B60120E110
:1033B000C72ED82EE92EFF24C114D104E104F10454
:1033C00019F0285FC701B6016B017C0154E0F69447
:1033D000E794D794C7945A95D1F7C114D104E10466
:1033E000F10419F02C5FC701B6016B017C0142E0CA
:1033F000F694E794D794C7944A95D1F7C114D104B1
:10340000E104F10419F02E5FC701B6019695879586
:1034100077956795672B682B692B09F02F5F822FB3
:10342000FF90EF90DF90CF900895829590E09C01FF
:10343000220F331F220F331F2C7C9595879595956E
:1034400087958373282B30E0C901880F991F8A7AEA
:10345000359527952575822B0895CF93DF93D92F26
:103460000E94151AC82F8D2F0E94151A9C2FDF91CC
:10347000CF9108956DEE7EEF90E080E00E94D52A16
:1034800060E082E090E00E94C32A60E083E090E088
:103490000E94C32A60E084E090E00E94C32A60E0BA
:1034A00085E090E00C94C32A90E080E00E94BD2A61
:1034B00021E08D3E9E4F09F020E0822F089582E0AA
:1034C00090E00C94B52A83E090E00C94B52A84E057
:1034D00090E00C94B52A682F84E090E00C94C32A05
:1034E000FC0131969C01205E3F4F80E0919191114B
:1034F0008F5FE217F307D1F708959C01FC01329624
:103500009FEF80E04191461751F09F3F19F4411120
:1035100001C0982F8F5F8E31A9F79F3F09F408955E
:10352000290F311D97FD3A95F90162830895FC0139
:10353000329680962191261303C0DF0111971C92C9
:10354000E817F907B9F70895E62FE695E695E695A9
:10355000EF3171F0E80FF92FF11D677021E030E0D5
:1035600001C0220F6A95EAF78181822B8183089539
:103570008091F70180FF0CC01F926F9384E792E067
:103580009F938F930E94E4060F900F900F900F90DF
:103590000895E62FE695E695E695EF3179F0E80F88
:1035A000F92FF11D677021E030E001C0220F6A950C
:1035B000EAF7209581812823218308958091F701DE
:1035C00080FF0CC01F926F9386E592E09F938F93CC
:1035D0000E94E4060F900F900F900F900895209195
:1035E0001201222329F02091310227FD0C94A41A04
:1035F0000C947D1A20911201222329F0209131028E
:1036000027FD0C94C91A0C94971AFC0131968096E8
:103610001192E817F907E1F70895089508950C94B9
:103620000E1B80913702843049F11092F80188E135
:1036300090E020E40FB6F894A895809360000FBE48
:103640002093600080E00E94AB090E940F1B83B7AB
:10365000817F846083BF83B7816083BF78948895BE
:1036600083B78E7F83BF0FB6F894A89580916000D2
:10367000886180936000109260000FBE08950895E5
:10368000CF930E940D1B0E94F0060E943F1BC0E0DA
:103690008C2F0E945807892B31F4CF5FC530C1F7BA
:1036A00080E0CF91089581E0FCCF08950C94551BE4
:1036B0000E94E0120E94850D0E94AB090C94561BDB
:1036C0001F920F920FB60F9211248F939F93AF9377
:1036D000BF938091F801811113C080912D029091C8
:1036E0002E02A0912F02B09130024196A11DB11D72
:1036F00080932D0290932E02A0932F02B09330025C
:10370000BF91AF919F918F910F900FBE0F901F901F
:10371000189582E084BD93E095BD9AEF97BD8093A4
:103720006E0008952FB7F89480912D0290912E028B
:10373000A0912F02B09130022FBF08952FB7F894B7
:1037400060912D0270912E0280912F029091300293
:103750002FBF0895CF92DF92EF92FF920F931F93A6
:103760002FB7F89440912D0250912E0260912F02B4
:10377000709130022FBF6A017B01EE24FF248C017F
:1037800030E020E0C016D106E206F30650F0481BF8
:10379000590BCA011F910F91FF90EF90DF90CF90CE
:1037A000089541505109F3CF78941F920F920FB6AC
:1037B0000F9211248F939F93AF93BF9380912D020B
:1037C00090912E02A0912F02B09130020196A11D7E
:1037D000B11D80932D0290932E02A0932F02B093DF
:1037E0003002BF91AF919F918F910F900FBE0F90BC
:1037F0001F90189587E797E790930108809300083A
:1038000088E19AE00FB6F894A895809360000FBE07
:1038100090936000FFCF0E94541A811102C00E9451
:103820003A1A0E945F1A8093F7010E94671A90E08B
:1038300090933202809331020E94631A682F70E0E5
:1038400090E080E00C94CF168091FB0180FF12C0C5
:103850006091050185E0689FB00111247595679519
:103860007595679560387105A8F561157105A1F129
:10387000862F089581FF09C06091050185E0689F4A
:10388000B001112475956795EDCF82FF07C0609157
:10389000050185E0689FB0011124E4CF2091FC016F
:1038A0002223A9F0909104016091050185E0689FB1
:1038B000B00111242917B0F6269FA001279F500DB3
:1038C0001124692F70E0CA010E94872ACBCF65E0DE
:1038D00070E0CECF8FE7089581E008958091FB01DD
:1038E00080FF0CC06091030170E075956795759538
:1038F00067956115710549F1862F089581FF06C00E
:103900006091030170E075956795F3CF60910301B5
:1039100082FD0BC09091FC019923A1F060910201FE
:1039200080910301961738F0682F70E060387105B8
:1039300000F38FE70895899FC001112470E00E9471
:10394000872AF4CF61E070E0D7CF81E00895803F0F
:1039500031F40E94241C81958093FF010895813FDA
:1039600019F40E94241CF8CF823F31F40E94241CD9
:1039700081958093FE010895833F19F40E94241CD1
:10398000F8CF893F29F40E946E1C809300020895AD
:103990008A3F21F40E946E1C8195F7CF8B3F31F452
:1039A0000E946E1C81958093010208958C3F19F44A
:1039B0000E946E1CF8CF843F31F48091FD0181603C
:1039C0008093FD010895853F21F48091FD0182607F
:1039D000F7CF863F21F48091FD018460F1CF873FCE
:1039E00021F48091FD018860EBCF883F21F4809124
:1039F000FD018061E5CF8D3F31F48091FB01816055
:103A00008093FB0108958E3F21F48091FB01826039
:103A1000F7CF8F3FB9F78091FB018460F1CF803FF2
:103A2000C1F48091FF0187FD1092FF018091FE019A
:103A300081110EC08091FF0181110AC080910002A6
:103A4000811106C080910102811102C01092FC0117
:103A50000895813F29F48091FF0118162CF3E6CFD9
:103A60009091FE01823F29F497FFE0CF1092FE0172
:103A7000DDCF833F19F41916CCF3D8CF893F39F441
:103A800080910002181694F610920002CFCF8A3F60
:103A900029F48091000287FFC9CFF6CF8B3F39F41C
:103AA0008091010287FFC2CF10920102BFCF8C3FED
:103AB00029F4809101021816BCF3B8CF843F31F489
:103AC0008091FD018E7F8093FD01B0CF853F21F471
:103AD0008091FD018D7FF7CF863F21F48091FD011C
:103AE0008B7FF1CF873F21F48091FD01877FEBCF62
:103AF000883F21F48091FD018F7EE5CF8D3F31F429
:103B00008091FB018E7F8093FB0190CF8E3F21F44B
:103B10008091FB018D7FF7CF8F3F09F087CF809198
:103B2000FB018B7FF0CF8091F70183FF7EC089EB93
:103B300092E00E944B068091FD011F928F9384EBCF
:103B400092E09F938F930E94E40682EB92E00E94A2
:103B50004B068091FE01282F082E000C330B3F935B
:103B60008F938FEA92E09F938F930E94E4068DEAF1
:103B700092E00E944B068091FF01282F082E000C36
:103B8000330B3F938F938AEA92E09F938F930E9427
:103B9000E40688EA92E00E944B0680910002282FFA
:103BA000082E000C330B3F938F9385EA92E09F938E
:103BB0008F930E94E40683EA92E00E944B06809174
:103BC0000102282F082E000C330B3F938F9380EABD
:103BD00092E09F938F930E94E4068DE992E00E9409
:103BE0004B068091FC011F928F938AE992E09F938C
:103BF0008F930E94E40688E992E00E944B06809130
:103C0000FB011F928F9385E992E09F938F930E940F
:103C1000E40682E992E00E944B068DB79EB74C966F
:103C20000FB6F8949EBF0FBE8DBF8DEF91E00E943E
:103C3000DD0D0E94921B9093FA018093F901089583
:103C40001F93CF93DF938091F9019091FA010E9425
:103C5000AA1BAC019091FC012091060130E091116A
:103C600006C0209107018AE0289F90011124421785
:103C7000530780F08091FE01D091FF011091000266
:103C8000C091010281110AC0D1116AC0111168C02E
:103C9000C11166C0DF91CF911F9108959F3F19F028
:103CA0009F5F9093FC01181624F40E94241C8093BB
:103CB000FE018091FE0187FF05C00E94241C8195B2
:103CC0008093FE011D1624F40E94241C8093FF01A2
:103CD0008091FF0187FF05C00E94241C819580937D
:103CE000FF013091FE013323C1F02091FF01222317
:103CF000A1F045EB3403C0011124892F911101C0BB
:103D000081E08093FE0145EB240390011124832F71
:103D1000311101C081E08093FF01111624F40E944B
:103D20006E1C809300028091000287FF05C00E94F4
:103D30006E1C8195809300021C1624F40E946E1C58
:103D4000809301028091010287FF05C00E946E1CD2
:103D5000819580930102DF91CF911F910C94931D67
:103D60009F3F09F09DCFAECF85E0EDEFF1E0DF01A1
:103D70001D928A95E9F71092FC011092FB010895BB
:103D80008CED94E00E944B061F9281E08F931F926E
:103D900085E08F938EE894E09F938F930E94E406D2
:103DA0000F900F900F900F900F900F900895833009
:103DB00009F445C028F4813061F0823049F108955A
:103DC000853009F46AC008F451C0863009F47CC01B
:103DD000089580910701482F460F5527551F4F3FE3
:103DE000510594F4680F60930701809107011F92B9
:103DF0008F9387EC93E09F938F930E94E4060F903C
:103E00000F900F900F9008958FEF80930701EDCFE3
:103E100080910601482F460F5527551F4F3F5105EA
:103E200054F4680F60930601809106011F928F93EE
:103E300085EB93E0E0CF8FEF80930601F5CF809183
:103E40000501482F460F5527551F4F3F510554F484
:103E5000680F60930501809105011F928F9382EA9C
:103E600093E0C9CF8FEF80930501F5CF80910401D6
:103E7000482F460F5527551F4F3F510554F4680FE3
:103E800060930401809104011F928F938DE893E069
:103E9000B2CF8FEF80930401F5CF80910301482FBB
:103EA000460F5527551F4F3F510554F4680F609337
:103EB0000301809103011F928F9384E793E09BCFCE
:103EC0008FEF80930301F5CF80910201482F460FB9
:103ED0005527551F4F3F510554F4680F6093020159
:103EE000809102011F928F9389E593E084CF8FEF39
:103EF00080930201F5CF8330C9F128F4813061F05D
:103F0000823019F10895853009F452C008F43FC099
:103F1000863009F45EC0089580910701681790F417
:103F2000861B80930701809107011F928F938AE47B
:103F300093E09F938F930E94E4060F900F900F9051
:103F40000F90089510920701EECF80910601681737
:103F500050F4861B80930601809106011F928F9377
:103F600088E393E0E6CF10920601F6CF8091050139
:103F7000681750F4861B80930501809105011F92FC
:103F80008F9385E293E0D5CF10920501F6CF809113
:103F90000401681750F4861B80930401809104018A
:103FA0001F928F9380E193E0C4CF10920401F6CF6B
:103FB00080910301681750F4861B80930301809160
:103FC00003011F928F9387EF92E0B3CF109203010A
:103FD000F6CF80910201681750F4861B809302018E
:103FE000809102011F928F938CED92E0A2CF1092EC
:103FF0000201F6CFCF93C82F1F928F9381EE95E0E9
:104000009F938F930E94E40661E070E080E090E06F
:1040100004C0660F771F881F991FCA95D2F70E94A8
:10402000CF160F900F900F900F90CF910C94E0123D
:10403000873208F052C08E3108F01EC1803109F479
:10404000ADC0F8F4873009F48BC048F4863009F429
:1040500075C084E399E00E944B0680E008958B30A0
:1040600009F467C08E30A9F79091F701892F8B7FF3
:1040700092FF84608093F70182FF8DC084E799E00E
:1040800026C0863109F4B1C088F4813111F70E944D
:10409000E01290913102892F97FB87F98058809325
:1040A000310287FFE6C081E499E045C0893109F417
:1040B00085C08B3171F69091F701892F8D7F91FF2B
:1040C00082608093F70181FF63C081E999E00E94DB
:1040D0004B068091F701816058C0883351F158F444
:1040E000893229F0853319F0873209F0B2CF80E0A8
:1040F0000E94FA1F1CC08334D1F328F48A3308F4D9
:10410000A8CF8953F5CF883409F0A3CF0E94E012DD
:1041100087EB99E00E944B062FEF83ED90E321504F
:1041200080409040E1F700C000000E94FA1B81E04F
:10413000089589E997E00E944B06F9CF8091F70135
:10414000817F8E7F8093F70182E797E00E944B0684
:1041500083ED99E00E944B0681E08093030208956D
:104160009091F701892F8E7F90FF81608093F701F6
:1041700080FF03C08BEA99E0DECF8EE999E00E94D0
:104180004B068091F701897F877F8093F701CFCF1E
:1041900083E899E0D0CF84E699E0CDCF9091F70104
:1041A000892F877F93FF88608093F70183FF03C087
:1041B00088E599E08CCF8BE499E0BDCF83E697E06A
:1041C0000E944B0687E397E00E944B0680E097E051
:1041D0000E944B068DEC96E00E944B0682E996E029
:1041E0000E944B0687E696E0A6CF89E596E00E94FE
:1041F0004B060E94850D1F928F938FE396E09F934D
:104200008F930E94E406809112011F928F9388E29F
:1042100096E09F938F930E94E406809128021F925C
:104220008F9385E196E09F938F930E94E40680919F
:10423000310287FB882780F91F928F938DEF95E0DD
:104240009F938F930E94E4060E949E1B9F938F93DF
:104250007F936F9386EE95E09F938F930E94E40681
:104260008DB79EB746960FB6F8949EBF0FBE8DBF12
:104270005ECF86E399E05FCF8D513ACF80E008951D
:104280000C943E218E518A3030F4E82FF0E0ED5E40
:10429000FE4F8081089580E00895CF93C82F8091CC
:1042A00003028130D1F038F0823009F44DC0109211
:1042B000030280E010C0E0910001F09101018081D3
:1042C0008232B9F78C2F0E943E2181111EC08C2FA3
:1042D0000E9418208170CF910895E0910001F09123
:1042E00001018081823271F38C2F0E944021811163
:1042F0001BC0C431D9F060F4CB3071F0C031D1F0C3
:1043000087ED95E00E944B0613C081E090E0E2CF7C
:10431000C93261F0C833A1F782E797E00E944B06EB
:104320008DED95E00E944B0681E0D4CF1092030200
:1043300080E0D0CF0E94C01E89ED95E00E944B0620
:1043400082E080930302F0CFC432C8F4CE3108F08B
:10435000BEC0CB30E1F040F4C73009F4CCC08BE7ED
:1043600094E00E944B0626C0C331C1F1C431B9F7B5
:1043700080910202882351F1109202020AC0CB34CC
:1043800009F4B7C0C8F4C93299F3C83341F70E94A1
:10439000C01E80910202882309F4C4C01F928F932B
:1043A00085E794E09F938F930E94E4060F900F900F
:1043B0000F900F9081E08FCFC13509F494C0C235C2
:1043C00009F48BC0CE3459F66AE08EC08AE894E0D6
:1043D0000E944B0681E0809303027DCF84E694E047
:1043E0000E944B0682E594E00E944B0680910701F3
:1043F0001F928F938FE494E09F938F930E94E40623
:104400008DE494E00E944B068BE394E00E944B06FF
:10441000809106011F928F9388E394E09F938F937E
:104420000E94E40686E394E00E944B0687E294E053
:104430000E944B06809105011F928F9384E294E0C5
:104440009F938F930E94E40682E294E00E944B06C1
:1044500081E194E00E944B06809104011F928F93AA
:104460008EE094E09F938F930E94E4068CE094E0AA
:104470000E944B0687EF93E00E944B068091030158
:104480001F928F9384EF93E09F938F930E94E40693
:1044900082EF93E00E944B068BED93E00E944B0667
:1044A000809102011F928F9388ED93E09F938F93E9
:1044B0000E94E40686ED93E00E944B068DB79EB7FE
:1044C00048960FB6F8949EBF0FBE8DBF62CF8C2F5B
:1044D0000E944221809302025CCF61E0809102023F
:1044E0000E94D71E56CF61E0809102020E947B1F7E
:1044F00050CF6AE0F3CF8EE18093070182E380938F
:1045000006018AE08093050184E18093040188E03C
:104510008093030188E2809302018DE794E00E947A
:104520004B0637CF82E794E01CCF80912702089595
:104530009FB7F894109206029FBF90913702943073
:1045400009F049C02091E9002F709091EC0090FD96
:1045500030C090E0922B24E02093E9002091EB0002
:1045600020FF36C02091EE0027FF32C020910402C8
:10457000222321F02091E80025FF2AC01092040296
:1045800026E03091E80035FF16C08093F10080915D
:10459000E80085FD29C08091E80080FFFCCF809174
:1045A000E8008E778093E8009F709093E90080E0A8
:1045B000089590E8CFCF30913702343049F43091EC
:1045C000EB0035FD05C0215041F481E080930402E9
:1045D0009F709093E9008FEF0895EFE9FFE0319726
:1045E000F1F700C00000CDCF8FB7F89421E0209301
:1045F00006028FBFD9CF0F931F93CF93DF9300D0C5
:104600001F92CDB7DEB78C010E94CD25823011F00C
:10461000843019F583E089831B830A838093E90042
:104620008FEF9091E800815095FD06C095ED9A9529
:10463000F1F700008111F5CF8091E80085FF0DC0F2
:1046400050E040E063E070E0CE0101960E94EA2570
:104650008091E8008E778093E8000F900F900F9084
:10466000DF91CF911F910F910895CF93DF9300D0E9
:104670001F92CDB7DEB720913702243031F522E00A
:104680002983805891099B838A8383E08093E90082
:104690008FEF9091E800815095FD06C095ED9A95B9
:1046A000F1F700008111F5CF8091E80085FF0DC082
:1046B00050E040E063E070E0CE0101960E94EA2500
:1046C0008091E8008E778093E8000F900F900F9014
:1046D000DF91CF910895CF93DF93EC010E94CD2518
:1046E000823011F08430F9F482E08093E9008FEF9A
:1046F0009091E800815095FD06C095ED9A95F1F7EF
:1047000000008111F5CF8091E80085FF0CC050E0DA
:1047100040E065E070E0CE010E94EA258091E8006B
:104720008E778093E800DF91CF910895CF93DF9348
:10473000EC010E94CD25823011F08430F9F4809193
:1047400012018823F1F08091310287FF1AC085E0C1
:104750008093E9008FEF9091E800815095FD06C0AD
:1047600095E19A95F1F700008111F5CF8091E8006D
:1047700050E040E060E270E085FD1AC0DF91CF912B
:10478000089581E08093E9008FEF9091E8008150D7
:1047900095FD06C095ED9A95F1F700008111F5CFD2
:1047A0008091E80085FFEACF50E040E068E070E0EB
:1047B000CE010E94EA258091E8008E778093E80080
:1047C00080E2FE01A7E0B2E001900D928A95E1F748
:1047D000D5CF8CEF99E00E944B0680913602811173
:1047E00009C00E947A270E94D7278091E200846046
:1047F0008093E200089588EF99E00E944B061092A2
:104800003602089584EF99E00C944B0680EF99E00E
:104810000C944B068CEE99E00E944B060C94581BAE
:10482000209105022F5F822F62E30E947B2A992349
:1048300019F0209305020895109205028091060256
:104840008823E9F0809137028430B9F49091E9002F
:104850009F708091EC0080FD13C080E0892B94E074
:104860009093E9009091EB0090FF04C09091EE00CE
:1048700097FD0AC08F708093E90010920602089598
:1048800080E8ECCF1092F1009091E80095FDFACF0E
:104890009091E80090FFEECF9091E8009E77909382
:1048A000E800E8CF42E061EC81E00E94F82642E0B7
:1048B00061EC82E00E94F82642E061EC83E00E9415
:1048C000F82642E261EC84E00E94F82642E261ECC4
:1048D00085E00C94F82680913902833009F455C0A4
:1048E00030F4813071F1823009F491C008958A303A
:1048F00009F47DC08B3009F463C0893009F044C0ED
:1049000080913802813209F03FC080913C02909141
:104910003D02009711F00497B9F58091E800877F78
:104920008093E8008091E80082FF2AC08091F10026
:10493000809327028091E8008B778093E8000C94A5
:104940002C2780913802813AF9F48091E800877F22
:104950008093E80080913C0290913D02892B61F4A4
:1049600060E287E092E070E00E9439268091E800E2
:104970008B778093E800089560E090E080E0F3CFCB
:10498000809137028111CECF089580913802813A0B
:10499000D9F780913C0290913D02892BA9F7809133
:1049A000E800877F8093E8008091E80080FFFCCFDB
:1049B000809112018093F1008091E8008E77BDCF45
:1049C00080913802813201F780913C0290913D0242
:1049D000892BD1F68091E800877F8093E8000E94C0
:1049E0002C2780913A02809312010C94E01280915E
:1049F0003802813249F68091E800877F8093E80091
:104A00000E942C2780913B02809328020895809178
:104A10003802813A09F0B8CF8091E800877F80930F
:104A2000E8008091E80080FFFCCF80912802C2CF8F
:104A300084B7877F84BF0FB6F894A89580916000F3
:104A4000886180936000109260000FBE80E88093C0
:104A50006100109261000E94150E0E947A270E9448
:104A6000D7278091E20084608093E20088E992E297
:104A70000E94C31978940E945F2A0E94190E88E050
:104A800091E00E94800D8BED99E00E944B06809191
:104A90003702853019F00E944D0EF9CF87ED99E06D
:104AA0000E944B060E94111B80913502882379F3E6
:104AB0000E94401B882359F30E94D425E8CF0C9410
:104AC0006125292F33272330310579F158F421301E
:104AD0003105F1F02230310519F190E080E030E04D
:104AE00020E01AC021323105C9F122323105A9F77F
:104AF0006530710590F7FB01EE0FFF1FEE5DFE4F75
:104B000020813181635E7E4FFB01808190E004C093
:104B100082E190E02BEB3AE0FA01318320830895A3
:104B20008DE890E02EE23AE0F7CF992781309105A9
:104B300079F040F08230910571F0039771F6E0E072
:104B4000FAE002C0EAE2FAE0849190E09F01E4CF4B
:104B5000E8E1FAE0F9CFE6E0FAE0F6CF653071057A
:104B600008F0BBCF660F771FFB01E45DFE4F20818D
:104B7000318189E090E0D0CF0895CF93C82F0E9473
:104B8000BC25C0932902CF910895809137028430CB
:104B900011F081E0089582E0089580912902811149
:104BA00002C00C94C525089580E189BD82E189BDCC
:104BB00009B400FEFDCF8091D8008F7D8093D8008E
:104BC0008091E00082608093E0008091E00081FDB0
:104BD000FCCF0895AF92BF92CF92DF92FF920F93D6
:104BE0001F93CF93DF936C01EB018A010E944B2747
:104BF000F82E811123C00115110539F0F8018081CB
:104C00009181C81BD90BC80ED91EB12CA12C20979D
:104C1000A9F08091E80085FD22C08091E8008E77A0
:104C20008093E80001151105A1F0F80180819181C0
:104C3000A80EB91EB182A08285E0F82E8F2DDF91DB
:104C4000CF911F910F91FF90DF90CF90BF90AF90C9
:104C500008950E944B278823D1F2F82EEFCFF6015A
:104C600081916F018093F1002197FFEFAF1ABF0A86
:104C7000CECFFC0180913E0290913F0286179707AC
:104C8000A0F06115710529F49091E8009E7790934A
:104C9000E80090E06115710551F4911108C0809110
:104CA000E80082FF35C080E00895BC01F2CF80911A
:104CB00037028823C9F18530C9F18091E80083FD6E
:104CC00031C08091E80082FDEACF8091E80080FF4A
:104CD000E1CF2091F3008091F200322F282F61154F
:104CE000710519F02830310558F091E02830310570
:104CF00009F090E02091E8002E772093E800CACFD9
:104D000081918093F100615071092F5F3F4FE7CF90
:104D100080913702882341F0853041F08091E8008E
:104D200083FFBDCF81E0089582E0089583E0089578
:104D3000FC0180913E0290913F0286179707A0F0F8
:104D40006115710529F48091E8008E778093E80061
:104D500090E06115710551F4911108C08091E8004F
:104D600082FF36C080E00895BC01F2CF8091370207
:104D70008823D1F18530D1F18091E80083FD32C0E4
:104D80008091E80082FDEACF8091E80080FFE1CFCA
:104D90002091F3008091F200322F282F61157105C8
:104DA00019F02830310558F091E02830310509F02C
:104DB00090E08091E8008E778093E800CACF8491DC
:104DC0008093F1003196615071092F5F3F4FE6CF1C
:104DD00080913702882341F0853041F08091E800CE
:104DE00083FFBCCF81E0089582E0089583E00895B9
:104DF000982F973028F08F708093E90081E0089514
:104E00009093E900242F762F50E0981731F070919D
:104E1000EC002091ED005091F00021FD02C09F5F59
:104E2000E8CF3091EB003E7F3093EB003091ED0006
:104E30003D7F3093ED003091EB0031603093EB001B
:104E40007093EC002093ED005093F0002091EE0061
:104E500027FDE5CF80E008958091380287FF13C0D9
:104E60008091E80082FF06C08091E8008B778093F4
:104E7000E80004C0809137028111F2CF089580913B
:104E800037028823D9F38091E80080FFF8CF809122
:104E9000E8008E77ECCF2091E4003091E50085E6C4
:104EA0009091EC0090FF06C09091E80090FF06C042
:104EB00080E008959091E80092FDFACF909137023A
:104EC000992391F0953091F09091EB0095FD10C0F1
:104ED0004091E4005091E5002417350709F3815013
:104EE0009A01F1F684E0089582E0089583E0089540
:104EF00081E008950E94E8270E94F027E0EEF0E0AC
:104F0000808181608083E8EDF0E080818F7780830D
:104F100019BCA7EDB0E08C918E7F8C9380818F7E41
:104F200080831092360208950F931F93CF93DF93DF
:104F30000E94E8270E94F027C8EDD0E088818F7793
:104F4000888388818068888388818F7D888319BC65
:104F500010923702109233021092350210923402EE
:104F600000EE10E0F80180818B7F80838881816072
:104F7000888342E060E080E00E94F826E1EEF0E005
:104F800080818E7F8083E2EEF0E08081816080838B
:104F9000808188608083F80180818E7F8083888112
:104FA00080618883DF91CF911F910F910895E8ED83
:104FB000F0E080818F7E8083E7EDF0E0808181608A
:104FC000808384E082BF81E0809336020C94942732
:104FD000E8EDF0E080818E7F80831092E2000895FA
:104FE0001092DA001092E10008951F920F920FB60E
:104FF0000F9211242F933F934F935F936F937F935F
:105000008F939F93AF93BF93EF93FF938091E100B2
:1050100082FF0BC08091E20082FF07C08091E10017
:105020008B7F8093E1000E9410248091DA0080FF42
:1050300019C08091D80080FF15C08091DA008E7F62
:105040008093DA008091D90080FF94C080E189BD0F
:1050500082E189BD09B400FEFDCF81E08093370273
:105060000E94E9238091E10080FF19C08091E20055
:1050700080FF15C08091E2008E7F8093E2008091D6
:10508000E20080618093E2008091D800806280938A
:10509000D80019BC85E0809337020E9406248091D5
:1050A000E10084FF29C08091E20084FF25C080E1F7
:1050B00089BD82E189BD09B400FEFDCF8091D80091
:1050C0008F7D8093D8008091E1008F7E8093E100F6
:1050D0008091E2008F7E8093E2008091E200816007
:1050E0008093E20080913302882309F449C084E070
:1050F000809337020E940A248091E10083FF29C037
:105100008091E20083FF25C08091E100877F80933A
:10511000E10082E080933702109233028091E10037
:105120008E7F8093E1008091E2008E7F8093E20089
:105130008091E20080618093E20042E060E080E0E4
:105140000E94F8268091F00088608093F0000E9411
:105150000224FF91EF91BF91AF919F918F917F9129
:105160006F915F914F913F912F910F900FBE0F90D4
:105170001F90189519BC109237020E94FB2372CF22
:105180008091E30087FD02C081E0B2CF83E0B0CF21
:105190001F920F920FB60F9211242F933F934F93AC
:1051A0005F936F937F938F939F93AF93BF93CF93AF
:1051B000EF93FF93C091E900CF708091EC001092C3
:1051C000E9008091F000877F8093F00078940E943E
:1051D00004291092E9008091F00088608093F0002B
:1051E000C093E900FF91EF91CF91BF91AF919F9153
:1051F0008F917F916F915F914F913F912F910F9080
:105200000FBE0F901F9018951F93CF93DF93CDB7CC
:10521000DEB7AA970FB6F894DEBF0FBECDBFE8E3A6
:10522000F2E08091F100819322E0E034F207C9F7C7
:105230000E946B248091E80083FF44C08091380273
:10524000909139029A3008F03DC0E92FF0E0E55D19
:10525000F64D0C949B2A35295B2962295B2962292A
:10526000B929DB296229322A3F2A803889F082381D
:1052700049F580913C028F70873020F58093E900DA
:105280008091EB0085FB882780F91092E90006C029
:105290008091340290913502911182609091E800E2
:1052A000977F9093E8008093F1001092F100809135
:1052B000E8008E772DC0282F2D7F21F48823D1F090
:1052C000823059F18091E80083FF0AC08091E800A4
:1052D000877F8093E8008091EB0080628093EB00F1
:1052E000AA960FB6F894DEBF0FBECDBFDF91CF9167
:1052F0001F91089580913A02813021F7933009F08F
:1053000080E0809335021092E9008091E800877F69
:105310008093E8000E942C27D5CF80913A0281111A
:10532000F2CF80913C028F702FEF280F263050F67D
:105330008093E9002091EB0020FFE5CF933031F41A
:105340008091EB0080628093EB00DDCF9091EB00C9
:1053500090619093EB0021E030E001C0220F8A952C
:10536000EAF72093EA001092EA008091EB0088604F
:10537000EACF8111A7CF10913A021F778091E30005
:105380008078812B8093E3008091E800877F809371
:10539000E8000E942C278091E80080FFFCCF8091DC
:1053A000E30080688093E30083E0111101C082E094
:1053B0008093370287CF8058823008F083CF809166
:1053C0003A0290913B028C3D23E09207A1F583E0E5
:1053D0008A838AE289834FB7F894DE01139620E02E
:1053E0003EE051E2E32FF0E050935700E49120FFBC
:1053F00003C0E295EF703F5FEF708E2F90E0EA30D0
:10540000C0F0C7968D939D932F5F243159F74FBFFE
:105410008091E800877F8093E8006AE270E0CE0127
:1054200001960E9439268091E8008B778093E800EE
:1054300049CFC096E7CF60913C0270913D02AE012A
:105440004F5F5F4F0E945F25BC01892B09F43ACF63
:105450009091E800977F9093E80089819A810E945B
:105460009826E1CF803809F02DCF8091E800877F22
:105470008093E800809133028093F10018CF81116E
:1054800021CF90913A02923008F01CCF8091E80031
:10549000877F8093E800909333020E942C278091AD
:1054A0003302882331F084E0809337020E94522433
:1054B00009CF8091E30087FDF6CF81E0F5CFCF9350
:1054C00080913702882399F0C091E900CF708091D4
:1054D000EC0080FD0EC080E0C82B1092E9008091A6
:1054E000E80083FD0E940429CF70C093E900CF91AA
:1054F000089580E8F1CF991B79E004C0991F9617B1
:1055000008F0961B881F7A95C9F78095089597FB38
:10551000072E16F4009407D077FD09D00E94A12A27
:1055200007FC05D03EF4909581959F4F08957095A6
:1055300061957F4F0895EE0FFF1F0590F491E02DC8
:105540000994AA1BBB1B51E107C0AA1FBB1FA617CA
:10555000B70710F0A61BB70B881F991F5A95A9F71C
:1055600080959095BC01CD010895F999FECF92BD2B
:1055700081BDF89A992780B50895A8E1B0E042E08E
:1055800050E00C94DD2A262FF999FECF92BD81BD03
:10559000F89A019700B4021639F01FBA20BD0FB671
:1055A000F894FA9AF99A0FBE08950196272F0E944F
:1055B000C42A0C94C32ADC01CB01FC01F999FECF6B
:1055C00006C0F2BDE1BDF89A319600B40D9241508B
:0A55D0005040B8F70895F894FFCF9B
:1055DA00D4012808140A321E952296236B233523F8
:1055EA00FB220101020304050607080900404D36A3
:1055FA002239AB0B5E0B280B060BCD0A400A590A5F
:06560A00720A8B0AAB0AD4
:00000001FF
