:100000000C94C9010C9410020C9410020C94100270
:100010000C9410020C9410020C9410020C94100218
:100020000C9410020C9410020C94CD190C94A01A8C
:100030000C94D4140C9410020C9410020C94100222
:100040000C9410020C9410020C9410020C941002E8
:100050000C9410020C943C150C9410020C94100299
:100060000C9410020C9410020C9410020C941002C8
:100070000C9410020C9410020C9410020C941002B8
:100080000C9410020C9410020C9410020C941002A8
:100090000C9410020C9410020C9410020C94100298
:1000A0000C9410020C9410020C941002140007001F
:1000B00015001A0005000D00090018001300330098
:1000C000040016000B0017000A001C0011000800B5
:1000D00012000C001D001B001000060019000E008D
:1000E0000F0036003700380000004A00E3002B0004
:1000F000390029002A004C004B00000000004D0090
:10010000E0002800DB5CDC5C2C00E2004E0000001C
:1001100001000100010001000100010001000100D7
:1001200001000100010001000100010001000100C7
:1001300001000100010001000100010001000100B7
:1001400001000100010001000100010000000100A8
:100150000100010001000100010001000100000098
:100160000000010001000100010001000100010088
:10017000010000003500240225020100A9002D0025
:100180002400250026002F0234002102220223022F
:10019000A8002F00210022002300260201001E02D9
:1001A0001F022002AA002E001E001F0020003100A6
:1001B000000001000100010001006500010049008C
:1001C0000100000000000100010001000100010029
:1001D0002700010046000000350201005200010026
:1001E0004300010040004100420030020100500085
:1001F00051004F00440030003D003E003F00270208
:100200000100AC00AE00AB00450001003A003B002D
:100210003C0001000000010001000100010001009C
:1002200001000100010000000000010001000100C8
:1002300001000100010001000100000000000000B9
:10024000F0000000000000000000F90000000000C5
:100250000000F200F100F30000000000F400F600DE
:10026000F500000000000000000000000000000099
:100270000000FA0000000000000000000100000083
:10028000000000000000000000000000000000006E
:10029000000000000000000000000000000000005E
:1002A00004033000000010034D00690074006F006B
:1002B0007300690073000000100355006E006B00AE
:1002C0006E006F0077006E0000000403090409024D
:1002D0003B00020100A0FA09040000010301010033
:1002E0000921110100012240000705810308000ACD
:1002F000090401000103000000092111010001228D
:1003000036000705820308000A12011001000000F0
:1003100008EDFE606001000102030105010980A1F2
:100320000185021601002603001A81002A83007548
:100330001095018100C0050C0901A101850316017A
:1003400000269C021A01002A9C027510950181006A
:10035000C005010906A101050719E029E7150025D7
:10036000019508750181029501750881010508193B
:100370000129059505750191029501750391010506
:1003800007190029FF150026FF0095067508810052
:10039000C00011241FBECFEFDAE0DEBFCDBF04B630
:1003A00003FE27C08091D9019091DA01A091DB0171
:1003B000B091DC018730904BA740B04BD1F4109244
:1003C000D9011092DA011092DB011092DC0114BE07
:1003D00084B7877F84BF0FB6F894A895809160009A
:1003E000886180936000109260000FBEE0E0F8E347
:1003F000099511E0A0E0B1E0E4E2F9E302C0059064
:100400000D92AE30B107D9F721E0AEE0B1E001C006
:100410001D92A93DB207E1F70E94FC160C94901CB6
:100420000C94000008950C946A05EF92FF921F93BC
:10043000CF93DF93CDB7DEB72B970FB6F894DEBF1F
:100440000FBECDBF1092CC001092CD0088E18093FA
:10045000C90086E08093CA0083E78093CE00CE0176
:1004600001967C018BE0D7011D928A95E9F7D701AF
:100470009E01245F3F4FC70140E050E0BA01109158
:10048000C80017FD0AC04F5F5F4F6F4F7F4F41316C
:10049000E7E25E076105710590F31091CE00FC0163
:1004A0001193CF01E217F30751F78B85803EB1F42A
:1004B0002EE031E0B701665F7F4F11968C91119766
:1004C000F0E28F9FC00111244C91842BF90181939C
:1004D00091939F0112966A177B0779F70E946C052A
:1004E00081E02B960FB6F894DEBF0FBECDBFDF9133
:1004F000CF911F91FF90EF900895E82FF0E0EE0F5D
:10050000FF1FE25FFE4F8081918108950895109250
:10051000CC001092CD0088E18093C90086E08093E2
:10052000CA000895519A599A80B3806380BB81B301
:10053000806381BB08950E9412020E9487020C947E
:1005400092020C94320308950F931F93CF93DF937D
:10055000EC018B016091A0017091A1018091A20139
:100560009091A3010E94BD13CB3D2CE5D207E9F089
:10057000CC3D9CE5D90709F447C0833009F070C031
:10058000CE01CA970C9740F0C033D10529F0CF5463
:10059000D109249708F064C0F801C28182E0CC231D
:1005A00009F45CC00E945A0A1FC0F80182818823A6
:1005B00009F180911C0190911D010E9412158D324C
:1005C000914018F481E0809319010E9406159093E0
:1005D0001D0180931C0182E00E94381143E061E01C
:1005E00082E00E945805C0E08C2FDF91CF911F91CF
:1005F0000F91089580911901811103C082E00E943A
:10060000591110921901EACFF80182818823C9F0AB
:1006100080911A0190911B010E9412158D32914018
:1006200018F481E0809318010E94061590931B0135
:1006300080931A0181E00E94381181EE0E947809AE
:10064000CDCF80911801811106C081E00E9459111F
:1006500081EE0E942B0A10921801C0CF0E94530A0B
:10066000C1E0C2CF6091A0017091A1018091A2016F
:100670009091A3010E94BD13823079F028F4882361
:1006800041F0813061F00895833069F0843069F081
:1006900008958D9A599A8C9A08958D98FBCF8D9ACA
:1006A000599A8C9808958D98FBCF8D9A5998F3CFCD
:1006B00081E008950C94A4020E94E70C2FEF84E3DC
:1006C0009CE0215080409040E1F700C0000087E7A7
:1006D00097E790930108809300080C946215FF92AD
:1006E0000F931F93CF93DF938C01FC01C081D181C5
:1006F00080914401811140C082818823C1F1CE01E3
:100700000E942E12F82E682FCE010E94D411BE0135
:100710008F2D0E947405EC01B8010E945A038823B2
:1007200009F45EC0B801CE010E94D807882309F4FD
:1007300057C0C531FCE5DF0709F446C110F5C130EB
:10074000ECE5DE0709F453C008F063C0C115DC45D1
:1007500009F441C081E08093230180932401C80102
:10076000DF91CF911F910F91FF900C945803CE0110
:100770000E940312F82ECBCFCE010E942E12BE0192
:10078000C8CFC63DECE5DE0709F403C1B8F4C43DAB
:100790008CE5D80709F4C1C0C53DDC45D9F6F801A0
:1007A0008281882309F4E0C0109224010E9406157A
:1007B000909322018093210180E2BCC0C93DFCE5F9
:1007C000DF07F9F0CA3DDC4529F6F801828188236C
:1007D00039F082E01BC0F801828181110E945C0324
:1007E00080E0DF91CF911F910F91FF900895F80164
:1007F00082818823A9F38091B90181608093B90136
:10080000EFCFF8018281882359F380E00E94951789
:10081000E7CFF8018281882309F4A1CF0E94241434
:10082000811102C00E940A140E94371490E0909334
:10083000CB018093CA01FE01E350FC458091CA01BF
:100840008160E231F105C8F4E85DFB4F0C94541C63
:100850003A0446044A044E04520456045A045E0400
:10086000620466046A046E04720476047A047E04E8
:10087000820486048091CA0182608093CA018091BB
:10088000CA010E943B140E94E70CAACF8091CA01C2
:100890008460F3CF8091CA018860EFCF8091CA0154
:1008A0008061EBCF8091CA018062E7CF8091CA015D
:1008B0008064E3CF8091CA018068DFCF8091CA0154
:1008C0008460EACF8091CA018E7FD7CF8091CA0120
:1008D0008D7FD3CF8091CA018B7FCFCF8091CA010A
:1008E000877FCBCF8091CA018F7EC7CF8091CA010D
:1008F0008F7DC3CF8091CA018F7BBFCF8091CA010A
:100900008F77BBCF8091CA018B7FEACF9091CA01CC
:10091000892F97FB87F98058B0CFF801828188230F
:1009200061F0109223010E9406159093200180939C
:100930001F0182E00E94530A53CF8091230181114D
:100940000FC080911F01909120010E941215883CD8
:10095000910530F486E20E94780986E20E942B0A13
:1009600082E00E945A0A3CCF8091240181110FC07D
:1009700080912101909122010E941215883C9105DD
:1009800030F487E20E94780987E20E942B0A80E215
:10099000E8CFF8018281811107CF80912401811174
:1009A000F6CF80912101909122010E941215883C7E
:1009B000910568F780E20E945A0A88E20E9478094D
:1009C00088E20E942B0A0CCF0E943A13F801928110
:1009D000992381F08A7A91E009F490E090931E01C6
:1009E000811106C089E20E949E120E948013F8CEF7
:1009F00085E3F9CF80911E01811104C089E20E9434
:100A0000A512F3CF85E3FBCF8F929F92AF92BF9257
:100A1000CF92DF92EF92FF920F931F936B017C01B5
:100A200081E090E0A0E0B0E04C015D0104C0880CE2
:100A3000991CAA1CBB1C4A95D2F7B501A4014C0114
:100A40005D0104C0880C991CAA1CBB1C2A95D2F716
:100A5000482959296A297B2904C0880F991FAA1F90
:100A6000BB1F0A95D2F78A019B010C211D212E2163
:100A70003F21041715072607370789F48C299D297C
:100A8000AE29BF29BC01CD011F910F91FF90EF90BE
:100A9000DF90CF90BF90AF909F908F9008958095FA
:100AA0009095A095B0958C219D21AE21BF21EACFD4
:100AB0000F93382F262F6091A0017091A101809192
:100AC000A2019091A301042F432F0E9404050F91CE
:100AD0000C9412110C949B020C94A1020C94A3028E
:100AE00090E080E008950895972F70E02AE0929FAB
:100AF000600D711D1124FB0192E3899FE00DF11D32
:100B00001124EE0FFF1FE455FF4F85919491089536
:100B1000FC01EE0FFF1FE455FF4F8591949108955E
:100B2000CF93DF930E9474050E943407EC01811576
:100B3000904508F043C0C11580E4D80708F00AC109
:100B4000C83ED10528F5C03ED10508F09EC0C83A80
:100B5000D10580F4C53AD10508F08DC0C130D1056A
:100B600009F493C020F0C430D10508F08EC0D0E065
:100B7000C0E08BC0CD3BD10508F48BC0CE01805CBA
:100B80009109C03CD10598F30E948805EC017DC015
:100B9000C11520E2D20750F4C11581E0D80708F052
:100BA00074C0C03FD10518F3D0656FC0C11520E3F4
:100BB000D20708F0C5C0CE019F70E6CFC11585E50C
:100BC000D80760F5C11524E5D20708F0F1C0C115BA
:100BD00082E5D80750F4C11521E5D20708F4BDC05D
:100BE000DC2FCC27C16FD06A50C09C2F969596956C
:100BF0009E0123703327C115D34508F0CAC0C1E058
:100C0000D0E002C0CC0FDD1F2A95E2F720E2929FD0
:100C1000C0011124C82BD92BDC6837C0C11529E5C8
:100C2000D20780F4C11588E5D80708F0C6C0C11501
:100C300026E5D20708F09BCFDC2FCC27CC27DF712D
:100C4000D06223C0C1158AE5D80708F4BBC0CE0125
:100C500090568115904208F08ACF8D2F8F710E9497
:100C6000B407DD27D06290E0982F882788279F71EE
:100C7000C82BD92B0AC0C53AD10509F4B0C0C63A71
:100C8000D10509F4AFC0C3E8D0E4CE01DF91CF9124
:100C90000895C83AD10509F4A8C0C93AD10509F4A4
:100CA000A7C0CA3AD10509F4A6C0CB3AD10509F4C8
:100CB000A5C0CC3AD10509F4A4C0CB3BD10509F4B9
:100CC000A3C0CC3BD10509F4A2C0CD3AD10509F4AB
:100CD000A1C0C03BD10509F4A0C0CE3AD10509F4AA
:100CE0009FC0CF3AD10509F49EC0C13BD10509F49C
:100CF0009DC0C23BD10509F49CC0C33BD10509F49A
:100D00009BC0C43BD10509F49AC0C53BD10509F489
:100D100099C0C63BD10509F498C0C73BD10509F479
:100D200097C0C83BD10509F496C0C93BD10509F469
:100D300095C0CA3BD10509F094C0CAE2D6E4A5CF5C
:100D4000CE019927D3FF03C0EC01D86C9ECFEC01F4
:100D5000D06C9BCFDF70D06A98CFCE01E4E096953F
:100D60008795EA95E1F783709C2F937021E030E03E
:100D700002C0220F331F9A95E2F73C68382BC695C4
:100D8000C695C37080E2C89FE0011124C22BD32B0B
:100D90007CCFC1E0D0E002C0CC0FDD1F2A95E2F786
:100DA00020E2929FC0011124C82BD92BDA686DCFA5
:100DB000DC2FCC27C46FD06A68CFDC2FCC27C06F64
:100DC000D06A63CFCE0134E0969587953A95E1F7E6
:100DD0008F70CF70C06ED0E0D06AD82B56CFC1E8EC
:100DE000D0E453CFC2E8D0E450CFC2EED4E44DCF2C
:100DF000C9EED4E44ACFCAEED4E447CFC5EBD4E47D
:100E000044CFC6EBD4E441CFC3EBD4E43ECFC4EB34
:100E1000D4E43BCFC7EBD4E438CFCCECD4E435CF2B
:100E2000CDECD4E432CFC3E8D5E42FCFCAE8D5E483
:100E30002CCFC2E9D5E429CFC4E9D5E426CFC1E25D
:100E4000D6E423CFC3E2D6E420CFC4E2D6E41DCF5C
:100E5000C5E2D6E41ACFC6E2D6E417CFC7E2D6E49D
:100E600014CFC0E0D4E411CF8238910549F1B0F439
:100E70008133910509F45CC048F48932910509F485
:100E800052C08A32910509F458C0089585339105FE
:100E900009F444C08933910599F00895833E910582
:100EA00031F138F4803E910591F0823E9105B1F028
:100EB0000895863E910511F1873E910541F108950F
:100EC0002091CA012370C9F080EE90E0089520912E
:100ED000CA0120FF12C089E390E008952091CA0161
:100EE00022FF0BC024FF2EC090E080E008952091E7
:100EF000CA0122FD2AC024FDF7CF08952091CA011E
:100F000023FFFBCF24FDF0CF87EE90E008952091E2
:100F1000CA0123FFF0CF86EE90E008952091CA0128
:100F200025FD16C008952091CA0125FD14C008951D
:100F30002091CA0126FD12C008952091CA0126FD04
:100F400010C0089583EE90E0089582EE90E0089539
:100F500089E290E0089585E390E008958AE290E0C8
:100F6000089581E390E0C9CF9091CA0192FF06C035
:100F7000282F2871283069F4877F846093FF06C08A
:100F8000282F2871283161F4877E846194FD877E43
:100F90000895282F2471243089F78B7F8860EECF45
:100FA000282F2471243191F78B7E8861EFCF08952B
:100FB0000F931F93CF938C01FB018281811106C097
:100FC000C1E08C2FCF911F910F910895C0913201F4
:100FD000C11125C006311C4599F70E94D70781E051
:100FE000809332010E940615909331018093300165
:100FF00010922501109227011092260110922901CA
:101000001092280110922B0110922A0110922D01AA
:1010100010922C0110922F0110922E01D2CF8091AC
:101020003001909131010E9412158C32914040F6AE
:1010300080912501E82FF0E0EE0FFF1FEA5DFE4FE3
:10104000118300838F5F80932501C0E0BACF909316
:101050003801809337010895E0913701F09138010C
:10106000309721F00190F081E02D099480E00895FF
:10107000E0913701F0913801309721F00280F3813F
:10108000E02D0994089520913501309136012817FB
:10109000390771F09093360180933501E091370163
:1010A000F0913801309721F00680F781E02D099406
:1010B000089520913301309134012817390771F0D8
:1010C0009093340180933301E0913701F09138011E
:1010D000309721F00084F185E02D0994089508955A
:1010E0000C946F0881E008950E94FD1485B7806814
:1010F00085BF85B7806885BF0E9413020C94731565
:101100005F926F927F928F929F92AF92BF92CF9297
:10111000DF92EF92FF920F931F93CF93DF93CDB7A0
:10112000DEB72A970FB6F894DEBF0FBECDBF0E9480
:1011300015020E947208882309F478C09AE3A92E48
:1011400091E0B92E10E000E088248394912C502E79
:10115000802F0E947D027C01F501C190D1905F013A
:10116000C816D90609F45CC08091B90181FD0E94BE
:10117000860290E080E0CE24DF243401082E02C0F5
:10118000660C771C0A94E2F7960126213721232B5F
:1011900009F441C08E835F82E620F72081E0EF28CA
:1011A00009F480E088870E9406158160782F9A876D
:1011B00089874E815F8168858A850E943D09000F7D
:1011C000111FF801E65CFE4F808191816826792627
:1011D000718260820E942C08909139018917B9F1BF
:1011E0000E942C08809339012A960FB6F894DEBF2E
:1011F0000FBECDBFDF91CF911F910F91FF90EF9068
:10120000DF90CF90BF90AF909F908F907F906F9026
:101210005F900C946E0501968A30910509F0ADCF70
:101220000F5F1F4F0530110509F091CF8FEF8983B4
:101230008A831B820E9406158160782F9D838C8390
:1012400049815A816B818D810E943D09C3CF2A96C5
:101250000FB6F894DEBF0FBECDBFDF91CF911F91C7
:101260000F91FF90EF90DF90CF90BF90AF909F9045
:101270008F907F906F905F900895CF93DF93CDB75D
:10128000DEB72B970FB6F894DEBF0FBECDBF4F83EE
:10129000588769877A878B871E821D8285E0FE01C9
:1012A0003796DE01119601900D928A95E1F70E9422
:1012B000DF12882319F082E00E9419130E94B212F3
:1012C00081110E94791349815A816B817C818D81C2
:1012D0009E812B960FB6F894DEBF0FBECDBFDF9177
:1012E000CF910C94A70FFC01808191810C94701216
:1012F000882309F4AFC09CEF980F913A20F40E9424
:101300009E120C94801390E2980F983050F48770DE
:1013100091E001C0990F8A95EAF7892F0E943D1349
:10132000F0CF9BE5980F933070F4853A31F0863A10
:1013300039F083E890E00C94430881E890E0FBCF1B
:1013400082E890E0F8CF98E5980F953108F082C0D8
:10135000883A09F440C0893A09F440C08A3A09F44D
:1013600040C08B3A09F440C08C3A09F440C08B3B32
:1013700009F440C08C3B09F440C08D3A09F440C0E8
:10138000803B09F440C08E3A09F440C08F3A09F41A
:1013900040C0813B09F440C0823B09F440C0833B1C
:1013A00009F440C0843B09F440C0853B09F440C0C7
:1013B000863B09F440C0873B09F440C0883B09F4F0
:1013C00040C0893B09F440C08A3B09F440C090E02A
:1013D00080E00C94590882EE90E0FBCF89EE90E01B
:1013E000F8CF8AEE90E0F5CF85EB90E0F2CF86EB78
:1013F00090E0EFCF83EB90E0ECCF84EB90E0E9CF8F
:1014000087EB90E0E6CF8CEC90E0E3CF8DEC90E0C2
:10141000E0CF83E891E0DDCF8AE891E0DACF82E99E
:1014200091E0D7CF84E991E0D4CF81E292E0D1CFAF
:1014300083E292E0CECF84E292E0CBCF85E292E0ED
:10144000C8CF86E292E0C5CF87E292E0C2CF8AE2BF
:1014500092E0BFCF0895882329F19CEF980F913A2D
:1014600020F40E94A5120C94801390E2980F9830FB
:1014700050F4877091E001C0990F8A95EAF7892F9F
:101480000E944313F0CF9BE5980F933020F490E037
:1014900080E00C944308885A853120F490E080E085
:1014A0000C9459080895882321F00E943D130C9450
:1014B00080130895882321F00E9443130C94801315
:1014C00008958F929F92AF92BF92DF92EF92FF9218
:1014D0000F931F93CF93DF937C01D62FC72FFC016F
:1014E000058102950F70128111110E945C130E94F8
:1014F0003313D82E882371F0112331F180E28D0F40
:10150000883010F182E00E9419130E94331391E099
:10151000D82ED926BC2EB2949FE0B922EB2DF0E054
:10152000EC56F54F0C94541CA60AA60AF60AF60AC5
:101530003D0B440B440B440B650B440B000C000C9F
:101540008A0C440B440B930CD12CE4CF0C2F0F705E
:10155000C07F11F00295007F1123A9F0002359F0FC
:1015600080E28D0F883010F0D11109C0802F0E94C9
:101570003D130E9480138D2F0E94780914C0802F84
:101580000E944E13F6CF8D2F0E942B0A002359F094
:1015900080E28D0F883010F0D11124C0802F0E947E
:1015A00043130E948013DD2009F4C4C10E94DB12A2
:1015B00080FDC0C1F70112820E94D5120E9438112D
:1015C000C7010E94A60C0E94D512DF91CF911F91F6
:1015D0000F91FF90EF90DF90BF90AF909F908F9012
:1015E0000C945911802F0E945413DBCFFC2FFF70F5
:1015F000BF2EC07FC03219F0B29480EFB822DD2335
:1016000069F0D13049F1112391F1002351F1F70133
:10161000858180FFB0CF8F70858323C0112381F037
:10162000011106C00E94BA138B290E94530ABBCF36
:101630000130C1F70E94BA138B290E947013B3CFF7
:10164000011106C00E9479138B2D0E945A0AABCF5C
:10165000013009F4A8CFF6CF112329F0063008F0A5
:10166000A2CF8B2DE2CF053008F09DCFEDCF002328
:1016700059F38D2F0E942B0A96CF8C2F8695869535
:10168000837079F08130B9F098E0B91609F459C047
:10169000B91608F488CF86EF8B0D823008F451C05C
:1016A00082CF8D2F9C2F9370111102C090E080E0AB
:1016B0000E94430878CF8D2F9C2F9370111102C088
:1016C00090E080E00E9459086ECF8C2F837009F063
:1016D0004BC0111136C02D2F229526952770220F51
:1016E000220F6D2F6F70862E912CB12CA12C022E03
:1016F00004C0880C991CAA1CBB1C0A94D2F760E099
:1017000070E0CB01D4FF0FC06FE070E080E090E0AC
:1017100004C0660F771F881F991F2A95D2F760951E
:10172000709580959095C695C695C370C23071F03E
:10173000A0F4682979298A299B29C13091F00E9457
:10174000EA100E942C080E946E052DCF6829792985
:101750008A299B290E94FC10F4CF0E94EA10C5013F
:10176000B4010E94D810EDCF8695112311F08C2F73
:101770008170882331F32D2F229526952770220F13
:10178000220F6D2F6F70862E912CB12CA12C022E62
:1017900004C0880C991CAA1CBB1C0A94D2F760E0F8
:1017A00070E0CB01D4FF0FC06FE070E080E090E00C
:1017B00004C0660F771F881F991F2A95D2F760957E
:1017C000709580959095C695C695C370C23051F0BE
:1017D00080F4682979298A299B29C13071F00E94F7
:1017E000AF11AFCF682979298A299B290E94C1119D
:1017F000A8CF0E94AF11C501B4010E949D11A1CFD5
:10180000E0E2ED0FE53108F066C0F0E0E65FF34F8F
:101810000C94541C1F0C1F0C1F0C1F0C1F0C1F0CB6
:101820001F0C1F0C1F0C1F0C1F0C1F0C1F0C1F0C60
:101830001F0C1F0C300C3E0C450C4C0C560CDF7072
:101840008C2F8F71112331F00E9438118D2F0E943F
:10185000530A1ACF0E9459118D2F0E945A0A14CF91
:10186000112341F0053008F00FCF8C2F8F710E94AB
:101870007C110ACF063008F007CFF7CF8C2F8F717D
:10188000112339F00E943811FFCE8C2F8F71112354
:10189000C9F30E945911F8CE112329F08C2F8F71B2
:1018A0000E942311F1CE0E941E11EECE112349F0A9
:1018B000CF718C2F0E94381163E08C2F0E94091386
:1018C000E3CE81E00E941913023008F4DDCE82E0FD
:1018D0000E941913D9CE112349F0002321F08D2F36
:1018E0000E947809D1CE8C2F8F71CCCF002379F054
:1018F000D93349F4FFEF27EE83E0F15020408040D8
:10190000E1F700C000008D2F0E942B0ABDCE8C2F66
:101910008F71BFCF4C2F4F706D2FC7010E94700584
:101920000E94501040CE4C2F4F706D2FC7010E9467
:10193000730539CEDF91CF911F910F91FF90EF90FA
:10194000DF90BF90AF909F908F9008950F931F935B
:10195000CF93DF93EC01988189812B813C81232BEC
:1019600039F08F3F19F481E09F3F19F080E001C00A
:1019700081E080FD17C0CE010E946F03882391F0A3
:10198000688179818A810E947A128C010E94D31128
:101990000E94D510B801CE01DF91CF911F910F9118
:1019A0000C94610ADF91CF911F910F9108950E94CD
:1019B0005C130E946D130E94AC120E94801390E091
:1019C00080E00E94430890E080E00C9459080E9457
:1019D0004B130C94D70C0E947012E92FE295EF7014
:1019E000E250EE30E0F4F0E0E850F34F0C94541C79
:1019F000060D060D0F0D0F0D110D0F0D0F0D0F0D17
:101A0000060D060D160D0F0D0F0D160D803F19F06A
:101A100020F4803E20F481E00895843FE1F380E0EB
:101A20000895803EC0F3813FD1F7F5CF93FB88271F
:101A300080F90895CF93DF9300D000D01F92CDB7E7
:101A4000DEB70F900F900F900F900F90DF91CF9116
:101A50000895CF93DF9300D000D000D0CDB7DEB78C
:101A600026960FB6F894DEBF0FBECDBFDF91CF91A3
:101A700008951F93CF93DF93C091450116E08091A5
:101A800046018C1304C0DF91CF911F910895D0E0DF
:101A90001C9FF0011D9FF00D1124E95BFE4F40815A
:101AA000518162817381848195810E94290D2196E3
:101AB000C770E5CF4091770150917801609179012D
:101AC00070917A0180917B0190917C010C94290D99
:101AD0001F93CF93DF9380917C01807FD1F480911D
:101AE00079018823B1F080914501D0914601B091F0
:101AF0007701C091780140917A0150917B01A1E07A
:101B0000BF3F09F0A0E0BA016095709516E0D813C8
:101B100004C0DF91CF911F91089521E04115510537
:101B200021F02A2FCF3F09F020E090E020FD38C0BF
:101B3000189FF001199FF00D1124E95BFE4F2181E0
:101B40002C132EC020812B132BC02281211128C0E1
:101B5000238134812417350700F1241B350B283CE1
:101B60003105F0F420917C012F70206120937C01DD
:101B700026E0289FF001299FF00D1124E45BFE4F21
:101B800080818F708061808387E791E00E94A60C3E
:101B9000DF91CF911F910C94390D260F371FDFCFA6
:101BA00001968770B4CFAF92BF92CF92DF92EF923F
:101BB000FF920F931F93CF93DF93CDB7DEB761975B
:101BC0000FB6F894DEBF0FBECDBF8C0185E0F801E3
:101BD000DE011D9601900D928A95E1F7D8014C9196
:101BE00011965C9111971296EC903091770160916B
:101BF000780180917A0190917B0121E0009731F08A
:101C00006F3F19F421E03F3F09F020E0B22FB1709F
:101C1000BB2E20FD80C1F801C380D480A090790143
:101C2000AA2009F427C1C816D906D0F1D601A81BED
:101C3000B90BCD01FF24F394883C910508F0F12CF9
:101C400080917C01982F907FFF2009F4CEC09111E4
:101C500087C0FE2C651329C0341327C0E11025C0AE
:101C60008F70806180937C010E945A0D87E791E01C
:101C70000E94A60C80917C01F80185838F2D6196CE
:101C80000FB6F894DEBF0FBECDBFDF91CF911F918D
:101C90000F91FF90EF90DF90CF90BF90AF9008959D
:101CA000809590958C0D9D1DC5CF81E0CD2831F09C
:101CB0005F3F19F481E04F3F09F080E080FD24C0D0
:101CC00081E08E25F82FF170DF2E80FF3FC08091DC
:101CD00045012091460136E0821318C04D875E878A
:101CE0008D859E850E947012292F22952F7022309B
:101CF00008F1243030F59F7009F1D80115969C91B8
:101D0000907FE1F4FB2CBACF80E0DCCF90E0389FED
:101D1000F001399FF00D1124E95BFE4F61815613EC
:101D200006C06081461303C062816E110FC0019628
:101D30008770D2CF9F7011F0882321F3805E8830A6
:101D400008F3C8010E94A60CBD2CDCCFEE2009F4DC
:101D500095CF80917C01816080937C01F12C8ECFA6
:101D6000651314C0341312C0E11010C0F80185834C
:101D7000C8010E94A60C86E0F801A7E7B1E0019037
:101D80000D928A95E1F70E945A0D78CF4D875E87B4
:101D90008D859E850E94EB0C882319F1EE2009F1B8
:101DA00080917C01803270F0209177013091780130
:101DB00038872F831986DB86CA868C87CE010796E3
:101DC0000E94A60C86E0F801A7E7B1E001900D9211
:101DD0008A95E1F70E94680D0E945A0DFF24F39442
:101DE0004DCFC8010E94A60CF9CF911113C07C2DD4
:101DF000D98AC88A6E2D89890E941A0D87E791E0D9
:101E00000E94A60C86E0E7E7F1E0DF011D928A95CB
:101E1000E9F7B9CF651312C0341310C0E1100EC03A
:101E2000F8018583C8010E94A60CE7E7F1E086E08F
:101E3000DF011D928A95E9F7FA2C20CF4D875E8746
:101E40008D859E850E94EB0C882359F2EE2049F285
:101E500080917C01803208F4B5CF209177013091D8
:101E600078013A8329831B82DD82CC828E83CE0166
:101E70000196A6CFC816D90638F1F601E81BF90B72
:101E8000CF01F12C883C910508F03DC0FE2CEE20DE
:101E900009F4A7CF651326C0341324C080917C01B8
:101EA00080FD17C0982F907FA1F0D80115968C93D4
:101EB0001597903F09F45CCF982F907F905F8F70BB
:101EC000892B15968C9354CF809590958C0D9D1DE4
:101ED000D8CF86E0F801A7E7B1E001900D928A958E
:101EE000E1F7CCCE4D875E878D859E850E94EB0CF9
:101EF000811168CF80917C01816080937C01C80151
:101F00000E94A60CBBCE7C2DD98AC88A6E2D8989E9
:101F10000E941A0D77CFEE2009F463CF4D875E87BC
:101F20008D859E850E94EB0CF82E882309F459CFED
:101F300086E0F801A7E7B1E001900D928A95E1F7FC
:101F400087E791E00E9473090E94680D1CCF1F93E0
:101F5000CF93DF93CDB7DEB72C970FB6F894DEBFE3
:101F60000FBECDBF4F83588769877A878B879C8741
:101F7000CE0107960E94D30D882309F442C09F81A9
:101F800088852A853B85232B39F08F3F19F481E022
:101F90009F3F19F080E001C081E080FD08C04F81C3
:101FA000588569857A858B859C850E94290D16E068
:101FB0008091450190914601891709F467C0819F7E
:101FC000C0011124895B9E4F0E94D30D882309F420
:101FD0005DC0E09145011E9FF0011124E95BFE4FB9
:101FE0004081518162817381848195810E94290D94
:101FF0008091450190E00196877099278093450173
:10200000D7CF86E0FE013796DE01119601900D9242
:102010008A95E1F79F8188852A853B85232B39F0B6
:102020008F3F19F481E09F3F19F080E001C081E00B
:1020300080FDBDCF2091460130E0C9010196877037
:102040009927409145014817190699F096E0929F0B
:10205000D001939FB00D1124A95BBE4FFE013196B4
:1020600001900D929A95E1F7809346010E94390DF7
:102070009ECF0E94E70C109246011092450186E027
:10208000E7E7F1E0DF011D928A95E9F72C960FB69C
:10209000F894DEBF0FBECDBFDF91CF911F910895A1
:1020A000EF92FF920F931F93CF93DF938C01892BB5
:1020B00081F0F12CEE24E394E8012196F80184915B
:1020C000843770F4843008F05FC08130B1F0823022
:1020D000A1F1DF91CF911F910F91FF90EF900895A3
:1020E000853709F44CC008F43DC09CE7980F903741
:1020F00080F78F770E942B0A49C00E5F1F4FFE01A9
:10210000849190E2980F983060F48770FE2D01C0A2
:10211000FF0F8A95EAF78F2F0E945F130E948013AA
:1021200002C00E9478098F2D815030F2EFE9FFE064
:102130003197F1F700C00000F7CF0E5F1F4FFE018F
:10214000849190E2980F983050F48770FE2D01C072
:10215000FF0F8A95EAF78F2F0E946513DFCF0E9449
:102160002B0AE1CF0E5F1F4FFE01C491C150D8F280
:102170008FE99FE00197F1F700C00000F7CF0E5FF5
:102180001F4FFE01F490CFCF0E9478098E01CBCF74
:1021900008950E94C8106093A4017093A5018093D4
:1021A000A6019093A7010C94D70C08950C94C91024
:1021B0000F931F930091A4011091A5012091A601F6
:1021C0003091A701602B712B822B932B1F910F91C4
:1021D0000C94C9100F931F930091A4011091A501B5
:1021E0002091A6013091A7016023712382239323BC
:1021F0001F910F910C94C9100F931F930091A4018C
:102200001091A5012091A6013091A70160277127A7
:10221000822793271F910F910C94C9100C94C8101A
:102220000C940E110E9410116093A0017093A101F3
:102230008093A2019093A3010C94D70C60E070E00E
:10224000CB010C9412110F931F9341E050E060E01A
:1022500070E08A019B0104C0000F111F221F331F71
:102260008A95D2F7C901B8011F910F910C941211F0
:102270000F931F9341E050E060E070E004C0440F12
:10228000551F661F771F8A95D2F78091A001909104
:10229000A101A091A201B091A3018A019B01082B89
:1022A000192B2A2B3B2BC901B8011F910F910C94BC
:1022B00012110F931F9341E050E060E070E004C002
:1022C000440F551F661F771F8A95D2F7CB01BA01BD
:1022D00060957095809590950091A0011091A10155
:1022E0002091A2013091A3016023712382239323C3
:1022F0001F910F910C9412110F931F9341E050E026
:1023000060E070E004C0440F551F661F771F8A9578
:10231000D2F78091A0019091A101A091A201B0916A
:10232000A3018A019B01082719272A273B27C901F6
:10233000B8011F910F910C9412110F931F930091EC
:10234000A0011091A1012091A2013091A301602B65
:10235000712B822B932B1F910F910C9412110F93C1
:102360001F930091A0011091A1012091A201309131
:10237000A30160237123822393231F910F910C9457
:1023800012110F931F930091A0011091A1012091B0
:10239000A2013091A30160277127822793271F9103
:1023A0000F910C94121108952AE0929F800D112430
:1023B000982F977071E001C0770F9A95EAF786958C
:1023C0008695869525E0829FC001112450E040E06B
:1023D000A62FB0E0FC01E40FF51FE358FE4F60812B
:1023E0009D01042E02C0369527950A94E2F72170CC
:1023F000219526272723262720834F5F5F4F4530CF
:10240000510541F708952AE0929F800D1124982FDD
:10241000977086958695869525E0829FA001112468
:1024200070E060E080E0FA01E60FF71FE358FE4F2E
:10243000208130E0092E02C0369527950A94E2F7F4
:1024400021703327062E01C0220F0A94EAF7822B4F
:102450006F5F7F4F6530710531F70895BF92CF925E
:10246000DF92EF92FF920F931F93CF93DF938C0134
:10247000C090A001D090A101E090A201F090A30132
:102480008091A4019091A501A091A601B091A7010E
:10249000C82AD92AEA2AFB2ACFE1D0E0BC2ED701EC
:1024A000C6010C2E04C0B695A795979587950A94FA
:1024B000D2F780FD0EC0219788F7B12C8B2DDF91CC
:1024C000CF911F910F91FF90EF90DF90CF90BF9031
:1024D0000895B8018C2F0E949005019761F3EECF0B
:1024E000CF93DF93EC010E942E12BE01DF91CF91BA
:1024F0000C9490051F93CF93DF93EB0190914401CF
:10250000992331F0CB01DF91CF911F910C94701280
:10251000882379F0CB010E942E12182F682FCE014C
:102520000E94D411BE01812FDF91CF911F910C9495
:102530009005CB010E940312182FF4CF682F8091D1
:102540000001909101010C947414682F8091000196
:10255000909101010C9476148091000190910101F9
:102560000C9478140E9406152091AB013091AC01B7
:102570008217930778F00E9406152091AB013091E5
:10258000AC01821B930B9C0181E0243F314008F495
:1025900080E008950E9406152091AB013091AC01B6
:1025A00020953095280F391FEFCF8091AA0185958E
:1025B0008595859508958091AA01877008950E9458
:1025C00006152091A8013091A90182179307B0F058
:1025D0000E9406152091A8013091A901821B930B3E
:1025E000843F914018F480E0817008958091AA01A1
:1025F00082FB882780F991E08927F6CF0E94061593
:102600002091A8013091A90120953095820F931F48
:10261000E7CF98E0899F90011124622B6093AA0173
:102620000E9438110E9406159093A9018093A80179
:1026300008959091AA01809589238093AA01282F5B
:10264000277081F4282F082E000C330B92171306E5
:1026500049F08595859585950E9459111092A9019B
:102660001092A80108959091AA01977081E009F451
:1026700080E008958091B80108959091B801892B68
:102680008093B8010895982F90958091B80189237F
:102690008093B80108951092B80108959091B70100
:1026A000892B8093B7010895982F90958091B70159
:1026B00089238093B70108951092B70108959091EE
:1026C000B601892B8093B6010895982F909580913B
:1026D000B60189238093B60108951092B60108953A
:1026E0008093AD010E9406159093AC018093AB01DD
:1026F00008951092AD011092AC011092AB010895B3
:10270000E0910001F09101018091B8018083E09196
:102710000001F091010180819091B701892B8083A4
:10272000E0910001F091010180819091B601892B27
:1027300080838091AD018823B9F00E94B21281118B
:102740000E947913E0910001F09101018081909144
:10275000AD01892B808380910001909101010E943D
:10276000401481110E947913809100019091010120
:102770000C9438088091AD010895CF92DF92EF92CA
:10278000FF926C01EE24FF2420E0C114D104E10487
:10279000F10419F0C701B60120E1C72ED82EE92EA9
:1027A000FF24C114D104E104F10419F0285FC7012A
:1027B000B6016B017C0154E0F694E794D794C7947A
:1027C0005A95D1F7C114D104E104F10419F02C5F3A
:1027D000C701B6016B017C0142E0F694E794D794FF
:1027E000C7944A95D1F7C114D104E104F10419F05A
:1027F0002E5FC701B6019695879577956795672BEC
:10280000682B692B09F02F5F822FFF90EF90DF90EC
:10281000CF9008956DEE7EEF90E080E00E947A1CEC
:1028200060E082E090E00E94681C60E083E090E05D
:102830000E94681C60E084E090E00E94681C60E0F8
:1028400085E090E00C94681C90E080E00E94621C9F
:1028500021E08D3E9E4F09F020E0822F089582E016
:1028600090E00C945A1C83E090E00C945A1C84E095
:1028700090E00C945A1C682F84E090E00C94681C43
:10288000FC0131969C01285F3F4F80E091919111AE
:102890008F5FE217F307D1F708959C01FC01329690
:1028A0009FEF80E04191461751F09F3F19F441118D
:1028B00001C0982F8F5F8630A9F79F3F09F40895D4
:1028C000290F311D97FD3A95F90162830895FC01A6
:1028D000329608962191261303C0DF0111971C92AE
:1028E000E817F907B9F708950C944D140C94671480
:1028F000FC011182128213821482158216821782C1
:102900000895089508950C9482148091D001843024
:1029100049F11092BA0188E190E020E40FB6F894F2
:10292000A895809360000FBE2093600080E00E9415
:102930006E050E94831483B7817F846083BF83B751
:10294000816083BF7894889583B78E7F83BF0FB6ED
:10295000F894A8958091600088618093600010923F
:1029600060000FBE08950895CF930E9481140E94C5
:1029700015020E94B314C0E08C2F0E947D02892BA7
:1029800031F4CF5FC530C1F780E0CF91089581E089
:10299000FCCF08950C94C9140E94E70C0E942C08E7
:1029A0000E946E050C94CA141F920F920FB60F92DC
:1029B00011248F939F93AF93BF938091BA0181119C
:1029C00013C08091C6019091C701A091C801B09138
:1029D000C9014196A11DB11D8093C6019093C70105
:1029E000A093C801B093C901BF91AF919F918F91FE
:1029F0000F900FBE0F901F90189582E084BD93E05A
:102A000095BD9AEF97BD80936E0008952FB7F89407
:102A10008091C6019091C701A091C801B091C901F0
:102A20002FBF0895CF92DF92EF92FF920F931F93E3
:102A30002FB7F8944091C6015091C7016091C80129
:102A40007091C9012FBF6A017B01EE24FF248C0124
:102A500030E020E0C016D106E206F30650F0481B35
:102A6000590BCA011F910F91FF90EF90DF90CF900B
:102A7000089541505109F3CF78941F920F920FB6E9
:102A80000F9211248F939F93AF93BF938091C601B0
:102A90009091C701A091C801B091C9010196A11DF3
:102AA000B11D8093C6019093C701A093C801B09354
:102AB000C901BF91AF919F918F910F900FBE0F9061
:102AC0001F90189587E797E7909301088093000877
:102AD00088E19AE00FB6F894A895809360000FBE45
:102AE00090936000FFCF0E942414811102C00E94C5
:102AF0000A140E942F148093B9010E94371490E0A9
:102B00009093CB018093CA010E943314682F70E028
:102B100090E080E00C94D6108091C3010895089550
:102B20000F931F93CF93DF9300D01F92CDB7DEB7E3
:102B30008C010E94A517823011F0843021F583E0CA
:102B400089831B830A8382E08093E9008FEF909151
:102B5000E800815095FD06C095ED9A95F1F70000CB
:102B60008111F5CF8091E80085FF0DC050E040E075
:102B700063E070E0CE0101960E94C2178091E800E8
:102B80008E778093E8000F900F900F90DF91CF9198
:102B90001F910F910895CF93DF9300D01F92CDB76F
:102BA000DEB72091D001243029F522E02983805816
:102BB00091099B838A832093E9008FEF9091E8002D
:102BC000815095FD06C095ED9A95F1F700008111B1
:102BD000F5CF8091E80085FF0DC050E040E063E054
:102BE00070E0CE0101960E94C2178091E8008E77B6
:102BF0008093E8000F900F900F90DF91CF91089590
:102C0000CF93DF93EC010E94A517823011F084303E
:102C100039F581E08093E9008FEF9091E8008150D1
:102C200095FD06C095ED9A95F1F700008111F5CF5D
:102C30008091E80085FF14C050E040E068E070E05B
:102C4000CE010E94C2178091E8008E778093E80041
:102C500088E0FE01ABEBB1E001900D928A95E1F7BF
:102C6000DF91CF9108958091CF01811109C00E9419
:102C700052190E94AF198091E20084608093E200B3
:102C800008951092CF010895089508950C94CC14DE
:102C900042E061EC81E00E94D01842E061EC82E009
:102CA0000C94D0188091D201833009F452C030F4D2
:102CB000813059F1823009F48EC008958A3009F4C8
:102CC0007AC08B3009F460C0893009F041C080912E
:102CD000D1018132E9F58091D5019091D601892BFE
:102CE000B9F58091E800877F8093E8008091E80043
:102CF00082FF2AC08091F1008093C3018091E80097
:102D00008B778093E8000C9404198091D101813A6B
:102D1000F9F48091E800877F8093E8008091D501E5
:102D20009091D601892B61F468E08BEB91E070E023
:102D30000E9411188091E8008B778093E800089535
:102D400060E090E080E0F3CF8091D0018111CECFA0
:102D500008958091D101813AD9F78091D501909160
:102D6000D601892BA9F78091E800877F8093E8003E
:102D70008091E80080FFFCCF80910C018093F100EE
:102D80008091E8008E77BDCF8091D101813201F72B
:102D90008091D5019091D601892BD1F68091E800E0
:102DA000877F8093E8000E9404198091D30180936B
:102DB0000C010C94E70C8091D101813249F680918D
:102DC000E800877F8093E8000E9404198091D40175
:102DD0008093C40108958091D101813A09F0B8CF60
:102DE0008091E800877F8093E8008091E80080FF71
:102DF000FCCF8091C401C2CF84B7877F84BF0FB658
:102E0000F894A8958091600088618093600010928A
:102E100060000FBE80E880936100109261000E9404
:102E200070080E9452190E94AF198091E2008460DC
:102E30008093E20078940E94381C0E94740882E01B
:102E400091E00E9427088091D001853019F00E94FE
:102E50008008F9CF0E9485148091CE01882399F3D0
:102E60000E94B414882379F30E94AC17ECCF0C9421
:102E70003917292F33272330310571F158F42130C8
:102E80003105E9F02230310511F190E080E030E0C9
:102E900020E019C021323105C1F122323105A9F7F4
:102EA00080E490E021E533E06115710561F086E38F
:102EB00090E02BE133E06130710529F0E6CF82E14B
:102EC00090E029E033E0FA013183208308958BE319
:102ED00090E02EEC32E0F7CF99278130910579F020
:102EE00040F08230910571F0039779F6E0EAF2E064
:102EF00002C0EAECF2E0849190E09F01E4CFE8EBBD
:102F0000F2E0F9CFE6EAF2E0F6CF89E090E020EED9
:102F100032E061157105B9F289E090E029EF32E005
:102F20006130710581F2B1CF0895CF93C82F0E940F
:102F30009417C093C501CF9108958091D00184303A
:102F400011F081E0089582E008958091C50181111A
:102F500002C00C949D17089580E189BD82E189BD6E
:102F600009B400FEFDCF8091D8008F7D8093D800FA
:102F70008091E00082608093E0008091E00081FD1C
:102F8000FCCF0895AF92BF92CF92DF92FF920F9342
:102F90001F93CF93DF936C01EB018A010E942319E9
:102FA000F82E811123C00115110539F0F801808137
:102FB0009181C81BD90BC80ED91EB12CA12C20970A
:102FC000A9F08091E80085FD22C08091E8008E770D
:102FD0008093E80001151105A1F0F801808191812D
:102FE000A80EB91EB182A08285E0F82E8F2DDF9148
:102FF000CF911F910F91FF90DF90CF90BF90AF9036
:1030000008950E9423198823D1F2F82EEFCFF601FC
:1030100081916F018093F1002197FFEFAF1ABF0AF2
:10302000CECFFC018091D7019091D80186179707E8
:10303000A0F06115710529F49091E8009E779093B6
:10304000E80090E06115710551F4911108C080917C
:10305000E80082FF35C080E00895BC01F2CF809186
:10306000D0018823C9F18530C9F18091E80083FD42
:1030700031C08091E80082FDEACF8091E80080FFB6
:10308000E1CF2091F3008091F200322F282F6115BB
:10309000710519F02830310558F091E028303105DC
:1030A00009F090E02091E8002E772093E800CACF45
:1030B00081918093F100615071092F5F3F4FE7CFFD
:1030C0008091D001882341F0853041F08091E80063
:1030D00083FFBDCF81E0089582E0089583E00895E5
:1030E000FC018091D7019091D80186179707A0F035
:1030F0006115710529F48091E8008E778093E800CE
:1031000090E06115710551F4911108C08091E800BB
:1031100082FF36C080E00895BC01F2CF8091D001DB
:103120008823D1F18530D1F18091E80083FD32C050
:103130008091E80082FDEACF8091E80080FFE1CF36
:103140002091F3008091F200322F282F6115710534
:1031500019F02830310558F091E02830310509F098
:1031600090E08091E8008E778093E800CACF849148
:103170008093F1003196615071092F5F3F4FE6CF88
:103180008091D001882341F0853041F08091E800A2
:1031900083FFBCCF81E0089582E0089583E0089525
:1031A000982F973028F08F708093E90081E0089580
:1031B0009093E900242F762F50E0981731F070910A
:1031C000EC002091ED005091F00021FD02C09F5FC6
:1031D000E8CF3091EB003E7F3093EB003091ED0073
:1031E0003D7F3093ED003091EB0031603093EB0088
:1031F0007093EC002093ED005093F0002091EE00CE
:1032000027FDE5CF80E008958091D10187FF13C0AD
:103210008091E80082FF06C08091E8008B77809360
:10322000E80004C08091D0018111F2CF089580910F
:10323000D0018823D9F38091E80080FFF8CF8091F6
:10324000E8008E77ECCF2091E4003091E50085E630
:103250009091EC0090FF06C09091E80090FF06C0AE
:1032600080E008959091E80092FDFACF9091D0010E
:10327000992391F0953091F09091EB0095FD10C05D
:103280004091E4005091E5002417350709F381507F
:103290009A01F1F684E0089582E0089583E00895AC
:1032A00081E008950E94C0190E94C819E0EEF0E084
:1032B000808181608083E8EDF0E080818F7780837A
:1032C00019BCA7EDB0E08C918E7F8C9380818F7EAE
:1032D00080831092CF0108950F931F93CF93DF93B4
:1032E0000E94C0190E94C819C8EDD0E088818F776C
:1032F000888388818068888388818F7D888319BCD2
:103300001092D0011092CC011092CE011092CD01FA
:1033100000EE10E0F80180818B7F808388818160DE
:10332000888342E060E080E00E94D018E1EEF0E0A7
:1033300080818E7F8083E2EEF0E0808181608083F7
:10334000808188608083F80180818E7F808388817E
:1033500080618883DF91CF911F910F910895E8EDEF
:10336000F0E080818F7E8083E7EDF0E080818160F6
:10337000808384E082BF81E08093CF010C946C193C
:10338000E8EDF0E080818E7F80831092E200089566
:103390001092DA001092E10008951F920F920FB67A
:1033A0000F9211242F933F934F935F936F937F93CB
:1033B0008F939F93AF93BF93EF93FF938091E1001F
:1033C00082FF0BC08091E20082FF07C08091E10084
:1033D0008B7F8093E1000E94371C8091DA0080FF90
:1033E00019C08091D80080FF15C08091DA008E7FCF
:1033F0008093DA008091D90080FF94C080E189BD7C
:1034000082E189BD09B400FEFDCF81E08093D00147
:103410000E9433168091E10080FF19C08091E20084
:1034200080FF15C08091E2008E7F8093E200809142
:10343000E20080618093E2008091D80080628093F6
:10344000D80019BC85E08093D0010E944516809178
:10345000E10084FF29C08091E20084FF25C080E163
:1034600089BD82E189BD09B400FEFDCF8091D800FD
:103470008F7D8093D8008091E1008F7E8093E10062
:103480008091E2008F7E8093E2008091E200816073
:103490008093E2008091CC01882309F449C084E044
:1034A0008093D0010E9446168091E10083FF29C0DD
:1034B0008091E20083FF25C08091E100877F8093A7
:1034C000E10082E08093D0011092CC018091E10074
:1034D0008E7F8093E1008091E2008E7F8093E200F6
:1034E0008091E20080618093E20042E060E080E051
:1034F0000E94D0188091F00088608093F0000E94B4
:103500004416FF91EF91BF91AF919F918F917F9161
:103510006F915F914F913F912F910F900FBE0F9040
:103520001F90189519BC1092D0010E94411672CFBD
:103530008091E30087FD02C081E0B2CF83E0B0CF8D
:103540001F920F920FB60F9211242F933F934F9318
:103550005F936F937F938F939F93AF93BF93CF931B
:10356000EF93FF93C091E900CF708091EC0010922F
:10357000E9008091F000877F8093F00078940E94AA
:10358000DC1A1092E9008091F00088608093F000CE
:10359000C093E900FF91EF91CF91BF91AF919F91BF
:1035A0008F917F916F915F914F913F912F910F90EC
:1035B0000FBE0F901F9018951F93CF93DF93CDB739
:1035C000DEB7AA970FB6F894DEBF0FBECDBFE1ED10
:1035D000F1E08091F100819321E0E93DF207C9F724
:1035E0000E9452168091E80083FF44C08091D1016F
:1035F0009091D2019A3008F03DC0E92FF0E0ED5FE4
:10360000F44E0C94541C0D1B331B3A1B331B3A1BFA
:10361000911BB31B3A1B0A1C171C803889F0823897
:1036200049F58091D5018F70873020F58093E900AE
:103630008091EB0085FB882780F91092E90006C095
:103640008091CD019091CE01911182609091E8001E
:10365000977F9093E8008093F1001092F1008091A1
:10366000E8008E772DC0282F2D7F21F48823D1F0FC
:10367000823059F18091E80083FF0AC08091E80010
:10368000877F8093E8008091EB0080628093EB005D
:10369000AA960FB6F894DEBF0FBECDBFDF91CF91D3
:1036A0001F9108958091D301813021F7933009F063
:1036B00080E08093CE011092E9008091E800877F3E
:1036C0008093E8000E940419D5CF8091D301811125
:1036D000F2CF8091D5018F702FEF280F263050F652
:1036E0008093E9002091EB0020FFE5CF933031F487
:1036F0008091EB0080628093EB00DDCF9091EB0036
:1037000090619093EB0021E030E001C0220F8A9598
:10371000EAF72093EA001092EA008091EB008860BB
:10372000EACF8111A7CF1091D3011F778091E300D9
:103730008078812B8093E3008091E800877F8093DD
:10374000E8000E9404198091E80080FFFCCF80917E
:10375000E30080688093E30083E0111101C082E000
:103760008093D00187CF8058823008F083CF80913A
:10377000D3019091D4018C3D23E09207A1F583E021
:103780008A838AE289834FB7F894DE01139620E09A
:103790003EE051E2E32FF0E050935700E49120FF28
:1037A00003C0E295EF703F5FEF708E2F90E0EA303C
:1037B000C0F0C7968D939D932F5F243159F74FBF6B
:1037C0008091E800877F8093E8006AE270E0CE0194
:1037D00001960E9411188091E8008B778093E80091
:1037E00049CFC096E7CF6091D5017091D601AE0167
:1037F0004F5F5F4F0E943717BC01892B09F43ACF06
:103800009091E800977F9093E80089819A810E94C7
:103810007018E1CF803809F02DCF8091E800877FC4
:103820008093E8008091CC018093F10018CF811142
:1038300021CF9091D301923008F01CCF8091E80005
:10384000877F8093E8009093CC010E9404198091B7
:10385000CC01882331F084E08093D0010E94481687
:1038600009CF8091E30087FDF6CF81E0F5CF089581
:10387000CF938091D001882399F0C091E900CF7057
:103880008091EC0080FD0EC080E0C82B1092E90012
:103890008091E80083FD0E94DC1ACF70C093E9009C
:1038A000CF91089580E8F1CFEE0FFF1F0590F491BE
:1038B000E02D0994F999FECF92BD81BDF89A992720
:1038C00080B50895A8E1B0E042E050E00C94821C7D
:1038D000262FF999FECF92BD81BDF89A019700B4C9
:1038E000021639F01FBA20BD0FB6F894FA9AF99A69
:1038F0000FBE08950196272F0E94691C0C94681C26
:10390000DC01CB01FC01F999FECF06C0F2BDE1BD9F
:10391000F89A319600B40D9241505040B8F708958E
:04392000F894FFCF49
:0E392400AE018C1500168F15CB159015010005
:00000001FF
