:100000000C94F2010C9439020C9439020C943902CC
:100010000C9439020C9439020C9439020C94390274
:100020000C9439020C9439020C945D190C942D1A1D
:100030000C943D140C9439020C9439020C9439023E
:100040000C9439020C9439020C9439020C94390244
:100050000C9439020C94A5140C9439020C943902B6
:100060000C9439020C9439020C9439020C94390224
:100070000C9439020C9439020C9439020C94390214
:100080000C9439020C9439020C9439020C94390204
:100090000C9439020C9439020C9439020C943902F4
:1000A0000C9439020C9439020C94390214001A0091
:1000B0000800150017001C0018000C0012001300A7
:1000C00004001600070009000A000B000D000E00D6
:1000D0000F0033001D001B00060019000500110071
:1000E00010003600370034000000E300E000035148
:1000F0002B62E5000351E400E700000000008B00E4
:10010000E20002512A002C000251E6008A000000A1
:100110001400070015001A0005000D000900180062
:1001200013003300040016000B0017000A001C0027
:100130001100080012000C001D001B00100006003A
:1001400019000E000F0036003700340000000100D7
:100150000100010001000100010001000100000098
:100160000000010001000100010001000100010088
:1001700001000000290001005200010001001F02DF
:1001800020022102220235022B00500051004F00B4
:10019000010023022402310235002D023100270222
:1001A00030023000370236022F002F0226023800BC
:1001B0000000010001000451010001000451010090
:1001C0000100000000000100010001004C002800B7
:1001D0000100010001000000010001000100010018
:1001E000530054005F0060006100620001000100E4
:1001F00001000100010055005C005D005E00570039
:1002000001000100010001000100560059005A00E0
:100210005B00670000000100010001000100010017
:100220000100010001000000000001000100045174
:10023000010058000451010001000000010001000C
:100240004B000100A900680040004100420043004B
:1002500001004A004E004D00AA0069003D003E002A
:100260003F0044000153AC00AE00AB00A8006A00A0
:100270003A003B003C004500000001000100010085
:100280000100010001000100010000000000010068
:100290000100010001000100010001000100000057
:1002A00004033000000010034D00690074006F006B
:1002B0007300690073000000100355006E006B00AE
:1002C0006E006F0077006E0000000403090409024D
:1002D0005400030100A0FA09040000010301010019
:1002E0000921110100012240000705810308000ACD
:1002F000090401000103000000092111010001228D
:1003000036000705820308000A0904020001030001
:100310000000092111010001223900070583032093
:1003200000011201100100000008EDFE60600100F4
:100330000102030105010906A101050719E029E7EA
:100340001500250195087501810205081901290587
:100350009505750191029501750391010507190035
:1003600029F71500250195F875018102C0050109DD
:1003700080A10185021601002603001A81002A834C
:1003800000751095018100C0050C0901A1018503CC
:10039000160100269C021A01002A9C027510950184
:1003A0008100C005010906A101050719E029E7152B
:1003B00000250195087501810295017508810105E7
:1003C000081901290595057501910295017503919B
:1003D000010507190029FF150026FF00950675087D
:1003E0008100C00011241FBECFEFDAE0DEBFCDBF19
:1003F00004B603FE27C08091130290911402A091CD
:100400001502B09116028730904BA740B04BD1F443
:1004100010921302109214021092150210921602FA
:1004200014BE84B7877F84BF0FB6F894A8958091D7
:100430006000886180936000109260000FBEE0E071
:10044000F8E3099511E0A0E0B1E0EEE3F8E302C0C3
:1004500005900D92AC31B107D9F722E0ACE1B1E0E3
:1004600001C01D92A331B207E1F70E948D160C94D2
:100470001D1C0C94000008950C94E604EF92FF926A
:100480001F93CF93DF93CDB7DEB72B970FB6F894BA
:10049000DEBF0FBECDBF81E08093CC001092CD00B7
:1004A00088E18093C90086E08093CA0083E7809347
:1004B000CE00CE0101967C018BE0D7011D928A957A
:1004C000E9F7D7019E01245F3F4FC70140E050E0AC
:1004D000BA011091C80017FD0AC04F5F5F4F6F4F00
:1004E0007F4F4131E7E25E076105710590F310919E
:1004F000CE00FC011193CF01E217F30751F78B8572
:10050000803EB1F42CE131E0B701665F7F4F119678
:100510008C911197F0E28F9FC00111244C91842B94
:10052000F901819391939F0112966A177B0779F7DE
:100530000E94E80481E02B960FB6F894DEBF0FBE50
:10054000CDBFDF91CF911F91FF90EF900895E82FDD
:10055000F0E0EE0FFF1FE45EFE4F80819181089571
:10056000089581E08093CC001092CD0088E18093C3
:10057000C90086E08093CA000895519A599A80B3C1
:10058000806380BB81B3806381BB08950E943B027E
:100590000E94B1020C94BD020C9403030895EF92E3
:1005A000FF920F931F93CF93DF937B0186339105C7
:1005B00039F006E211E0DEE1C79729F0C1E012C090
:1005C00007E211E0D8E30E94B612F701C281CC2302
:1005D00089F0827239F081E0F80180838D2F0E94CA
:1005E000F408C0E08C2FDF91CF911F910F91FF9005
:1005F000EF900895F8018081882301F310828D2FF8
:100600000E94A709EFCF4091AA015091AB016091E0
:10061000AC017091AD0131B3DB01CA01880F991FA4
:10062000AA1FBB1F842B952BA62BB72BE3E0440FEF
:10063000551F661F771FEA95D1F740725527662729
:100640007727842B952BA62BB72B80959095A0957B
:10065000B095282F2F6C23238073822B81BB2BB165
:100660008091AA018095982F9D6F92238270892B8B
:100670008BB9089581E008950C94CF020E94630C19
:100680002FE78AE196E0215080409040E1F700C0DA
:10069000000087E797E790930108809300080C9487
:1006A000CB14FF920F931F93CF93DF938C01FC0128
:1006B000C081D18180914E01811140C08281882307
:1006C000C1F1CE010E94AA11F82E682FCE010E941E
:1006D0005011BE018F2D0E94F004EC01B8010E9460
:1006E0003C03882309F45EC0B801CE010E94540780
:1006F000882309F457C0C531FCE5DF0709F446C17A
:1007000010F5C130ECE5DE0709F453C008F063C012
:10071000C115DC4509F441C081E080932D0180932F
:100720002E01C801DF91CF911F910F91FF900C9482
:100730003A03CE010E947F11F82ECBCFCE010E944A
:10074000AA11BE01C8CFC63DECE5DE0709F403C11E
:10075000B8F4C43D8CE5D80709F4C1C0C53DDC45FB
:10076000D9F6F8018281882309F4E0C010922E01A5
:100770000E946F1490932C0180932B0180E2BCC0E7
:10078000C93DFCE5DF07F9F0CA3DDC4529F6F80173
:100790008281882339F082E01BC0F80182818111B7
:1007A0000E943E0380E0DF91CF911F910F91FF9057
:1007B0000895F80182818823A9F38091DB0181608B
:1007C0008093DB01EFCFF8018281882359F380E029
:1007D0000E942617E7CFF8018281882309F4A1CF70
:1007E0000E945313811102C00E9439130E946613A4
:1007F00090E09093050280930402FE01E350FC45D3
:10080000809104028160E231F105C8F4E65FFB4F9C
:100810000C94E11B1C0428042C0430043404380418
:100820003C044004440448044C0450045404580458
:100830005C04600464046804809104028260809314
:100840000402809104020E946A130E94630CAACFE2
:10085000809104028460F3CF809104028860EFCF1E
:10086000809104028061EBCF809104028062E7CF27
:10087000809104028064E3CF809104028068DFCF1E
:10088000809104028460EACF809104028E7FD7CFEA
:10089000809104028D7FD3CF809104028B7FCFCFD4
:1008A00080910402877FCBCF809104028F7EC7CFD7
:1008B000809104028F7DC3CF809104028F7BBFCFD4
:1008C000809104028F77BBCF809104028B7FEACFA7
:1008D00090910402892F97FB87F98058B0CFF801D7
:1008E0008281882361F010922D010E946F149093F1
:1008F0002A018093290182E00E94CF0953CF809181
:100900002D0181110FC08091290190912A010E942F
:100910007B14883C910530F486E20E94F40886E25C
:100920000E94A70982E00E94D6093CCF80912E0147
:1009300081110FC080912B0190912C010E947B149A
:10094000883C910530F487E20E94F40887E20E9417
:10095000A70980E2E8CFF8018281811107CF809159
:100960002E018111F6CF80912B0190912C010E94D4
:100970007B14883C910568F780E20E94D60988E2E2
:100980000E94F40888E20E94A7090CCF0E94B612C8
:10099000F8019281992381F08A7A91E009F490E03C
:1009A00090932801811106C089E20E941A120E94C8
:1009B000FC12F8CE85E3F9CF80912801811104C0A3
:1009C00089E20E942112F3CF85E3FBCF0C94C6028B
:1009D0000C94CC020C94CE0290E080E0089508952F
:1009E000972F70E02AE0929F600D711D1124FB018A
:1009F00092E3899FE00DF11D1124EE0FFF1FE455D6
:100A0000FF4F859194910895FC01EE0FFF1FE05672
:100A1000FD4F859194910895CF93DF930E94F00448
:100A20000E94B006EC018115904508F043C0C11545
:100A300080E4D80708F00AC1C83ED10528F5C03EB9
:100A4000D10508F09EC0C83AD10580F4C53AD10559
:100A500008F08DC0C130D10509F493C020F0C43036
:100A6000D10508F08EC0D0E0C0E08BC0CD3BD105F1
:100A700008F48BC0CE01805C9109C03CD10598F38D
:100A80000E940405EC017DC0C11520E2D20750F49C
:100A9000C11581E0D80708F074C0C03FD10518F334
:100AA000D0656FC0C11520E3D20708F0C5C0CE01E4
:100AB0009F70E6CFC11585E5D80760F5C11524E51F
:100AC000D20708F0F1C0C11582E5D80750F4C1156E
:100AD00021E5D20708F4BDC0DC2FCC27C16FD06A56
:100AE00050C09C2F969596959E0123703327C11573
:100AF000D34508F0CAC0C1E0D0E002C0CC0FDD1F72
:100B00002A95E2F720E2929FC0011124C82BD92B2D
:100B1000DC6837C0C11529E5D20780F4C11588E526
:100B2000D80708F0C6C0C11526E5D20708F09BCF4C
:100B3000DC2FCC27CC27DF71D06223C0C1158AE51A
:100B4000D80708F4BBC0CE0190568115904208F03A
:100B50008ACF8D2F8F710E943007DD27D06290E001
:100B6000982F882788279F71C82BD92B0AC0C53A90
:100B7000D10509F4B0C0C63AD10509F4AFC0C3E845
:100B8000D0E4CE01DF91CF910895C83AD10509F4A0
:100B9000A8C0C93AD10509F4A7C0CA3AD10509F4D9
:100BA000A6C0CB3AD10509F4A5C0CC3AD10509F4C9
:100BB000A4C0CB3BD10509F4A3C0CC3BD10509F4BB
:100BC000A2C0CD3AD10509F4A1C0C03BD10509F4BA
:100BD000A0C0CE3AD10509F49FC0CF3AD10509F49F
:100BE0009EC0C13BD10509F49DC0C23BD10509F4AB
:100BF0009CC0C33BD10509F49BC0C43BD10509F49B
:100C00009AC0C53BD10509F499C0C63BD10509F48A
:100C100098C0C73BD10509F497C0C83BD10509F47A
:100C200096C0C93BD10509F495C0CA3BD10509F06E
:100C300094C0CAE2D6E4A5CFCE019927D3FF03C062
:100C4000EC01D86C9ECFEC01D06C9BCFDF70D06AEA
:100C500098CFCE01E4E096958795EA95E1F7837009
:100C60009C2F937021E030E002C0220F331F9A9531
:100C7000E2F73C68382BC695C695C37080E2C89FE2
:100C8000E0011124C22BD32B7CCFC1E0D0E002C005
:100C9000CC0FDD1F2A95E2F720E2929FC0011124BC
:100CA000C82BD92BDA686DCFDC2FCC27C46FD06A64
:100CB00068CFDC2FCC27C06FD06A63CFCE0134E081
:100CC000969587953A95E1F78F70CF70C06ED0E01A
:100CD000D06AD82B56CFC1E8D0E453CFC2E8D0E4D5
:100CE00050CFC2EED4E44DCFC9EED4E44ACFCAEE21
:100CF000D4E447CFC5EBD4E444CFC6EBD4E441CF32
:100D0000C3EBD4E43ECFC4EBD4E43BCFC7EBD4E495
:100D100038CFCCECD4E435CFCDECD4E432CFC3E83B
:100D2000D5E42FCFCAE8D5E42CCFC2E9D5E429CF4A
:100D3000C4E9D5E426CFC1E2D6E423CFC3E2D6E4AA
:100D400020CFC4E2D6E41DCFC5E2D6E41ACFC6E276
:100D5000D6E417CFC7E2D6E414CFC0E0D4E411CF75
:100D60008238910549F1B0F48133910509F45CC0F2
:100D700048F48932910509F452C08A32910509F488
:100D800058C008958533910509F444C0893391050D
:100D900099F00895833E910531F138F4803E910534
:100DA00091F0823E9105B1F00895863E910511F1D2
:100DB000873E910541F10895209104022370C9F006
:100DC00080EE90E008952091040220FF12C089E394
:100DD00090E008952091040222FF0BC024FF2EC052
:100DE00090E080E008952091040222FD2AC024FDB5
:100DF000F7CF08952091040223FFFBCF24FDF0CF0D
:100E000087EE90E008952091040223FFF0CF86EE54
:100E100090E008952091040225FD16C008952091C8
:100E2000040225FD14C008952091040226FD12C07D
:100E300008952091040226FD10C0089583EE90E0ED
:100E4000089582EE90E0089589E290E0089585E3A8
:100E500090E008958AE290E0089581E390E0C9CFA0
:100E60009091040292FF06C0282F2871283069F45F
:100E7000877F846093FF06C0282F2871283161F492
:100E8000877E846194FD877E0895282F2471243005
:100E900089F78B7F8860EECF282F2471243191F75A
:100EA0008B7E8861EFCF08950F931F93CF938C01B2
:100EB000FB018281811106C0C1E08C2FCF911F916F
:100EC0000F910895C0913C01C11125C006311C4508
:100ED00099F70E94530781E080933C010E946F14B0
:100EE00090933B0180933A0110922F0110923101AF
:100EF000109230011092330110923201109235019C
:100F0000109234011092370110923601109239017B
:100F100010923801D2CF80913A0190913B010E940A
:100F20007B148C32914040F680912F01E82FF0E045
:100F3000EE0FFF1FE05DFE4F118300838F5F8093F4
:100F40002F01C0E0BACF90934201809341010895F0
:100F5000E0914101F0914201309721F00190F08140
:100F6000E02D099480E00895E0914101F091420163
:100F7000309721F00280F381E02D099408952091AB
:100F80003F01309140012817390771F090934001DB
:100F900080933F01E0914101F0914201309721F0AF
:100FA0000680F781E02D0994089520913D0130914C
:100FB0003E012817390771F090933E0180933D015F
:100FC000E0914101F0914201309721F00084F185D8
:100FD000E02D0994089508950C94EB0781E008959D
:100FE0000E94661485B7806885BF85B7806885BF15
:100FF0000E943C020C94DC145F926F927F928F925D
:101000009F92AF92BF92CF92DF92EF92FF920F9397
:101010001F93CF93DF93CDB7DEB72A970FB6F8941F
:10102000DEBF0FBECDBF0E943E020E94EE078823A6
:1010300009F478C094E4A92E91E0B92E10E000E004
:1010400088248394912C502E802F0E94A7027C012B
:10105000F501C190D1905F01C816D90609F45CC0B2
:101060008091DB0181FD0E94B00290E080E0CE24FF
:10107000DF243401082E02C0660C771C0A94E2F7C4
:10108000960126213721232B09F441C08E835F82EC
:10109000E620F72081E0EF2809F480E088870E94AD
:1010A0006F148160782F9A8789874E815F81688568
:1010B0008A850E94B908000F111FF801EC5BFE4FF2
:1010C0008081918168267926718260820E94A807BA
:1010D000909143018917B9F10E94A80780934301B9
:1010E0002A960FB6F894DEBF0FBECDBFDF91CF9129
:1010F0001F910F91FF90EF90DF90CF90BF90AF9036
:101100009F908F907F906F905F900C94EA0401966F
:101110008A30910509F0ADCF0F5F1F4F05301105E3
:1011200009F091CF8FEF89838A831B820E946F140D
:101130008160782F9D838C8349815A816B818D8159
:101140000E94B908C3CF2A960FB6F894DEBF0FBE2F
:10115000CDBFDF91CF911F910F91FF90EF90DF9066
:10116000CF90BF90AF909F908F907F906F905F9047
:101170000895CF93DF93CDB7DEB72B970FB6F894D2
:10118000DEBF0FBECDBF4F83588769877A878B87B5
:101190001E821D8285E0FE013796DE0111960190C8
:1011A0000D928A95E1F70E945B12882319F082E084
:1011B0000E9495120E942E1281110E94F5124981FF
:1011C0005A816B817C818D819E812B960FB6F8941C
:1011D000DEBF0FBECDBFDF91CF910C94230FFC017A
:1011E000808191810C94EC11882309F4AFC09CEFAD
:1011F000980F913A20F40E941A120C94FC1290E27B
:10120000980F983050F4877091E001C0990F8A953B
:10121000EAF7892F0E94B912F0CF9BE5980F93301F
:1012200070F4853A31F0863A39F083E890E00C9416
:10123000BF0781E890E0FBCF82E890E0F8CF98E527
:10124000980F953108F082C0883A09F440C0893A75
:1012500009F440C08A3A09F440C08B3A09F440C00E
:101260008C3A09F440C08B3B09F440C08C3B09F434
:1012700040C08D3A09F440C0803B09F440C08E3A2A
:1012800009F440C08F3A09F440C0813B09F440C0E2
:10129000823B09F440C0833B09F440C0843B09F41D
:1012A00040C0853B09F440C0863B09F440C0873B01
:1012B00009F440C0883B09F440C0893B09F440C0B0
:1012C0008A3B09F440C090E080E00C94D50782EEA0
:1012D00090E0FBCF89EE90E0F8CF8AEE90E0F5CF7A
:1012E00085EB90E0F2CF86EB90E0EFCF83EB90E0E0
:1012F000ECCF84EB90E0E9CF87EB90E0E6CF8CEC8D
:1013000090E0E3CF8DEC90E0E0CF83E891E0DDCF9B
:101310008AE891E0DACF82E991E0D7CF84E991E0E1
:10132000D4CF81E292E0D1CF83E292E0CECF84E2CB
:1013300092E0CBCF85E292E0C8CF86E292E0C5CFC3
:1013400087E292E0C2CF8AE292E0BFCF089588237D
:1013500029F19CEF980F913A20F40E9421120C94ED
:10136000FC1290E2980F983050F4877091E001C021
:10137000990F8A95EAF7892F0E94BF12F0CF9BE55B
:10138000980F933020F490E080E00C94BF07885AC7
:10139000853120F490E080E00C94D50708958823EF
:1013A00021F00E94B9120C94FC120895882321F0B8
:1013B0000E94BF120C94FC1208958F929F92AF92DC
:1013C000BF92DF92EF92FF920F931F93CF93DF9321
:1013D0007C01D62FC72FFC01058102950F70128169
:1013E00011110E94D8120E94AF12D82E882371F0DA
:1013F000112331F180E28D0F883010F182E00E94DC
:1014000095120E94AF1291E0D82ED926BC2EB2942C
:101410009FE0B922EB2DF0E0E05FF54F0C94E11B6B
:10142000220A220A720A720AB90AC00AC00AC00A4B
:10143000E10AC00A7C0B7C0B060CC00AC00A0F0C28
:10144000D12CE4CF0C2F0F70C07F11F00295007FDC
:101450001123A9F0002359F080E28D0F883010F09D
:10146000D11109C0802F0E94B9120E94FC128D2F49
:101470000E94F40814C0802F0E94CA12F6CF8D2F4C
:101480000E94A709002359F080E28D0F883010F0E8
:10149000D11124C0802F0E94BF120E94FC12DD20B7
:1014A00009F4C4C10E94571280FDC0C1F701128225
:1014B0000E9451120E94B410C7010E94220C0E9487
:1014C0005112DF91CF911F910F91FF90EF90DF901C
:1014D000BF90AF909F908F900C94D510802F0E945A
:1014E000D012DBCFFC2FFF70BF2EC07FC03219F0AF
:1014F000B29480EFB822DD2369F0D13049F1112395
:1015000091F1002351F1F701858180FFB0CF8F70F9
:10151000858323C0112381F0011106C00E94361378
:101520008B290E94CF09BBCF0130C1F70E9436132F
:101530008B290E94EC12B3CF011106C00E94F51254
:101540008B2D0E94D609ABCF013009F4A8CFF6CF7E
:10155000112329F0063008F0A2CF8B2DE2CF053001
:1015600008F09DCFEDCF002359F38D2F0E94A709DE
:1015700096CF8C2F86958695837079F08130B9F05F
:1015800098E0B91609F459C0B91608F488CF86EF67
:101590008B0D823008F451C082CF8D2F9C2F937019
:1015A000111102C090E080E00E94BF0778CF8D2F1C
:1015B0009C2F9370111102C090E080E00E94D5072B
:1015C0006ECF8C2F837009F04BC0111136C02D2FB8
:1015D000229526952770220F220F6D2F6F70862E71
:1015E000912CB12CA12C022E04C0880C991CAA1C91
:1015F000BB1C0A94D2F760E070E0CB01D4FF0FC0AF
:101600006FE070E080E090E004C0660F771F881FF5
:10161000991F2A95D2F76095709580959095C695FB
:10162000C695C370C23071F0A0F4682979298A295F
:101630009B29C13091F00E9466100E94A8070E9469
:10164000EA042DCF682979298A299B290E947810DC
:10165000F4CF0E946610C501B4010E945410EDCF72
:101660008695112311F08C2F8170882331F32D2F53
:10167000229526952770220F220F6D2F6F70862ED0
:10168000912CB12CA12C022E04C0880C991CAA1CF0
:10169000BB1C0A94D2F760E070E0CB01D4FF0FC00E
:1016A0006FE070E080E090E004C0660F771F881F55
:1016B000991F2A95D2F76095709580959095C6955B
:1016C000C695C370C23051F080F4682979298A29FF
:1016D0009B29C13071F00E942B11AFCF6829792965
:1016E0008A299B290E943D11A8CF0E942B11C50178
:1016F000B4010E941911A1CFE0E2ED0FE53108F02D
:1017000066C0F0E0EA57F44F0C94E11B9B0B9B0B77
:101710009B0B9B0B9B0B9B0B9B0B9B0B9B0B9B0B99
:101720009B0B9B0B9B0B9B0B9B0B9B0BAC0BBA0B59
:10173000C10BC80BD20BDF708C2F8F71112331F0CE
:101740000E94B4108D2F0E94CF091ACF0E94D5108D
:101750008D2F0E94D60914CF112341F0053008F0D7
:101760000FCF8C2F8F710E94F8100ACF063008F02F
:1017700007CFF7CF8C2F8F71112339F00E94B4104F
:10178000FFCE8C2F8F711123C9F30E94D510F8CE94
:10179000112329F08C2F8F710E949F10F1CE0E948F
:1017A0009A10EECE112349F0CF718C2F0E94B41005
:1017B00063E08C2F0E948512E3CE81E00E94951297
:1017C000023008F4DDCE82E00E949512D9CE1123BA
:1017D00049F0002321F08D2F0E94F408D1CE8C2FE8
:1017E0008F71CCCF002379F0D93349F4FFEF23EF89
:1017F00081E0F15020408040E1F700C000008D2FD3
:101800000E94A709BDCE8C2F8F71BFCF4C2F4F7078
:101810006D2FC7010E94EC040E94CC0F40CE4C2FCC
:101820004F706D2FC7010E94EF0439CEDF91CF9129
:101830001F910F91FF90EF90DF90BF90AF909F901E
:101840008F9008950F931F93CF93DF93EC019881AE
:1018500089812B813C81232B39F08F3F19F481E062
:101860009F3F19F080E001C081E080FD17C0CE01EC
:101870000E945103882391F0688179818A810E94B6
:10188000F6118C010E944F110E945110B801CE0137
:10189000DF91CF911F910F910C94DD09DF91CF91D2
:1018A0001F910F9108950E94D8120E94E9120E9480
:1018B00028120E94FC1290E080E00E94BF0790E096
:1018C00080E00C94D5070E94C7120C94530C0E9420
:1018D000EC11E92FE295EF70E250EE30E0F4F0E029
:1018E000EC58F34F0C94E11B820C820C8B0C8B0C8C
:1018F0008D0C8B0C8B0C8B0C820C820C920C8B0C39
:101900008B0C920C803F19F020F4803E20F481E093
:101910000895843FE1F380E00895803EC0F3813F65
:10192000D1F7F5CF93FB882780F90895CF93DF9304
:1019300000D000D01F92CDB7DEB70F900F900F9060
:101940000F900F90DF91CF910895CF93DF9300D048
:1019500000D000D0CDB7DEB726960FB6F894DEBF24
:101960000FBECDBFDF91CF9108951F93CF93DF932B
:10197000C0914F0116E0809150018C1304C0DF919B
:10198000CF911F910895D0E01C9FF0011D9FF00D95
:101990001124EF5AFE4F408151816281738184810D
:1019A00095810E94A50C2196C770E5CF40918101D9
:1019B0005091820160918301709184018091850131
:1019C000909186010C94A50C1F93CF93DF93809187
:1019D0008601807FD1F4809183018823B1F08091CA
:1019E0004F01D0915001B0918101C091820140918D
:1019F000840150918501A1E0BF3F09F0A0E0BA0148
:101A00006095709516E0D81304C0DF91CF911F91B7
:101A1000089521E04115510521F02A2FCF3F09F00B
:101A200020E090E020FD38C0189FF001199FF00DD4
:101A30001124EF5AFE4F21812C132EC020812B132D
:101A40002BC02281211128C023813481241735071E
:101A500000F1241B350B283C3105F0F42091860160
:101A60002F7020612093860126E0289FF001299F96
:101A7000F00D1124EA5AFE4F80818F7080618083BF
:101A800081E891E00E94220CDF91CF911F910C948C
:101A9000B50C260F371FDFCF01968770B4CFAF92FA
:101AA000BF92CF92DF92EF92FF920F931F93CF934B
:101AB000DF93CDB7DEB761970FB6F894DEBF0FBEE8
:101AC000CDBF8C0185E0F801DE011D9601900D92DD
:101AD0008A95E1F7D8014C9111965C911197129675
:101AE000EC9030918101609182018091840190910C
:101AF000850121E0009731F06F3F19F421E03F3F6D
:101B000009F020E0B22FB170BB2E20FD80C1F8019A
:101B1000C380D480A0908301AA2009F427C1C816ED
:101B2000D906D0F1D601A81BB90BCD01FF24F3943F
:101B3000883C910508F0F12C80918601982F907FC8
:101B4000FF2009F4CEC0911187C0FE2C651329C077
:101B5000341327C0E11025C08F7080618093860107
:101B60000E94D60C81E891E00E94220C80918601AF
:101B7000F80185838F2D61960FB6F894DEBF0FBEF6
:101B8000CDBFDF91CF911F910F91FF90EF90DF902C
:101B9000CF90BF90AF900895809590958C0D9D1D2E
:101BA000C5CF81E0CD2831F05F3F19F481E04F3F90
:101BB00009F080E080FD24C081E08E25F82FF170CF
:101BC000DF2E80FF3FC080914F012091500136E011
:101BD000821318C04D875E878D859E850E94EC110B
:101BE000292F22952F70223008F1243030F59F7074
:101BF00009F1D80115969C91907FE1F4FB2CBACFA6
:101C000080E0DCCF90E0389FF001399FF00D112487
:101C1000EF5AFE4F6181561306C06081461303C020
:101C200062816E110FC001968770D2CF9F7011F044
:101C3000882321F3805E883008F3C8010E94220CBB
:101C4000BD2CDCCFEE2009F495CF80918601816018
:101C500080938601F12C8ECF651314C0341312C00B
:101C6000E11010C0F8018583C8010E94220C86E0B3
:101C7000F801A1E8B1E001900D928A95E1F70E9488
:101C8000D60C78CF4D875E878D859E850E94670C28
:101C9000882319F1EE2009F180918601803270F0DD
:101CA000209181013091820138872F831986DB864C
:101CB000CA868C87CE0107960E94220C86E0F80126
:101CC000A1E8B1E001900D928A95E1F70E94E40C41
:101CD0000E94D60CFF24F3944DCFC8010E94220C21
:101CE000F9CF911113C07C2DD98AC88A6E2D8989AC
:101CF0000E94960C81E891E00E94220C86E0E1E8C7
:101D0000F1E0DF011D928A95E9F7B9CF651312C0A2
:101D1000341310C0E1100EC0F8018583C8010E9481
:101D2000220CE1E8F1E086E0DF011D928A95E9F7F7
:101D3000FA2C20CF4D875E878D859E850E94670C8B
:101D4000882359F2EE2049F280918601803208F40E
:101D5000B5CF20918101309182013A8329831B8282
:101D6000DD82CC828E83CE010196A6CFC816D9061D
:101D700038F1F601E81BF90BCF01F12C883C9105F5
:101D800008F03DC0FE2CEE2009F4A7CF651326C055
:101D9000341324C08091860180FD17C0982F907F56
:101DA000A1F0D80115968C931597903F09F45CCF5C
:101DB000982F907F905F8F70892B15968C9354CFBE
:101DC000809590958C0D9D1DD8CF86E0F801A1E8F7
:101DD000B1E001900D928A95E1F7CCCE4D875E87F8
:101DE0008D859E850E94670C811168CF8091860148
:101DF000816080938601C8010E94220CBBCE7C2D9D
:101E0000D98AC88A6E2D89890E94960C77CFEE20D8
:101E100009F463CF4D875E878D859E850E94670C90
:101E2000F82E882309F459CF86E0F801A1E8B1E043
:101E300001900D928A95E1F781E891E00E94EF0808
:101E40000E94E40C1CCF1F93CF93DF93CDB7DEB776
:101E50002C970FB6F894DEBF0FBECDBF4F835887C7
:101E600069877A878B879C87CE0107960E944F0DE2
:101E7000882309F442C09F8188852A853B85232BCE
:101E800039F08F3F19F481E09F3F19F080E001C0E5
:101E900081E080FD08C04F81588569857A858B85F2
:101EA0009C850E94A50C16E080914F0190915001F5
:101EB000891709F467C0819FC00111248F5A9E4F72
:101EC0000E944F0D882309F45DC0E0914F011E9FD1
:101ED000F0011124EF5AFE4F4081518162817381DC
:101EE000848195810E94A50C80914F0190E001961C
:101EF0008770992780934F01D7CF86E0FE013796F0
:101F0000DE01119601900D928A95E1F79F818885F7
:101F10002A853B85232B39F08F3F19F481E09F3FC1
:101F200019F080E001C081E080FDBDCF209150011B
:101F300030E0C90101968770992740914F014817F9
:101F4000190699F096E0929FD001939FB00D11244D
:101F5000AF5ABE4FFE01319601900D929A95E1F76E
:101F6000809350010E94B50C9ECF0E94630C10928A
:101F7000500110924F0186E0E1E8F1E0DF011D928F
:101F80008A95E9F72C960FB6F894DEBF0FBECDBF49
:101F9000DF91CF911F910895EF92FF920F931F93BE
:101FA000CF93DF938C01892B81F0F12CEE24E39405
:101FB000E8012196F8018491843770F4843008F0A8
:101FC0005FC08130B1F08230A1F1DF91CF911F91DC
:101FD0000F91FF90EF900895853709F44CC008F4F5
:101FE0003DC09CE7980F903780F78F770E94A70934
:101FF00049C00E5F1F4FFE01849190E2980F983008
:1020000060F48770FE2D01C0FF0F8A95EAF78F2FCD
:102010000E94DB120E94FC1202C00E94F4088F2D65
:10202000815030F2EFECF7E03197F1F700C000009B
:10203000F7CF0E5F1F4FFE01849190E2980F98300A
:1020400050F48770FE2D01C0FF0F8A95EAF78F2F9D
:102050000E94E112DFCF0E94A709E1CF0E5F1F4F60
:10206000FE01C491C150D8F28FEC97E00197F1F7CF
:1020700000C00000F7CF0E5F1F4FFE01F490CFCFDE
:102080000E94F4088E01CBCF08950E944410609303
:10209000AE017093AF018093B0019093B1010C94A5
:1020A000530C08950C9445100F931F930091AE01AB
:1020B0001091AF012091B0013091B101602B712BD3
:1020C000822B932B1F910F910C9445100F931F930C
:1020D0000091AE011091AF012091B0013091B1019A
:1020E00060237123822393231F910F910C94451039
:1020F0000F931F930091AE011091AF012091B00199
:102100003091B10160277127822793271F910F918A
:102110000C9445100C9444100C948A100E948C105E
:102120006093AA017093AB018093AC019093AD01D1
:102130000C94530C60E070E0CB010C948E100F9364
:102140001F9341E050E060E070E08A019B0104C011
:10215000000F111F221F331F8A95D2F7C901B80142
:102160001F910F910C948E100F931F9341E050E03C
:1021700060E070E004C0440F551F661F771F8A950A
:10218000D2F78091AA019091AB01A091AC01B091DE
:10219000AD018A019B01082B192B2A2B3B2BC9016E
:1021A000B8011F910F910C948E100F931F9341E073
:1021B00050E060E070E004C0440F551F661F771FB9
:1021C0008A95D2F7CB01BA0160957095809590956C
:1021D0000091AA011091AB012091AC013091AD01A9
:1021E00060237123822393231F910F910C948E10EF
:1021F0000F931F9341E050E060E070E004C0440F93
:10220000551F661F771F8A95D2F78091AA0190917A
:10221000AB01A091AC01B091AD018A019B010827EF
:1022200019272A273B27C901B8011F910F910C9448
:102230008E100F931F930091AA011091AB01209172
:10224000AC013091AD01602B712B822B932B1F9130
:102250000F910C948E100F931F930091AA0110916F
:10226000AB012091AC013091AD0160237123822339
:1022700093231F910F910C948E100F931F93009135
:10228000AA011091AB012091AC013091AD01602702
:102290007127822793271F910F910C948E10089518
:1022A0002AE0929F800D1124982F977071E001C051
:1022B000770F9A95EAF786958695869525E0829F11
:1022C000C001112450E040E0A62FB0E0FC01E40F73
:1022D000F51FE957FE4F60819D01042E02C036951F
:1022E00027950A94E2F72170219526272723262790
:1022F00020834F5F5F4F4530510541F708952AE035
:10230000929F800D1124982F9770869586958695BB
:1023100025E0829FA001112470E060E080E0FA01D6
:10232000E60FF71FE957FE4F208130E0092E02C06B
:10233000369527950A94E2F721703327062E01C0BF
:10234000220F0A94EAF7822B6F5F7F4F6530710589
:1023500031F70895BF92CF92DF92EF92FF920F93E1
:102360001F93CF93DF938C01C090AA01D090AB0153
:10237000E090AC01F090AD018091AE019091AF0181
:10238000A091B001B091B101C82AD92AEA2AFB2A4A
:10239000CFE1D0E0BC2ED701C6010C2E04C0B6950B
:1023A000A795979587950A94D2F780FD0EC021973F
:1023B00088F7B12C8B2DDF91CF911F910F91FF905A
:1023C000EF90DF90CF90BF900895B8018C2F0E94BE
:1023D0000C05019761F3EECFCF93DF93EC010E94E0
:1023E000AA11BE01DF91CF910C940C051F93CF93DE
:1023F000DF93EB0190914E01992331F0CB01DF91F6
:10240000CF911F910C94EC11882379F0CB010E949D
:10241000AA11182F682FCE010E945011BE01812FE2
:10242000DF91CF911F910C940C05CB010E947F117D
:10243000182FF4CF682F80910001909101010C9426
:10244000CC13682F80910001909101010C94D71357
:1024500080910001909101010C94E2130E946F148D
:102460002091B5013091B6018217930778F00E9450
:102470006F142091B5013091B601821B930B9C0122
:1024800081E0243F314008F480E008950E946F14F9
:102490002091B5013091B60120953095280F391F54
:1024A000EFCF8091B40185958595859508958091AC
:1024B000B401877008950E946F142091B201309189
:1024C000B30182179307B0F00E946F142091B201FC
:1024D0003091B301821B930B843F914018F480E04C
:1024E000817008958091B40182FB882780F991E082
:1024F0008927F6CF0E946F142091B2013091B30169
:1025000020953095820F931FE7CF98E0899F900127
:102510001124622B6093B4010E94B4100E946F14C6
:102520009093B3018093B20108959091B401809586
:1025300089238093B401282F277081F4282F082E37
:10254000000C330B9217130649F0859585958595F8
:102550000E94D5101092B3011092B201089590918B
:10256000B401977081E009F480E008958091DA0168
:1025700008959091DA01892B8093DA010895982FBC
:1025800090958091DA0189238093DA010895109261
:10259000DA0108959091D901892B8093D90108958A
:1025A000982F90958091D90189238093D90108951E
:1025B0001092D90108959091D801892B8093D80168
:1025C0000895982F90958091D80189238093D80100
:1025D00008951092D80108958093B7010E946F1456
:1025E0009093B6018093B50108951092B7011092AF
:1025F000B6011092B5010895E0910001F09101013A
:102600008091DA018083E0910001F09101018081E5
:102610009091D901892B8083E0910001F091010113
:1026200080819091D801892B80838091B701882384
:10263000B9F00E942E1281110E94F512E091000162
:10264000F091010180819091B701892B8083809165
:102650000001909101010E946F1381110E94F512F7
:1026600080910001909101010C94B4078091B70111
:1026700008956DEE7EEF90E080E00E94071C60E020
:1026800082E090E00E94F51B60E083E090E00E9411
:10269000F51B60E084E090E00E94F51B60E085E0BF
:1026A00090E00C94F51B90E080E00E94EF1B21E08D
:1026B0008D3E9E4F09F020E0822F089582E090E049
:1026C0000C94E71B83E090E00C94E71B84E090E01F
:1026D0000C94E71B682F84E090E00C94F51BFC0140
:1026E00031969C01205E3F4F80E0919191118F5F68
:1026F000E217F307D1F708959C01FC0132969FEF92
:1027000080E04191461751F09F3F19F4411101C0FB
:10271000982F8F5F8E31A9F79F3F09F40895290FF5
:10272000311D97FD3A95F90162830895FC013296B7
:1027300080962191261303C0DF0111971C92E817A0
:10274000F907B9F70895E62FE695E695E695EF3196
:1027500069F0E80FF92FF11D677021E030E001C04A
:10276000220F6A95EAF78181822B81830895E62FF3
:10277000E695E695E695EF3171F0E80FF92FF11D3A
:10278000677021E030E001C0220F6A95EAF72095DA
:10279000818128232183089520910C01222329F08F
:1027A0002091040227FD0C94A3130C947C13209118
:1027B0000C01222329F02091040227FD0C94B71369
:1027C0000C949613FC01319680961192E817F90744
:1027D000E1F70895089508950C94EB1380910A028F
:1027E000843049F11092DC0188E190E020E40FB6DA
:1027F000F894A895809360000FBE2093600080E05D
:102800000E94EA040E94EC1383B7817F846083BF37
:1028100083B7816083BF7894889583B78E7F83BFA9
:102820000FB6F894A895809160008861809360004D
:10283000109260000FBE08950895CF930E94EA138E
:102840000E943E020E941C14C0E08C2F0E94A7022E
:10285000892B31F4CF5FC530C1F780E0CF91089567
:1028600081E0FCCF08950C9432140E94630C0E9406
:10287000A8070E94EA040C9433141F920F920FB61B
:102880000F9211248F939F93AF93BF938091DC019C
:10289000811113C08091000290910102A091020267
:1028A000B09103024196A11DB11D80930002909347
:1028B0000102A0930202B0930302BF91AF919F91D6
:1028C0008F910F900FBE0F901F90189582E084BDDE
:1028D00093E095BD9DE797BD80936E0008952FB757
:1028E000F8948091000290910102A0910202B091AF
:1028F00003022FBF0895CF92DF92EF92FF920F93C2
:102900001F932FB7F89440910002509101026091FB
:102910000202709103022FBF6A017B01EE24FF24A3
:102920008C0130E020E0C016D106E206F30650F03C
:10293000481B590BCA011F910F91FF90EF90DF9038
:10294000CF90089541505109F3CF78941F920F9280
:102950000FB60F9211248F939F93AF93BF938091E3
:10296000000290910102A0910202B091030201962F
:10297000A11DB11D8093000290930102A093020259
:10298000B0930302BF91AF919F918F910F900FBEB3
:102990000F901F90189587E797E790930108809311
:1029A000000888E19AE00FB6F894A895809360003B
:1029B0000FBE90936000FFCF0E945313811102C09D
:1029C0000E9439130E945E138093DB010E946613FC
:1029D00090E090930502809304020E946213682F96
:1029E00070E090E080E00C9452108091FD01089519
:1029F00008950F931F93CF93DF9300D01F92CDB70D
:102A0000DEB78C010E943617823011F0843021F538
:102A100083E089831B830A8382E08093E9008FEF40
:102A20009091E800815095FD06C09AE69A95F1F7DD
:102A300000C08111F5CF8091E80085FF0DC050E006
:102A400040E063E070E0CE0101960E945217809151
:102A5000E8008E778093E8000F900F900F90DF9141
:102A6000CF911F910F910895CF93DF9300D01F92C4
:102A7000CDB7DEB720910A02243029F522E0298360
:102A8000805891099B838A832093E9008FEF90916E
:102A9000E800815095FD06C09AE69A95F1F700C0CE
:102AA0008111F5CF8091E80085FF0DC050E040E036
:102AB00063E070E0CE0101960E9452178091E80019
:102AC0008E778093E8000F900F900F90DF91CF9159
:102AD0000895CF93DF93EC010E943617823011F0F6
:102AE0008430F9F480910C018823F1F08091040284
:102AF00087FF1AC083E08093E9008FEF9091E80090
:102B0000815095FD06C09AE09A95F1F700C08111B9
:102B1000F5CF8091E80050E040E060E270E085FD94
:102B20001AC0DF91CF91089581E08093E9008FEF83
:102B30009091E800815095FD06C09AE69A95F1F7CC
:102B400000C08111F5CF8091E80085FFEACF50E009
:102B500040E068E070E0CE010E9452178091E800EA
:102B60008E778093E80080E2FE01ADEDB1E0019048
:102B70000D928A95E1F7D5CF80910902811109C0A4
:102B80000E94E2180E943F198091E20084608093C5
:102B9000E2000895109209020895089508950C9492
:102BA000351442E061EC81E00E94601842E061EC83
:102BB00082E00E94601842E261EC83E00C946018AD
:102BC00080910C02833009F455C030F4813071F1EA
:102BD000823009F491C008958A3009F47DC08B30A9
:102BE00009F463C0893009F044C080910B0281323E
:102BF00009F03FC080910F0290911002009711F0F0
:102C00000297B9F58091E800877F8093E800809172
:102C1000E80082FF2AC08091F1008093FD0180913D
:102C2000E8008B778093E8000C94941880910B0255
:102C3000813AF9F48091E800877F8093E8008091E1
:102C40000F0290911002892B61F460E28DED91E00A
:102C500070E00E94A1178091E8008B778093E800D4
:102C6000089560E090E080E0F3CF80910A02811146
:102C7000CECF089580910B02813AD9F780910F024F
:102C800090911002892BA9F78091E800877F8093AB
:102C9000E8008091E80080FFFCCF80910C018093D8
:102CA000F1008091E8008E77BDCF80910B028132D8
:102CB00001F780910F0290911002892BD1F680913B
:102CC000E800877F8093E8000E94941880910D02AD
:102CD00080930C010C94630C80910B02813249F6B5
:102CE0008091E800877F8093E8000E94941880918B
:102CF0000E028093FE01089580910B02813A09F043
:102D0000B8CF8091E800877F8093E8008091E80049
:102D100080FFFCCF8091FE01C2CF84B7877F84BF44
:102D20000FB6F894A8958091600088618093600048
:102D3000109260000FBE80E88093610010926100E5
:102D40000E94EC070E94E2180E943F198091E20065
:102D500084608093E20078940E94C51B0E94F00773
:102D600082E091E00E94A30780910A02853019F069
:102D70000E94FC07F9CF0E94EE138091080288237D
:102D800099F30E941D14882379F30E943D17ECCF1C
:102D90000C94CA16292F33272330310579F158F4C2
:102DA00021303105F1F02230310519F190E080E059
:102DB00030E020E01AC021323105C9F1223231055C
:102DC000A9F76330710590F7FB01EE0FFF1FE05F7D
:102DD000FE4F20813181635F7E4FFB01808190E057
:102DE00004C082E190E022E233E0FA0131832083E3
:102DF000089584E590E02EEC32E0F7CF99278130FA
:102E0000910579F040F08230910571F0039771F6E9
:102E1000E0EAF2E002C0EAECF2E0849190E09F0187
:102E2000E4CFE8EBF2E0F9CFE6EAF2E0F6CF633088
:102E3000710508F0BBCF660F771FFB01EA5EFE4FFE
:102E40002081318189E090E0D0CF0895CF93C82FC1
:102E50000E942517C093FF01CF91089580910A0227
:102E6000843011F081E0089582E008958091FF019F
:102E7000811102C00C942E17089519BC82E089BDFF
:102E800009B400FEFDCF8091D8008F7D8093D800DB
:102E90008091E00082608093E0008091E00081FDFD
:102EA000FCCF0895AF92BF92CF92DF92FF920F9323
:102EB0001F93CF93DF936C01EB018A010E94B3183B
:102EC000F82E811123C00115110539F0F801808118
:102ED0009181C81BD90BC80ED91EB12CA12C2097EB
:102EE000A9F08091E80085FD22C08091E8008E77EE
:102EF0008093E80001151105A1F0F801808191810E
:102F0000A80EB91EB182A08285E0F82E8F2DDF9128
:102F1000CF911F910F91FF90DF90CF90BF90AF9016
:102F200008950E94B3188823D1F2F82EEFCFF6014E
:102F300081916F018093F1002197FFEFAF1ABF0AD3
:102F4000CECFFC0180911102909112028617970753
:102F5000A0F06115710529F49091E8009E77909397
:102F6000E80090E06115710551F4911108C080915D
:102F7000E80082FF35C080E00895BC01F2CF809167
:102F80000A028823C9F18530C9F18091E80083FDE8
:102F900031C08091E80082FDEACF8091E80080FF97
:102FA000E1CF2091F3008091F200322F282F61159C
:102FB000710519F02830310558F091E028303105BD
:102FC00009F090E02091E8002E772093E800CACF26
:102FD00081918093F100615071092F5F3F4FE7CFDE
:102FE00080910A02882341F0853041F08091E80009
:102FF00083FFBDCF81E0089582E0089583E00895C6
:10300000FC01809111029091120286179707A0F09F
:103010006115710529F48091E8008E778093E800AE
:1030200090E06115710551F4911108C08091E8009C
:1030300082FF36C080E00895BC01F2CF80910A0281
:103040008823D1F18530D1F18091E80083FD32C031
:103050008091E80082FDEACF8091E80080FFE1CF17
:103060002091F3008091F200322F282F6115710515
:1030700019F02830310558F091E02830310509F079
:1030800090E08091E8008E778093E800CACF849129
:103090008093F1003196615071092F5F3F4FE6CF69
:1030A00080910A02882341F0853041F08091E80048
:1030B00083FFBCCF81E0089582E0089583E0089506
:1030C000982F973028F08F708093E90081E0089561
:1030D0009093E900242F762F50E0981731F07091EB
:1030E000EC002091ED005091F00021FD02C09F5FA7
:1030F000E8CF3091EB003E7F3093EB003091ED0054
:103100003D7F3093ED003091EB0031603093EB0068
:103110007093EC002093ED005093F0002091EE00AE
:1031200027FDE5CF80E0089580910B0287FF13C053
:103130008091E80082FF06C08091E8008B77809341
:10314000E80004C080910A028111F2CF08958091B5
:103150000A028823D9F38091E80080FFF8CF80919C
:10316000E8008E77ECCF2091E4003091E50085E611
:103170009091EC0090FF06C09091E80090FF06C08F
:1031800080E008959091E80092FDFACF90910A02B4
:10319000992391F0953091F09091EB0095FD10C03E
:1031A0004091E4005091E5002417350709F3815060
:1031B0009A01F1F684E0089582E0089583E008958D
:1031C00081E008950E9450190E945819E0EEF0E045
:1031D000808181608083E8EDF0E080818F7780835B
:1031E00019BCA7EDB0E08C918E7F8C9380818F7E8F
:1031F00080831092090208950F931F93CF93DF935A
:103200000E9450190E945819C8EDD0E088818F772C
:10321000888388818068888388818F7D888319BCB2
:1032200010920A02109206021092080210920702EF
:1032300000EE10E0F80180818B7F808388818160BF
:10324000888342E060E080E00E946018E1EEF0E0F8
:1032500080818E7F8083E2EEF0E0808181608083D8
:10326000808188608083F80180818E7F808388815F
:1032700080618883DF91CF911F910F910895E8EDD0
:10328000F0E080818F7E8083E7EDF0E080818160D7
:10329000808384E082BF81E0809309020C94FC1853
:1032A000E8EDF0E080818E7F80831092E200089547
:1032B0001092DA001092E10008951F920F920FB65B
:1032C0000F9211242F933F934F935F936F937F93AC
:1032D0008F939F93AF93BF93EF93FF938091E10000
:1032E00082FF0BC08091E20082FF07C08091E10065
:1032F0008B7F8093E1000E94C41B8091DA0080FFE5
:1033000018C08091D80080FF14C08091DA008E7FB1
:103310008093DA008091D90019BC80FF91C082E0CF
:1033200089BD09B400FEFDCF81E080930A020E94AE
:10333000BC158091E10080FF19C08091E20080FF00
:1033400015C08091E2008E7F8093E2008091E200C0
:1033500080618093E2008091D80080628093D800E1
:1033600019BC85E080930A020E94CE158091E1008D
:1033700084FF28C08091E20084FF24C019BC82E051
:1033800089BD09B400FEFDCF8091D8008F7D809368
:10339000D8008091E1008F7E8093E1008091E2006F
:1033A0008F7E8093E2008091E20081608093E20052
:1033B00080910602882309F448C084E080930A02C1
:1033C0000E94CF158091E10083FF29C08091E20027
:1033D00083FF25C08091E100877F8093E10082E038
:1033E00080930A02109206028091E1008E7F809302
:1033F000E1008091E2008E7F8093E2008091E20004
:1034000080618093E20042E060E080E00E9460180A
:103410008091F00088608093F0000E94CD15FF91AC
:10342000EF91BF91AF919F918F917F916F915F913C
:103430004F913F912F910F900FBE0F901F901895B5
:1034400010920A020E94CA1574CF8091E30087FD92
:1034500002C081E0B3CF83E0B1CF1F920F920FB6CD
:103460000F9211242F933F934F935F936F937F930A
:103470008F939F93AF93BF93CF93EF93FF93C0919D
:10348000E900CF708091EC001092E9008091F0008B
:10349000877F8093F00078940E94691A1092E90067
:1034A0008091F00088608093F000C093E900FF9164
:1034B000EF91CF91BF91AF919F918F917F916F913C
:1034C0005F914F913F912F910F900FBE0F901F90E2
:1034D00018951F93CF93DF93CDB7DEB7AA970FB69A
:1034E000F894DEBF0FBECDBFEBE0F2E08091F100BB
:1034F000819322E0E331F207C9F70E94E015809141
:10350000E80083FF44C080910B0290910C029A3036
:1035100008F03DC0E92FF0E0E057F54E0C94E11BB8
:103520009A1AC01AC71AC01AC71A1E1B401BC71AFC
:10353000971BA41B803889F0823849F580910F02CF
:103540008F70873020F58093E9008091EB0085FB38
:10355000882780F91092E90006C0809107029091B7
:103560000802911182609091E800977F9093E800A3
:103570008093F1001092F1008091E8008E772DC0C9
:10358000282F2D7F21F48823D1F0823059F18091AA
:10359000E80083FF0AC08091E800877F8093E800FD
:1035A0008091EB0080628093EB00AA960FB6F894AE
:1035B000DEBF0FBECDBFDF91CF911F9108958091E7
:1035C0000D02813021F7933009F080E080930802EA
:1035D0001092E9008091E800877F8093E8000E94C4
:1035E0009418D5CF80910D028111F2CF80910F02F6
:1035F0008F702FEF280F263050F68093E90020912E
:10360000EB0020FFE5CF933031F48091EB00806236
:103610008093EB00DDCF9091EB0090619093EB00F5
:1036200021E030E001C0220F8A95EAF72093EA00FA
:103630001092EA008091EB008860EACF8111A7CF59
:1036400010910D021F778091E3008078812B809389
:10365000E3008091E800877F8093E8000E9494183F
:103660008091E80080FFFCCF8091E3008068809328
:10367000E30083E0111101C082E080930A0287CF4A
:103680008058823008F083CF80910D0290910E0215
:103690008C3D23E09207A1F583E08A838AE2898347
:1036A0004FB7F894DE01139620E03EE051E2E32F9D
:1036B000F0E050935700E49120FF03C0E295EF70D3
:1036C0003F5FEF708E2F90E0EA30C0F0C7968D9389
:1036D0009D932F5F243159F74FBF8091E800877F7A
:1036E0008093E8006AE270E0CE0101960E94A11783
:1036F0008091E8008B778093E80049CFC096E7CFB0
:1037000060910F0270911002AE014F5F5F4F0E94F7
:10371000C816BC01892B09F43ACF9091E800977F35
:103720009093E80089819A810E940018E1CF803847
:1037300009F02DCF8091E800877F8093E800809189
:1037400006028093F10018CF811121CF90910D02D4
:10375000923008F01CCF8091E800877F8093E800CA
:10376000909306020E94941880910602882331F0FB
:1037700084E080930A020E94D11509CF8091E30072
:1037800087FDF6CF81E0F5CF0895CF9380910A02AF
:10379000882399F0C091E900CF708091EC0080FD02
:1037A0000EC080E0C82B1092E9008091E80083FDF4
:1037B0000E94691ACF70C093E900CF91089580E804
:1037C000F1CFEE0FFF1F0590F491E02D0994F999C8
:1037D000FECF92BD81BDF89A992780B50895A8E1E2
:1037E000B0E042E050E00C940F1C262FF999FECF78
:1037F00092BD81BDF89A019700B4021639F01FBA44
:1038000020BD0FB6F894FA9AF99A0FBE0895019662
:10381000272F0E94F61B0C94F51BDC01CB01FC0149
:10382000F999FECF06C0F2BDE1BDF89A319600B419
:0E3830000D9241505040B8F70895F894FFCF24
:10383E00B801F5146915F8143415F9140140363928
:0C384E00A3036D033403E002F90212032F
:00000001FF
