:100000000C944B020C9492020C9492020C94920267
:100010000C9492020C9492020C9492020C94920210
:100020000C9492020C9492020C94C1260C94942786
:100030000C94C8210C9492020C9492020C9492029B
:100040000C9492020C9492020C9492020C949202E0
:100050000C9492020C9430220C9492020C94920212
:100060000C9492020C9492020C9492020C949202C0
:100070000C9492020C9492020C9492020C949202B0
:100080000C94430B0C9492020C9492020C949202E6
:100090000C9492020C9492020C9492020C94920290
:1000A0000C9492020C9492020C94920207634236D2
:1000B000B79BD8A71A39685618AEBAAB558C1D3CF9
:1000C000B7CC5763BD6DEDFD753EF6177231BF00BD
:1000D0000000803F08000000BE922449123EABAAF7
:1000E000AA2ABECDCCCC4C3E00000080BEABAAAA52
:1000F000AA3E00000000BF000000803F000000009A
:1001000000084178D3BB4387D1133D190E3CC3BDD2
:100110004282AD2B3E68EC8276BED98FE1A93E4C7F
:1001200080EFFFBE01C4FF7F3F00000000000129F7
:10013000022900016502650001AA02AA0001AB02C2
:10014000AB0001A902A90001AE02AE0014001A0022
:100150000800150017001C0018000C001200130006
:1001600004001600070009000A000B000D000E0035
:100170000F0033001D621B0006001900050011006E
:1001800010003600370038620000E00002302B001B
:1001900034005000510052004F0000000000E20007
:1001A000E3002C00DC5CDB5C2A0028000551000029
:1001B0000100010001000100010001000100010037
:1001C0000100010001000100010001000100010027
:1001D0000100010001000100010001000100010017
:1001E0000100010001000100010001000000010008
:1001F0004C000100010001000100010001000000AD
:1002000000000100010001000100010001000100E7
:10021000000000001E001F0020002100220023001B
:100220002400250026002700040116010100090111
:10023000010001002D002E002F0030001D011B01C8
:100240000601190101000100310001000100340024
:10025000000001004C00010035004A004E004B0038
:100260004D0000000000010001000100010001003C
:1002700001004600000000001E001F0020002100B9
:100280002200230024002500260027000408160869
:1002900001000908010001002D002E002F00300090
:1002A0001D081B08060819080100010031000100A3
:1002B00001003400000001004C00010035004A003C
:1002C0004E004B004D000000000001000100010045
:1002D00001000100010046000000000001000100D3
:1002E0000100010001000100010001000100010006
:1002F0003A003B003C003D003E003F000100010091
:100300002F023002400041004200430044004500FB
:100310000100010001000100000001004C0001008B
:100320003502010001000100010000000000010091
:1003300001000100010001000100010001000000B6
:10034000005CDF5C0100010001000100E15CE25C97
:1003500001000100DE5C01001D5C1E5C010001006B
:1003600001000100DD5C0100295C285C245C255C47
:1003700001000100A800AC00AB00AE0000000100CD
:100380000100010001000100E45CE55C01000000E7
:100390000000010001000100010001000100010056
:1003A0000100000004033000000010034D0069004C
:1003B00074006F00730069007300000010035500A3
:1003C0006E006B006E006F0077006E00000004038B
:1003D000090409023B00020100A019090400000100
:1003E00003010100092111010001224000070581DC
:1003F0000308000A0904010001030000000921119B
:100400000100012236000705820308000A120110CC
:100410000100000008EDFE6060010001020301051B
:10042000010980A10185021601002603001A81003E
:100430002A8300751095018100C0050C0901A101F6
:100440008503160100269C021A01002A9C027510E1
:1004500095018100C005010906A101050719E029E0
:10046000E715002501950875018102950175088140
:100470000105081901290595057501910295017578
:100480000391010507190029FF150026FF009506B5
:1004900075088100C00011241FBECFEFDAE0DEBF77
:1004A000CDBF04B603FE27C08091E2089091E30817
:1004B000A091E408B091E5088730904BA740B04B7D
:1004C000D1F41092E2081092E3081092E40810921E
:1004D000E50814BE84B7877F84BF0FB6F894A8954B
:1004E00080916000886180936000109260000FBE70
:1004F000E0E0F8E3099514E0A0E0B1E0E8E0FDE514
:1005000002C005900D92AE39B107D9F728E0AEE9E7
:10051000B4E001C01D92A23EB207E1F70E94F023B1
:100520000C94822E0C94000008950C942406EF92F3
:10053000FF921F93CF93DF93CDB7DEB72B970FB604
:10054000F894DEBF0FBECDBF1092CC001092CD004C
:1005500088E18093C90086E08093CA0083E7809396
:10056000CE00CE0101967C018BE0D7011D928A95C9
:10057000E9F7D7019E01245F3F4FC70140E050E0FB
:10058000BA011091C80017FD0AC04F5F5F4F6F4F4F
:100590007F4F4131E7E25E076105710590F31091ED
:1005A000CE00FC011193CF01E217F30751F78B85C1
:1005B000803EB1F42EE934E0B701665F7F4F1196BB
:1005C0008C911197F0E28F9FC00111244C91842BE4
:1005D000F901819391939F0112966A177B0779F72E
:1005E0000E94280681E02B960FB6F894DEBF0FBE5E
:1005F000CDBFDF91CF911F91FF90EF900895E82F2D
:10060000F0E0EE0FFF1FE256FB4F808191810895CD
:1006100008951092CC001092CD0088E18093C9001B
:1006200086E08093CA000895519A599A80B38063F6
:1006300080BB81B3806381BB08950E9494020E94B5
:1006400009030C9414030C94900508958F929F92C3
:10065000AF92BF92EF92FF920F931F93CF93DF93CE
:10066000EC017B01042F8090A1089090A208A0903B
:10067000A308B090A4080E94CD190E94041E86E031
:10068000080280011124CE15DF05A9F40E94CD19BE
:100690008092A1089092A208A092A308B092A40808
:1006A000DF91CF911F910F91FF90EF90BF90AF908E
:1006B0009F908F900895CE010E948C19C00FD11F7A
:1006C000E2CF0F931F93CF93DF93EB01F801A88143
:1006D000B9813281311103C08A179B07A9F086E0E6
:1006E000280290011124CD01821B930B4817590752
:1006F00059F086E001900D928A95E1F78881998101
:10070000280F391F39832883DF91CF911F910F91D3
:100710000895DC018AEF4802A00111246A177B07C3
:1007200031F0FB01E40FF51F9281911104C0F90132
:10073000718360830895BF01F1CF0F931F93CF930F
:100740008B012091AA07211145C0FB01C281C11173
:1007500026C0823EFCE59F0739F128F4813E9C4586
:1007600089F0C1E01CC0843EECE59E0749F1853E5E
:100770009C45B9F760910401709105014FEF82EA41
:1007800097E025C00E94CD190E94041E88EA94E0DB
:100790009093A9078093A80781E08093AA078C2FE4
:1007A000CF911F910F9108950E94CD190E94041EB0
:1007B00082EA97E09093A9078093A80782E0EDCFA3
:1007C000609106017091070141E088EA94E00E947F
:1007D0002603E5CF833E3CE5930799F018F0863E6B
:1007E0009C45C8F0213079F1223009F0BACF409110
:1007F0000601509107012FEF68EA77E082EA97E05F
:100800002BC0FB01C281CC2351F2213031F02230C8
:1008100081F01092AA07C0E0C2CF6091A807709142
:10082000A90726E031E041E088EA94E00E948903CC
:10083000F0CF6091A8077091A90724E031E04FEF55
:1008400082EA97E0F3CF409104015091050121E045
:1008500068EA77E088EA94E00E94610382CFFC01B5
:100860006130E1F028F0623041F190E080E00895DD
:100870008281882339F00E94FA219093AD078093FA
:10088000AC07F3CF8091AC079091AD070E94062290
:100890008739910508F582E491E0089582818111FC
:1008A000EACF8091AC079091AD070E94062287396C
:1008B0009105A8F488E391E0089582818111DBCF4E
:1008C0008091AC079091AD070E940622873991056F
:1008D00048F48EE291E0089587E491E008958DE375
:1008E00091E0089583E391E00895EF92FF920F93D2
:1008F0001F93CF938C017B0183EE9CE5053021E5AE
:10090000120709F0C801B7010E949D03C82F811189
:1009100008C0C0E08C2FCF911F910F91FF90EF90F6
:1009200008956091A1087091A2088091A308909108
:10093000A4080E94A3200D3D9CE5190709F441C0BD
:10094000F8F40B3DFCE51F0709F453C00C3D2CE502
:10095000120709F478C01092AB078430D9F6C801A9
:10096000CA970C9718F000331105A1F6F701128110
:1009700082E0112309F4B6C00E944017C12FCACFEC
:100980000F3D9CE5190709F485C008F496C0003EA8
:10099000FCE51F0701F7F701C281CC2309F49EC0D3
:1009A00040E068E070E082E291E00E94630E80E146
:1009B0000E945E1680E10E94111784E00E945E167C
:1009C000A8CFF7018281882309F4A3CF85EE0E9486
:1009D0005E1684EE0E945E1686E60E945E1686E62D
:1009E0000E94111784EE0E94111785EE0E941117C4
:1009F00090CFF70182818823A1F00E94FA21909381
:100A0000AD078093AC0781E08093AB07809108012C
:100A10000E941E1E44E061E0809108010E941206BF
:100A200078CF8091AC079091AD070E940622843860
:100A3000934020F08091AB078111ECCF80910801A9
:100A40000E943F1EE7CFF7018281882379F00E9440
:100A5000FA219093AD078093AC0781E08093AB07B8
:100A60000E941E1E81EE0E945E16D4CF8091AC07BC
:100A70009091AD070E9406228438934020F0809127
:100A8000AB078111C7CF81E00E943F1E81EE0E941B
:100A90001117C0CFF7018281882309F43ACF82E091
:100AA00090E0909309018093080140E066E070E0D7
:100AB00082E991E00E94630E2CCFF70182818823A6
:100AC00009F427CF83E090E0909309018093080117
:100AD00040E066E070E082E691E0ECCF84E00E94C6
:100AE000111718CF0E94391715CF40E063E070E06E
:100AF0008AE091E00E94630E2FEF82E597E021509B
:100B000080409040E1F700C000000C94220F40E0CC
:100B100068E070E082E291E00C94630E0C9487052B
:100B20006091A1087091A2088091A3089091A408F7
:100B30000E94A3208230A1F028F4882349F081305C
:100B400091F00895843089F038F0853089F0089567
:100B50008D9A599A8C9A08958D9A599A8C980895DD
:100B60008D9A5998FBCF8D98F4CF8D9A5998F2CFE2
:100B70008D98F7CF81E008950C9475048F929F9221
:100B8000AF92BF92CF92DF92EF92FF920F931F939B
:100B90006B017C0181E090E0A0E0B0E04C015D01E0
:100BA00004C0880C991CAA1CBB1C4A95D2F7B5013D
:100BB000A4014C015D0104C0880C991CAA1CBB1C3B
:100BC0002A95D2F7482959296A297B2904C0880F18
:100BD000991FAA1FBB1F0A95D2F78A019B010C21FE
:100BE0001D212E213F21041715072607370789F4F9
:100BF0008C299D29AE29BF29BC01CD011F910F91E0
:100C0000FF90EF90DF90CF90BF90AF909F908F902C
:100C1000089580959095A095B0958C219D21AE2149
:100C2000BF21EACF0F93382F262F6091A108709132
:100C3000A2088091A3089091A408042F432F0E943A
:100C4000BE050F910C94F81D0E94DF0E0C941D033D
:100C50000E9454130C9423030C942503CF93DF9329
:100C60000E94CD190E9419130E94FA21EC0140E064
:100C700063E070E082EF91E00E94630E0E947505D0
:100C8000CE010E9406228A3F910560F00E94220F49
:100C900087E797E79093010880930008DF91CF9151
:100CA0000C9456228FE99FE00197F1F700C00000F5
:100CB000E7CFFF920F931F93CF93DF938C01FC013B
:100CC000C081D1818091450881114FC082818823E4
:100CD00009F446C0CE010E94141FF82E682FCE01E1
:100CE0000E94BA1EBE018F2D0E941108EC01B801AE
:100CF0000E94BC05882309F46CC0B801CE010E9493
:100D0000C40A882309F465C0B801CE010E94B71354
:100D1000882309F45EC0B801CE010E94750A8823B9
:100D200009F457C0C531FCE5DF0709F459C110F5D6
:100D3000C130ECE5DE0709F453C008F063C0C1150B
:100D4000DC4509F441C081E08093B3078093B40788
:100D5000C801DF91CF911F910F91FF900C94BA05BC
:100D6000CE010E94E91EF82EBDCFCE010E94141FB5
:100D7000BE01BACFC63DECE5DE0709F416C1B8F4F2
:100D8000C43D8CE5D80709F4D4C0C53DDC45D9F68F
:100D9000F8018281882309F4F3C01092B4070E94FD
:100DA000FA219093B2078093B10780E2CFC0C93D8A
:100DB000FCE5DF07F9F0CA3DDC4529F6F801828140
:100DC000882339F082E01BC0F801828181110E94E2
:100DD0002E0680E0DF91CF911F910F91FF90089533
:100DE000F80182818823A9F38091BA0881608093F9
:100DF000BA08EFCFF8018281882359F380E00E947E
:100E00008924E7CFF8018281882309F4A1CF0E94C9
:100E10000F21811102C00E94F0200E94222190E047
:100E20009093D4088093D308FE01E350FC45E2314F
:100E3000F105B0F4E25EF84F0C94872D36073A07BF
:100E40003E07420746074A074E07520766076A07EA
:100E50006E07720776077A077E0782078607920772
:100E60008091D30881608093D30829C08091D308F2
:100E70008260F9CF8091D3088460F5CF8091D30848
:100E80008860F1CF8091D3088061EDCF8091D30845
:100E90008062E9CF8091D3088064E5CF8091D30848
:100EA0008068E1CF8091D308846088608093D30804
:100EB00040E064E070E082EC91E00E94630E80917B
:100EC000D3080E9426210E94CD1983CF8091D30898
:100ED0008E7FC9CF8091D3088D7FC5CF8091D308F5
:100EE0008B7FC1CF8091D308877FBDCF8091D308FE
:100EF0008F7EB9CF8091D3088F7DB5CF8091D308F5
:100F00008F7BB1CF8091D3088F77ADCF8091D308FD
:100F10008B7F877F8093D30840E062E070E082EEB1
:100F200091E0CBCF9091D308892F97FB87F9805818
:100F30009ACFF8018281882361F01092B3070E9452
:100F4000FA219093B0078093AF0782E00E9439178F
:100F500040CF8091B30781110FC08091AF0790916E
:100F6000B0070E940622883C910530F486E20E9478
:100F70005E1686E20E94111782E00E94401729CF78
:100F80008091B40781110FC08091B1079091B20791
:100F90000E940622883C910530F487E20E945E168A
:100FA00087E20E94111780E2E8CFF8018281811167
:100FB000F4CE8091B4078111F6CF8091B107909162
:100FC000B2070E940622883C910568F780E20E94E1
:100FD000401788E20E945E1688E20E941117F9CE3F
:100FE0000E942020F8019281992381F08A7A91E071
:100FF00009F490E09093AE07811106C089E20E9447
:10100000841F0E946620E5CE85E3F9CF8091AE076C
:10101000811104C089E20E948B1FF3CF85E3FBCFCF
:101020000895972F70E02AE0929F600D711D1124A2
:10103000FB0192E3899FE00DF11D1124EE0FFF1FCC
:10104000E45BFE4F859194910895FC01EE0FFF1F24
:10105000E45BFE4F859194910895CF93DF930E94B6
:1010600011080E94D109EC018115904508F043C098
:10107000C11580E4D80708F00AC1C83ED10528F59B
:10108000C03ED10508F09EC0C83AD10580F4C53AEB
:10109000D10508F08DC0C130D10509F493C020F00E
:1010A000C430D10508F08EC0D0E0C0E08BC0CD3B8D
:1010B000D10508F48BC0CE01805C9109C03CD105FC
:1010C00098F30E942508EC017DC0C11520E2D207EB
:1010D00050F4C11581E0D80708F074C0C03FD105B5
:1010E00018F3D0656FC0C11520E3D20708F0C5C062
:1010F000CE019F70E6CFC11585E5D80760F5C11513
:1011000024E5D20708F0F1C0C11582E5D80750F4F4
:10111000C11521E5D20708F4BDC0DC2FCC27C16F73
:10112000D06A50C09C2F969596959E0123703327C8
:10113000C115D34508F0CAC0C1E0D0E002C0CC0F51
:10114000DD1F2A95E2F720E2929FC0011124C82BEF
:10115000D92BDC6837C0C11529E5D20780F4C11549
:1011600088E5D80708F0C6C0C11526E5D20708F003
:101170009BCFDC2FCC27CC27DF71D06223C0C115D9
:101180008AE5D80708F4BBC0CE019056811590427D
:1011900008F08ACF8D2F8F710E94510ADD27D0620F
:1011A00090E0982F882788279F71C82BD92B0AC0D9
:1011B000C53AD10509F4B0C0C63AD10509F4AFC0AB
:1011C000C3E8D0E4CE01DF91CF910895C83AD105AC
:1011D00009F4A8C0C93AD10509F4A7C0CA3AD10593
:1011E00009F4A6C0CB3AD10509F4A5C0CC3AD10583
:1011F00009F4A4C0CB3BD10509F4A3C0CC3BD10575
:1012000009F4A2C0CD3AD10509F4A1C0C03BD10573
:1012100009F4A0C0CE3AD10509F49FC0CF3AD10558
:1012200009F49EC0C13BD10509F49DC0C23BD10564
:1012300009F49CC0C33BD10509F49BC0C43BD10554
:1012400009F49AC0C53BD10509F499C0C63BD10544
:1012500009F498C0C73BD10509F497C0C83BD10534
:1012600009F496C0C93BD10509F495C0CA3BD10524
:1012700009F094C0CAE2D6E4A5CFCE019927D3FFE6
:1012800003C0EC01D86C9ECFEC01D06C9BCFDF701B
:10129000D06A98CFCE01E4E096958795EA95E1F77C
:1012A00083709C2F937021E030E002C0220F331F27
:1012B0009A95E2F73C68382BC695C695C37080E2D4
:1012C000C89FE0011124C22BD32B7CCFC1E0D0E01A
:1012D00002C0CC0FDD1F2A95E2F720E2929FC001E9
:1012E0001124C82BD92BDA686DCFDC2FCC27C46F23
:1012F000D06A68CFDC2FCC27C06FD06A63CFCE0115
:1013000034E0969587953A95E1F78F70CF70C06E6F
:10131000D0E0D06AD82B56CFC1E8D0E453CFC2E892
:10132000D0E450CFC2EED4E44DCFC9EED4E44ACFDE
:10133000CAEED4E447CFC5EBD4E444CFC6EBD4E443
:1013400041CFC3EBD4E43ECFC4EBD4E43BCFC7EBF7
:10135000D4E438CFCCECD4E435CFCDECD4E432CFE8
:10136000C3E8D5E42FCFCAE8D5E42CCFC2E9D5E451
:1013700029CFC4E9D5E426CFC1E2D6E423CFC3E226
:10138000D6E420CFC4E2D6E41DCFC5E2D6E41ACF1E
:10139000C6E2D6E417CFC7E2D6E414CFC0E0D4E467
:1013A00011CF8238910549F1B0F48133910509F4E8
:1013B0005CC048F48932910509F452C08A32910523
:1013C00009F458C008958533910509F444C0893360
:1013D000910599F00895833E910531F138F4803EEE
:1013E000910591F0823E9105B1F00895863E9105F8
:1013F00011F1873E910541F108952091D3082370A2
:10140000C9F080EE90E008952091D30820FF12C02B
:1014100089E390E008952091D30822FF0BC024FFB8
:101420002EC090E080E008952091D30822FD2AC0CC
:1014300024FDF7CF08952091D30823FFFBCF24FD8F
:10144000F0CF87EE90E008952091D30823FFF0CFEE
:1014500086EE90E008952091D30825FD16C00895EA
:101460002091D30825FD14C008952091D30826FDAE
:1014700012C008952091D30826FD10C0089583EE70
:1014800090E0089582EE90E0089589E290E008955A
:1014900085E390E008958AE290E0089581E390E08A
:1014A000C9CF9091D30892FF06C0282F2871283009
:1014B00069F4877F846093FF06C0282F2871283144
:1014C00061F4877E846194FD877E0895282F2471BE
:1014D000243089F78B7F8860EECF282F2471243148
:1014E00091F78B7E8861EFCF08950F931F93CF9371
:1014F0008C01FB018281811106C0C1E08C2FCF914C
:101500001F910F910895C091C207C11125C00631E6
:101510001C4599F70E94740A81E08093C2070E94DB
:10152000FA219093C1078093C0071092B5071092DB
:10153000B7071092B6071092B9071092B807109229
:10154000BB071092BA071092BD071092BC07109209
:10155000BF071092BE07D2CF8091C0079091C107FC
:101560000E9406228C32914040F68091B507E82F08
:10157000F0E0EE0FFF1FEA54F84F118300838F5FF6
:101580008093B507C0E0BACFFB018D312CE59207FF
:1015900039F482818823A1F10E945E1080E00895D1
:1015A0008E312CE5920731F48281882349F10E9423
:1015B0006E10F4CF8F312CE5920741F4828188239D
:1015C000F9F00E945A108111F2CFE6CF88322CE553
:1015D000920769F48281882399F00E94871040E085
:1015E00064E070E08AE092E00E94630ED7CF893217
:1015F0009C4531F48281882319F00E949010EFCF2E
:1016000081E008958554990BBC01990F880B990BC3
:101610000E94642A20E030E040E451E40E94BA29AC
:101620009B01AC0160E070E080E090E40E94E82B58
:1016300020E030E04CED53E40E947B2B4FE050E083
:101640000C94FA0F8554990BBC01990F880B990BD8
:101650000E94642A20E030E040E451E40E94BA296C
:101660009B01AC0160E070E080E090E40E94E82B18
:1016700020E030E04CED53E40E947B2B0C945D0F96
:101680000C94220F08951F920F920FB60F921124FF
:101690004F925F926F927F928F929F92AF92BF9282
:1016A000CF92DF92EF92FF922F933F934F935F93EE
:1016B0006F937F938F939F93AF93BF93EF93FF931A
:1016C0008091D607882309F4CAC0E0901808F090EA
:1016D00019081E141F040CF0C2C04090C607509099
:1016E000C7076090C8077090C90720E030E0A901E3
:1016F000C301B2010E94762B18160CF093C121E0B1
:10170000E216F10409F452C080911608909117086E
:10171000B7010E94732D6C019093170880931608EF
:101720008090D8079090D907A090DA07B090DB0797
:1017300020E030E040E85FE3C501B4010E944929A0
:101740006093D8077093D9078093DA079093DB07EB
:10175000F601EE0FFF1FEE0FFF1FE451F84FA3013C
:10176000920160817181828193810E94BA2920E077
:1017700030E040E05EE30E947B2B9B01AC01C501A1
:10178000B4010E94762B18168CF4C6010196B7019D
:101790000E94732D90931708809316081092D80713
:1017A0001092D9071092DA071092DB07E091160821
:1017B000F0911708EE0FFF1FEE0FFF1FE451F84FD7
:1017C00060817181828193812091C3073091C40728
:1017D0002F3F320731F02F5F3F4F3093C4072093E4
:1017E000C3070E9499106B017C0120E034E244EFB2
:1017F00051E40E94B52987FF08C086EFC82E88E211
:10180000D82E84EFE82E81E4F82E20E030E040E08E
:1018100051E4C701B6010E947B2B9B01AC0160E043
:1018200074E284E79BE40E94BA296B017C010E9468
:10183000332A709397006093960020917302309141
:1018400074024091750250917602C701B6010E9460
:101850007B2B0E94332A70939900609398008091AB
:10186000D707882309F4B4C1C090D207D090D3071A
:10187000E090D407F090D50720E030E0A901C7013F
:10188000B6010E94762B18160CF091C18091C30707
:101890009091C4078F3F980729F001969093C40751
:1018A0008093C307C701B6010E94991020E030E081
:1018B00040E051E40E947B2B9B01AC0160E074E2AC
:1018C00084E79BE40E94BA296B017C010E94332AC1
:1018D0007093970060939600209173023091740288
:1018E0004091750250917602C701B6010E947B2B90
:1018F0000E94332A70939900609398006091CC07FE
:101900007091CD076F5F7F4F7093CD076093CC07C9
:10191000E0909600F090970090E080E00E94622AAC
:101920004B015C014090CE075090CF076090D007EC
:101930007090D107EF2809F443C18091CB07811142
:101940003FC1609196007091970090E080E00E9406
:10195000622A9B01AC01C301B2010E94BA2920E0B6
:101960003FEF4FE757E40E947B2B20E030E040E858
:101970005FE30E944829A50194010E94B529181629
:101980000CF426C18091CA078F5F8093CA0720910B
:10199000C7083091C8088217130638F08091CE0826
:1019A000882309F41EC11092CA07E091C908F0917A
:1019B000CA089091CA078091CB07811144C181E088
:1019C0008093CB0791509093CA0748E0949F900171
:1019D0001124E20FF31FC080D180E280F3802085C4
:1019E000318542855385C701B6010E94B529811111
:1019F00021C11092D2071092D3071092D4071092EF
:101A0000D50780E090E0A0E8BFE38093CE079093F5
:101A1000CF07A093D007B093D1071092CD071092B3
:101A2000CC07D6C0F701EE0FFF1FEE0FFF1FE851E6
:101A3000F84F80809180A280B380809172028823C9
:101A400009F4ACC0C0901208D0901308E0901408BC
:101A5000F090150820E030E0A901C701B6010E940E
:101A6000B529882309F49AC0A5019401C701B601DC
:101A70000E94B52987FF5BC0A501940160E070E07A
:101A80008CED93EC0E94BA2920E030E040E451E470
:101A90000E94BA2920E030E040E05FE30E947B2B07
:101AA0009B01AC0160E070E080E090E40E94E82BD4
:101AB000A50194010E947B2B9B01AC01C701B601DB
:101AC0000E94B52987FF33C0A701960160E070E04E
:101AD0008CED93E40E94BA2920E030E040E451E428
:101AE0000E94BA2920E030E040E05FE30E947B2BB7
:101AF0009B01AC0160E070E080E090E40E94E82B84
:101B00009B01AC01C701B6010E947B2B60931208B8
:101B1000709313088093140890931508609112082D
:101B20007091130880911408909115084DCEA5016D
:101B30009401C701B6010E94762B18167CF5A50109
:101B4000940160E070E08CED93E40E94BA2920E0FB
:101B500030E040E451E40E94BA2920E030E040E067
:101B60005FE30E947B2B9B01AC0160E070E080E0B2
:101B700090E40E94E82BA50194010E947B2B9B011D
:101B8000AC01C701B6010E94762B18163CF4A701E0
:101B9000960160E070E08CED93EC9CCF809212088F
:101BA00090921308A0921408B0921508B7CF109223
:101BB00097001092960010929900109298009ECE75
:101BC000A3019201C501B4010E94762B87FFDACEF2
:101BD0008091CB0880FD11C01092D7071092D607D4
:101BE0000CC0809171008D7F809371008091900076
:101BF0008F73809390001092D707FF91EF91BF9160
:101C0000AF919F918F917F916F915F914F913F9194
:101C10002F91FF90EF90DF90CF90BF90AF909F906B
:101C20008F907F906F905F904F900F900FBE0F90AE
:101C30001F901895C092D207D092D307E092D40794
:101C4000F092D507DECE1092CB071092C407109207
:101C5000C30728E0929FC0011124E80FF91F80817B
:101C60009181A281B3818093D2079093D307A093EF
:101C7000D407B093D50720E030E040E85EE364810C
:101C80007581868197810E947B2B6B017C0160911D
:101C9000770270E090E080E00E94622A20E030E06D
:101CA00048EC52E40E94BA299B01AC01C701B6017D
:101CB0000E947B2B6093CE077093CF078093D00751
:101CC0009093D107AACECF92DF92EF92FF92CF935B
:101CD000DF93EC016B01F42E8091C507811102C0E6
:101CE0000E94DF0E8091CB0880FF62C0809171005E
:101CF0008D7F809371008091D60781110E94220F01
:101D000081E08093D707D093CA08C093C908D092C6
:101D1000C808C092C708F092CE081092D807109257
:101D2000D9071092DA071092DB071092CA07888150
:101D30009981AA81BB818093D2079093D307A09306
:101D4000D407B093D50720E030E040E85EE36C8133
:101D50007D818E819F810E947B2B6B017C01609134
:101D6000770270E090E080E00E94622A20E030E09C
:101D700048EC52E40E94BA299B01AC01C701B601AC
:101D80000E947B2B6093CE077093CF078093D00780
:101D90009093D1071092CD071092CC0780917100DB
:101DA00082608093710080919000806880939000A1
:101DB000DF91CF91FF90EF90DF90CF9008950E9438
:101DC0000F21811102C00E94F0200E942B218093DC
:101DD000CB088091C507811129C03E9A809171007E
:101DE0008D7F8093710082E0809390008AE18093E0
:101DF000910081EC91E1909397008093960023EA03
:101E00003BE04EE855E4609173027091740280915A
:101E10007502909176020E947B2B0E94332A709368
:101E200099006093980081E08093C5078091CB086A
:101E300080FF07C040E065E070E08AE492E00C9427
:101E4000630E08958091C507811102C00E94DF0EC4
:101E50001092190810921808809171008D7F80935C
:101E60007100809190008F73809390001092D7073B
:101E70001092D607109212081092130810921408AC
:101E80001092150810920E0810920F081092100868
:101E90001092110810920D0810920C08ECEEF7E069
:101EA000ACEDB7E011921192119211921D921D9218
:101EB00088E0EC30F807B1F70895CF92DF92EF9207
:101EC000FF920F931F93CF93DF936B017C0180915F
:101ED000D607882309F467C08091C507811102C025
:101EE0000E94DF0E0CEE17E0C7E0D0E0A7019601DC
:101EF000F801648D758D868D978D0E94B5298111AD
:101F00006CC0FE01EE0FFF1FEE0FFF1FE451F84FF4
:101F10001082118212821382CC0FDD1FC452D84F5F
:101F20001982188288E0E830F80709F045C08091EE
:101F3000180890911908019797FD57C090931908B8
:101F4000809318088091180890911908209116081C
:101F5000309117082817390724F0109217081092AB
:101F60001608892B01F5809171008D7F8093710097
:101F7000809190008F7380939000109212081092BD
:101F80001308109214081092150810920E0810925F
:101F90000F08109210081092110810920D0810925C
:101FA0000C081092D607DF91CF911F910F91FF90EF
:101FB000EF90DF90CF90089584819581A681B781BD
:101FC00081939193A193B193108211821282138213
:101FD0008A819B8189939993A3CF219704501109FA
:101FE000CF3FDC0709F082CFA2CF109219081092E0
:101FF0001808A8CFCF92DF92EF92FF92CF93DF9392
:102000006B017C01EA018091C507811102C00E9429
:10201000DF0E8091CB0880FF46C080911808909118
:10202000190808970CF03FC0809171008D7F809354
:1020300071008091D70781110E94220F81E0809367
:10204000D6071092C4071092C30720E030E0A90120
:10205000C701B6010E94762B1816DCF4809118088F
:1020600090911908FC01EE0FFF1FEE0FFF1FE451C6
:10207000F84FC082D182E282F382FC01EE0FFF1F93
:10208000E452F84FD183C08301969093190880934E
:102090001808809171008260809371008091900097
:1020A000806880939000DF91CF91FF90EF90DF9058
:1020B000CF9008958091CB08817008958091CB08CE
:1020C00081608093CB080E942F210E94420B40E048
:1020D00062E070E08AE392E00C94630E40E062E01C
:1020E00070E08AE292E00E94630E2FEF81EE94E0AE
:1020F000215080409040E1F700C000000E94220F74
:102100008091CB088E7F8093CB080C942F218091F7
:102110001A0890E001968770992780931A0808950D
:1021200080911A0890E007968770992780931A0883
:1021300008958F929F92AF92BF92CF92DF92EF92CB
:10214000FF92CF93DF936B017C01C091C307D091C5
:10215000C407BE0190E080E00E94622A4B015C014E
:10216000A701960160E070E08CE594E40E94BA2932
:102170009B01AC01C501B4010E947B2B0E94332A54
:102180009B01E0911A08E83018F5F0E0E653FF4EA5
:102190000C94872DD210F5100E111612E8105E1255
:1021A0008F12CD121092720280E090E0A0E0BFE3A7
:1021B0008093730290937402A0937502B093760299
:1021C0001092C6071092C7071092C8071092C9074D
:1021D000C701B601DF91CF91FF90EF90DF90CF90D4
:1021E000BF90AF909F908F900895109272021092BE
:1021F000C6071092C7071092C8071092C9076A5005
:10220000710980E090E0A0E8BEE36F3B710508F43F
:1022100060C080E090E0A0E0BEE35BC0109272027C
:102220001092C6071092C7071092C8071092C907EC
:1022300020E030E040EA52E4C701B6010E94B5292F
:1022400087FDC6CF20E030E040E253E4C701B6018D
:102250000E94B52987FF46C00E94D92D68E270E030
:102260000E94732DBC01645C7F4F072E000C880B0D
:10227000990B0E94642A6B017C018091C3079091A5
:10228000C4078B30910508F18531910508F052C0E3
:1022900065E170E0681B790B90E080E00E94622AA3
:1022A00020E030E040E05FE30E947B2B20E030E064
:1022B00040E251E40E94BA29609373027093740261
:1022C000809375029093760283CF80E090E0A0E047
:1022D000BFE38093730290937402A0937502B0934E
:1022E000760276CF20E030E040EA53E4C701B60141
:1022F0000E94B52987FF27C00E94D92D68EE73E0A0
:102300000E94732DBC0168517C4F072E000C880B76
:10231000990B0E94642A6B017C018091C307909104
:10232000C4078630910588F265E170E0853191053A
:1023300008F46BC01092730210927402109275022E
:102340001092760245CF20E030E040E254E4C7012D
:10235000B6010E94B52987FF2FC00E94D92D60EDDC
:1023600077E00E94732DBC016854744F072E000C57
:10237000880B990B0E94642A6B017C018091C30732
:102380009091C4078031910508F49FCF8531910564
:1023900088F665E170E0681B790B90E080E00E94B0
:1023A000622A20E030E040E05FE30E947B2B20E0E7
:1023B00030E040EA50E47ECF20E030E040EA54E4F0
:1023C000C701B6010E94B52987FF02CF0E94D92D0F
:1023D00060ED77E00E94732DBC016854744F072EA6
:1023E000000C880B990B0E94642A6B017C01809180
:1023F000C3079091C4078432910508F466CF8333F4
:10240000910508F097CF63E370E0681B790B90E0CB
:1024100080E00E94622A20E030E040E05FE30E941A
:102420007B2B20E030E040E751E444CF41E0409393
:1024300072021092C6071092C7071092C807109236
:10244000C9076431710540F46A30710560F120E01C
:1024500030E040E05FE32BC0693C710508F06ACFD3
:1024600090E080E00E94622A20E030E040EA51E4FF
:102470000E94482920E030E044E353E40E94BA2956
:102480009B01AC010E947B2B20E030E040E05EE34A
:102490000E947B2B9B01AC0160E070E080E09EE33A
:1024A0000E94482909CF20E030E040E85EE3C70100
:1024B000B6010E947B2B6B017C01ABCE21E0209307
:1024C00072021092C6071092C7071092C8071092A6
:1024D000C9074AE0469F9001479F300D1124C9016A
:1024E00068EB7BE00E945F2DBC016C5D754077FF5F
:1024F00003C0719561957109072E000C880B990B2B
:102500000E94642A2EE333EC4EE259E30E947B2BB7
:1025100020E030E040EC5EE30E944929CDCE81E02E
:10252000809372021092C6071092C7071092C807D4
:102530001092C907CE0183709927892B09F1BE013A
:102540006170772790E080E00E94622A20E030E00E
:1025500040E05EE30E947B2B20E030E040E45FE35C
:102560000E944929609373027093740280937502EC
:1025700090937602C770DD27CD2B09F029CEDACEF5
:1025800080E090E0A0E0BFE3809373029093740238
:10259000A0937502B0937602EDCF41E040937202B2
:1025A0001092C6071092C7071092C8071092C90769
:1025B000812C912CA12C9FE3B92E809273029092D2
:1025C0007402A0927502B09276022739310508F4A0
:1025D000FFCD90E080E00E94622A20E030E047E1F9
:1025E00053E40E94482920E030E04AE754E40E9486
:1025F000BA2920E030E048E452E40E947B2B20E03E
:1026000030E040EA51E40E94AA2A0E942C2A660F78
:10261000771F660F771F625B7B4FFB012081318143
:1026200042815381C701B6010E947B2B6B017C0163
:10263000CFCD8091330881110C94400B089521E097
:102640008F3F910508F020E0822F08950C941F130E
:102650000E9419131092330840E068E070E088EFA0
:1026600092E00C94630E1092320840E068E070E053
:1026700088E792E00C94630E0E94191320911A04CB
:1026800030E02F5F3F4F2370332720931A0448E236
:10269000429FC001439F900D112440E065E070E02F
:1026A00088589C4F0C94630ECF9380912F088823F9
:1026B000F1F080911B0890911C08009779F40E941A
:1026C000FA2190931C0880931B0880911D08282FE5
:1026D00030E0882371F0C90101970FC00E940622E3
:1026E00020911804309119042817390740F3CF912D
:1026F000089580911E088150990B215E374FF90192
:10270000C08120913308222331F0815E974FFC0174
:1027100080810E94220B80913308882319F08C2F2E
:102720000E94020B80911D0890E0019660911E08A6
:1027300070E00E94732D80931D08D9CF81E08093B3
:10274000330840E068E070E088E393E00E94630EA5
:102750000C948E05089581E08093320840E068E093
:1027600070E088EB92E00E94630E0C94AA13EF9243
:10277000FF921F93CF93DF93CDB7DEB7A3970FB62A
:10278000F894DEBF0FBECDBF7C0184324CE59407C8
:10279000A9F4DB0112968C91882309F458C00E9499
:1027A0009E1380E0A3960FB6F894DEBF0FBECDBF98
:1027B000DF91CF911F91FF90EF9008958532BCE596
:1027C0009B0741F4FB018281882309F440C00E94E9
:1027D0002813E7CF8632FCE59F0751F48091330838
:1027E000DB0112969C91992391F18111F0CFD7CF03
:1027F0008A32BCE59B0739F4FB018281882339F1D9
:102800000E94AB13CECF8B32FCE59F0741F4DB0176
:1028100012968C918823D9F00E943313C2CF8C3248
:10282000BCE59B0749F4FB018281882381F08091FC
:1028300032088111F1CFE4CF87329C4541F4DB01AE
:1028400012968C91882319F00E943C13AACF2091F4
:102850003308211105C080913208882309F4DBC0B8
:10286000FB013281332309F450C0F0EEEF16F1047E
:1028700061F40E94191381E08093310810923008AE
:1028800010922F0810921E088CCF42EEE416F1042D
:1028900071F40E94191380913108882319F081E0A6
:1028A000809330081092310810922F087ACF83EE6F
:1028B000E816F10491F480913008882331F10E94E8
:1028C00019131092310881E080932F0810921D088F
:1028D00010921C0810921B0864CF92E5E916F104CF
:1028E00051F480911804909119040A979093190457
:1028F0008093180456CFA1E5EA16F10431F48091D3
:102900001804909119040A96F1CF80911A0410913D
:102910001D04811111C0135080911B04180FFB017D
:102920008081180F418185E090E0841B9109FCE0D3
:102930008F9F100D112414C0813071F5105E8091AD
:102940001B04180FDB018C91180F11964C9185E038
:1029500090E0841B9109982F990F990F890F180FF8
:10296000332309F451C0222319F0812F0E94020B56
:1029700080913108882351F080911E08E82FF0E003
:10298000E15EF74F10838F5F80931E08C7010E949E
:10299000261391E0892706CF823071F4105E809172
:1029A0001B04180FFB018081180F418185E090E026
:1029B000841B9109F7E0BCCF833091F683E2EBE210
:1029C000F4E0DE01119601900D928A95E1F7DB01AA
:1029D000EC9181E090E08C0F9D1F8E0F911DFC010A
:1029E00080911B0490911C04E80FF91F1350808103
:1029F000180F11964C9185E090E0841B9109ACE092
:102A00008A9F100D1124ACCF222309F4BFCF812F50
:102A10000E94220BBBCF81E0C5CE909339088093F2
:102A200038080895E0913808F0913908309721F07E
:102A30000190F081E02D099480E00895E09138083C
:102A4000F0913908309721F00280F381E02D09944C
:102A5000089520913608309137082817390771F00A
:102A60009093370880933608E0913808F091390840
:102A7000309721F00680F781E02D09940895209188
:102A80003408309135082817390771F090933508CC
:102A900080933408E0913808F0913908309721F09C
:102AA0000084F185E02D0994089508950C9455153E
:102AB00081E008950E94F12185B7806885BF85B7C0
:102AC000806885BF0E9495020C9467225F926F9286
:102AD0007F928F929F92AF92BF92CF92DF92EF92AE
:102AE000FF920F931F93CF93DF93CDB7DEB72A9753
:102AF0000FB6F894DEBF0FBECDBF0E9497020E94B2
:102B00005815882309F478C09BE3A92E98E0B92EC4
:102B100010E000E088248394912C502E802F0E9496
:102B2000FF027C01F501C190D1905F01C816D90662
:102B300009F45CC08091BA0881FD0E94080390E00E
:102B400080E0CE24DF243401082E02C0660C771CFE
:102B50000A94E2F7960126213721232B09F441C07C
:102B60008E835F82E620F72081E0EF2809F480E081
:102B700088870E94FA218160782F9A8789874E8101
:102B80005F8168858A850E942316000F111FF80156
:102B9000E55CF74F80819181682679267182608299
:102BA0000E94121590913A088917B9F10E941215E6
:102BB00080933A082A960FB6F894DEBF0FBECDBFB9
:102BC000DF91CF911F910F91FF90EF90DF90CF9009
:102BD000BF90AF909F908F907F906F905F900C947C
:102BE0002C0601968A30910509F0ADCF0F5F1F4F7B
:102BF0000530110509F091CF8FEF89838A831B82FD
:102C00000E94FA218160782F9D838C8349815A81AB
:102C10006B818D810E942316C3CF2A960FB6F8943C
:102C2000DEBF0FBECDBFDF91CF911F910F91FF90FF
:102C3000EF90DF90CF90BF90AF909F908F907F905C
:102C40006F905F900895CF93DF93CDB7DEB72B974A
:102C50000FB6F894DEBF0FBECDBF4F83588769878C
:102C60007A878B871E821D8285E0FE013796DE0102
:102C7000119601900D928A95E1F70E94C51F882355
:102C800019F082E00E94FF1F0E94981F81110E948C
:102C90005F2049815A816B817C818D819E812B9639
:102CA0000FB6F894DEBF0FBECDBFDF91CF910C946D
:102CB0008D1CFC01808191810C94561F882309F49E
:102CC000AFC09CEF980F913A20F40E94841F0C949F
:102CD000662090E2980F983050F4877091E001C020
:102CE000990F8A95EAF7892F0E942320F0CF9BE560
:102CF000980F933070F4853A31F0863A39F083E8D2
:102D000090E00C94291581E890E0FBCF82E890E0F8
:102D1000F8CF98E5980F953108F082C0883A09F409
:102D200040C0893A09F440C08A3A09F440C08B3A5D
:102D300009F440C08C3A09F440C08B3B09F440C010
:102D40008C3B09F440C08D3A09F440C0803B09F443
:102D500040C08E3A09F440C08F3A09F440C0813B2C
:102D600009F440C0823B09F440C0833B09F440C0F1
:102D7000843B09F440C0853B09F440C0863B09F41C
:102D800040C0873B09F440C0883B09F440C0893B00
:102D900009F440C08A3B09F440C090E080E00C9404
:102DA0003F1582EE90E0FBCF89EE90E0F8CF8AEEFF
:102DB00090E0F5CF85EB90E0F2CF86EB90E0EFCF9F
:102DC00083EB90E0ECCF84EB90E0E9CF87EB90E0F1
:102DD000E6CF8CEC90E0E3CF8DEC90E0E0CF83E8A1
:102DE00091E0DDCF8AE891E0DACF82E991E0D7CFB8
:102DF00084E991E0D4CF81E292E0D1CF83E292E006
:102E0000CECF84E292E0CBCF85E292E0C8CF86E2DB
:102E100092E0C5CF87E292E0C2CF8AE292E0BFCFD4
:102E20000895882329F19CEF980F913A20F40E948D
:102E30008B1F0C94662090E2980F983050F48770A6
:102E400091E001C0990F8A95EAF7892F0E94292005
:102E5000F0CF9BE5980F933020F490E080E00C9445
:102E60002915885A853120F490E080E00C943F15B4
:102E70000895882321F00E9423200C946620089551
:102E8000882321F00E9429200C94662008958F92B7
:102E90009F92AF92BF92DF92EF92FF920F931F9398
:102EA000CF93DF937C01D62FC72FFC0105810295BC
:102EB0000F70128111110E9442200E941920D82EF9
:102EC000882371F0112331F180E28D0F883010F1E9
:102ED00082E00E94FF1F0E94192091E0D82ED9267F
:102EE000BC2EB2949FE0B922EB2DF0E0E658F84EEC
:102EF0000C94872D8C178C17DC17DC1723182A18D5
:102F00002A182A184B182A18E618E61870192A18D1
:102F10002A187919D12CE4CF0C2F0F70C07F11F033
:102F20000295007F1123A9F0002359F080E28D0F54
:102F3000883010F0D11109C0802F0E9423200E94F8
:102F400066208D2F0E945E1614C0802F0E943420B0
:102F5000F6CF8D2F0E941117002359F080E28D0FBC
:102F6000883010F0D11124C0802F0E9429200E94A7
:102F70006620DD2009F4C4C10E94C11F80FDC0C1CC
:102F8000F70112820E94BB1F0E941E1EC7010E94F1
:102F90008C190E94BB1FDF91CF911F910F91FF9061
:102FA000EF90DF90BF90AF909F908F900C943F1E5A
:102FB000802F0E943A20DBCFFC2FFF70BF2EC07FF6
:102FC000C03219F0B29480EFB822DD2369F0D1301D
:102FD00049F1112391F1002351F1F701858180FF1F
:102FE000B0CF8F70858323C0112381F0011106C0FB
:102FF0000E94A0208B290E943917BBCF0130C1F756
:103000000E94A0208B290E945620B3CF011106C038
:103010000E945F208B2D0E944017ABCF013009F436
:10302000A8CFF6CF112329F0063008F0A2CF8B2DC0
:10303000E2CF053008F09DCFEDCF002359F38D2F5F
:103040000E94111796CF8C2F86958695837079F004
:103050008130B9F098E0B91609F459C0B91608F4EE
:1030600088CF86EF8B0D823008F451C082CF8D2F30
:103070009C2F9370111102C090E080E00E942915EE
:1030800078CF8D2F9C2F9370111102C090E080E0BB
:103090000E943F156ECF8C2F837009F04BC0111129
:1030A00036C02D2F229526952770220F220F6D2FC7
:1030B0006F70862E912CB12CA12C022E04C0880C8E
:1030C000991CAA1CBB1C0A94D2F760E070E0CB01EB
:1030D000D4FF0FC06FE070E080E090E004C0660FA6
:1030E000771F881F991F2A95D2F760957095809554
:1030F0009095C695C695C370C23071F0A0F468294A
:1031000079298A299B29C13091F00E94D01D0E9403
:1031100012150E942C062DCF682979298A299B290E
:103120000E94E21DF4CF0E94D01DC501B4010E948F
:10313000BE1DEDCF8695112311F08C2F8170882351
:1031400031F32D2F229526952770220F220F6D2FF8
:103150006F70862E912CB12CA12C022E04C0880CED
:10316000991CAA1CBB1C0A94D2F760E070E0CB014A
:10317000D4FF0FC06FE070E080E090E004C0660F05
:10318000771F881F991F2A95D2F7609570958095B3
:103190009095C695C695C370C23051F080F46829E9
:1031A00079298A299B29C13071F00E94951EAFCFE1
:1031B000682979298A299B290E94A71EA8CF0E94E5
:1031C000951EC501B4010E94831EA1CFE0E2ED0F60
:1031D000E53108F066C0F0E0E051F74E0C94872D21
:1031E00005190519051905190519051905190519EF
:1031F00005190519051905190519051905190519DF
:10320000161924192B1932193C19DF708C2F8F7164
:10321000112331F00E941E1E8D2F0E9439171ACFE4
:103220000E943F1E8D2F0E94401714CF112341F0A2
:10323000053008F00FCF8C2F8F710E94621E0ACFCD
:10324000063008F007CFF7CF8C2F8F71112339F09C
:103250000E941E1EFFCE8C2F8F711123C9F30E9476
:103260003F1EF8CE112329F08C2F8F710E94091E6A
:10327000F1CE0E94041EEECE112349F0CF718C2FA7
:103280000E941E1E63E08C2F0E94EF1FE3CE81E0A0
:103290000E94FF1F023008F4DDCE82E00E94FF1F73
:1032A000D9CE112349F0002321F08D2F0E945E1604
:1032B000D1CE8C2F8F71CCCF002379F0D93349F444
:1032C000FFEF27EE83E0F15020408040E1F700C09F
:1032D00000008D2F0E941117BDCE8C2F8F71BFCF94
:1032E0004C2F4F706D2FC7010E942F040E94361D76
:1032F00040CE4C2F4F706D2FC7010E94100839CE61
:10330000DF91CF911F910F91FF90EF90DF90BF90D1
:10331000AF909F908F9008950F931F93CF93DF935B
:10332000EC01988189812B813C81232B39F08F3FDF
:1033300019F481E09F3F19F080E001C081E080FD39
:1033400017C0CE010E945906882391F068817981C7
:103350008A810E94601F8C010E94B91E0E94BB1DC1
:10336000B801CE01DF91CF911F910F910C944717B7
:10337000DF91CF911F910F9108950E9442200E94EA
:1033800053200E94921F0E94662090E080E00E94DD
:10339000291590E080E00C943F150E9431200C9498
:1033A000BD190E94561FE92FE295EF70E250EE30F2
:1033B000E0F4F0E0E252F64E0C94872DEC19EC1993
:1033C000F519F519F719F519F519F519EC19EC199D
:1033D000FC19F519F519FC19803F19F020F4803E0D
:1033E00020F481E00895843FE1F380E00895803E79
:1033F000C0F3813FD1F7F5CF93FB882780F908957B
:10340000CF93DF9300D000D01F92CDB7DEB70F90DF
:103410000F900F900F900F90DF91CF910895CF9361
:10342000DF9300D000D000D0CDB7DEB726960FB620
:10343000F894DEBF0FBECDBFDF91CF9108951F93EB
:10344000CF93DF93C091460816E0809147088C1314
:1034500004C0DF91CF911F910895D0E01C9FF0012F
:103460001D9FF00D1124E85BF74F4081518162816F
:103470007381848195810E940F1A2196C770E5CFD0
:10348000409178085091790860917A0870917B0892
:1034900080917C0890917D080C940F1A1F93CF9314
:1034A000DF9380917D08807FD1F480917A08882312
:1034B000B1F080914608D0914708B0917808C0914A
:1034C000790840917B0850917C08A1E0BF3F09F04A
:1034D000A0E0BA016095709516E0D81304C0DF91A2
:1034E000CF911F91089521E04115510521F02A2F18
:1034F000CF3F09F020E090E020FD38C0189FF00198
:10350000199FF00D1124E85BF74F21812C132EC079
:1035100020812B132BC02281211128C023813481CB
:103520002417350700F1241B350B283C3105F0F436
:1035300020917D082F70206120937D0826E0289F30
:10354000F001299FF00D1124E35BF74F80818F700C
:103550008061808388E798E00E948C19DF91CF9189
:103560001F910C941F1A260F371FDFCF019687700B
:10357000B4CFAF92BF92CF92DF92EF92FF920F93B0
:103580001F93CF93DF93CDB7DEB761970FB6F89453
:10359000DEBF0FBECDBF8C0185E0F801DE011D96B8
:1035A00001900D928A95E1F7D8014C9111965C91AA
:1035B00011971296EC90309178086091790880917B
:1035C0007B0890917C0821E0009731F06F3F19F45F
:1035D00021E03F3F09F020E0B22FB170BB2E20FD6B
:1035E00080C1F801C380D480A0907A08AA2009F491
:1035F00027C1C816D906D0F1D601A81BB90BCD0139
:10360000FF24F394883C910508F0F12C80917D080B
:10361000982F907FFF2009F4CEC0911187C0FE2C17
:10362000651329C0341327C0E11025C08F70806155
:1036300080937D080E94401A88E798E00E948C19C8
:1036400080917D08F80185838F2D61960FB6F894DF
:10365000DEBF0FBECDBFDF91CF911F910F91FF90C5
:10366000EF90DF90CF90BF90AF90089580959095A8
:103670008C0D9D1DC5CF81E0CD2831F05F3F19F441
:1036800081E04F3F09F080E080FD24C081E08E257D
:10369000F82FF170DF2E80FF3FC080914608209107
:1036A000470836E0821318C04D875E878D859E855A
:1036B0000E94561F292F22952F70223008F12430A6
:1036C00030F59F7009F1D80115969C91907FE1F437
:1036D000FB2CBACF80E0DCCF90E0389FF001399F1F
:1036E000F00D1124E85BF74F6181561306C060812D
:1036F000461303C062816E110FC001968770D2CF4E
:103700009F7011F0882321F3805E883008F3C80190
:103710000E948C19BD2CDCCFEE2009F495CF80914E
:103720007D08816080937D08F12C8ECF651314C0D5
:10373000341312C0E11010C0F8018583C8010E9443
:103740008C1986E0F801A8E7B8E001900D928A95FF
:10375000E1F70E94401A78CF4D875E878D859E8560
:103760000E94D119882319F1EE2009F180917D087A
:10377000803270F0209178083091790838872F8353
:103780001986DB86CA868C87CE0107960E948C1923
:1037900086E0F801A8E7B8E001900D928A95E1F77C
:1037A0000E944E1A0E94401AFF24F3944DCFC80184
:1037B0000E948C19F9CF911113C07C2DD98AC88A27
:1037C0006E2D89890E94001A88E798E00E948C1962
:1037D00086E0E8E7F8E0DF011D928A95E9F7B9CFC6
:1037E000651312C0341310C0E1100EC0F8018583B8
:1037F000C8010E948C19E8E7F8E086E0DF011D921D
:103800008A95E9F7FA2C20CF4D875E878D859E85B6
:103810000E94D119882359F2EE2049F280917D0847
:10382000803208F4B5CF20917808309179083A8336
:1038300029831B82DD82CC828E83CE010196A6CFA6
:10384000C816D90638F1F601E81BF90BCF01F12CA7
:10385000883C910508F03DC0FE2CEE2009F4A7CF6E
:10386000651326C0341324C080917D0880FD17C0E5
:10387000982F907FA1F0D80115968C931597903FC3
:1038800009F45CCF982F907F905F8F70892B1596ED
:103890008C9354CF809590958C0D9D1DD8CF86E04C
:1038A000F801A8E7B8E001900D928A95E1F7CCCE37
:1038B0004D875E878D859E850E94D119811168CFC5
:1038C00080917D08816080937D08C8010E948C19D9
:1038D000BBCE7C2DD98AC88A6E2D89890E94001A98
:1038E00077CFEE2009F463CF4D875E878D859E8567
:1038F0000E94D119F82E882309F459CF86E0F801E7
:10390000A8E7B8E001900D928A95E1F788E798E082
:103910000E9459160E944E1A1CCF1F93CF93DF931B
:10392000CDB7DEB72C970FB6F894DEBF0FBECDBF74
:103930004F83588769877A878B879C87CE01079644
:103940000E94B91A882309F442C09F8188852A857C
:103950003B85232B39F08F3F19F481E09F3F19F00D
:1039600080E001C081E080FD08C04F8158856985F5
:103970007A858B859C850E940F1A16E080914608F7
:1039800090914708891709F467C0819FC0011124ED
:10399000885B974F0E94B91A882309F45DC0E091B3
:1039A00046081E9FF0011124E85BF74F40815181CA
:1039B00062817381848195810E940F1A80914608EB
:1039C00090E001968770992780934608D7CF86E0CC
:1039D000FE013796DE01119601900D928A95E1F76E
:1039E0009F8188852A853B85232B39F08F3F19F4E9
:1039F00081E09F3F19F080E001C081E080FDBDCFF4
:103A00002091470830E0C9010196877099274091BD
:103A100046084817190699F096E0929FD001939FA7
:103A2000B00D1124A85BB74FFE01319601900D92A5
:103A30009A95E1F7809347080E941F1A9ECF0E9433
:103A4000CD19109247081092460886E0E8E7F8E0A2
:103A5000DF011D928A95E9F72C960FB6F894DEBF28
:103A60000FBECDBFDF91CF911F910895EF92FF92CE
:103A70000F931F93CF93DF938C01892B81F0F12C4F
:103A8000EE24E394E8012196F8018491843770F4E0
:103A9000843008F05FC08130B1F08230A1F1DF9155
:103AA000CF911F910F91FF90EF900895853709F402
:103AB0004CC008F43DC09CE7980F903780F78F7793
:103AC0000E94111749C00E5F1F4FFE01849190E2C2
:103AD000980F983060F48770FE2D01C0FF0F8A9513
:103AE000EAF78F2F0E9445200E94662002C00E94A4
:103AF0005E168F2D815030F2EFE9FFE03197F1F73C
:103B000000C00000F7CF0E5F1F4FFE01849190E2CE
:103B1000980F983050F48770FE2D01C0FF0F8A95E2
:103B2000EAF78F2F0E944B20DFCF0E941117E1CFC1
:103B30000E5F1F4FFE01C491C150D8F28FE99FE084
:103B40000197F1F700C00000F7CF0E5F1F4FFE0195
:103B5000F490CFCF0E945E168E01CBCF08950E94C5
:103B6000AE1D6093A5087093A6088093A708909354
:103B7000A8080C94BD1908950C94AF1D0F931F93C2
:103B80000091A5081091A6082091A7083091A808D7
:103B9000602B712B822B932B1F910F910C94AF1DD7
:103BA0000F931F930091A5081091A6082091A708D4
:103BB0003091A80860237123822393231F910F91D2
:103BC0000C94AF1D0F931F930091A5081091A608A8
:103BD0002091A7083091A808602771278227932792
:103BE0001F910F910C94AF1D0C94AE1D0C94F41DFD
:103BF0000E94F61D6093A1087093A2088093A30809
:103C00009093A4080C94BD1960E070E0CB010C9473
:103C1000F81D0F931F9341E050E060E070E08A01CF
:103C20009B0104C0000F111F221F331F8A95D2F77A
:103C3000C901B8011F910F910C94F81D0F931F93A8
:103C400041E050E060E070E004C0440F551F661F83
:103C5000771F8A95D2F78091A1089091A208A09130
:103C6000A308B091A4088A019B01082B192B2A2BC9
:103C70003B2BC901B8011F910F910C94F81D0F93B4
:103C80001F9341E050E060E070E004C0440F551F16
:103C9000661F771F8A95D2F7CB01BA0160957095A0
:103CA000809590950091A1081091A2082091A308F9
:103CB0003091A40860237123822393231F910F91D5
:103CC0000C94F81D0F931F9341E050E060E070E00A
:103CD00004C0440F551F661F771F8A95D2F7809145
:103CE000A1089091A208A091A308B091A4088A010C
:103CF0009B01082719272A273B27C901B8011F91D3
:103D00000F910C94F81D0F931F930091A10810912F
:103D1000A2082091A3083091A408602B712B822B5C
:103D2000932B1F910F910C94F81D0F931F930091EB
:103D3000A1081091A2082091A3083091A408602343
:103D40007123822393231F910F910C94F81D0F93DD
:103D50001F930091A1081091A2082091A30830910F
:103D6000A40860277127822793271F910F910C9435
:103D7000F81D08952AE0929F800D1124982F9770C6
:103D800071E001C0770F9A95EAF78695869586953A
:103D900025E0829FC001112450E040E0A62FB0E052
:103DA000FC01E40FF51FE258F74F60819D01042EDE
:103DB00002C0369527950A94E2F7217021952627AF
:103DC0002723262720834F5F5F4F4530510541F75A
:103DD00008952AE0929F800D1124982F9770869560
:103DE0008695869525E0829FA001112470E060E011
:103DF00080E0FA01E60FF71FE258F74F208130E02C
:103E0000092E02C0369527950A94E2F721703327D0
:103E1000062E01C0220F0A94EAF7822B6F5F7F4FB4
:103E20006530710531F70895BF92CF92DF92EF921E
:103E3000FF920F931F93CF93DF938C01C090A10843
:103E4000D090A208E090A308F090A4088091A50863
:103E50009091A608A091A708B091A808C82AD92ACD
:103E6000EA2AFB2ACFE1D0E0BC2ED701C6010C2EF6
:103E700004C0B695A795979587950A94D2F780FDCB
:103E80000EC0219788F7B12C8B2DDF91CF911F9118
:103E90000F91FF90EF90DF90CF90BF900895B80101
:103EA0008C2F0E942D08019761F3EECFCF93DF9303
:103EB000EC010E94141FBE01DF91CF910C942D08DC
:103EC0001F93CF93DF93EB0190914508992331F035
:103ED000CB01DF91CF911F910C94561F882379F06D
:103EE000CB010E94141F182F682FCE010E94BA1E0A
:103EF000BE01812FDF91CF911F910C942D08CB0132
:103F00000E94E91E182FF4CF682F80911E04909113
:103F10001F040C946821682F80911E0490911F0447
:103F20000C946A2180911E0490911F040C946C21C2
:103F30000E94FA212091AC083091AD0882179307B6
:103F400078F00E94FA212091AC083091AD08821BD4
:103F5000930B9C0181E0243F314008F480E00895F8
:103F60000E94FA212091AC083091AD08209530953F
:103F7000280F391FEFCF8091AB08859585958595E2
:103F800008958091AB08877008950E94FA212091CE
:103F9000A9083091AA0882179307B0F00E94FA216D
:103FA0002091A9083091AA08821B930B843F91406D
:103FB00018F480E0817008958091AB0882FB882717
:103FC00080F991E08927F6CF0E94FA212091A90873
:103FD0003091AA0820953095820F931FE7CF98E083
:103FE000899F90011124622B6093AB080E941E1ED2
:103FF0000E94FA219093AA088093A90808959091AD
:10400000AB08809589238093AB08282F277081F413
:10401000282F082E000C330B9217130649F08595B4
:10402000859585950E943F1E1092AA081092A908B6
:1040300008959091AB08977081E009F480E00895AD
:104040008091B90808959091B908892B8093B90897
:104050000895982F90958091B90889238093B90885
:1040600008951092B90808959091B808892B80930B
:10407000B8080895982F90958091B8088923809367
:10408000B80808951092B80808959091B708892B40
:104090008093B7080895982F90958091B708892349
:1040A0008093B70808951092B70808958093AE08DA
:1040B0000E94FA219093AD088093AC080895109265
:1040C000AE081092AD081092AC080895E0911E045D
:1040D000F0911F048091B9088083E0911E04F09153
:1040E0001F0480819091B808892B8083E0911E0481
:1040F000F0911F0480819091B708892B8083809173
:10410000AE088823B9F00E94981F81110E945F2099
:10411000E0911E04F0911F0480819091AE08892BDC
:10412000808380911E0490911F040E94342181118C
:104130000E945F2080911E0490911F040C941E1514
:104140008091AE080895CF92DF92EF92FF926C01BA
:10415000EE24FF2420E0C114D104E104F10419F09D
:10416000C701B60120E1C72ED82EE92EFF24C114C5
:10417000D104E104F10419F0285FC701B6016B0115
:104180007C0154E0F694E794D794C7945A95D1F7FC
:10419000C114D104E104F10419F02C5FC701B60188
:1041A0006B017C0142E0F694E794D794C7944A955A
:1041B000D1F7C114D104E104F10419F02E5FC70155
:1041C000B6019695879577956795672B682B692B30
:1041D00009F02F5F822FFF90EF90DF90CF9008952E
:1041E0006DEE7EEF90E080E00E94092E60E082E0BC
:1041F00090E00E94F72D60E083E090E00E94F72DB0
:1042000060E084E090E00E94F72D60E085E090E0BF
:104210000E94F72D6FEF87E090E00C94F72D90E06F
:1042200080E00E94F12D21E08D3E9E4F09F020E0BC
:10423000822F089582E090E00C94E92D83E090E0D5
:104240000C94E92D84E090E00C94E92D682F84E033
:1042500090E00C94F72D87E090E00C94E92D682F06
:1042600087E090E00C94F72DFC0131969C01285FCB
:104270003F4F80E0919191118F5FE217F307D1F7E3
:1042800008959C01FC0132969FEF80E04191461712
:1042900051F09F3F19F4411101C0982F8F5F863074
:1042A000A9F79F3F09F40895290F311D97FD3A950D
:1042B000F90162830895FC01329608962191261334
:1042C00003C0DF0111971C92E817F907B9F70895A9
:1042D0000C9441210C945B21FC0111821282138207
:1042E00014821582168217820895089508950C94F9
:1042F00076218091D908843049F11092BB0888E179
:1043000090E020E40FB6F894A895809360000FBE6B
:104310002093600080E00E942C060E94772183B7E2
:10432000817F846083BF83B7816083BF78948895E1
:1043300083B78E7F83BF0FB6F894A89580916000F5
:10434000886180936000109260000FBE0895089508
:10435000CF930E9475210E9497020E94A721C0E07E
:104360008C2F0E94FF02892B31F4CF5FC530C1F73B
:1043700080E0CF91089581E0FCCF08950C94BD2199
:104380000E94CD190E9412150E942C060C94BE2189
:104390001F920F920FB60F9211248F939F93AF939A
:1043A000BF938091BB08811113C08091CF08909179
:1043B000D008A091D108B091D2084196A11DB11D9D
:1043C0008093CF089093D008A093D108B093D208DF
:1043D000BF91AF919F918F910F900FBE0F901F9043
:1043E000189582E084BD93E095BD9AEF97BD8093C8
:1043F0006E0008952FB7F8948091CF089091D0085F
:10440000A091D108B091D2082FBF0895CF92DF922A
:10441000EF92FF920F931F932FB7F8944091CF081C
:104420005091D0086091D1087091D2082FBF6A01D5
:104430007B01EE24FF248C0130E020E0C016D10681
:10444000E206F30650F0481B590BCA011F910F9169
:10445000FF90EF90DF90CF90089541505109F3CF36
:1044600078941F920F920FB60F9211248F939F93FF
:10447000AF93BF938091CF089091D008A091D108BD
:10448000B091D2080196A11DB11D8093CF089093E1
:10449000D008A093D108B093D208BF91AF919F915B
:1044A0008F910F900FBE0F901F90189587E797E799
:1044B000909301088093000888E19AE00FB6F89481
:1044C000A895809360000FBE90936000FFCF0E947C
:1044D0000F21811102C00E94F0200E941A218093B6
:1044E000BA080E94222190E09093D4088093D308C8
:1044F0000E941E21682F70E090E080E00C94BC1DAB
:104500008091C408089508950F931F93CF93DF936C
:1045100000D01F92CDB7DEB78C010E949924823063
:1045200011F0843021F583E089831B830A8382E0C4
:104530008093E9008FEF9091E800815095FD06C0CF
:1045400095ED9A95F1F700008111F5CF8091E80083
:1045500085FF0DC050E040E063E070E0CE010196C1
:104560000E94B6248091E8008E778093E8000F9037
:104570000F900F90DF91CF911F910F910895CF93DE
:10458000DF9300D01F92CDB7DEB72091D908243039
:1045900029F522E02983805891099B838A832093FF
:1045A000E9008FEF9091E800815095FD06C095EDF0
:1045B0009A95F1F700008111F5CF8091E80085FF11
:1045C0000DC050E040E063E070E0CE0101960E9433
:1045D000B6248091E8008E778093E8000F900F90CA
:1045E0000F90DF91CF910895CF93DF93EC010E945C
:1045F0009924823011F0843039F581E08093E9000C
:104600008FEF9091E800815095FD06C095ED9A9549
:10461000F1F700008111F5CF8091E80085FF14C00B
:1046200050E040E068E070E0CE010E94B624809146
:10463000E8008E778093E80088E0FE01ACEBB8E0FC
:1046400001900D928A95E1F7DF91CF9108958091C5
:10465000D808811109C00E9446260E94A326809195
:10466000E20084608093E20008951092D8080895D3
:10467000089508950C94C02142E061EC81E00E940D
:10468000C42542E061EC82E00C94C4258091DB08F3
:10469000833009F452C030F4813059F1823009F48A
:1046A0008EC008958A3009F47AC08B3009F460C056
:1046B000893009F041C08091DA088132E9F58091B2
:1046C000DE089091DF08892BB9F58091E800877F9B
:1046D0008093E8008091E80082FF2AC08091F10079
:1046E0008093C4088091E8008B778093E8000C9455
:1046F000F8258091DA08813AF9F48091E800877F03
:104700008093E8008091DE089091DF08892B61F4A6
:1047100068E08CEB98E070E00E9405258091E8004D
:104720008B778093E800089560E090E080E0F3CF1D
:104730008091D9088111CECF08958091DA08813A0D
:10474000D9F78091DE089091DF08892BA9F7809135
:10475000E800877F8093E8008091E80080FFFCCF2D
:1047600080912A048093F1008091E8008E77BDCF7C
:104770008091DA08813201F78091DE089091DF089C
:10478000892BD1F68091E800877F8093E8000E9412
:10479000F8258091DC0880932A040C94CD1980912F
:1047A000DA08813249F68091E800877F8093E8003B
:1047B0000E94F8258091DD088093C50808958091B6
:1047C000DA08813A09F0B8CF8091E800877F8093BA
:1047D000E8008091E80080FFFCCF8091C508C2CF3F
:1047E00084B7877F84BF0FB6F894A8958091600046
:1047F000886180936000109260000FBE80E8809313
:104800006100109261000E9456150E9446260E9487
:10481000A3268091E20084608093E20078940E9455
:104820002C290E945A1580E294E00E940D15809177
:10483000D908853019F00E946615F9CF0E947921B8
:104840008091D708882399F30E94A821882379F3BF
:104850000E94A024ECCF0C942D24292F3327233041
:10486000310571F158F421303105E9F0223031057C
:1048700011F190E080E030E020E019C021323105F4
:10488000C1F122323105A9F780E490E025E534E05A
:104890006115710561F086E390E02FE134E061304D
:1048A000710529F0E6CF82E190E02DE034E0FA01D5
:1048B0003183208308958BE390E022ED33E0F7CF3E
:1048C00099278130910579F040F08230910571F09F
:1048D000039779F6E4EAF3E002C0EEECF3E08491AA
:1048E00090E09F01E4CFECEBF3E0F9CFEAEAF3E0EC
:1048F000F6CF89E090E024EE33E061157105B9F25E
:1049000089E090E02DEF33E06130710581F2B1CFA5
:104910000895CF93C82F0E948824C093C608CF91D2
:1049200008958091D908843011F081E0089582E0E3
:1049300008958091C608811102C00C9491240895B5
:1049400080E189BD82E189BD09B400FEFDCF80917F
:10495000D8008F7D8093D8008091E00082608093A2
:10496000E0008091E00081FDFCCF0895AF92BF92FE
:10497000CF92DF92FF920F931F93CF93DF936C013F
:10498000EB018A010E941726F82E811123C0011520
:10499000110539F0F80180819181C81BD90BC80E2F
:1049A000D91EB12CA12C2097A9F08091E80085FD9B
:1049B00022C08091E8008E778093E80001151105F0
:1049C000A1F0F80180819181A80EB91EB182A08268
:1049D00085E0F82E8F2DDF91CF911F910F91FF90E1
:1049E000DF90CF90BF90AF9008950E941726882344
:1049F000D1F2F82EEFCFF60181916F018093F10093
:104A00002197FFEFAF1ABF0ACECFFC018091E008DB
:104A10009091E10886179707A0F06115710529F4B8
:104A20009091E8009E779093E80090E06115710501
:104A300051F4911108C08091E80082FF35C080E0F8
:104A40000895BC01F2CF8091D9088823C9F185303F
:104A5000C9F18091E80083FD31C08091E80082FDBA
:104A6000EACF8091E80080FFE1CF2091F3008091B0
:104A7000F200322F282F6115710519F02830310509
:104A800058F091E02830310509F090E02091E800DD
:104A90002E772093E800CACF81918093F100615076
:104AA00071092F5F3F4FE7CF8091D908882341F0EC
:104AB000853041F08091E80083FFBDCF81E008950B
:104AC00082E0089583E00895FC018091E0089091D0
:104AD000E10886179707A0F06115710529F4809108
:104AE000E8008E778093E80090E06115710551F43D
:104AF000911108C08091E80082FF36C080E00895DF
:104B0000BC01F2CF8091D9088823D1F18530D1F151
:104B10008091E80083FD32C08091E80082FDEACFF9
:104B20008091E80080FFE1CF2091F3008091F200B6
:104B3000322F282F6115710519F02830310558F0F2
:104B400091E02830310509F090E08091E8008E77FF
:104B50008093E800CACF84918093F1003196615030
:104B600071092F5F3F4FE6CF8091D908882341F02C
:104B7000853041F08091E80083FFBCCF81E008954B
:104B800082E0089583E00895982F973028F08F7081
:104B90008093E90081E008959093E900242F762F17
:104BA00050E0981731F07091EC002091ED00509199
:104BB000F00021FD02C09F5FE8CF3091EB003E7F07
:104BC0003093EB003091ED003D7F3093ED0030915C
:104BD000EB0031603093EB007093EC002093ED001C
:104BE0005093F0002091EE0027FDE5CF80E008957E
:104BF0008091DA0887FF13C08091E80082FF06C029
:104C00008091E8008B778093E80004C08091D908F8
:104C10008111F2CF08958091D9088823D9F380912A
:104C2000E80080FFF8CF8091E8008E77ECCF2091EC
:104C3000E4003091E50085E69091EC0090FF06C01D
:104C40009091E80090FF06C080E008959091E80000
:104C500092FDFACF9091D908992391F0953091F077
:104C60009091EB0095FD10C04091E4005091E5005B
:104C70002417350709F381509A01F1F684E008956D
:104C800082E0089583E0089581E008950E94B426AB
:104C90000E94BC26E0EEF0E0808181608083E8ED38
:104CA000F0E080818F77808319BCA7EDB0E08C9114
:104CB0008E7F8C9380818F7E80831092D808089598
:104CC0000F931F93CF93DF930E94B4260E94BC26BC
:104CD000C8EDD0E088818F77888388818068888359
:104CE00088818F7D888319BC1092D9081092D508CD
:104CF0001092D7081092D60800EE10E0F8018081DB
:104D00008B7F808388818160888342E060E080E0DF
:104D10000E94C425E1EEF0E080818E7F8083E2EE88
:104D2000F0E0808181608083808188608083F801E9
:104D300080818E7F8083888180618883DF91CF919D
:104D40001F910F910895E8EDF0E080818F7E8083C0
:104D5000E7EDF0E080818160808384E082BF81E0C4
:104D60008093D8080C946026E8EDF0E080818E7F77
:104D700080831092E20008951092DA001092E10010
:104D800008951F920F920FB60F9211242F933F9305
:104D90004F935F936F937F938F939F93AF93BF9343
:104DA000EF93FF938091E10082FF0BC08091E200BE
:104DB00082FF07C08091E1008B7F8093E1000E9419
:104DC0002B298091DA0080FF19C08091D80080FFE4
:104DD00015C08091DA008E7F8093DA008091D9002F
:104DE00080FF94C080E189BD82E189BD09B400FEE5
:104DF000FDCF81E08093D9080E9427238091E100B4
:104E000080FF19C08091E20080FF15C08091E20010
:104E10008E7F8093E2008091E20080618093E200C7
:104E20008091D80080628093D80019BC85E080937F
:104E3000D9080E9439238091E10084FF29C0809124
:104E4000E20084FF25C080E189BD82E189BD09B40B
:104E500000FEFDCF8091D8008F7D8093D800809197
:104E6000E1008F7E8093E1008091E2008F7E80934D
:104E7000E2008091E20081608093E2008091D50899
:104E8000882309F449C084E08093D9080E943A231A
:104E90008091E10083FF29C08091E20083FF25C05B
:104EA0008091E100877F8093E10082E08093D908C0
:104EB0001092D5088091E1008E7F8093E10080916F
:104EC000E2008E7F8093E2008091E2008061809317
:104ED000E20042E060E080E00E94C4258091F000A2
:104EE00088608093F0000E943823FF91EF91BF917A
:104EF000AF919F918F917F916F915F914F913F9172
:104F00002F910F900FBE0F901F90189519BC109203
:104F1000D9080E94352372CF8091E30087FD02C03B
:104F200081E0B2CF83E0B0CF1F920F920FB60F9205
:104F300011242F933F934F935F936F937F938F939E
:104F40009F93AF93BF93CF93EF93FF93C091E900EB
:104F5000CF708091EC001092E9008091F000877F83
:104F60008093F00078940E94D0271092E9008091FD
:104F7000F00088608093F000C093E900FF91EF910A
:104F8000CF91BF91AF919F918F917F916F915F91E1
:104F90004F913F912F910F900FBE0F901F9018953A
:104FA0001F93CF93DF93CDB7DEB7AA970FB6F894D0
:104FB000DEBF0FBECDBFEAEDF8E08091F100819336
:104FC00028E0E23EF207C9F70E9446238091E800FC
:104FD00083FF44C08091DA089091DB089A3008F092
:104FE0003DC0E92FF0E0E950F84D0C94872D0128E1
:104FF00027282E2827282E288528A7282E28FE286F
:105000000B29803889F0823849F58091DE088F704D
:10501000873020F58093E9008091EB0085FB88279D
:1050200080F91092E90006C08091D6089091D708C7
:10503000911182609091E800977F9093E8008093AF
:10504000F1001092F1008091E8008E772DC0282F9A
:105050002D7F21F48823D1F0823059F18091E8002E
:1050600083FF0AC08091E800877F8093E8008091E9
:10507000EB0080628093EB00AA960FB6F894DEBF37
:105080000FBECDBFDF91CF911F9108958091DC08B5
:10509000813021F7933009F080E08093D708109297
:1050A000E9008091E800877F8093E8000E94F8255E
:1050B000D5CF8091DC088111F2CF8091DE088F700E
:1050C0002FEF280F263050F68093E9002091EB0057
:1050D00020FFE5CF933031F48091EB008062809324
:1050E000EB00DDCF9091EB0090619093EB0021E01D
:1050F00030E001C0220F8A95EAF72093EA0010926F
:10510000EA008091EB008860EACF8111A7CF10916F
:10511000DC081F778091E3008078812B8093E30087
:105120008091E800877F8093E8000E94F8258091B5
:10513000E80080FFFCCF8091E30080688093E3006B
:1051400083E0111101C082E08093D90887CF805895
:10515000823008F083CF8091DC089091DD088C3D8F
:1051600023E09207A1F583E08A838AE289834FB71F
:10517000F894DE01139620E03EE051E2E32FF0E0E8
:1051800050935700E49120FF03C0E295EF703F5F1A
:10519000EF708E2F90E0EA30C0F0C7968D939D930C
:1051A0002F5F243159F74FBF8091E800877F8093AC
:1051B000E8006AE270E0CE0101960E940525809128
:1051C000E8008B778093E80049CFC096E7CF6091E5
:1051D000DE087091DF08AE014F5F5F4F0E942B2405
:1051E000BC01892B09F43ACF9091E800977F909306
:1051F000E80089819A810E946425E1CF803809F016
:105200002DCF8091E800877F8093E8008091D508BA
:105210008093F10018CF811121CF9091DC0892305A
:1052200008F01CCF8091E800877F8093E80090937E
:10523000D5080E94F8258091D508882331F084E0B4
:105240008093D9080E943C2309CF8091E30087FD19
:10525000F6CF81E0F5CF0895CF938091D9088823C8
:1052600099F0C091E900CF708091EC0080FD0EC0F4
:1052700080E0C82B1092E9008091E80083FD0E9435
:10528000D027CF70C093E900CF91089580E8F1CF87
:105290005058BB27AA270E9460290C943C2B0E94DF
:1052A0002E2B38F00E94352B20F039F49F3F19F453
:1052B00026F40C942B2B0EF4E095E7FB0C94172BA3
:1052C000E92F0E944D2B58F3BA1762077307840722
:1052D000950720F079F4A6F50C946F2B0EF4E09569
:1052E0000B2EBA2FA02D0B01B90190010C01CA01A0
:1052F000A0011124FF27591B99F0593F50F4503E4B
:1053000068F11A16F040A22F232F342F4427585F3C
:10531000F3CF469537952795A795F0405395C9F754
:105320007EF41F16BA0B620B730B840BBAF091500C
:10533000A1F0FF0FBB1F661F771F881FC2F70EC0AB
:10534000BA0F621F731F841F48F48795779567957E
:10535000B795F7959E3F08F0B0CF9395880F08F06A
:105360009927EE0F9795879508950E94F32A08F4E0
:1053700081E008950E94CE290C943C2B0E94352B8D
:1053800058F00E942E2B40F029F45F3F29F00C9436
:10539000172B51110C94702B0C942B2B0E944D2B1E
:1053A00068F39923B1F3552391F3951B550BBB2754
:1053B000AA2762177307840738F09F5F5F4F220F99
:1053C000331F441FAA1FA9F335D00E2E3AF0E0E890
:1053D00032D091505040E695001CCAF72BD0FE2FDA
:1053E00029D0660F771F881FBB1F2617370748076E
:1053F000AB07B0E809F0BB0B802DBF01FF27935826
:105400005F4F3AF09E3F510578F00C94172B0C94A7
:10541000702B5F3FE4F3983ED4F3869577956795BC
:10542000B795F7959F5FC9F7880F911D969587955A
:1054300097F90895E1E0660F771F881FBB1F621779
:1054400073078407BA0720F0621B730B840BBA0B37
:10545000EE1F88F7E09508950E94332A6894B111F1
:105460000C94702B08950E94552B88F09F5798F04C
:10547000B92F9927B751B0F0E1F0660F771F881F59
:10548000991F1AF0BA95C9F714C0B13091F00E9473
:105490006F2BB1E008950C946F2B672F782F88271E
:1054A000B85F39F0B93FCCF3869577956795B3959A
:1054B000D9F73EF490958095709561957F4F8F4F09
:1054C0009F4F0895E89409C097FB3EF4909580950E
:1054D000709561957F4F8F4F9F4F9923A9F0F92FBA
:1054E00096E9BB279395F695879577956795B79538
:1054F000F111F8CFFAF4BB0F11F460FF1BC06F5F1E
:105500007F4F8F4F9F4F16C0882311F096E911C02F
:10551000772321F09EE8872F762F05C0662371F050
:1055200096E8862F70E060E02AF09A95660F771F64
:10553000881FDAF7880F9695879597F908950E9446
:105540002E2B20F019F00E94352B50F40C942B2BAD
:105550000C94702BE92F0E944D2B88F35523B1F347
:10556000E7FB6217730784079507A8F189F3E92F12
:10557000FF2788232AF03197660F771F881FDAF7F5
:10558000952F5527442332F091505040220F331F5E
:10559000441FD2F7BB27E91BF50B621B730B840B6F
:1055A000B109B1F222F4620F731F841FB11D31974C
:1055B0002AF0660F771F881FBB1FEFCF9150504016
:1055C00062F041F0882332F0660F771F881F9150F8
:1055D0005040C1F793950C941D2B86957795679550
:1055E0009F5FD9F7F7CF990F0008550FAA0BE0E896
:1055F000FEEF16161706E807F907C0F01216130695
:10560000E407F50798F0621B730B840B950B39F4D4
:105610000A2661F0232B242B252B21F408950A263A
:1056200009F4A140A6958FEF811D811D089597F97A
:105630009F6780E870E060E008959F3F31F09150EF
:1056400020F4879577956795B795880F911D969566
:10565000879597F908959FEF80EC089500240A94A8
:105660001616170618060906089500240A9412163D
:105670001306140605060895092E0394000C11F470
:10568000882352F0BB0F40F4BF2B11F460FF04C01D
:105690006F5F7F4F8F4F9F4F089557FD9058440F76
:1056A000551F59F05F3F71F04795880F97FB991F81
:1056B00061F09F3F79F0879508951216130614063E
:1056C000551FF2CF4695F1DF08C0161617061806CB
:1056D000991FF1CF86957105610508940895E894A6
:1056E000BB2766277727CB0197F908950E94F32AF5
:1056F00008F48FEF08950E948E2B0C943C2B0E948F
:105700002E2B38F00E94352B20F0952311F00C94AD
:10571000172B0C942B2B11240C94702B0E944D2BC7
:1057200070F3959FC1F3950F50E0551F629FF001F4
:10573000729FBB27F00DB11D639FAA27F00DB11D0D
:10574000AA1F649F6627B00DA11D661F829F222796
:10575000B00DA11D621F739FB00DA11D621F839F1D
:10576000A00D611D221F749F3327A00D611D231FF3
:10577000849F600D211D822F762F6A2F11249F5741
:1057800050409AF0F1F088234AF0EE0FFF1FBB1F44
:10579000661F771F881F91505040A9F79E3F510503
:1057A00080F00C94172B0C94702B5F3FE4F3983E21
:1057B000D4F3869577956795B795F795E7959F5FAD
:1057C000C1F7FE2B880F911D9695879597F908953F
:1057D000FA01EE0FFF1F309621053105A1F1611589
:1057E000710561F48038BFE39B0749F168949038F4
:1057F000810561F08038BFEF9B0741F099234AF59E
:10580000FF3FE1053105210519F1E8940894E7957A
:10581000D901AA2329F4AB2FBE2FF85FD0F310C013
:10582000FF5F70F4A695E0F7F73950F019F0FF3AF2
:1058300038F49F779F930DD00F9007FC90580895F0
:1058400046F00C942B2B60E070E080E89FE3089515
:105850004FE79F775F934F933F932F930E94E32CE3
:105860002F913F914F915F910E947B2B0C94402C84
:1058700029F416F00C94172B0C946F2B0C942B2BF3
:105880000E94552BA8F39638A0F707F80F92E894DA
:105890002BE33AEA48EB5FE70E94912B0F920F92BD
:1058A0000F924DB75EB70F920E942B2DECEAF0E0FD
:1058B0000E94722C4F915F91EF91FF91E595EE1F41
:1058C000FF1F49F0FE57E0684427EE0F441FFA958A
:1058D000E1F74195550B0E94A52C0F9007FE0C9403
:1058E000992C0895DF93CF931F930F93FF92EF921C
:1058F000DF927B018C01689406C0DA2EEF010E94D2
:105900008E2BFE01E894A5912591359145915591F5
:10591000A6F3EF010E946029FE019701A801DA9425
:1059200069F7DF90EF90FF900F911F91CF91DF917A
:1059300008959B01AC0160E070E080E89FE30C9467
:10594000BA290C94172B0C941D2B0E94552BD8F3BD
:105950009923C9F3940F511DA3F39150504094F033
:1059600059F0882332F0660F771F881F91505040FE
:10597000C1F79E3F51052CF7880F911D969587958D
:1059800097F908955F3FACF0983E9CF0BB27869551
:1059900077956795B79508F4B1609395C1F7BB0FFC
:1059A00058F711F460FFE8CF6F5F7F4F8F4F9F4F25
:1059B000E3CF0C94702B16F00C941D2B0C942B2B16
:1059C00068940C94172B0E94552BA8F39923C1F3CC
:1059D000AEF3DF93CF931F930F93FF92C92FDD2771
:1059E00088232AF02197660F771F881FDAF720E0B7
:1059F00030E040E85FEB9FE3883920F0803E38F0EC
:105A000021968F770E944929E4EDF0E004C00E94BE
:105A10004929E1E0F1E00E94722C8B01BE01EC010A
:105A2000FB2E6F5771097595771F880B990B0E9494
:105A3000642A28E132E741E35FE30E948E2BAF2D19
:105A40009801AE01FF900F911F91CF91DF910E94BD
:105A500060290C943C2BFA01DC01AA0FBB1F9B01AF
:105A6000AC01BF5728F4222733274427507820C0A1
:105A7000B75190F4AB2F0024469537952795011C1C
:105A8000A395D2F3002071F0220F331F441FB3956A
:105A9000DAF30ED00C94482961307105A0E88A072A
:105AA000B94630F49B01AC016627772788279078A8
:105AB000309621F020833183428353830895AA1BBB
:105AC000BB1B51E107C0AA1FBB1FA617B70710F0E9
:105AD000A61BB70B881F991F5A95A9F7809590951B
